{
  "_format": "hh-sol-artifact-1",
  "contractName": "SpacePoggers",
  "sourceName": "contracts/SpacePoggers.sol",
  "abi": [
    {
      "inputs": [
        {
          "internalType": "string",
          "name": "_initBaseURI",
          "type": "string"
        }
      ],
      "stateMutability": "nonpayable",
      "type": "constructor"
    },
    {
      "anonymous": false,
      "inputs": [
        {
          "indexed": true,
          "internalType": "address",
          "name": "owner",
          "type": "address"
        },
        {
          "indexed": true,
          "internalType": "address",
          "name": "approved",
          "type": "address"
        },
        {
          "indexed": true,
          "internalType": "uint256",
          "name": "tokenId",
          "type": "uint256"
        }
      ],
      "name": "Approval",
      "type": "event"
    },
    {
      "anonymous": false,
      "inputs": [
        {
          "indexed": true,
          "internalType": "address",
          "name": "owner",
          "type": "address"
        },
        {
          "indexed": true,
          "internalType": "address",
          "name": "operator",
          "type": "address"
        },
        {
          "indexed": false,
          "internalType": "bool",
          "name": "approved",
          "type": "bool"
        }
      ],
      "name": "ApprovalForAll",
      "type": "event"
    },
    {
      "anonymous": false,
      "inputs": [
        {
          "indexed": true,
          "internalType": "address",
          "name": "previousOwner",
          "type": "address"
        },
        {
          "indexed": true,
          "internalType": "address",
          "name": "newOwner",
          "type": "address"
        }
      ],
      "name": "OwnershipTransferred",
      "type": "event"
    },
    {
      "anonymous": false,
      "inputs": [],
      "name": "SaleStarted",
      "type": "event"
    },
    {
      "anonymous": false,
      "inputs": [],
      "name": "SaleStopped",
      "type": "event"
    },
    {
      "anonymous": false,
      "inputs": [
        {
          "indexed": false,
          "internalType": "uint256",
          "name": "supply",
          "type": "uint256"
        }
      ],
      "name": "TokenMinted",
      "type": "event"
    },
    {
      "anonymous": false,
      "inputs": [
        {
          "indexed": true,
          "internalType": "address",
          "name": "from",
          "type": "address"
        },
        {
          "indexed": true,
          "internalType": "address",
          "name": "to",
          "type": "address"
        },
        {
          "indexed": true,
          "internalType": "uint256",
          "name": "tokenId",
          "type": "uint256"
        }
      ],
      "name": "Transfer",
      "type": "event"
    },
    {
      "inputs": [],
      "name": "MAX_SUPPLY",
      "outputs": [
        {
          "internalType": "uint256",
          "name": "",
          "type": "uint256"
        }
      ],
      "stateMutability": "view",
      "type": "function"
    },
    {
      "inputs": [],
      "name": "POGGERS_PROVENANCE",
      "outputs": [
        {
          "internalType": "string",
          "name": "",
          "type": "string"
        }
      ],
      "stateMutability": "view",
      "type": "function"
    },
    {
      "inputs": [],
      "name": "TIER1_NUM_TOKENS",
      "outputs": [
        {
          "internalType": "uint256",
          "name": "",
          "type": "uint256"
        }
      ],
      "stateMutability": "view",
      "type": "function"
    },
    {
      "inputs": [],
      "name": "TIER1_PRICE",
      "outputs": [
        {
          "internalType": "uint256",
          "name": "",
          "type": "uint256"
        }
      ],
      "stateMutability": "view",
      "type": "function"
    },
    {
      "inputs": [],
      "name": "_isSaleActive",
      "outputs": [
        {
          "internalType": "bool",
          "name": "",
          "type": "bool"
        }
      ],
      "stateMutability": "view",
      "type": "function"
    },
    {
      "inputs": [],
      "name": "_preRevealURI",
      "outputs": [
        {
          "internalType": "string",
          "name": "",
          "type": "string"
        }
      ],
      "stateMutability": "view",
      "type": "function"
    },
    {
      "inputs": [
        {
          "internalType": "uint256",
          "name": "numPoggers",
          "type": "uint256"
        },
        {
          "internalType": "address",
          "name": "recipient",
          "type": "address"
        }
      ],
      "name": "airdropPogger",
      "outputs": [],
      "stateMutability": "nonpayable",
      "type": "function"
    },
    {
      "inputs": [
        {
          "internalType": "address[]",
          "name": "recipients",
          "type": "address[]"
        }
      ],
      "name": "airdropPoggerToMany",
      "outputs": [],
      "stateMutability": "nonpayable",
      "type": "function"
    },
    {
      "inputs": [
        {
          "internalType": "address",
          "name": "recipient",
          "type": "address"
        }
      ],
      "name": "airdropThirteenthPogger",
      "outputs": [],
      "stateMutability": "nonpayable",
      "type": "function"
    },
    {
      "inputs": [
        {
          "internalType": "address",
          "name": "to",
          "type": "address"
        },
        {
          "internalType": "uint256",
          "name": "tokenId",
          "type": "uint256"
        }
      ],
      "name": "approve",
      "outputs": [],
      "stateMutability": "nonpayable",
      "type": "function"
    },
    {
      "inputs": [
        {
          "internalType": "address",
          "name": "owner",
          "type": "address"
        }
      ],
      "name": "balanceOf",
      "outputs": [
        {
          "internalType": "uint256",
          "name": "",
          "type": "uint256"
        }
      ],
      "stateMutability": "view",
      "type": "function"
    },
    {
      "inputs": [],
      "name": "baseURI",
      "outputs": [
        {
          "internalType": "string",
          "name": "",
          "type": "string"
        }
      ],
      "stateMutability": "view",
      "type": "function"
    },
    {
      "inputs": [],
      "name": "emergencySetOffsetIndexBlock",
      "outputs": [],
      "stateMutability": "nonpayable",
      "type": "function"
    },
    {
      "inputs": [
        {
          "internalType": "uint256",
          "name": "tokenId",
          "type": "uint256"
        }
      ],
      "name": "getApproved",
      "outputs": [
        {
          "internalType": "address",
          "name": "",
          "type": "address"
        }
      ],
      "stateMutability": "view",
      "type": "function"
    },
    {
      "inputs": [
        {
          "internalType": "address",
          "name": "_owner",
          "type": "address"
        }
      ],
      "name": "getPoggersByOwner",
      "outputs": [
        {
          "internalType": "uint256[]",
          "name": "",
          "type": "uint256[]"
        }
      ],
      "stateMutability": "view",
      "type": "function"
    },
    {
      "inputs": [],
      "name": "getTotalSupply",
      "outputs": [
        {
          "internalType": "uint256",
          "name": "",
          "type": "uint256"
        }
      ],
      "stateMutability": "view",
      "type": "function"
    },
    {
      "inputs": [
        {
          "internalType": "address",
          "name": "owner",
          "type": "address"
        },
        {
          "internalType": "address",
          "name": "operator",
          "type": "address"
        }
      ],
      "name": "isApprovedForAll",
      "outputs": [
        {
          "internalType": "bool",
          "name": "",
          "type": "bool"
        }
      ],
      "stateMutability": "view",
      "type": "function"
    },
    {
      "inputs": [],
      "name": "isSaleActive",
      "outputs": [
        {
          "internalType": "bool",
          "name": "",
          "type": "bool"
        }
      ],
      "stateMutability": "view",
      "type": "function"
    },
    {
      "inputs": [],
      "name": "mintPoggerTier1",
      "outputs": [],
      "stateMutability": "payable",
      "type": "function"
    },
    {
      "inputs": [],
      "name": "name",
      "outputs": [
        {
          "internalType": "string",
          "name": "",
          "type": "string"
        }
      ],
      "stateMutability": "view",
      "type": "function"
    },
    {
      "inputs": [],
      "name": "offsetIndex",
      "outputs": [
        {
          "internalType": "uint256",
          "name": "",
          "type": "uint256"
        }
      ],
      "stateMutability": "view",
      "type": "function"
    },
    {
      "inputs": [],
      "name": "offsetIndexBlock",
      "outputs": [
        {
          "internalType": "uint256",
          "name": "",
          "type": "uint256"
        }
      ],
      "stateMutability": "view",
      "type": "function"
    },
    {
      "inputs": [],
      "name": "owner",
      "outputs": [
        {
          "internalType": "address",
          "name": "",
          "type": "address"
        }
      ],
      "stateMutability": "view",
      "type": "function"
    },
    {
      "inputs": [
        {
          "internalType": "uint256",
          "name": "tokenId",
          "type": "uint256"
        }
      ],
      "name": "ownerOf",
      "outputs": [
        {
          "internalType": "address",
          "name": "",
          "type": "address"
        }
      ],
      "stateMutability": "view",
      "type": "function"
    },
    {
      "inputs": [],
      "name": "pauseSale",
      "outputs": [],
      "stateMutability": "nonpayable",
      "type": "function"
    },
    {
      "inputs": [],
      "name": "renounceOwnership",
      "outputs": [],
      "stateMutability": "nonpayable",
      "type": "function"
    },
    {
      "inputs": [
        {
          "internalType": "uint256",
          "name": "numPoggers",
          "type": "uint256"
        }
      ],
      "name": "reservePoggers",
      "outputs": [],
      "stateMutability": "nonpayable",
      "type": "function"
    },
    {
      "inputs": [],
      "name": "revealTimeStamp",
      "outputs": [
        {
          "internalType": "uint256",
          "name": "",
          "type": "uint256"
        }
      ],
      "stateMutability": "view",
      "type": "function"
    },
    {
      "inputs": [
        {
          "internalType": "address",
          "name": "from",
          "type": "address"
        },
        {
          "internalType": "address",
          "name": "to",
          "type": "address"
        },
        {
          "internalType": "uint256",
          "name": "tokenId",
          "type": "uint256"
        }
      ],
      "name": "safeTransferFrom",
      "outputs": [],
      "stateMutability": "nonpayable",
      "type": "function"
    },
    {
      "inputs": [
        {
          "internalType": "address",
          "name": "from",
          "type": "address"
        },
        {
          "internalType": "address",
          "name": "to",
          "type": "address"
        },
        {
          "internalType": "uint256",
          "name": "tokenId",
          "type": "uint256"
        },
        {
          "internalType": "bytes",
          "name": "_data",
          "type": "bytes"
        }
      ],
      "name": "safeTransferFrom",
      "outputs": [],
      "stateMutability": "nonpayable",
      "type": "function"
    },
    {
      "inputs": [
        {
          "internalType": "address",
          "name": "operator",
          "type": "address"
        },
        {
          "internalType": "bool",
          "name": "approved",
          "type": "bool"
        }
      ],
      "name": "setApprovalForAll",
      "outputs": [],
      "stateMutability": "nonpayable",
      "type": "function"
    },
    {
      "inputs": [
        {
          "internalType": "string",
          "name": "_newBaseURI",
          "type": "string"
        }
      ],
      "name": "setBaseURI",
      "outputs": [],
      "stateMutability": "nonpayable",
      "type": "function"
    },
    {
      "inputs": [],
      "name": "setOffsetIndex",
      "outputs": [],
      "stateMutability": "nonpayable",
      "type": "function"
    },
    {
      "inputs": [
        {
          "internalType": "string",
          "name": "preRevealURI",
          "type": "string"
        }
      ],
      "name": "setPreRevealURI",
      "outputs": [],
      "stateMutability": "nonpayable",
      "type": "function"
    },
    {
      "inputs": [
        {
          "internalType": "string",
          "name": "provenanceHash",
          "type": "string"
        }
      ],
      "name": "setProvenanceHash",
      "outputs": [],
      "stateMutability": "nonpayable",
      "type": "function"
    },
    {
      "inputs": [
        {
          "internalType": "uint256",
          "name": "newRevealTimeStamp",
          "type": "uint256"
        }
      ],
      "name": "setRevealTimestamp",
      "outputs": [],
      "stateMutability": "nonpayable",
      "type": "function"
    },
    {
      "inputs": [],
      "name": "startSale",
      "outputs": [],
      "stateMutability": "nonpayable",
      "type": "function"
    },
    {
      "inputs": [
        {
          "internalType": "bytes4",
          "name": "interfaceId",
          "type": "bytes4"
        }
      ],
      "name": "supportsInterface",
      "outputs": [
        {
          "internalType": "bool",
          "name": "",
          "type": "bool"
        }
      ],
      "stateMutability": "view",
      "type": "function"
    },
    {
      "inputs": [],
      "name": "symbol",
      "outputs": [
        {
          "internalType": "string",
          "name": "",
          "type": "string"
        }
      ],
      "stateMutability": "view",
      "type": "function"
    },
    {
      "inputs": [
        {
          "internalType": "uint256",
          "name": "index",
          "type": "uint256"
        }
      ],
      "name": "tokenByIndex",
      "outputs": [
        {
          "internalType": "uint256",
          "name": "",
          "type": "uint256"
        }
      ],
      "stateMutability": "view",
      "type": "function"
    },
    {
      "inputs": [
        {
          "internalType": "address",
          "name": "owner",
          "type": "address"
        },
        {
          "internalType": "uint256",
          "name": "index",
          "type": "uint256"
        }
      ],
      "name": "tokenOfOwnerByIndex",
      "outputs": [
        {
          "internalType": "uint256",
          "name": "",
          "type": "uint256"
        }
      ],
      "stateMutability": "view",
      "type": "function"
    },
    {
      "inputs": [
        {
          "internalType": "uint256",
          "name": "tokenId",
          "type": "uint256"
        }
      ],
      "name": "tokenURI",
      "outputs": [
        {
          "internalType": "string",
          "name": "",
          "type": "string"
        }
      ],
      "stateMutability": "view",
      "type": "function"
    },
    {
      "inputs": [],
      "name": "totalSupply",
      "outputs": [
        {
          "internalType": "uint256",
          "name": "",
          "type": "uint256"
        }
      ],
      "stateMutability": "view",
      "type": "function"
    },
    {
      "inputs": [
        {
          "internalType": "address",
          "name": "from",
          "type": "address"
        },
        {
          "internalType": "address",
          "name": "to",
          "type": "address"
        },
        {
          "internalType": "uint256",
          "name": "tokenId",
          "type": "uint256"
        }
      ],
      "name": "transferFrom",
      "outputs": [],
      "stateMutability": "nonpayable",
      "type": "function"
    },
    {
      "inputs": [
        {
          "internalType": "address",
          "name": "newOwner",
          "type": "address"
        }
      ],
      "name": "transferOwnership",
      "outputs": [],
      "stateMutability": "nonpayable",
      "type": "function"
    },
    {
      "inputs": [],
      "name": "withdraw",
      "outputs": [],
      "stateMutability": "nonpayable",
      "type": "function"
    }
  ],
  "bytecode": "0x60806040526000600a60146101000a81548160ff0219169083151502179055506000600b556000600c5562093a80426200003a919062000556565b600d5560405180602001604052806000815250600e90805190602001906200006492919062000313565b503480156200007257600080fd5b50604051620057a4380380620057a4833981810160405281019062000098919062000435565b6040518060400160405280600d81526020017f537061636520506f6767657273000000000000000000000000000000000000008152506040518060400160405280600281526020017f535000000000000000000000000000000000000000000000000000000000000081525081600090805190602001906200011c92919062000313565b5080600190805190602001906200013592919062000313565b505050620001586200014c6200017060201b60201c565b6200017860201b60201c565b62000169816200023e60201b60201c565b50620006b6565b600033905090565b6000600a60009054906101000a900473ffffffffffffffffffffffffffffffffffffffff16905081600a60006101000a81548173ffffffffffffffffffffffffffffffffffffffff021916908373ffffffffffffffffffffffffffffffffffffffff1602179055508173ffffffffffffffffffffffffffffffffffffffff168173ffffffffffffffffffffffffffffffffffffffff167f8be0079c531659141344cd1fd0a4f28419497f9722a3daafe3b4186f6b6457e060405160405180910390a35050565b6200024e6200017060201b60201c565b73ffffffffffffffffffffffffffffffffffffffff1662000274620002e960201b60201c565b73ffffffffffffffffffffffffffffffffffffffff1614620002cd576040517f08c379a0000000000000000000000000000000000000000000000000000000008152600401620002c490620004bc565b60405180910390fd5b80600f9080519060200190620002e592919062000313565b5050565b6000600a60009054906101000a900473ffffffffffffffffffffffffffffffffffffffff16905090565b8280546200032190620005f3565b90600052602060002090601f01602090048101928262000345576000855562000391565b82601f106200036057805160ff191683800117855562000391565b8280016001018555821562000391579182015b828111156200039057825182559160200191906001019062000373565b5b509050620003a09190620003a4565b5090565b5b80821115620003bf576000816000905550600101620003a5565b5090565b6000620003da620003d48462000512565b620004de565b905082815260208101848484011115620003f357600080fd5b62000400848285620005bd565b509392505050565b600082601f8301126200041a57600080fd5b81516200042c848260208601620003c3565b91505092915050565b6000602082840312156200044857600080fd5b600082015167ffffffffffffffff8111156200046357600080fd5b620004718482850162000408565b91505092915050565b60006200048960208362000545565b91507f4f776e61626c653a2063616c6c6572206973206e6f7420746865206f776e65726000830152602082019050919050565b60006020820190508181036000830152620004d7816200047a565b9050919050565b6000604051905081810181811067ffffffffffffffff8211171562000508576200050762000687565b5b8060405250919050565b600067ffffffffffffffff82111562000530576200052f62000687565b5b601f19601f8301169050602081019050919050565b600082825260208201905092915050565b60006200056382620005b3565b91506200057083620005b3565b9250827fffffffffffffffffffffffffffffffffffffffffffffffffffffffffffffffff03821115620005a857620005a762000629565b5b828201905092915050565b6000819050919050565b60005b83811015620005dd578082015181840152602081019050620005c0565b83811115620005ed576000848401525b50505050565b600060028204905060018216806200060c57607f821691505b6020821081141562000623576200062262000658565b5b50919050565b7f4e487b7100000000000000000000000000000000000000000000000000000000600052601160045260246000fd5b7f4e487b7100000000000000000000000000000000000000000000000000000000600052602260045260246000fd5b7f4e487b7100000000000000000000000000000000000000000000000000000000600052604160045260246000fd5b6150de80620006c66000396000f3fe60806040526004361061027d5760003560e01c8063564566a81161014f578063a22cb465116100c1578063c87b56dd1161007a578063c87b56dd14610919578063d2f9021414610956578063e11c7fb51461096d578063e985e9c514610998578063f2fde38b146109d5578063ffe90ba6146109fe5761027d565b8063a22cb4651461081d578063ad71850514610846578063b66a0e5d14610883578063b88d4fde1461089a578063c4e41b22146108c3578063c6c2ae0b146108ee5761027d565b80637080d6fc116101135780637080d6fc1461071d57806370a0823114610748578063715018a61461078557806371f9c5341461079c5780638da5cb5b146107c757806395d89b41146107f25761027d565b8063564566a8146106385780635c97f89f146106635780636352211e1461068c5780636c0360eb146106c95780636c75ec82146106f45761027d565b806323b872dd116101f35780633ccfd60b116101ac5780633ccfd60b146105645780633dc23a6d1461057b57806342842e0e146105925780634f6ccce7146105bb57806355367ba9146105f857806355f804b31461060f5761027d565b806323b872dd146104775780632a85db55146104a05780632b22da12146104c95780632f745c59146104d3578063306f9d471461051057806332cb6b0c146105395761027d565b8063095ea7b311610245578063095ea7b31461037b57806310969523146103a457806314cf19fe146103cd57806318160ddd146103f85780631ba07240146104235780631e78c1411461044e5761027d565b8063018a2c371461028257806301ffc9a7146102ab5780630293741b146102e857806306fdde0314610313578063081812fc1461033e575b600080fd5b34801561028e57600080fd5b506102a960048036038101906102a49190613d38565b610a29565b005b3480156102b757600080fd5b506102d260048036038101906102cd9190613ca5565b610aaf565b6040516102df91906148b1565b60405180910390f35b3480156102f457600080fd5b506102fd610ac1565b60405161030a91906148cc565b60405180910390f35b34801561031f57600080fd5b50610328610b4f565b60405161033591906148cc565b60405180910390f35b34801561034a57600080fd5b5061036560048036038101906103609190613d38565b610be1565b6040516103729190614828565b60405180910390f35b34801561038757600080fd5b506103a2600480360381019061039d9190613c28565b610c66565b005b3480156103b057600080fd5b506103cb60048036038101906103c69190613cf7565b610d7e565b005b3480156103d957600080fd5b506103e2610e14565b6040516103ef9190614c0e565b60405180910390f35b34801561040457600080fd5b5061040d610e1f565b60405161041a9190614c0e565b60405180910390f35b34801561042f57600080fd5b50610438610e2c565b6040516104459190614c0e565b60405180910390f35b34801561045a57600080fd5b5061047560048036038101906104709190613abd565b610e32565b005b34801561048357600080fd5b5061049e60048036038101906104999190613b22565b610f47565b005b3480156104ac57600080fd5b506104c760048036038101906104c29190613cf7565b610fa7565b005b6104d161103d565b005b3480156104df57600080fd5b506104fa60048036038101906104f59190613c28565b611189565b6040516105079190614c0e565b60405180910390f35b34801561051c57600080fd5b5061053760048036038101906105329190613c64565b61122e565b005b34801561054557600080fd5b5061054e611377565b60405161055b9190614c0e565b60405180910390f35b34801561057057600080fd5b5061057961137d565b005b34801561058757600080fd5b50610590611448565b005b34801561059e57600080fd5b506105b960048036038101906105b49190613b22565b611512565b005b3480156105c757600080fd5b506105e260048036038101906105dd9190613d38565b611532565b6040516105ef9190614c0e565b60405180910390f35b34801561060457600080fd5b5061060d6115c9565b005b34801561061b57600080fd5b5061063660048036038101906106319190613cf7565b61168e565b005b34801561064457600080fd5b5061064d611724565b60405161065a91906148b1565b60405180910390f35b34801561066f57600080fd5b5061068a60048036038101906106859190613d61565b61173b565b005b34801561069857600080fd5b506106b360048036038101906106ae9190613d38565b611861565b6040516106c09190614828565b60405180910390f35b3480156106d557600080fd5b506106de611913565b6040516106eb91906148cc565b60405180910390f35b34801561070057600080fd5b5061071b60048036038101906107169190613d38565b6119a1565b005b34801561072957600080fd5b50610732611a88565b60405161073f91906148b1565b60405180910390f35b34801561075457600080fd5b5061076f600480360381019061076a9190613abd565b611a9b565b60405161077c9190614c0e565b60405180910390f35b34801561079157600080fd5b5061079a611b53565b005b3480156107a857600080fd5b506107b1611bdb565b6040516107be9190614c0e565b60405180910390f35b3480156107d357600080fd5b506107dc611be1565b6040516107e99190614828565b60405180910390f35b3480156107fe57600080fd5b50610807611c0b565b60405161081491906148cc565b60405180910390f35b34801561082957600080fd5b50610844600480360381019061083f9190613bec565b611c9d565b005b34801561085257600080fd5b5061086d60048036038101906108689190613abd565b611e1e565b60405161087a919061488f565b60405180910390f35b34801561088f57600080fd5b50610898611f18565b005b3480156108a657600080fd5b506108c160048036038101906108bc9190613b71565b611fdd565b005b3480156108cf57600080fd5b506108d861203f565b6040516108e59190614c0e565b60405180910390f35b3480156108fa57600080fd5b5061090361204e565b60405161091091906148cc565b60405180910390f35b34801561092557600080fd5b50610940600480360381019061093b9190613d38565b6120dc565b60405161094d91906148cc565b60405180910390f35b34801561096257600080fd5b5061096b612164565b005b34801561097957600080fd5b50610982612274565b60405161098f9190614c0e565b60405180910390f35b3480156109a457600080fd5b506109bf60048036038101906109ba9190613ae6565b612279565b6040516109cc91906148b1565b60405180910390f35b3480156109e157600080fd5b506109fc60048036038101906109f79190613abd565b61230d565b005b348015610a0a57600080fd5b50610a13612405565b604051610a209190614c0e565b60405180910390f35b610a3161240b565b73ffffffffffffffffffffffffffffffffffffffff16610a4f611be1565b73ffffffffffffffffffffffffffffffffffffffff1614610aa5576040517f08c379a0000000000000000000000000000000000000000000000000000000008152600401610a9c90614ace565b60405180910390fd5b80600d8190555050565b6000610aba82612413565b9050919050565b60108054610ace90614ed3565b80601f0160208091040260200160405190810160405280929190818152602001828054610afa90614ed3565b8015610b475780601f10610b1c57610100808354040283529160200191610b47565b820191906000526020600020905b815481529060010190602001808311610b2a57829003601f168201915b505050505081565b606060008054610b5e90614ed3565b80601f0160208091040260200160405190810160405280929190818152602001828054610b8a90614ed3565b8015610bd75780601f10610bac57610100808354040283529160200191610bd7565b820191906000526020600020905b815481529060010190602001808311610bba57829003601f168201915b5050505050905090565b6000610bec8261248d565b610c2b576040517f08c379a0000000000000000000000000000000000000000000000000000000008152600401610c2290614aae565b60405180910390fd5b6004600083815260200190815260200160002060009054906101000a900473ffffffffffffffffffffffffffffffffffffffff169050919050565b6000610c7182611861565b90508073ffffffffffffffffffffffffffffffffffffffff168373ffffffffffffffffffffffffffffffffffffffff161415610ce2576040517f08c379a0000000000000000000000000000000000000000000000000000000008152600401610cd990614b2e565b60405180910390fd5b8073ffffffffffffffffffffffffffffffffffffffff16610d0161240b565b73ffffffffffffffffffffffffffffffffffffffff161480610d305750610d2f81610d2a61240b565b612279565b5b610d6f576040517f08c379a0000000000000000000000000000000000000000000000000000000008152600401610d6690614a2e565b60405180910390fd5b610d7983836124f9565b505050565b610d8661240b565b73ffffffffffffffffffffffffffffffffffffffff16610da4611be1565b73ffffffffffffffffffffffffffffffffffffffff1614610dfa576040517f08c379a0000000000000000000000000000000000000000000000000000000008152600401610df190614ace565b60405180910390fd5b80600e9080519060200190610e1092919061384b565b5050565b66f8b0a10e47000081565b6000600880549050905090565b600c5481565b610e3a61240b565b73ffffffffffffffffffffffffffffffffffffffff16610e58611be1565b73ffffffffffffffffffffffffffffffffffffffff1614610eae576040517f08c379a0000000000000000000000000000000000000000000000000000000008152600401610ea590614ace565b60405180910390fd5b600a60149054906101000a900460ff16158015610ee15750612710610ed1610e1f565b101580610ee05750600d544210155b5b610f20576040517f08c379a0000000000000000000000000000000000000000000000000000000008152600401610f1790614b8e565b60405180910390fd5b6000612710610f2d610e1f565b610f379190614d62565b9050610f4382826125b2565b5050565b610f58610f5261240b565b826125d0565b610f97576040517f08c379a0000000000000000000000000000000000000000000000000000000008152600401610f8e90614b6e565b60405180910390fd5b610fa28383836126ae565b505050565b610faf61240b565b73ffffffffffffffffffffffffffffffffffffffff16610fcd611be1565b73ffffffffffffffffffffffffffffffffffffffff1614611023576040517f08c379a000000000000000000000000000000000000000000000000000000000815260040161101a90614ace565b60405180910390fd5b806010908051906020019061103992919061384b565b5050565b600a60149054906101000a900460ff1661108c576040517f08c379a00000000000000000000000000000000000000000000000000000000081526004016110839061492e565b60405180910390fd5b6127106110aa600161109c610e1f565b61290a90919063ffffffff16565b11156110eb576040517f08c379a00000000000000000000000000000000000000000000000000000000081526004016110e29061498e565b60405180910390fd5b3466f8b0a10e4700001115611135576040517f08c379a000000000000000000000000000000000000000000000000000000000815260040161112c90614bce565b60405180910390fd5b61113e33612920565b6111496001336129b9565b7ff00d28232b285f24f2e38415deb2ceb31069e70d4505838b3911b4f02058502e611172610e1f565b60405161117f9190614c0e565b60405180910390a1565b600061119483611a9b565b82106111d5576040517f08c379a00000000000000000000000000000000000000000000000000000000081526004016111cc906148ee565b60405180910390fd5b600660008473ffffffffffffffffffffffffffffffffffffffff1673ffffffffffffffffffffffffffffffffffffffff168152602001908152602001600020600083815260200190815260200160002054905092915050565b61123661240b565b73ffffffffffffffffffffffffffffffffffffffff16611254611be1565b73ffffffffffffffffffffffffffffffffffffffff16146112aa576040517f08c379a00000000000000000000000000000000000000000000000000000000081526004016112a190614ace565b60405180910390fd5b6127106112c882516112ba610e1f565b61290a90919063ffffffff16565b1115611309576040517f08c379a00000000000000000000000000000000000000000000000000000000081526004016113009061498e565b60405180910390fd5b60005b8151811015611373576113606001838381518110611353577f4e487b7100000000000000000000000000000000000000000000000000000000600052603260045260246000fd5b602002602001015161173b565b808061136b90614f05565b91505061130c565b5050565b61271081565b61138561240b565b73ffffffffffffffffffffffffffffffffffffffff166113a3611be1565b73ffffffffffffffffffffffffffffffffffffffff16146113f9576040517f08c379a00000000000000000000000000000000000000000000000000000000081526004016113f090614ace565b60405180910390fd5b60004790503373ffffffffffffffffffffffffffffffffffffffff166108fc829081150290604051600060405180830381858888f19350505050158015611444573d6000803e3d6000fd5b5050565b61145061240b565b73ffffffffffffffffffffffffffffffffffffffff1661146e611be1565b73ffffffffffffffffffffffffffffffffffffffff16146114c4576040517f08c379a00000000000000000000000000000000000000000000000000000000081526004016114bb90614ace565b60405180910390fd5b6000600b5414611509576040517f08c379a000000000000000000000000000000000000000000000000000000000815260040161150090614a0e565b60405180910390fd5b43600c81905550565b61152d83838360405180602001604052806000815250611fdd565b505050565b600061153c610e1f565b821061157d576040517f08c379a000000000000000000000000000000000000000000000000000000000815260040161157490614bae565b60405180910390fd5b600882815481106115b7577f4e487b7100000000000000000000000000000000000000000000000000000000600052603260045260246000fd5b90600052602060002001549050919050565b6115d161240b565b73ffffffffffffffffffffffffffffffffffffffff166115ef611be1565b73ffffffffffffffffffffffffffffffffffffffff1614611645576040517f08c379a000000000000000000000000000000000000000000000000000000000815260040161163c90614ace565b60405180910390fd5b6000600a60146101000a81548160ff0219169083151502179055507fdf515ab57ec796fd111da4dd488177601b9465ce9c442de16857682b7f10297a60405160405180910390a1565b61169661240b565b73ffffffffffffffffffffffffffffffffffffffff166116b4611be1565b73ffffffffffffffffffffffffffffffffffffffff161461170a576040517f08c379a000000000000000000000000000000000000000000000000000000000815260040161170190614ace565b60405180910390fd5b80600f908051906020019061172092919061384b565b5050565b6000600a60149054906101000a900460ff16905090565b61174361240b565b73ffffffffffffffffffffffffffffffffffffffff16611761611be1565b73ffffffffffffffffffffffffffffffffffffffff16146117b7576040517f08c379a00000000000000000000000000000000000000000000000000000000081526004016117ae90614ace565b60405180910390fd5b6127106117d4836117c6610e1f565b61290a90919063ffffffff16565b1115611815576040517f08c379a000000000000000000000000000000000000000000000000000000000815260040161180c9061498e565b60405180910390fd5b61181f82826129b9565b7ff00d28232b285f24f2e38415deb2ceb31069e70d4505838b3911b4f02058502e611848610e1f565b6040516118559190614c0e565b60405180910390a15050565b6000806002600084815260200190815260200160002060009054906101000a900473ffffffffffffffffffffffffffffffffffffffff169050600073ffffffffffffffffffffffffffffffffffffffff168173ffffffffffffffffffffffffffffffffffffffff16141561190a576040517f08c379a000000000000000000000000000000000000000000000000000000000815260040161190190614a6e565b60405180910390fd5b80915050919050565b600f805461192090614ed3565b80601f016020809104026020016040519081016040528092919081815260200182805461194c90614ed3565b80156119995780601f1061196e57610100808354040283529160200191611999565b820191906000526020600020905b81548152906001019060200180831161197c57829003601f168201915b505050505081565b6119a961240b565b73ffffffffffffffffffffffffffffffffffffffff166119c7611be1565b73ffffffffffffffffffffffffffffffffffffffff1614611a1d576040517f08c379a0000000000000000000000000000000000000000000000000000000008152600401611a1490614ace565b60405180910390fd5b612710611a3a82611a2c610e1f565b61290a90919063ffffffff16565b1115611a7b576040517f08c379a0000000000000000000000000000000000000000000000000000000008152600401611a729061498e565b60405180910390fd5b611a8581336129b9565b50565b600a60149054906101000a900460ff1681565b60008073ffffffffffffffffffffffffffffffffffffffff168273ffffffffffffffffffffffffffffffffffffffff161415611b0c576040517f08c379a0000000000000000000000000000000000000000000000000000000008152600401611b0390614a4e565b60405180910390fd5b600360008373ffffffffffffffffffffffffffffffffffffffff1673ffffffffffffffffffffffffffffffffffffffff168152602001908152602001600020549050919050565b611b5b61240b565b73ffffffffffffffffffffffffffffffffffffffff16611b79611be1565b73ffffffffffffffffffffffffffffffffffffffff1614611bcf576040517f08c379a0000000000000000000000000000000000000000000000000000000008152600401611bc690614ace565b60405180910390fd5b611bd96000612a3c565b565b600d5481565b6000600a60009054906101000a900473ffffffffffffffffffffffffffffffffffffffff16905090565b606060018054611c1a90614ed3565b80601f0160208091040260200160405190810160405280929190818152602001828054611c4690614ed3565b8015611c935780601f10611c6857610100808354040283529160200191611c93565b820191906000526020600020905b815481529060010190602001808311611c7657829003601f168201915b5050505050905090565b611ca561240b565b73ffffffffffffffffffffffffffffffffffffffff168273ffffffffffffffffffffffffffffffffffffffff161415611d13576040517f08c379a0000000000000000000000000000000000000000000000000000000008152600401611d0a906149ce565b60405180910390fd5b8060056000611d2061240b565b73ffffffffffffffffffffffffffffffffffffffff1673ffffffffffffffffffffffffffffffffffffffff16815260200190815260200160002060008473ffffffffffffffffffffffffffffffffffffffff1673ffffffffffffffffffffffffffffffffffffffff16815260200190815260200160002060006101000a81548160ff0219169083151502179055508173ffffffffffffffffffffffffffffffffffffffff16611dcd61240b565b73ffffffffffffffffffffffffffffffffffffffff167f17307eab39ab6107e8899845ad3d59bd9653f200f220920489ca2b5937696c3183604051611e1291906148b1565b60405180910390a35050565b60606000611e2b83611a9b565b905060008167ffffffffffffffff811115611e6f577f4e487b7100000000000000000000000000000000000000000000000000000000600052604160045260246000fd5b604051908082528060200260200182016040528015611e9d5781602001602082028036833780820191505090505b50905060005b82811015611f0d57611eb58582611189565b828281518110611eee577f4e487b7100000000000000000000000000000000000000000000000000000000600052603260045260246000fd5b6020026020010181815250508080611f0590614f05565b915050611ea3565b508092505050919050565b611f2061240b565b73ffffffffffffffffffffffffffffffffffffffff16611f3e611be1565b73ffffffffffffffffffffffffffffffffffffffff1614611f94576040517f08c379a0000000000000000000000000000000000000000000000000000000008152600401611f8b90614ace565b60405180910390fd5b6001600a60146101000a81548160ff0219169083151502179055507f912ee23dde46ec889d6748212cce445d667f7041597691dc89e8549ad8bc0acb60405160405180910390a1565b611fee611fe861240b565b836125d0565b61202d576040517f08c379a000000000000000000000000000000000000000000000000000000000815260040161202490614b6e565b60405180910390fd5b61203984848484612b02565b50505050565b6000612049610e1f565b905090565b600e805461205b90614ed3565b80601f016020809104026020016040519081016040528092919081815260200182805461208790614ed3565b80156120d45780601f106120a9576101008083540402835291602001916120d4565b820191906000526020600020905b8154815290600101906020018083116120b757829003601f168201915b505050505081565b60606120e78261248d565b612126576040517f08c379a000000000000000000000000000000000000000000000000000000000815260040161211d90614b0e565b60405180910390fd5b6000612130612b5e565b90508061213c84612bf0565b60405160200161214d929190614804565b604051602081830303815290604052915050919050565b6000600b54146121a9576040517f08c379a00000000000000000000000000000000000000000000000000000000081526004016121a090614bee565b60405180910390fd5b6000600c5414156121ef576040517f08c379a00000000000000000000000000000000000000000000000000000000081526004016121e690614b4e565b60405180910390fd5b60ff612206600c5443612d9d90919063ffffffff16565b111561223c5761223161271060014361221f9190614de9565b4060001c612db390919063ffffffff16565b600b8190555061225e565b612257612710600c544060001c612db390919063ffffffff16565b600b819055505b6000600b541415612272576001600b819055505b565b600181565b6000600560008473ffffffffffffffffffffffffffffffffffffffff1673ffffffffffffffffffffffffffffffffffffffff16815260200190815260200160002060008373ffffffffffffffffffffffffffffffffffffffff1673ffffffffffffffffffffffffffffffffffffffff16815260200190815260200160002060009054906101000a900460ff16905092915050565b61231561240b565b73ffffffffffffffffffffffffffffffffffffffff16612333611be1565b73ffffffffffffffffffffffffffffffffffffffff1614612389576040517f08c379a000000000000000000000000000000000000000000000000000000000815260040161238090614ace565b60405180910390fd5b600073ffffffffffffffffffffffffffffffffffffffff168173ffffffffffffffffffffffffffffffffffffffff1614156123f9576040517f08c379a00000000000000000000000000000000000000000000000000000000081526004016123f09061494e565b60405180910390fd5b61240281612a3c565b50565b600b5481565b600033905090565b60007f780e9d63000000000000000000000000000000000000000000000000000000007bffffffffffffffffffffffffffffffffffffffffffffffffffffffff1916827bffffffffffffffffffffffffffffffffffffffffffffffffffffffff19161480612486575061248582612dc9565b5b9050919050565b60008073ffffffffffffffffffffffffffffffffffffffff166002600084815260200190815260200160002060009054906101000a900473ffffffffffffffffffffffffffffffffffffffff1673ffffffffffffffffffffffffffffffffffffffff1614159050919050565b816004600083815260200190815260200160002060006101000a81548173ffffffffffffffffffffffffffffffffffffffff021916908373ffffffffffffffffffffffffffffffffffffffff160217905550808273ffffffffffffffffffffffffffffffffffffffff1661256c83611861565b73ffffffffffffffffffffffffffffffffffffffff167f8c5be1e5ebec7d5bd14f71427d1e84f3dd0314c0f7b2291e5b200ac8c7c3b92560405160405180910390a45050565b6125cc828260405180602001604052806000815250612eab565b5050565b60006125db8261248d565b61261a576040517f08c379a0000000000000000000000000000000000000000000000000000000008152600401612611906149ee565b60405180910390fd5b600061262583611861565b90508073ffffffffffffffffffffffffffffffffffffffff168473ffffffffffffffffffffffffffffffffffffffff16148061269457508373ffffffffffffffffffffffffffffffffffffffff1661267c84610be1565b73ffffffffffffffffffffffffffffffffffffffff16145b806126a557506126a48185612279565b5b91505092915050565b8273ffffffffffffffffffffffffffffffffffffffff166126ce82611861565b73ffffffffffffffffffffffffffffffffffffffff1614612724576040517f08c379a000000000000000000000000000000000000000000000000000000000815260040161271b90614aee565b60405180910390fd5b600073ffffffffffffffffffffffffffffffffffffffff168273ffffffffffffffffffffffffffffffffffffffff161415612794576040517f08c379a000000000000000000000000000000000000000000000000000000000815260040161278b906149ae565b60405180910390fd5b61279f838383612f06565b6127aa6000826124f9565b6001600360008573ffffffffffffffffffffffffffffffffffffffff1673ffffffffffffffffffffffffffffffffffffffff16815260200190815260200160002060008282546127fa9190614de9565b925050819055506001600360008473ffffffffffffffffffffffffffffffffffffffff1673ffffffffffffffffffffffffffffffffffffffff16815260200190815260200160002060008282546128519190614d62565b92505081905550816002600083815260200190815260200160002060006101000a81548173ffffffffffffffffffffffffffffffffffffffff021916908373ffffffffffffffffffffffffffffffffffffffff160217905550808273ffffffffffffffffffffffffffffffffffffffff168473ffffffffffffffffffffffffffffffffffffffff167fddf252ad1be2c89b69c2b068fc378daa952ba7f163c4a11628f55a4df523b3ef60405160405180910390a4505050565b600081836129189190614d62565b905092915050565b6129b6816040516024016129349190614828565b6040516020818303038152906040527f2c2ecbc2000000000000000000000000000000000000000000000000000000007bffffffffffffffffffffffffffffffffffffffffffffffffffffffff19166020820180517bffffffffffffffffffffffffffffffffffffffffffffffffffffffff8381831617835250505050612f16565b50565b60006129c3610e1f565b905060005b83811015612a01576129d982612f3f565b6129ee8382846129e99190614d62565b6125b2565b80806129f990614f05565b9150506129c8565b506000600c54148015612a2a5750612710612a1a610e1f565b101580612a295750600d544210155b5b15612a375743600c819055505b505050565b6000600a60009054906101000a900473ffffffffffffffffffffffffffffffffffffffff16905081600a60006101000a81548173ffffffffffffffffffffffffffffffffffffffff021916908373ffffffffffffffffffffffffffffffffffffffff1602179055508173ffffffffffffffffffffffffffffffffffffffff168173ffffffffffffffffffffffffffffffffffffffff167f8be0079c531659141344cd1fd0a4f28419497f9722a3daafe3b4186f6b6457e060405160405180910390a35050565b612b0d8484846126ae565b612b1984848484612fd8565b612b58576040517f08c379a0000000000000000000000000000000000000000000000000000000008152600401612b4f9061490e565b60405180910390fd5b50505050565b6060600f8054612b6d90614ed3565b80601f0160208091040260200160405190810160405280929190818152602001828054612b9990614ed3565b8015612be65780601f10612bbb57610100808354040283529160200191612be6565b820191906000526020600020905b815481529060010190602001808311612bc957829003601f168201915b5050505050905090565b60606000821415612c38576040518060400160405280600181526020017f30000000000000000000000000000000000000000000000000000000000000008152509050612d98565b600082905060005b60008214612c6a578080612c5390614f05565b915050600a82612c639190614db8565b9150612c40565b60008167ffffffffffffffff811115612cac577f4e487b7100000000000000000000000000000000000000000000000000000000600052604160045260246000fd5b6040519080825280601f01601f191660200182016040528015612cde5781602001600182028036833780820191505090505b5090505b60008514612d9157600182612cf79190614de9565b9150600a85612d069190614f4e565b6030612d129190614d62565b60f81b818381518110612d4e577f4e487b7100000000000000000000000000000000000000000000000000000000600052603260045260246000fd5b60200101907effffffffffffffffffffffffffffffffffffffffffffffffffffffffffffff1916908160001a905350600a85612d8a9190614db8565b9450612ce2565b8093505050505b919050565b60008183612dab9190614de9565b905092915050565b60008183612dc19190614f4e565b905092915050565b60007f80ac58cd000000000000000000000000000000000000000000000000000000007bffffffffffffffffffffffffffffffffffffffffffffffffffffffff1916827bffffffffffffffffffffffffffffffffffffffffffffffffffffffff19161480612e9457507f5b5e139f000000000000000000000000000000000000000000000000000000007bffffffffffffffffffffffffffffffffffffffffffffffffffffffff1916827bffffffffffffffffffffffffffffffffffffffffffffffffffffffff1916145b80612ea45750612ea38261316f565b5b9050919050565b612eb583836131d9565b612ec26000848484612fd8565b612f01576040517f08c379a0000000000000000000000000000000000000000000000000000000008152600401612ef89061490e565b60405180910390fd5b505050565b612f118383836133a7565b505050565b60008151905060006a636f6e736f6c652e6c6f679050602083016000808483855afa5050505050565b612fd581604051602401612f539190614c0e565b6040516020818303038152906040527ff5b1bba9000000000000000000000000000000000000000000000000000000007bffffffffffffffffffffffffffffffffffffffffffffffffffffffff19166020820180517bffffffffffffffffffffffffffffffffffffffffffffffffffffffff8381831617835250505050612f16565b50565b6000612ff98473ffffffffffffffffffffffffffffffffffffffff166134bb565b15613162578373ffffffffffffffffffffffffffffffffffffffff1663150b7a0261302261240b565b8786866040518563ffffffff1660e01b81526004016130449493929190614843565b602060405180830381600087803b15801561305e57600080fd5b505af192505050801561308f57506040513d601f19601f8201168201806040525081019061308c9190613cce565b60015b613112573d80600081146130bf576040519150601f19603f3d011682016040523d82523d6000602084013e6130c4565b606091505b5060008151141561310a576040517f08c379a00000000000000000000000000000000000000000000000000000000081526004016131019061490e565b60405180910390fd5b805181602001fd5b63150b7a0260e01b7bffffffffffffffffffffffffffffffffffffffffffffffffffffffff1916817bffffffffffffffffffffffffffffffffffffffffffffffffffffffff191614915050613167565b600190505b949350505050565b60007f01ffc9a7000000000000000000000000000000000000000000000000000000007bffffffffffffffffffffffffffffffffffffffffffffffffffffffff1916827bffffffffffffffffffffffffffffffffffffffffffffffffffffffff1916149050919050565b600073ffffffffffffffffffffffffffffffffffffffff168273ffffffffffffffffffffffffffffffffffffffff161415613249576040517f08c379a000000000000000000000000000000000000000000000000000000000815260040161324090614a8e565b60405180910390fd5b6132528161248d565b15613292576040517f08c379a00000000000000000000000000000000000000000000000000000000081526004016132899061496e565b60405180910390fd5b61329e60008383612f06565b6001600360008473ffffffffffffffffffffffffffffffffffffffff1673ffffffffffffffffffffffffffffffffffffffff16815260200190815260200160002060008282546132ee9190614d62565b92505081905550816002600083815260200190815260200160002060006101000a81548173ffffffffffffffffffffffffffffffffffffffff021916908373ffffffffffffffffffffffffffffffffffffffff160217905550808273ffffffffffffffffffffffffffffffffffffffff16600073ffffffffffffffffffffffffffffffffffffffff167fddf252ad1be2c89b69c2b068fc378daa952ba7f163c4a11628f55a4df523b3ef60405160405180910390a45050565b6133b28383836134ce565b600073ffffffffffffffffffffffffffffffffffffffff168373ffffffffffffffffffffffffffffffffffffffff1614156133f5576133f0816134d3565b613434565b8173ffffffffffffffffffffffffffffffffffffffff168373ffffffffffffffffffffffffffffffffffffffff161461343357613432838261351c565b5b5b600073ffffffffffffffffffffffffffffffffffffffff168273ffffffffffffffffffffffffffffffffffffffff1614156134775761347281613689565b6134b6565b8273ffffffffffffffffffffffffffffffffffffffff168273ffffffffffffffffffffffffffffffffffffffff16146134b5576134b482826137cc565b5b5b505050565b600080823b905060008111915050919050565b505050565b6008805490506009600083815260200190815260200160002081905550600881908060018154018082558091505060019003906000526020600020016000909190919091505550565b6000600161352984611a9b565b6135339190614de9565b9050600060076000848152602001908152602001600020549050818114613618576000600660008673ffffffffffffffffffffffffffffffffffffffff1673ffffffffffffffffffffffffffffffffffffffff168152602001908152602001600020600084815260200190815260200160002054905080600660008773ffffffffffffffffffffffffffffffffffffffff1673ffffffffffffffffffffffffffffffffffffffff168152602001908152602001600020600084815260200190815260200160002081905550816007600083815260200190815260200160002081905550505b6007600084815260200190815260200160002060009055600660008573ffffffffffffffffffffffffffffffffffffffff1673ffffffffffffffffffffffffffffffffffffffff16815260200190815260200160002060008381526020019081526020016000206000905550505050565b6000600160088054905061369d9190614de9565b90506000600960008481526020019081526020016000205490506000600883815481106136f3577f4e487b7100000000000000000000000000000000000000000000000000000000600052603260045260246000fd5b90600052602060002001549050806008838154811061373b577f4e487b7100000000000000000000000000000000000000000000000000000000600052603260045260246000fd5b9060005260206000200181905550816009600083815260200190815260200160002081905550600960008581526020019081526020016000206000905560088054806137b0577f4e487b7100000000000000000000000000000000000000000000000000000000600052603160045260246000fd5b6001900381819060005260206000200160009055905550505050565b60006137d783611a9b565b905081600660008573ffffffffffffffffffffffffffffffffffffffff1673ffffffffffffffffffffffffffffffffffffffff168152602001908152602001600020600083815260200190815260200160002081905550806007600084815260200190815260200160002081905550505050565b82805461385790614ed3565b90600052602060002090601f01602090048101928261387957600085556138c0565b82601f1061389257805160ff19168380011785556138c0565b828001600101855582156138c0579182015b828111156138bf5782518255916020019190600101906138a4565b5b5090506138cd91906138d1565b5090565b5b808211156138ea5760008160009055506001016138d2565b5090565b60006139016138fc84614c5a565b614c29565b9050808382526020820190508285602086028201111561392057600080fd5b60005b85811015613950578161393688826139d6565b845260208401935060208301925050600181019050613923565b5050509392505050565b600061396d61396884614c86565b614c29565b90508281526020810184848401111561398557600080fd5b613990848285614e91565b509392505050565b60006139ab6139a684614cb6565b614c29565b9050828152602081018484840111156139c357600080fd5b6139ce848285614e91565b509392505050565b6000813590506139e58161504c565b92915050565b600082601f8301126139fc57600080fd5b8135613a0c8482602086016138ee565b91505092915050565b600081359050613a2481615063565b92915050565b600081359050613a398161507a565b92915050565b600081519050613a4e8161507a565b92915050565b600082601f830112613a6557600080fd5b8135613a7584826020860161395a565b91505092915050565b600082601f830112613a8f57600080fd5b8135613a9f848260208601613998565b91505092915050565b600081359050613ab781615091565b92915050565b600060208284031215613acf57600080fd5b6000613add848285016139d6565b91505092915050565b60008060408385031215613af957600080fd5b6000613b07858286016139d6565b9250506020613b18858286016139d6565b9150509250929050565b600080600060608486031215613b3757600080fd5b6000613b45868287016139d6565b9350506020613b56868287016139d6565b9250506040613b6786828701613aa8565b9150509250925092565b60008060008060808587031215613b8757600080fd5b6000613b95878288016139d6565b9450506020613ba6878288016139d6565b9350506040613bb787828801613aa8565b925050606085013567ffffffffffffffff811115613bd457600080fd5b613be087828801613a54565b91505092959194509250565b60008060408385031215613bff57600080fd5b6000613c0d858286016139d6565b9250506020613c1e85828601613a15565b9150509250929050565b60008060408385031215613c3b57600080fd5b6000613c49858286016139d6565b9250506020613c5a85828601613aa8565b9150509250929050565b600060208284031215613c7657600080fd5b600082013567ffffffffffffffff811115613c9057600080fd5b613c9c848285016139eb565b91505092915050565b600060208284031215613cb757600080fd5b6000613cc584828501613a2a565b91505092915050565b600060208284031215613ce057600080fd5b6000613cee84828501613a3f565b91505092915050565b600060208284031215613d0957600080fd5b600082013567ffffffffffffffff811115613d2357600080fd5b613d2f84828501613a7e565b91505092915050565b600060208284031215613d4a57600080fd5b6000613d5884828501613aa8565b91505092915050565b60008060408385031215613d7457600080fd5b6000613d8285828601613aa8565b9250506020613d93858286016139d6565b9150509250929050565b6000613da983836147e6565b60208301905092915050565b613dbe81614e1d565b82525050565b6000613dcf82614cf6565b613dd98185614d24565b9350613de483614ce6565b8060005b83811015613e15578151613dfc8882613d9d565b9750613e0783614d17565b925050600181019050613de8565b5085935050505092915050565b613e2b81614e2f565b82525050565b6000613e3c82614d01565b613e468185614d35565b9350613e56818560208601614ea0565b613e5f8161503b565b840191505092915050565b6000613e7582614d0c565b613e7f8185614d46565b9350613e8f818560208601614ea0565b613e988161503b565b840191505092915050565b6000613eae82614d0c565b613eb88185614d57565b9350613ec8818560208601614ea0565b80840191505092915050565b6000613ee1602b83614d46565b91507f455243373231456e756d657261626c653a206f776e657220696e646578206f7560008301527f74206f6620626f756e64730000000000000000000000000000000000000000006020830152604082019050919050565b6000613f47603283614d46565b91507f4552433732313a207472616e7366657220746f206e6f6e20455243373231526560008301527f63656976657220696d706c656d656e74657200000000000000000000000000006020830152604082019050919050565b6000613fad602383614d46565b91507f53616c65206d7573742062652061637469766520746f206d696e7420506f676760008301527f65727300000000000000000000000000000000000000000000000000000000006020830152604082019050919050565b6000614013602683614d46565b91507f4f776e61626c653a206e6577206f776e657220697320746865207a65726f206160008301527f64647265737300000000000000000000000000000000000000000000000000006020830152604082019050919050565b6000614079601c83614d46565b91507f4552433732313a20746f6b656e20616c7265616479206d696e746564000000006000830152602082019050919050565b60006140b9601c83614d46565b91507f53616c6520776f756c6420657863656564206d617820737570706c79000000006000830152602082019050919050565b60006140f9602483614d46565b91507f4552433732313a207472616e7366657220746f20746865207a65726f2061646460008301527f72657373000000000000000000000000000000000000000000000000000000006020830152604082019050919050565b600061415f601983614d46565b91507f4552433732313a20617070726f766520746f2063616c6c6572000000000000006000830152602082019050919050565b600061419f602c83614d46565b91507f4552433732313a206f70657261746f7220717565727920666f72206e6f6e657860008301527f697374656e7420746f6b656e00000000000000000000000000000000000000006020830152604082019050919050565b6000614205601d83614d46565b91507f5374617274696e6720696e64657820697320616c7265616479207365740000006000830152602082019050919050565b6000614245603883614d46565b91507f4552433732313a20617070726f76652063616c6c6572206973206e6f74206f7760008301527f6e6572206e6f7220617070726f76656420666f7220616c6c00000000000000006020830152604082019050919050565b60006142ab602a83614d46565b91507f4552433732313a2062616c616e636520717565727920666f7220746865207a6560008301527f726f2061646472657373000000000000000000000000000000000000000000006020830152604082019050919050565b6000614311602983614d46565b91507f4552433732313a206f776e657220717565727920666f72206e6f6e657869737460008301527f656e7420746f6b656e00000000000000000000000000000000000000000000006020830152604082019050919050565b6000614377602083614d46565b91507f4552433732313a206d696e7420746f20746865207a65726f20616464726573736000830152602082019050919050565b60006143b7602c83614d46565b91507f4552433732313a20617070726f76656420717565727920666f72206e6f6e657860008301527f697374656e7420746f6b656e00000000000000000000000000000000000000006020830152604082019050919050565b600061441d602083614d46565b91507f4f776e61626c653a2063616c6c6572206973206e6f7420746865206f776e65726000830152602082019050919050565b600061445d602983614d46565b91507f4552433732313a207472616e73666572206f6620746f6b656e2074686174206960008301527f73206e6f74206f776e00000000000000000000000000000000000000000000006020830152604082019050919050565b60006144c3602f83614d46565b91507f4552433732314d657461646174613a2055524920717565727920666f72206e6f60008301527f6e6578697374656e7420746f6b656e00000000000000000000000000000000006020830152604082019050919050565b6000614529602183614d46565b91507f4552433732313a20617070726f76616c20746f2063757272656e74206f776e6560008301527f72000000000000000000000000000000000000000000000000000000000000006020830152604082019050919050565b600061458f602083614d46565b91507f5374617274696e6720696e64657820626c6f636b206d757374206265207365746000830152602082019050919050565b60006145cf603183614d46565b91507f4552433732313a207472616e736665722063616c6c6572206973206e6f74206f60008301527f776e6572206e6f7220617070726f7665640000000000000000000000000000006020830152604082019050919050565b6000614635604383614d46565b91507f546865203133746820706f676765722077696c6c206f6e6c792062652061697260008301527f64726f70706564206f6e6365207468652073616c652068617320636f6e636c7560208301527f64656400000000000000000000000000000000000000000000000000000000006040830152606082019050919050565b60006146c1602c83614d46565b91507f455243373231456e756d657261626c653a20676c6f62616c20696e646578206f60008301527f7574206f6620626f756e647300000000000000000000000000000000000000006020830152604082019050919050565b6000614727602183614d46565b91507f4e6f7420656e6f7567682065746865722073656e7420283c302e30372045544860008301527f29000000000000000000000000000000000000000000000000000000000000006020830152604082019050919050565b600061478d602383614d46565b91507f5374617274696e6720696e6465782068617320616c7265616479206265656e2060008301527f73657400000000000000000000000000000000000000000000000000000000006020830152604082019050919050565b6147ef81614e87565b82525050565b6147fe81614e87565b82525050565b60006148108285613ea3565b915061481c8284613ea3565b91508190509392505050565b600060208201905061483d6000830184613db5565b92915050565b60006080820190506148586000830187613db5565b6148656020830186613db5565b61487260408301856147f5565b81810360608301526148848184613e31565b905095945050505050565b600060208201905081810360008301526148a98184613dc4565b905092915050565b60006020820190506148c66000830184613e22565b92915050565b600060208201905081810360008301526148e68184613e6a565b905092915050565b6000602082019050818103600083015261490781613ed4565b9050919050565b6000602082019050818103600083015261492781613f3a565b9050919050565b6000602082019050818103600083015261494781613fa0565b9050919050565b6000602082019050818103600083015261496781614006565b9050919050565b600060208201905081810360008301526149878161406c565b9050919050565b600060208201905081810360008301526149a7816140ac565b9050919050565b600060208201905081810360008301526149c7816140ec565b9050919050565b600060208201905081810360008301526149e781614152565b9050919050565b60006020820190508181036000830152614a0781614192565b9050919050565b60006020820190508181036000830152614a27816141f8565b9050919050565b60006020820190508181036000830152614a4781614238565b9050919050565b60006020820190508181036000830152614a678161429e565b9050919050565b60006020820190508181036000830152614a8781614304565b9050919050565b60006020820190508181036000830152614aa78161436a565b9050919050565b60006020820190508181036000830152614ac7816143aa565b9050919050565b60006020820190508181036000830152614ae781614410565b9050919050565b60006020820190508181036000830152614b0781614450565b9050919050565b60006020820190508181036000830152614b27816144b6565b9050919050565b60006020820190508181036000830152614b478161451c565b9050919050565b60006020820190508181036000830152614b6781614582565b9050919050565b60006020820190508181036000830152614b87816145c2565b9050919050565b60006020820190508181036000830152614ba781614628565b9050919050565b60006020820190508181036000830152614bc7816146b4565b9050919050565b60006020820190508181036000830152614be78161471a565b9050919050565b60006020820190508181036000830152614c0781614780565b9050919050565b6000602082019050614c2360008301846147f5565b92915050565b6000604051905081810181811067ffffffffffffffff82111715614c5057614c4f61500c565b5b8060405250919050565b600067ffffffffffffffff821115614c7557614c7461500c565b5b602082029050602081019050919050565b600067ffffffffffffffff821115614ca157614ca061500c565b5b601f19601f8301169050602081019050919050565b600067ffffffffffffffff821115614cd157614cd061500c565b5b601f19601f8301169050602081019050919050565b6000819050602082019050919050565b600081519050919050565b600081519050919050565b600081519050919050565b6000602082019050919050565b600082825260208201905092915050565b600082825260208201905092915050565b600082825260208201905092915050565b600081905092915050565b6000614d6d82614e87565b9150614d7883614e87565b9250827fffffffffffffffffffffffffffffffffffffffffffffffffffffffffffffffff03821115614dad57614dac614f7f565b5b828201905092915050565b6000614dc382614e87565b9150614dce83614e87565b925082614dde57614ddd614fae565b5b828204905092915050565b6000614df482614e87565b9150614dff83614e87565b925082821015614e1257614e11614f7f565b5b828203905092915050565b6000614e2882614e67565b9050919050565b60008115159050919050565b60007fffffffff0000000000000000000000000000000000000000000000000000000082169050919050565b600073ffffffffffffffffffffffffffffffffffffffff82169050919050565b6000819050919050565b82818337600083830152505050565b60005b83811015614ebe578082015181840152602081019050614ea3565b83811115614ecd576000848401525b50505050565b60006002820490506001821680614eeb57607f821691505b60208210811415614eff57614efe614fdd565b5b50919050565b6000614f1082614e87565b91507fffffffffffffffffffffffffffffffffffffffffffffffffffffffffffffffff821415614f4357614f42614f7f565b5b600182019050919050565b6000614f5982614e87565b9150614f6483614e87565b925082614f7457614f73614fae565b5b828206905092915050565b7f4e487b7100000000000000000000000000000000000000000000000000000000600052601160045260246000fd5b7f4e487b7100000000000000000000000000000000000000000000000000000000600052601260045260246000fd5b7f4e487b7100000000000000000000000000000000000000000000000000000000600052602260045260246000fd5b7f4e487b7100000000000000000000000000000000000000000000000000000000600052604160045260246000fd5b6000601f19601f8301169050919050565b61505581614e1d565b811461506057600080fd5b50565b61506c81614e2f565b811461507757600080fd5b50565b61508381614e3b565b811461508e57600080fd5b50565b61509a81614e87565b81146150a557600080fd5b5056fea26469706673582212203ea414faa802a62b264fb0a9bf82f84f464be54547eb88f8bdc811225a447e4864736f6c63430008000033",
  "linkReferences": {},
  "deployedLinkReferences": {}
}