{
	"data": {
		"bytecode": {
			"linkReferences": {},
			"object": "60806040526000600a60146101000a81548160ff0219169083151502179055506000600b556000600c5562093a80426200003a9190620002b7565b600d5560405180602001604052806000815250600e90805190602001906200006492919062000207565b503480156200007257600080fd5b506040518060400160405280600a81526020017f446961647261676f6e73000000000000000000000000000000000000000000008152506040518060400160405280600281526020017f44440000000000000000000000000000000000000000000000000000000000008152508160009080519060200190620000f792919062000207565b5080600190805190602001906200011092919062000207565b50505062000133620001276200013960201b60201c565b6200014160201b60201c565b620003b2565b600033905090565b6000600a60009054906101000a900473ffffffffffffffffffffffffffffffffffffffff16905081600a60006101000a81548173ffffffffffffffffffffffffffffffffffffffff021916908373ffffffffffffffffffffffffffffffffffffffff1602179055508173ffffffffffffffffffffffffffffffffffffffff168173ffffffffffffffffffffffffffffffffffffffff167f8be0079c531659141344cd1fd0a4f28419497f9722a3daafe3b4186f6b6457e060405160405180910390a35050565b82805462000215906200031e565b90600052602060002090601f01602090048101928262000239576000855562000285565b82601f106200025457805160ff191683800117855562000285565b8280016001018555821562000285579182015b828111156200028457825182559160200191906001019062000267565b5b50905062000294919062000298565b5090565b5b80821115620002b357600081600090555060010162000299565b5090565b6000620002c48262000314565b9150620002d18362000314565b9250827fffffffffffffffffffffffffffffffffffffffffffffffffffffffffffffffff0382111562000309576200030862000354565b5b828201905092915050565b6000819050919050565b600060028204905060018216806200033757607f821691505b602082108114156200034e576200034d62000383565b5b50919050565b7f4e487b7100000000000000000000000000000000000000000000000000000000600052601160045260246000fd5b7f4e487b7100000000000000000000000000000000000000000000000000000000600052602260045260246000fd5b614da880620003c26000396000f3fe6080604052600436106102675760003560e01c80636352211e11610144578063b3fba606116100b6578063d2f902141161007a578063d2f90214146108c3578063e11c7fb5146108da578063e985e9c514610905578063f2fde38b14610942578063f731b6761461096b578063ffe90ba61461099457610267565b8063b3fba606146107f2578063b66a0e5d1461081b578063b88d4fde14610832578063c4e41b221461085b578063c87b56dd1461088657610267565b806371f9c5341161010857806371f9c534146106e05780638da5cb5b1461070b57806394bb54371461073657806395d89b4114610761578063961ca5bf1461078c578063a22cb465146107c957610267565b80636352211e146105f95780636c0360eb146106365780637080d6fc1461066157806370a082311461068c578063715018a6146106c957610267565b80632a85db55116101dd57806342699fec116101a157806342699fec146104ff57806342842e0e146105285780634f6ccce71461055157806355367ba91461058e57806355f804b3146105a5578063564566a8146105ce57610267565b80632a85db55146104405780632f745c591461046957806332cb6b0c146104a65780633ccfd60b146104d15780633dc23a6d146104e857610267565b8063109695231161022f578063109695231461036357806314cf19fe1461038c57806318160ddd146103b75780631ba07240146103e25780631faa77ea1461040d57806323b872dd1461041757610267565b8063018a2c371461026c57806301ffc9a71461029557806306fdde03146102d2578063081812fc146102fd578063095ea7b31461033a575b600080fd5b34801561027857600080fd5b50610293600480360381019061028e9190613aae565b6109bf565b005b3480156102a157600080fd5b506102bc60048036038101906102b79190613a1b565b610a45565b6040516102c9919061459b565b60405180910390f35b3480156102de57600080fd5b506102e7610a57565b6040516102f491906145b6565b60405180910390f35b34801561030957600080fd5b50610324600480360381019061031f9190613aae565b610ae9565b6040516103319190614512565b60405180910390f35b34801561034657600080fd5b50610361600480360381019061035c919061399e565b610b6e565b005b34801561036f57600080fd5b5061038a60048036038101906103859190613a6d565b610c86565b005b34801561039857600080fd5b506103a1610d1c565b6040516103ae91906148d8565b60405180910390f35b3480156103c357600080fd5b506103cc610d28565b6040516103d991906148d8565b60405180910390f35b3480156103ee57600080fd5b506103f7610d35565b60405161040491906148d8565b60405180910390f35b610415610d3b565b005b34801561042357600080fd5b5061043e60048036038101906104399190613898565b610e7f565b005b34801561044c57600080fd5b5061046760048036038101906104629190613a6d565b610edf565b005b34801561047557600080fd5b50610490600480360381019061048b919061399e565b610f75565b60405161049d91906148d8565b60405180910390f35b3480156104b257600080fd5b506104bb61101a565b6040516104c891906148d8565b60405180910390f35b3480156104dd57600080fd5b506104e6611020565b005b3480156104f457600080fd5b506104fd6110eb565b005b34801561050b57600080fd5b50610526600480360381019061052191906139da565b6111b5565b005b34801561053457600080fd5b5061054f600480360381019061054a9190613898565b6112fe565b005b34801561055d57600080fd5b5061057860048036038101906105739190613aae565b61131e565b60405161058591906148d8565b60405180910390f35b34801561059a57600080fd5b506105a36113b5565b005b3480156105b157600080fd5b506105cc60048036038101906105c79190613a6d565b61147a565b005b3480156105da57600080fd5b506105e3611510565b6040516105f0919061459b565b60405180910390f35b34801561060557600080fd5b50610620600480360381019061061b9190613aae565b611527565b60405161062d9190614512565b60405180910390f35b34801561064257600080fd5b5061064b6115d9565b60405161065891906145b6565b60405180910390f35b34801561066d57600080fd5b50610676611667565b604051610683919061459b565b60405180910390f35b34801561069857600080fd5b506106b360048036038101906106ae9190613833565b61167a565b6040516106c091906148d8565b60405180910390f35b3480156106d557600080fd5b506106de611732565b005b3480156106ec57600080fd5b506106f56117ba565b60405161070291906148d8565b60405180910390f35b34801561071757600080fd5b506107206117c0565b60405161072d9190614512565b60405180910390f35b34801561074257600080fd5b5061074b6117ea565b60405161075891906145b6565b60405180910390f35b34801561076d57600080fd5b50610776611878565b60405161078391906145b6565b60405180910390f35b34801561079857600080fd5b506107b360048036038101906107ae9190613833565b61190a565b6040516107c09190614579565b60405180910390f35b3480156107d557600080fd5b506107f060048036038101906107eb9190613962565b611a04565b005b3480156107fe57600080fd5b5061081960048036038101906108149190613ad7565b611b85565b005b34801561082757600080fd5b50610830611cab565b005b34801561083e57600080fd5b50610859600480360381019061085491906138e7565b611d70565b005b34801561086757600080fd5b50610870611dd2565b60405161087d91906148d8565b60405180910390f35b34801561089257600080fd5b506108ad60048036038101906108a89190613aae565b611de1565b6040516108ba91906145b6565b60405180910390f35b3480156108cf57600080fd5b506108d8611f57565b005b3480156108e657600080fd5b506108ef612067565b6040516108fc91906148d8565b60405180910390f35b34801561091157600080fd5b5061092c6004803603810190610927919061385c565b61206c565b604051610939919061459b565b60405180910390f35b34801561094e57600080fd5b5061096960048036038101906109649190613833565b612100565b005b34801561097757600080fd5b50610992600480360381019061098d9190613aae565b6121f8565b005b3480156109a057600080fd5b506109a96122df565b6040516109b691906148d8565b60405180910390f35b6109c76122e5565b73ffffffffffffffffffffffffffffffffffffffff166109e56117c0565b73ffffffffffffffffffffffffffffffffffffffff1614610a3b576040517f08c379a0000000000000000000000000000000000000000000000000000000008152600401610a32906147b8565b60405180910390fd5b80600d8190555050565b6000610a50826122ed565b9050919050565b606060008054610a6690614b9d565b80601f0160208091040260200160405190810160405280929190818152602001828054610a9290614b9d565b8015610adf5780601f10610ab457610100808354040283529160200191610adf565b820191906000526020600020905b815481529060010190602001808311610ac257829003601f168201915b5050505050905090565b6000610af482612367565b610b33576040517f08c379a0000000000000000000000000000000000000000000000000000000008152600401610b2a90614798565b60405180910390fd5b6004600083815260200190815260200160002060009054906101000a900473ffffffffffffffffffffffffffffffffffffffff169050919050565b6000610b7982611527565b90508073ffffffffffffffffffffffffffffffffffffffff168373ffffffffffffffffffffffffffffffffffffffff161415610bea576040517f08c379a0000000000000000000000000000000000000000000000000000000008152600401610be190614818565b60405180910390fd5b8073ffffffffffffffffffffffffffffffffffffffff16610c096122e5565b73ffffffffffffffffffffffffffffffffffffffff161480610c385750610c3781610c326122e5565b61206c565b5b610c77576040517f08c379a0000000000000000000000000000000000000000000000000000000008152600401610c6e90614718565b60405180910390fd5b610c8183836123d3565b505050565b610c8e6122e5565b73ffffffffffffffffffffffffffffffffffffffff16610cac6117c0565b73ffffffffffffffffffffffffffffffffffffffff1614610d02576040517f08c379a0000000000000000000000000000000000000000000000000000000008152600401610cf9906147b8565b60405180910390fd5b80600e9080519060200190610d189291906135c1565b5050565b67011c37937e08000081565b6000600880549050905090565b600c5481565b600a60149054906101000a900460ff16610d8a576040517f08c379a0000000000000000000000000000000000000000000000000000000008152600401610d81906146d8565b60405180910390fd5b612b67610da86001610d9a610d28565b61248c90919063ffffffff16565b1115610de9576040517f08c379a0000000000000000000000000000000000000000000000000000000008152600401610de090614658565b60405180910390fd5b3467011c37937e0800001115610e34576040517f08c379a0000000000000000000000000000000000000000000000000000000008152600401610e2b90614898565b60405180910390fd5b610e3f6001336124a2565b7ff00d28232b285f24f2e38415deb2ceb31069e70d4505838b3911b4f02058502e610e68610d28565b604051610e7591906148d8565b60405180910390a1565b610e90610e8a6122e5565b8261251c565b610ecf576040517f08c379a0000000000000000000000000000000000000000000000000000000008152600401610ec690614858565b60405180910390fd5b610eda8383836125fa565b505050565b610ee76122e5565b73ffffffffffffffffffffffffffffffffffffffff16610f056117c0565b73ffffffffffffffffffffffffffffffffffffffff1614610f5b576040517f08c379a0000000000000000000000000000000000000000000000000000000008152600401610f52906147b8565b60405180910390fd5b8060109080519060200190610f719291906135c1565b5050565b6000610f808361167a565b8210610fc1576040517f08c379a0000000000000000000000000000000000000000000000000000000008152600401610fb8906145d8565b60405180910390fd5b600660008473ffffffffffffffffffffffffffffffffffffffff1673ffffffffffffffffffffffffffffffffffffffff168152602001908152602001600020600083815260200190815260200160002054905092915050565b612b6781565b6110286122e5565b73ffffffffffffffffffffffffffffffffffffffff166110466117c0565b73ffffffffffffffffffffffffffffffffffffffff161461109c576040517f08c379a0000000000000000000000000000000000000000000000000000000008152600401611093906147b8565b60405180910390fd5b60004790503373ffffffffffffffffffffffffffffffffffffffff166108fc829081150290604051600060405180830381858888f193505050501580156110e7573d6000803e3d6000fd5b5050565b6110f36122e5565b73ffffffffffffffffffffffffffffffffffffffff166111116117c0565b73ffffffffffffffffffffffffffffffffffffffff1614611167576040517f08c379a000000000000000000000000000000000000000000000000000000000815260040161115e906147b8565b60405180910390fd5b6000600b54146111ac576040517f08c379a00000000000000000000000000000000000000000000000000000000081526004016111a3906146f8565b60405180910390fd5b43600c81905550565b6111bd6122e5565b73ffffffffffffffffffffffffffffffffffffffff166111db6117c0565b73ffffffffffffffffffffffffffffffffffffffff1614611231576040517f08c379a0000000000000000000000000000000000000000000000000000000008152600401611228906147b8565b60405180910390fd5b612b6761124f8251611241610d28565b61248c90919063ffffffff16565b1115611290576040517f08c379a000000000000000000000000000000000000000000000000000000000815260040161128790614658565b60405180910390fd5b60005b81518110156112fa576112e760018383815181106112da577f4e487b7100000000000000000000000000000000000000000000000000000000600052603260045260246000fd5b6020026020010151611b85565b80806112f290614bcf565b915050611293565b5050565b61131983838360405180602001604052806000815250611d70565b505050565b6000611328610d28565b8210611369576040517f08c379a000000000000000000000000000000000000000000000000000000000815260040161136090614878565b60405180910390fd5b600882815481106113a3577f4e487b7100000000000000000000000000000000000000000000000000000000600052603260045260246000fd5b90600052602060002001549050919050565b6113bd6122e5565b73ffffffffffffffffffffffffffffffffffffffff166113db6117c0565b73ffffffffffffffffffffffffffffffffffffffff1614611431576040517f08c379a0000000000000000000000000000000000000000000000000000000008152600401611428906147b8565b60405180910390fd5b6000600a60146101000a81548160ff0219169083151502179055507fdf515ab57ec796fd111da4dd488177601b9465ce9c442de16857682b7f10297a60405160405180910390a1565b6114826122e5565b73ffffffffffffffffffffffffffffffffffffffff166114a06117c0565b73ffffffffffffffffffffffffffffffffffffffff16146114f6576040517f08c379a00000000000000000000000000000000000000000000000000000000081526004016114ed906147b8565b60405180910390fd5b80600f908051906020019061150c9291906135c1565b5050565b6000600a60149054906101000a900460ff16905090565b6000806002600084815260200190815260200160002060009054906101000a900473ffffffffffffffffffffffffffffffffffffffff169050600073ffffffffffffffffffffffffffffffffffffffff168173ffffffffffffffffffffffffffffffffffffffff1614156115d0576040517f08c379a00000000000000000000000000000000000000000000000000000000081526004016115c790614758565b60405180910390fd5b80915050919050565b600f80546115e690614b9d565b80601f016020809104026020016040519081016040528092919081815260200182805461161290614b9d565b801561165f5780601f106116345761010080835404028352916020019161165f565b820191906000526020600020905b81548152906001019060200180831161164257829003601f168201915b505050505081565b600a60149054906101000a900460ff1681565b60008073ffffffffffffffffffffffffffffffffffffffff168273ffffffffffffffffffffffffffffffffffffffff1614156116eb576040517f08c379a00000000000000000000000000000000000000000000000000000000081526004016116e290614738565b60405180910390fd5b600360008373ffffffffffffffffffffffffffffffffffffffff1673ffffffffffffffffffffffffffffffffffffffff168152602001908152602001600020549050919050565b61173a6122e5565b73ffffffffffffffffffffffffffffffffffffffff166117586117c0565b73ffffffffffffffffffffffffffffffffffffffff16146117ae576040517f08c379a00000000000000000000000000000000000000000000000000000000081526004016117a5906147b8565b60405180910390fd5b6117b86000612856565b565b600d5481565b6000600a60009054906101000a900473ffffffffffffffffffffffffffffffffffffffff16905090565b600e80546117f790614b9d565b80601f016020809104026020016040519081016040528092919081815260200182805461182390614b9d565b80156118705780601f1061184557610100808354040283529160200191611870565b820191906000526020600020905b81548152906001019060200180831161185357829003601f168201915b505050505081565b60606001805461188790614b9d565b80601f01602080910402602001604051908101604052809291908181526020018280546118b390614b9d565b80156119005780601f106118d557610100808354040283529160200191611900565b820191906000526020600020905b8154815290600101906020018083116118e357829003601f168201915b5050505050905090565b606060006119178361167a565b905060008167ffffffffffffffff81111561195b577f4e487b7100000000000000000000000000000000000000000000000000000000600052604160045260246000fd5b6040519080825280602002602001820160405280156119895781602001602082028036833780820191505090505b50905060005b828110156119f9576119a18582610f75565b8282815181106119da577f4e487b7100000000000000000000000000000000000000000000000000000000600052603260045260246000fd5b60200260200101818152505080806119f190614bcf565b91505061198f565b508092505050919050565b611a0c6122e5565b73ffffffffffffffffffffffffffffffffffffffff168273ffffffffffffffffffffffffffffffffffffffff161415611a7a576040517f08c379a0000000000000000000000000000000000000000000000000000000008152600401611a7190614698565b60405180910390fd5b8060056000611a876122e5565b73ffffffffffffffffffffffffffffffffffffffff1673ffffffffffffffffffffffffffffffffffffffff16815260200190815260200160002060008473ffffffffffffffffffffffffffffffffffffffff1673ffffffffffffffffffffffffffffffffffffffff16815260200190815260200160002060006101000a81548160ff0219169083151502179055508173ffffffffffffffffffffffffffffffffffffffff16611b346122e5565b73ffffffffffffffffffffffffffffffffffffffff167f17307eab39ab6107e8899845ad3d59bd9653f200f220920489ca2b5937696c3183604051611b79919061459b565b60405180910390a35050565b611b8d6122e5565b73ffffffffffffffffffffffffffffffffffffffff16611bab6117c0565b73ffffffffffffffffffffffffffffffffffffffff1614611c01576040517f08c379a0000000000000000000000000000000000000000000000000000000008152600401611bf8906147b8565b60405180910390fd5b612b67611c1e83611c10610d28565b61248c90919063ffffffff16565b1115611c5f576040517f08c379a0000000000000000000000000000000000000000000000000000000008152600401611c5690614658565b60405180910390fd5b611c6982826124a2565b7ff00d28232b285f24f2e38415deb2ceb31069e70d4505838b3911b4f02058502e611c92610d28565b604051611c9f91906148d8565b60405180910390a15050565b611cb36122e5565b73ffffffffffffffffffffffffffffffffffffffff16611cd16117c0565b73ffffffffffffffffffffffffffffffffffffffff1614611d27576040517f08c379a0000000000000000000000000000000000000000000000000000000008152600401611d1e906147b8565b60405180910390fd5b6001600a60146101000a81548160ff0219169083151502179055507f912ee23dde46ec889d6748212cce445d667f7041597691dc89e8549ad8bc0acb60405160405180910390a1565b611d81611d7b6122e5565b8361251c565b611dc0576040517f08c379a0000000000000000000000000000000000000000000000000000000008152600401611db790614858565b60405180910390fd5b611dcc8484848461291c565b50505050565b6000611ddc610d28565b905090565b6060611dec82612367565b611e2b576040517f08c379a0000000000000000000000000000000000000000000000000000000008152600401611e22906147f8565b60405180910390fd5b612b67611e36610d28565b101580611e455750600d544210155b15611ec4576000611e89612b67611e7b611e6c600b54612b6761297890919063ffffffff16565b8661248c90919063ffffffff16565b61298e90919063ffffffff16565b9050611e936129a4565b611e9c82612a36565b604051602001611ead9291906144ee565b604051602081830303815290604052915050611f52565b60108054611ed190614b9d565b80601f0160208091040260200160405190810160405280929190818152602001828054611efd90614b9d565b8015611f4a5780601f10611f1f57610100808354040283529160200191611f4a565b820191906000526020600020905b815481529060010190602001808311611f2d57829003601f168201915b505050505090505b919050565b6000600b5414611f9c576040517f08c379a0000000000000000000000000000000000000000000000000000000008152600401611f93906148b8565b60405180910390fd5b6000600c541415611fe2576040517f08c379a0000000000000000000000000000000000000000000000000000000008152600401611fd990614838565b60405180910390fd5b60ff611ff9600c544361297890919063ffffffff16565b111561202f57612024612b676001436120129190614ab3565b4060001c61298e90919063ffffffff16565b600b81905550612051565b61204a612b67600c544060001c61298e90919063ffffffff16565b600b819055505b6000600b541415612065576001600b819055505b565b600181565b6000600560008473ffffffffffffffffffffffffffffffffffffffff1673ffffffffffffffffffffffffffffffffffffffff16815260200190815260200160002060008373ffffffffffffffffffffffffffffffffffffffff1673ffffffffffffffffffffffffffffffffffffffff16815260200190815260200160002060009054906101000a900460ff16905092915050565b6121086122e5565b73ffffffffffffffffffffffffffffffffffffffff166121266117c0565b73ffffffffffffffffffffffffffffffffffffffff161461217c576040517f08c379a0000000000000000000000000000000000000000000000000000000008152600401612173906147b8565b60405180910390fd5b600073ffffffffffffffffffffffffffffffffffffffff168173ffffffffffffffffffffffffffffffffffffffff1614156121ec576040517f08c379a00000000000000000000000000000000000000000000000000000000081526004016121e390614618565b60405180910390fd5b6121f581612856565b50565b6122006122e5565b73ffffffffffffffffffffffffffffffffffffffff1661221e6117c0565b73ffffffffffffffffffffffffffffffffffffffff1614612274576040517f08c379a000000000000000000000000000000000000000000000000000000000815260040161226b906147b8565b60405180910390fd5b612b6761229182612283610d28565b61248c90919063ffffffff16565b11156122d2576040517f08c379a00000000000000000000000000000000000000000000000000000000081526004016122c990614658565b60405180910390fd5b6122dc81336124a2565b50565b600b5481565b600033905090565b60007f780e9d63000000000000000000000000000000000000000000000000000000007bffffffffffffffffffffffffffffffffffffffffffffffffffffffff1916827bffffffffffffffffffffffffffffffffffffffffffffffffffffffff19161480612360575061235f82612be3565b5b9050919050565b60008073ffffffffffffffffffffffffffffffffffffffff166002600084815260200190815260200160002060009054906101000a900473ffffffffffffffffffffffffffffffffffffffff1673ffffffffffffffffffffffffffffffffffffffff1614159050919050565b816004600083815260200190815260200160002060006101000a81548173ffffffffffffffffffffffffffffffffffffffff021916908373ffffffffffffffffffffffffffffffffffffffff160217905550808273ffffffffffffffffffffffffffffffffffffffff1661244683611527565b73ffffffffffffffffffffffffffffffffffffffff167f8c5be1e5ebec7d5bd14f71427d1e84f3dd0314c0f7b2291e5b200ac8c7c3b92560405160405180910390a45050565b6000818361249a9190614a2c565b905092915050565b60006124ac610d28565b905060005b838110156124e1576124ce8382846124c99190614a2c565b612cc5565b80806124d990614bcf565b9150506124b1565b506000600c5414801561250a5750612b676124fa610d28565b1015806125095750600d544210155b5b156125175743600c819055505b505050565b600061252782612367565b612566576040517f08c379a000000000000000000000000000000000000000000000000000000000815260040161255d906146b8565b60405180910390fd5b600061257183611527565b90508073ffffffffffffffffffffffffffffffffffffffff168473ffffffffffffffffffffffffffffffffffffffff1614806125e057508373ffffffffffffffffffffffffffffffffffffffff166125c884610ae9565b73ffffffffffffffffffffffffffffffffffffffff16145b806125f157506125f0818561206c565b5b91505092915050565b8273ffffffffffffffffffffffffffffffffffffffff1661261a82611527565b73ffffffffffffffffffffffffffffffffffffffff1614612670576040517f08c379a0000000000000000000000000000000000000000000000000000000008152600401612667906147d8565b60405180910390fd5b600073ffffffffffffffffffffffffffffffffffffffff168273ffffffffffffffffffffffffffffffffffffffff1614156126e0576040517f08c379a00000000000000000000000000000000000000000000000000000000081526004016126d790614678565b60405180910390fd5b6126eb838383612ce3565b6126f66000826123d3565b6001600360008573ffffffffffffffffffffffffffffffffffffffff1673ffffffffffffffffffffffffffffffffffffffff16815260200190815260200160002060008282546127469190614ab3565b925050819055506001600360008473ffffffffffffffffffffffffffffffffffffffff1673ffffffffffffffffffffffffffffffffffffffff168152602001908152602001600020600082825461279d9190614a2c565b92505081905550816002600083815260200190815260200160002060006101000a81548173ffffffffffffffffffffffffffffffffffffffff021916908373ffffffffffffffffffffffffffffffffffffffff160217905550808273ffffffffffffffffffffffffffffffffffffffff168473ffffffffffffffffffffffffffffffffffffffff167fddf252ad1be2c89b69c2b068fc378daa952ba7f163c4a11628f55a4df523b3ef60405160405180910390a4505050565b6000600a60009054906101000a900473ffffffffffffffffffffffffffffffffffffffff16905081600a60006101000a81548173ffffffffffffffffffffffffffffffffffffffff021916908373ffffffffffffffffffffffffffffffffffffffff1602179055508173ffffffffffffffffffffffffffffffffffffffff168173ffffffffffffffffffffffffffffffffffffffff167f8be0079c531659141344cd1fd0a4f28419497f9722a3daafe3b4186f6b6457e060405160405180910390a35050565b6129278484846125fa565b61293384848484612cf3565b612972576040517f08c379a0000000000000000000000000000000000000000000000000000000008152600401612969906145f8565b60405180910390fd5b50505050565b600081836129869190614ab3565b905092915050565b6000818361299c9190614c18565b905092915050565b6060600f80546129b390614b9d565b80601f01602080910402602001604051908101604052809291908181526020018280546129df90614b9d565b8015612a2c5780601f10612a0157610100808354040283529160200191612a2c565b820191906000526020600020905b815481529060010190602001808311612a0f57829003601f168201915b5050505050905090565b60606000821415612a7e576040518060400160405280600181526020017f30000000000000000000000000000000000000000000000000000000000000008152509050612bde565b600082905060005b60008214612ab0578080612a9990614bcf565b915050600a82612aa99190614a82565b9150612a86565b60008167ffffffffffffffff811115612af2577f4e487b7100000000000000000000000000000000000000000000000000000000600052604160045260246000fd5b6040519080825280601f01601f191660200182016040528015612b245781602001600182028036833780820191505090505b5090505b60008514612bd757600182612b3d9190614ab3565b9150600a85612b4c9190614c18565b6030612b589190614a2c565b60f81b818381518110612b94577f4e487b7100000000000000000000000000000000000000000000000000000000600052603260045260246000fd5b60200101907effffffffffffffffffffffffffffffffffffffffffffffffffffffffffffff1916908160001a905350600a85612bd09190614a82565b9450612b28565b8093505050505b919050565b60007f80ac58cd000000000000000000000000000000000000000000000000000000007bffffffffffffffffffffffffffffffffffffffffffffffffffffffff1916827bffffffffffffffffffffffffffffffffffffffffffffffffffffffff19161480612cae57507f5b5e139f000000000000000000000000000000000000000000000000000000007bffffffffffffffffffffffffffffffffffffffffffffffffffffffff1916827bffffffffffffffffffffffffffffffffffffffffffffffffffffffff1916145b80612cbe5750612cbd82612e8a565b5b9050919050565b612cdf828260405180602001604052806000815250612ef4565b5050565b612cee838383612f4f565b505050565b6000612d148473ffffffffffffffffffffffffffffffffffffffff16613063565b15612e7d578373ffffffffffffffffffffffffffffffffffffffff1663150b7a02612d3d6122e5565b8786866040518563ffffffff1660e01b8152600401612d5f949392919061452d565b602060405180830381600087803b158015612d7957600080fd5b505af1925050508015612daa57506040513d601f19601f82011682018060405250810190612da79190613a44565b60015b612e2d573d8060008114612dda576040519150601f19603f3d011682016040523d82523d6000602084013e612ddf565b606091505b50600081511415612e25576040517f08c379a0000000000000000000000000000000000000000000000000000000008152600401612e1c906145f8565b60405180910390fd5b805181602001fd5b63150b7a0260e01b7bffffffffffffffffffffffffffffffffffffffffffffffffffffffff1916817bffffffffffffffffffffffffffffffffffffffffffffffffffffffff191614915050612e82565b600190505b949350505050565b60007f01ffc9a7000000000000000000000000000000000000000000000000000000007bffffffffffffffffffffffffffffffffffffffffffffffffffffffff1916827bffffffffffffffffffffffffffffffffffffffffffffffffffffffff1916149050919050565b612efe8383613076565b612f0b6000848484612cf3565b612f4a576040517f08c379a0000000000000000000000000000000000000000000000000000000008152600401612f41906145f8565b60405180910390fd5b505050565b612f5a838383613244565b600073ffffffffffffffffffffffffffffffffffffffff168373ffffffffffffffffffffffffffffffffffffffff161415612f9d57612f9881613249565b612fdc565b8173ffffffffffffffffffffffffffffffffffffffff168373ffffffffffffffffffffffffffffffffffffffff1614612fdb57612fda8382613292565b5b5b600073ffffffffffffffffffffffffffffffffffffffff168273ffffffffffffffffffffffffffffffffffffffff16141561301f5761301a816133ff565b61305e565b8273ffffffffffffffffffffffffffffffffffffffff168273ffffffffffffffffffffffffffffffffffffffff161461305d5761305c8282613542565b5b5b505050565b600080823b905060008111915050919050565b600073ffffffffffffffffffffffffffffffffffffffff168273ffffffffffffffffffffffffffffffffffffffff1614156130e6576040517f08c379a00000000000000000000000000000000000000000000000000000000081526004016130dd90614778565b60405180910390fd5b6130ef81612367565b1561312f576040517f08c379a000000000000000000000000000000000000000000000000000000000815260040161312690614638565b60405180910390fd5b61313b60008383612ce3565b6001600360008473ffffffffffffffffffffffffffffffffffffffff1673ffffffffffffffffffffffffffffffffffffffff168152602001908152602001600020600082825461318b9190614a2c565b92505081905550816002600083815260200190815260200160002060006101000a81548173ffffffffffffffffffffffffffffffffffffffff021916908373ffffffffffffffffffffffffffffffffffffffff160217905550808273ffffffffffffffffffffffffffffffffffffffff16600073ffffffffffffffffffffffffffffffffffffffff167fddf252ad1be2c89b69c2b068fc378daa952ba7f163c4a11628f55a4df523b3ef60405160405180910390a45050565b505050565b6008805490506009600083815260200190815260200160002081905550600881908060018154018082558091505060019003906000526020600020016000909190919091505550565b6000600161329f8461167a565b6132a99190614ab3565b905060006007600084815260200190815260200160002054905081811461338e576000600660008673ffffffffffffffffffffffffffffffffffffffff1673ffffffffffffffffffffffffffffffffffffffff168152602001908152602001600020600084815260200190815260200160002054905080600660008773ffffffffffffffffffffffffffffffffffffffff1673ffffffffffffffffffffffffffffffffffffffff168152602001908152602001600020600084815260200190815260200160002081905550816007600083815260200190815260200160002081905550505b6007600084815260200190815260200160002060009055600660008573ffffffffffffffffffffffffffffffffffffffff1673ffffffffffffffffffffffffffffffffffffffff16815260200190815260200160002060008381526020019081526020016000206000905550505050565b600060016008805490506134139190614ab3565b9050600060096000848152602001908152602001600020549050600060088381548110613469577f4e487b7100000000000000000000000000000000000000000000000000000000600052603260045260246000fd5b9060005260206000200154905080600883815481106134b1577f4e487b7100000000000000000000000000000000000000000000000000000000600052603260045260246000fd5b906000526020600020018190555081600960008381526020019081526020016000208190555060096000858152602001908152602001600020600090556008805480613526577f4e487b7100000000000000000000000000000000000000000000000000000000600052603160045260246000fd5b6001900381819060005260206000200160009055905550505050565b600061354d8361167a565b905081600660008573ffffffffffffffffffffffffffffffffffffffff1673ffffffffffffffffffffffffffffffffffffffff168152602001908152602001600020600083815260200190815260200160002081905550806007600084815260200190815260200160002081905550505050565b8280546135cd90614b9d565b90600052602060002090601f0160209004810192826135ef5760008555613636565b82601f1061360857805160ff1916838001178555613636565b82800160010185558215613636579182015b8281111561363557825182559160200191906001019061361a565b5b5090506136439190613647565b5090565b5b80821115613660576000816000905550600101613648565b5090565b600061367761367284614924565b6148f3565b9050808382526020820190508285602086028201111561369657600080fd5b60005b858110156136c657816136ac888261374c565b845260208401935060208301925050600181019050613699565b5050509392505050565b60006136e36136de84614950565b6148f3565b9050828152602081018484840111156136fb57600080fd5b613706848285614b5b565b509392505050565b600061372161371c84614980565b6148f3565b90508281526020810184848401111561373957600080fd5b613744848285614b5b565b509392505050565b60008135905061375b81614d16565b92915050565b600082601f83011261377257600080fd5b8135613782848260208601613664565b91505092915050565b60008135905061379a81614d2d565b92915050565b6000813590506137af81614d44565b92915050565b6000815190506137c481614d44565b92915050565b600082601f8301126137db57600080fd5b81356137eb8482602086016136d0565b91505092915050565b600082601f83011261380557600080fd5b813561381584826020860161370e565b91505092915050565b60008135905061382d81614d5b565b92915050565b60006020828403121561384557600080fd5b60006138538482850161374c565b91505092915050565b6000806040838503121561386f57600080fd5b600061387d8582860161374c565b925050602061388e8582860161374c565b9150509250929050565b6000806000606084860312156138ad57600080fd5b60006138bb8682870161374c565b93505060206138cc8682870161374c565b92505060406138dd8682870161381e565b9150509250925092565b600080600080608085870312156138fd57600080fd5b600061390b8782880161374c565b945050602061391c8782880161374c565b935050604061392d8782880161381e565b925050606085013567ffffffffffffffff81111561394a57600080fd5b613956878288016137ca565b91505092959194509250565b6000806040838503121561397557600080fd5b60006139838582860161374c565b92505060206139948582860161378b565b9150509250929050565b600080604083850312156139b157600080fd5b60006139bf8582860161374c565b92505060206139d08582860161381e565b9150509250929050565b6000602082840312156139ec57600080fd5b600082013567ffffffffffffffff811115613a0657600080fd5b613a1284828501613761565b91505092915050565b600060208284031215613a2d57600080fd5b6000613a3b848285016137a0565b91505092915050565b600060208284031215613a5657600080fd5b6000613a64848285016137b5565b91505092915050565b600060208284031215613a7f57600080fd5b600082013567ffffffffffffffff811115613a9957600080fd5b613aa5848285016137f4565b91505092915050565b600060208284031215613ac057600080fd5b6000613ace8482850161381e565b91505092915050565b60008060408385031215613aea57600080fd5b6000613af88582860161381e565b9250506020613b098582860161374c565b9150509250929050565b6000613b1f83836144d0565b60208301905092915050565b613b3481614ae7565b82525050565b6000613b45826149c0565b613b4f81856149ee565b9350613b5a836149b0565b8060005b83811015613b8b578151613b728882613b13565b9750613b7d836149e1565b925050600181019050613b5e565b5085935050505092915050565b613ba181614af9565b82525050565b6000613bb2826149cb565b613bbc81856149ff565b9350613bcc818560208601614b6a565b613bd581614d05565b840191505092915050565b6000613beb826149d6565b613bf58185614a10565b9350613c05818560208601614b6a565b613c0e81614d05565b840191505092915050565b6000613c24826149d6565b613c2e8185614a21565b9350613c3e818560208601614b6a565b80840191505092915050565b6000613c57602b83614a10565b91507f455243373231456e756d657261626c653a206f776e657220696e646578206f7560008301527f74206f6620626f756e64730000000000000000000000000000000000000000006020830152604082019050919050565b6000613cbd603283614a10565b91507f4552433732313a207472616e7366657220746f206e6f6e20455243373231526560008301527f63656976657220696d706c656d656e74657200000000000000000000000000006020830152604082019050919050565b6000613d23602683614a10565b91507f4f776e61626c653a206e6577206f776e657220697320746865207a65726f206160008301527f64647265737300000000000000000000000000000000000000000000000000006020830152604082019050919050565b6000613d89601c83614a10565b91507f4552433732313a20746f6b656e20616c7265616479206d696e746564000000006000830152602082019050919050565b6000613dc9601c83614a10565b91507f53616c6520776f756c6420657863656564206d617820737570706c79000000006000830152602082019050919050565b6000613e09602483614a10565b91507f4552433732313a207472616e7366657220746f20746865207a65726f2061646460008301527f72657373000000000000000000000000000000000000000000000000000000006020830152604082019050919050565b6000613e6f601983614a10565b91507f4552433732313a20617070726f766520746f2063616c6c6572000000000000006000830152602082019050919050565b6000613eaf602c83614a10565b91507f4552433732313a206f70657261746f7220717565727920666f72206e6f6e657860008301527f697374656e7420746f6b656e00000000000000000000000000000000000000006020830152604082019050919050565b6000613f15602683614a10565b91507f53616c65206d7573742062652061637469766520746f206d696e74204469614460008301527f7261676f6e7300000000000000000000000000000000000000000000000000006020830152604082019050919050565b6000613f7b601d83614a10565b91507f5374617274696e6720696e64657820697320616c7265616479207365740000006000830152602082019050919050565b6000613fbb603883614a10565b91507f4552433732313a20617070726f76652063616c6c6572206973206e6f74206f7760008301527f6e6572206e6f7220617070726f76656420666f7220616c6c00000000000000006020830152604082019050919050565b6000614021602a83614a10565b91507f4552433732313a2062616c616e636520717565727920666f7220746865207a6560008301527f726f2061646472657373000000000000000000000000000000000000000000006020830152604082019050919050565b6000614087602983614a10565b91507f4552433732313a206f776e657220717565727920666f72206e6f6e657869737460008301527f656e7420746f6b656e00000000000000000000000000000000000000000000006020830152604082019050919050565b60006140ed602083614a10565b91507f4552433732313a206d696e7420746f20746865207a65726f20616464726573736000830152602082019050919050565b600061412d602c83614a10565b91507f4552433732313a20617070726f76656420717565727920666f72206e6f6e657860008301527f697374656e7420746f6b656e00000000000000000000000000000000000000006020830152604082019050919050565b6000614193602083614a10565b91507f4f776e61626c653a2063616c6c6572206973206e6f7420746865206f776e65726000830152602082019050919050565b60006141d3602983614a10565b91507f4552433732313a207472616e73666572206f6620746f6b656e2074686174206960008301527f73206e6f74206f776e00000000000000000000000000000000000000000000006020830152604082019050919050565b6000614239602f83614a10565b91507f4552433732314d657461646174613a2055524920717565727920666f72206e6f60008301527f6e6578697374656e7420746f6b656e00000000000000000000000000000000006020830152604082019050919050565b600061429f602183614a10565b91507f4552433732313a20617070726f76616c20746f2063757272656e74206f776e6560008301527f72000000000000000000000000000000000000000000000000000000000000006020830152604082019050919050565b6000614305602083614a10565b91507f5374617274696e6720696e64657820626c6f636b206d757374206265207365746000830152602082019050919050565b6000614345603183614a10565b91507f4552433732313a207472616e736665722063616c6c6572206973206e6f74206f60008301527f776e6572206e6f7220617070726f7665640000000000000000000000000000006020830152604082019050919050565b60006143ab602c83614a10565b91507f455243373231456e756d657261626c653a20676c6f62616c20696e646578206f60008301527f7574206f6620626f756e647300000000000000000000000000000000000000006020830152604082019050919050565b6000614411602183614a10565b91507f4e6f7420656e6f7567682065746865722073656e7420283c302e30372045544860008301527f29000000000000000000000000000000000000000000000000000000000000006020830152604082019050919050565b6000614477602383614a10565b91507f5374617274696e6720696e6465782068617320616c7265616479206265656e2060008301527f73657400000000000000000000000000000000000000000000000000000000006020830152604082019050919050565b6144d981614b51565b82525050565b6144e881614b51565b82525050565b60006144fa8285613c19565b91506145068284613c19565b91508190509392505050565b60006020820190506145276000830184613b2b565b92915050565b60006080820190506145426000830187613b2b565b61454f6020830186613b2b565b61455c60408301856144df565b818103606083015261456e8184613ba7565b905095945050505050565b600060208201905081810360008301526145938184613b3a565b905092915050565b60006020820190506145b06000830184613b98565b92915050565b600060208201905081810360008301526145d08184613be0565b905092915050565b600060208201905081810360008301526145f181613c4a565b9050919050565b6000602082019050818103600083015261461181613cb0565b9050919050565b6000602082019050818103600083015261463181613d16565b9050919050565b6000602082019050818103600083015261465181613d7c565b9050919050565b6000602082019050818103600083015261467181613dbc565b9050919050565b6000602082019050818103600083015261469181613dfc565b9050919050565b600060208201905081810360008301526146b181613e62565b9050919050565b600060208201905081810360008301526146d181613ea2565b9050919050565b600060208201905081810360008301526146f181613f08565b9050919050565b6000602082019050818103600083015261471181613f6e565b9050919050565b6000602082019050818103600083015261473181613fae565b9050919050565b6000602082019050818103600083015261475181614014565b9050919050565b600060208201905081810360008301526147718161407a565b9050919050565b60006020820190508181036000830152614791816140e0565b9050919050565b600060208201905081810360008301526147b181614120565b9050919050565b600060208201905081810360008301526147d181614186565b9050919050565b600060208201905081810360008301526147f1816141c6565b9050919050565b600060208201905081810360008301526148118161422c565b9050919050565b6000602082019050818103600083015261483181614292565b9050919050565b60006020820190508181036000830152614851816142f8565b9050919050565b6000602082019050818103600083015261487181614338565b9050919050565b600060208201905081810360008301526148918161439e565b9050919050565b600060208201905081810360008301526148b181614404565b9050919050565b600060208201905081810360008301526148d18161446a565b9050919050565b60006020820190506148ed60008301846144df565b92915050565b6000604051905081810181811067ffffffffffffffff8211171561491a57614919614cd6565b5b8060405250919050565b600067ffffffffffffffff82111561493f5761493e614cd6565b5b602082029050602081019050919050565b600067ffffffffffffffff82111561496b5761496a614cd6565b5b601f19601f8301169050602081019050919050565b600067ffffffffffffffff82111561499b5761499a614cd6565b5b601f19601f8301169050602081019050919050565b6000819050602082019050919050565b600081519050919050565b600081519050919050565b600081519050919050565b6000602082019050919050565b600082825260208201905092915050565b600082825260208201905092915050565b600082825260208201905092915050565b600081905092915050565b6000614a3782614b51565b9150614a4283614b51565b9250827fffffffffffffffffffffffffffffffffffffffffffffffffffffffffffffffff03821115614a7757614a76614c49565b5b828201905092915050565b6000614a8d82614b51565b9150614a9883614b51565b925082614aa857614aa7614c78565b5b828204905092915050565b6000614abe82614b51565b9150614ac983614b51565b925082821015614adc57614adb614c49565b5b828203905092915050565b6000614af282614b31565b9050919050565b60008115159050919050565b60007fffffffff0000000000000000000000000000000000000000000000000000000082169050919050565b600073ffffffffffffffffffffffffffffffffffffffff82169050919050565b6000819050919050565b82818337600083830152505050565b60005b83811015614b88578082015181840152602081019050614b6d565b83811115614b97576000848401525b50505050565b60006002820490506001821680614bb557607f821691505b60208210811415614bc957614bc8614ca7565b5b50919050565b6000614bda82614b51565b91507fffffffffffffffffffffffffffffffffffffffffffffffffffffffffffffffff821415614c0d57614c0c614c49565b5b600182019050919050565b6000614c2382614b51565b9150614c2e83614b51565b925082614c3e57614c3d614c78565b5b828206905092915050565b7f4e487b7100000000000000000000000000000000000000000000000000000000600052601160045260246000fd5b7f4e487b7100000000000000000000000000000000000000000000000000000000600052601260045260246000fd5b7f4e487b7100000000000000000000000000000000000000000000000000000000600052602260045260246000fd5b7f4e487b7100000000000000000000000000000000000000000000000000000000600052604160045260246000fd5b6000601f19601f8301169050919050565b614d1f81614ae7565b8114614d2a57600080fd5b50565b614d3681614af9565b8114614d4157600080fd5b50565b614d4d81614b05565b8114614d5857600080fd5b50565b614d6481614b51565b8114614d6f57600080fd5b5056fea26469706673582212208f1c3249c9cd819b23a71ec1a2a39b46c47de49539fe0435d6592230ae49b4a164736f6c63430008000033",
			"opcodes": "PUSH1 0x80 PUSH1 0x40 MSTORE PUSH1 0x0 PUSH1 0xA PUSH1 0x14 PUSH2 0x100 EXP DUP2 SLOAD DUP2 PUSH1 0xFF MUL NOT AND SWAP1 DUP4 ISZERO ISZERO MUL OR SWAP1 SSTORE POP PUSH1 0x0 PUSH1 0xB SSTORE PUSH1 0x0 PUSH1 0xC SSTORE PUSH3 0x93A80 TIMESTAMP PUSH3 0x3A SWAP2 SWAP1 PUSH3 0x2B7 JUMP JUMPDEST PUSH1 0xD SSTORE PUSH1 0x40 MLOAD DUP1 PUSH1 0x20 ADD PUSH1 0x40 MSTORE DUP1 PUSH1 0x0 DUP2 MSTORE POP PUSH1 0xE SWAP1 DUP1 MLOAD SWAP1 PUSH1 0x20 ADD SWAP1 PUSH3 0x64 SWAP3 SWAP2 SWAP1 PUSH3 0x207 JUMP JUMPDEST POP CALLVALUE DUP1 ISZERO PUSH3 0x72 JUMPI PUSH1 0x0 DUP1 REVERT JUMPDEST POP PUSH1 0x40 MLOAD DUP1 PUSH1 0x40 ADD PUSH1 0x40 MSTORE DUP1 PUSH1 0xA DUP2 MSTORE PUSH1 0x20 ADD PUSH32 0x446961647261676F6E7300000000000000000000000000000000000000000000 DUP2 MSTORE POP PUSH1 0x40 MLOAD DUP1 PUSH1 0x40 ADD PUSH1 0x40 MSTORE DUP1 PUSH1 0x2 DUP2 MSTORE PUSH1 0x20 ADD PUSH32 0x4444000000000000000000000000000000000000000000000000000000000000 DUP2 MSTORE POP DUP2 PUSH1 0x0 SWAP1 DUP1 MLOAD SWAP1 PUSH1 0x20 ADD SWAP1 PUSH3 0xF7 SWAP3 SWAP2 SWAP1 PUSH3 0x207 JUMP JUMPDEST POP DUP1 PUSH1 0x1 SWAP1 DUP1 MLOAD SWAP1 PUSH1 0x20 ADD SWAP1 PUSH3 0x110 SWAP3 SWAP2 SWAP1 PUSH3 0x207 JUMP JUMPDEST POP POP POP PUSH3 0x133 PUSH3 0x127 PUSH3 0x139 PUSH1 0x20 SHL PUSH1 0x20 SHR JUMP JUMPDEST PUSH3 0x141 PUSH1 0x20 SHL PUSH1 0x20 SHR JUMP JUMPDEST PUSH3 0x3B2 JUMP JUMPDEST PUSH1 0x0 CALLER SWAP1 POP SWAP1 JUMP JUMPDEST PUSH1 0x0 PUSH1 0xA PUSH1 0x0 SWAP1 SLOAD SWAP1 PUSH2 0x100 EXP SWAP1 DIV PUSH20 0xFFFFFFFFFFFFFFFFFFFFFFFFFFFFFFFFFFFFFFFF AND SWAP1 POP DUP2 PUSH1 0xA PUSH1 0x0 PUSH2 0x100 EXP DUP2 SLOAD DUP2 PUSH20 0xFFFFFFFFFFFFFFFFFFFFFFFFFFFFFFFFFFFFFFFF MUL NOT AND SWAP1 DUP4 PUSH20 0xFFFFFFFFFFFFFFFFFFFFFFFFFFFFFFFFFFFFFFFF AND MUL OR SWAP1 SSTORE POP DUP2 PUSH20 0xFFFFFFFFFFFFFFFFFFFFFFFFFFFFFFFFFFFFFFFF AND DUP2 PUSH20 0xFFFFFFFFFFFFFFFFFFFFFFFFFFFFFFFFFFFFFFFF AND PUSH32 0x8BE0079C531659141344CD1FD0A4F28419497F9722A3DAAFE3B4186F6B6457E0 PUSH1 0x40 MLOAD PUSH1 0x40 MLOAD DUP1 SWAP2 SUB SWAP1 LOG3 POP POP JUMP JUMPDEST DUP3 DUP1 SLOAD PUSH3 0x215 SWAP1 PUSH3 0x31E JUMP JUMPDEST SWAP1 PUSH1 0x0 MSTORE PUSH1 0x20 PUSH1 0x0 KECCAK256 SWAP1 PUSH1 0x1F ADD PUSH1 0x20 SWAP1 DIV DUP2 ADD SWAP3 DUP3 PUSH3 0x239 JUMPI PUSH1 0x0 DUP6 SSTORE PUSH3 0x285 JUMP JUMPDEST DUP3 PUSH1 0x1F LT PUSH3 0x254 JUMPI DUP1 MLOAD PUSH1 0xFF NOT AND DUP4 DUP1 ADD OR DUP6 SSTORE PUSH3 0x285 JUMP JUMPDEST DUP3 DUP1 ADD PUSH1 0x1 ADD DUP6 SSTORE DUP3 ISZERO PUSH3 0x285 JUMPI SWAP2 DUP3 ADD JUMPDEST DUP3 DUP2 GT ISZERO PUSH3 0x284 JUMPI DUP3 MLOAD DUP3 SSTORE SWAP2 PUSH1 0x20 ADD SWAP2 SWAP1 PUSH1 0x1 ADD SWAP1 PUSH3 0x267 JUMP JUMPDEST JUMPDEST POP SWAP1 POP PUSH3 0x294 SWAP2 SWAP1 PUSH3 0x298 JUMP JUMPDEST POP SWAP1 JUMP JUMPDEST JUMPDEST DUP1 DUP3 GT ISZERO PUSH3 0x2B3 JUMPI PUSH1 0x0 DUP2 PUSH1 0x0 SWAP1 SSTORE POP PUSH1 0x1 ADD PUSH3 0x299 JUMP JUMPDEST POP SWAP1 JUMP JUMPDEST PUSH1 0x0 PUSH3 0x2C4 DUP3 PUSH3 0x314 JUMP JUMPDEST SWAP2 POP PUSH3 0x2D1 DUP4 PUSH3 0x314 JUMP JUMPDEST SWAP3 POP DUP3 PUSH32 0xFFFFFFFFFFFFFFFFFFFFFFFFFFFFFFFFFFFFFFFFFFFFFFFFFFFFFFFFFFFFFFFF SUB DUP3 GT ISZERO PUSH3 0x309 JUMPI PUSH3 0x308 PUSH3 0x354 JUMP JUMPDEST JUMPDEST DUP3 DUP3 ADD SWAP1 POP SWAP3 SWAP2 POP POP JUMP JUMPDEST PUSH1 0x0 DUP2 SWAP1 POP SWAP2 SWAP1 POP JUMP JUMPDEST PUSH1 0x0 PUSH1 0x2 DUP3 DIV SWAP1 POP PUSH1 0x1 DUP3 AND DUP1 PUSH3 0x337 JUMPI PUSH1 0x7F DUP3 AND SWAP2 POP JUMPDEST PUSH1 0x20 DUP3 LT DUP2 EQ ISZERO PUSH3 0x34E JUMPI PUSH3 0x34D PUSH3 0x383 JUMP JUMPDEST JUMPDEST POP SWAP2 SWAP1 POP JUMP JUMPDEST PUSH32 0x4E487B7100000000000000000000000000000000000000000000000000000000 PUSH1 0x0 MSTORE PUSH1 0x11 PUSH1 0x4 MSTORE PUSH1 0x24 PUSH1 0x0 REVERT JUMPDEST PUSH32 0x4E487B7100000000000000000000000000000000000000000000000000000000 PUSH1 0x0 MSTORE PUSH1 0x22 PUSH1 0x4 MSTORE PUSH1 0x24 PUSH1 0x0 REVERT JUMPDEST PUSH2 0x4DA8 DUP1 PUSH3 0x3C2 PUSH1 0x0 CODECOPY PUSH1 0x0 RETURN INVALID PUSH1 0x80 PUSH1 0x40 MSTORE PUSH1 0x4 CALLDATASIZE LT PUSH2 0x267 JUMPI PUSH1 0x0 CALLDATALOAD PUSH1 0xE0 SHR DUP1 PUSH4 0x6352211E GT PUSH2 0x144 JUMPI DUP1 PUSH4 0xB3FBA606 GT PUSH2 0xB6 JUMPI DUP1 PUSH4 0xD2F90214 GT PUSH2 0x7A JUMPI DUP1 PUSH4 0xD2F90214 EQ PUSH2 0x8C3 JUMPI DUP1 PUSH4 0xE11C7FB5 EQ PUSH2 0x8DA JUMPI DUP1 PUSH4 0xE985E9C5 EQ PUSH2 0x905 JUMPI DUP1 PUSH4 0xF2FDE38B EQ PUSH2 0x942 JUMPI DUP1 PUSH4 0xF731B676 EQ PUSH2 0x96B JUMPI DUP1 PUSH4 0xFFE90BA6 EQ PUSH2 0x994 JUMPI PUSH2 0x267 JUMP JUMPDEST DUP1 PUSH4 0xB3FBA606 EQ PUSH2 0x7F2 JUMPI DUP1 PUSH4 0xB66A0E5D EQ PUSH2 0x81B JUMPI DUP1 PUSH4 0xB88D4FDE EQ PUSH2 0x832 JUMPI DUP1 PUSH4 0xC4E41B22 EQ PUSH2 0x85B JUMPI DUP1 PUSH4 0xC87B56DD EQ PUSH2 0x886 JUMPI PUSH2 0x267 JUMP JUMPDEST DUP1 PUSH4 0x71F9C534 GT PUSH2 0x108 JUMPI DUP1 PUSH4 0x71F9C534 EQ PUSH2 0x6E0 JUMPI DUP1 PUSH4 0x8DA5CB5B EQ PUSH2 0x70B JUMPI DUP1 PUSH4 0x94BB5437 EQ PUSH2 0x736 JUMPI DUP1 PUSH4 0x95D89B41 EQ PUSH2 0x761 JUMPI DUP1 PUSH4 0x961CA5BF EQ PUSH2 0x78C JUMPI DUP1 PUSH4 0xA22CB465 EQ PUSH2 0x7C9 JUMPI PUSH2 0x267 JUMP JUMPDEST DUP1 PUSH4 0x6352211E EQ PUSH2 0x5F9 JUMPI DUP1 PUSH4 0x6C0360EB EQ PUSH2 0x636 JUMPI DUP1 PUSH4 0x7080D6FC EQ PUSH2 0x661 JUMPI DUP1 PUSH4 0x70A08231 EQ PUSH2 0x68C JUMPI DUP1 PUSH4 0x715018A6 EQ PUSH2 0x6C9 JUMPI PUSH2 0x267 JUMP JUMPDEST DUP1 PUSH4 0x2A85DB55 GT PUSH2 0x1DD JUMPI DUP1 PUSH4 0x42699FEC GT PUSH2 0x1A1 JUMPI DUP1 PUSH4 0x42699FEC EQ PUSH2 0x4FF JUMPI DUP1 PUSH4 0x42842E0E EQ PUSH2 0x528 JUMPI DUP1 PUSH4 0x4F6CCCE7 EQ PUSH2 0x551 JUMPI DUP1 PUSH4 0x55367BA9 EQ PUSH2 0x58E JUMPI DUP1 PUSH4 0x55F804B3 EQ PUSH2 0x5A5 JUMPI DUP1 PUSH4 0x564566A8 EQ PUSH2 0x5CE JUMPI PUSH2 0x267 JUMP JUMPDEST DUP1 PUSH4 0x2A85DB55 EQ PUSH2 0x440 JUMPI DUP1 PUSH4 0x2F745C59 EQ PUSH2 0x469 JUMPI DUP1 PUSH4 0x32CB6B0C EQ PUSH2 0x4A6 JUMPI DUP1 PUSH4 0x3CCFD60B EQ PUSH2 0x4D1 JUMPI DUP1 PUSH4 0x3DC23A6D EQ PUSH2 0x4E8 JUMPI PUSH2 0x267 JUMP JUMPDEST DUP1 PUSH4 0x10969523 GT PUSH2 0x22F JUMPI DUP1 PUSH4 0x10969523 EQ PUSH2 0x363 JUMPI DUP1 PUSH4 0x14CF19FE EQ PUSH2 0x38C JUMPI DUP1 PUSH4 0x18160DDD EQ PUSH2 0x3B7 JUMPI DUP1 PUSH4 0x1BA07240 EQ PUSH2 0x3E2 JUMPI DUP1 PUSH4 0x1FAA77EA EQ PUSH2 0x40D JUMPI DUP1 PUSH4 0x23B872DD EQ PUSH2 0x417 JUMPI PUSH2 0x267 JUMP JUMPDEST DUP1 PUSH4 0x18A2C37 EQ PUSH2 0x26C JUMPI DUP1 PUSH4 0x1FFC9A7 EQ PUSH2 0x295 JUMPI DUP1 PUSH4 0x6FDDE03 EQ PUSH2 0x2D2 JUMPI DUP1 PUSH4 0x81812FC EQ PUSH2 0x2FD JUMPI DUP1 PUSH4 0x95EA7B3 EQ PUSH2 0x33A JUMPI JUMPDEST PUSH1 0x0 DUP1 REVERT JUMPDEST CALLVALUE DUP1 ISZERO PUSH2 0x278 JUMPI PUSH1 0x0 DUP1 REVERT JUMPDEST POP PUSH2 0x293 PUSH1 0x4 DUP1 CALLDATASIZE SUB DUP2 ADD SWAP1 PUSH2 0x28E SWAP2 SWAP1 PUSH2 0x3AAE JUMP JUMPDEST PUSH2 0x9BF JUMP JUMPDEST STOP JUMPDEST CALLVALUE DUP1 ISZERO PUSH2 0x2A1 JUMPI PUSH1 0x0 DUP1 REVERT JUMPDEST POP PUSH2 0x2BC PUSH1 0x4 DUP1 CALLDATASIZE SUB DUP2 ADD SWAP1 PUSH2 0x2B7 SWAP2 SWAP1 PUSH2 0x3A1B JUMP JUMPDEST PUSH2 0xA45 JUMP JUMPDEST PUSH1 0x40 MLOAD PUSH2 0x2C9 SWAP2 SWAP1 PUSH2 0x459B JUMP JUMPDEST PUSH1 0x40 MLOAD DUP1 SWAP2 SUB SWAP1 RETURN JUMPDEST CALLVALUE DUP1 ISZERO PUSH2 0x2DE JUMPI PUSH1 0x0 DUP1 REVERT JUMPDEST POP PUSH2 0x2E7 PUSH2 0xA57 JUMP JUMPDEST PUSH1 0x40 MLOAD PUSH2 0x2F4 SWAP2 SWAP1 PUSH2 0x45B6 JUMP JUMPDEST PUSH1 0x40 MLOAD DUP1 SWAP2 SUB SWAP1 RETURN JUMPDEST CALLVALUE DUP1 ISZERO PUSH2 0x309 JUMPI PUSH1 0x0 DUP1 REVERT JUMPDEST POP PUSH2 0x324 PUSH1 0x4 DUP1 CALLDATASIZE SUB DUP2 ADD SWAP1 PUSH2 0x31F SWAP2 SWAP1 PUSH2 0x3AAE JUMP JUMPDEST PUSH2 0xAE9 JUMP JUMPDEST PUSH1 0x40 MLOAD PUSH2 0x331 SWAP2 SWAP1 PUSH2 0x4512 JUMP JUMPDEST PUSH1 0x40 MLOAD DUP1 SWAP2 SUB SWAP1 RETURN JUMPDEST CALLVALUE DUP1 ISZERO PUSH2 0x346 JUMPI PUSH1 0x0 DUP1 REVERT JUMPDEST POP PUSH2 0x361 PUSH1 0x4 DUP1 CALLDATASIZE SUB DUP2 ADD SWAP1 PUSH2 0x35C SWAP2 SWAP1 PUSH2 0x399E JUMP JUMPDEST PUSH2 0xB6E JUMP JUMPDEST STOP JUMPDEST CALLVALUE DUP1 ISZERO PUSH2 0x36F JUMPI PUSH1 0x0 DUP1 REVERT JUMPDEST POP PUSH2 0x38A PUSH1 0x4 DUP1 CALLDATASIZE SUB DUP2 ADD SWAP1 PUSH2 0x385 SWAP2 SWAP1 PUSH2 0x3A6D JUMP JUMPDEST PUSH2 0xC86 JUMP JUMPDEST STOP JUMPDEST CALLVALUE DUP1 ISZERO PUSH2 0x398 JUMPI PUSH1 0x0 DUP1 REVERT JUMPDEST POP PUSH2 0x3A1 PUSH2 0xD1C JUMP JUMPDEST PUSH1 0x40 MLOAD PUSH2 0x3AE SWAP2 SWAP1 PUSH2 0x48D8 JUMP JUMPDEST PUSH1 0x40 MLOAD DUP1 SWAP2 SUB SWAP1 RETURN JUMPDEST CALLVALUE DUP1 ISZERO PUSH2 0x3C3 JUMPI PUSH1 0x0 DUP1 REVERT JUMPDEST POP PUSH2 0x3CC PUSH2 0xD28 JUMP JUMPDEST PUSH1 0x40 MLOAD PUSH2 0x3D9 SWAP2 SWAP1 PUSH2 0x48D8 JUMP JUMPDEST PUSH1 0x40 MLOAD DUP1 SWAP2 SUB SWAP1 RETURN JUMPDEST CALLVALUE DUP1 ISZERO PUSH2 0x3EE JUMPI PUSH1 0x0 DUP1 REVERT JUMPDEST POP PUSH2 0x3F7 PUSH2 0xD35 JUMP JUMPDEST PUSH1 0x40 MLOAD PUSH2 0x404 SWAP2 SWAP1 PUSH2 0x48D8 JUMP JUMPDEST PUSH1 0x40 MLOAD DUP1 SWAP2 SUB SWAP1 RETURN JUMPDEST PUSH2 0x415 PUSH2 0xD3B JUMP JUMPDEST STOP JUMPDEST CALLVALUE DUP1 ISZERO PUSH2 0x423 JUMPI PUSH1 0x0 DUP1 REVERT JUMPDEST POP PUSH2 0x43E PUSH1 0x4 DUP1 CALLDATASIZE SUB DUP2 ADD SWAP1 PUSH2 0x439 SWAP2 SWAP1 PUSH2 0x3898 JUMP JUMPDEST PUSH2 0xE7F JUMP JUMPDEST STOP JUMPDEST CALLVALUE DUP1 ISZERO PUSH2 0x44C JUMPI PUSH1 0x0 DUP1 REVERT JUMPDEST POP PUSH2 0x467 PUSH1 0x4 DUP1 CALLDATASIZE SUB DUP2 ADD SWAP1 PUSH2 0x462 SWAP2 SWAP1 PUSH2 0x3A6D JUMP JUMPDEST PUSH2 0xEDF JUMP JUMPDEST STOP JUMPDEST CALLVALUE DUP1 ISZERO PUSH2 0x475 JUMPI PUSH1 0x0 DUP1 REVERT JUMPDEST POP PUSH2 0x490 PUSH1 0x4 DUP1 CALLDATASIZE SUB DUP2 ADD SWAP1 PUSH2 0x48B SWAP2 SWAP1 PUSH2 0x399E JUMP JUMPDEST PUSH2 0xF75 JUMP JUMPDEST PUSH1 0x40 MLOAD PUSH2 0x49D SWAP2 SWAP1 PUSH2 0x48D8 JUMP JUMPDEST PUSH1 0x40 MLOAD DUP1 SWAP2 SUB SWAP1 RETURN JUMPDEST CALLVALUE DUP1 ISZERO PUSH2 0x4B2 JUMPI PUSH1 0x0 DUP1 REVERT JUMPDEST POP PUSH2 0x4BB PUSH2 0x101A JUMP JUMPDEST PUSH1 0x40 MLOAD PUSH2 0x4C8 SWAP2 SWAP1 PUSH2 0x48D8 JUMP JUMPDEST PUSH1 0x40 MLOAD DUP1 SWAP2 SUB SWAP1 RETURN JUMPDEST CALLVALUE DUP1 ISZERO PUSH2 0x4DD JUMPI PUSH1 0x0 DUP1 REVERT JUMPDEST POP PUSH2 0x4E6 PUSH2 0x1020 JUMP JUMPDEST STOP JUMPDEST CALLVALUE DUP1 ISZERO PUSH2 0x4F4 JUMPI PUSH1 0x0 DUP1 REVERT JUMPDEST POP PUSH2 0x4FD PUSH2 0x10EB JUMP JUMPDEST STOP JUMPDEST CALLVALUE DUP1 ISZERO PUSH2 0x50B JUMPI PUSH1 0x0 DUP1 REVERT JUMPDEST POP PUSH2 0x526 PUSH1 0x4 DUP1 CALLDATASIZE SUB DUP2 ADD SWAP1 PUSH2 0x521 SWAP2 SWAP1 PUSH2 0x39DA JUMP JUMPDEST PUSH2 0x11B5 JUMP JUMPDEST STOP JUMPDEST CALLVALUE DUP1 ISZERO PUSH2 0x534 JUMPI PUSH1 0x0 DUP1 REVERT JUMPDEST POP PUSH2 0x54F PUSH1 0x4 DUP1 CALLDATASIZE SUB DUP2 ADD SWAP1 PUSH2 0x54A SWAP2 SWAP1 PUSH2 0x3898 JUMP JUMPDEST PUSH2 0x12FE JUMP JUMPDEST STOP JUMPDEST CALLVALUE DUP1 ISZERO PUSH2 0x55D JUMPI PUSH1 0x0 DUP1 REVERT JUMPDEST POP PUSH2 0x578 PUSH1 0x4 DUP1 CALLDATASIZE SUB DUP2 ADD SWAP1 PUSH2 0x573 SWAP2 SWAP1 PUSH2 0x3AAE JUMP JUMPDEST PUSH2 0x131E JUMP JUMPDEST PUSH1 0x40 MLOAD PUSH2 0x585 SWAP2 SWAP1 PUSH2 0x48D8 JUMP JUMPDEST PUSH1 0x40 MLOAD DUP1 SWAP2 SUB SWAP1 RETURN JUMPDEST CALLVALUE DUP1 ISZERO PUSH2 0x59A JUMPI PUSH1 0x0 DUP1 REVERT JUMPDEST POP PUSH2 0x5A3 PUSH2 0x13B5 JUMP JUMPDEST STOP JUMPDEST CALLVALUE DUP1 ISZERO PUSH2 0x5B1 JUMPI PUSH1 0x0 DUP1 REVERT JUMPDEST POP PUSH2 0x5CC PUSH1 0x4 DUP1 CALLDATASIZE SUB DUP2 ADD SWAP1 PUSH2 0x5C7 SWAP2 SWAP1 PUSH2 0x3A6D JUMP JUMPDEST PUSH2 0x147A JUMP JUMPDEST STOP JUMPDEST CALLVALUE DUP1 ISZERO PUSH2 0x5DA JUMPI PUSH1 0x0 DUP1 REVERT JUMPDEST POP PUSH2 0x5E3 PUSH2 0x1510 JUMP JUMPDEST PUSH1 0x40 MLOAD PUSH2 0x5F0 SWAP2 SWAP1 PUSH2 0x459B JUMP JUMPDEST PUSH1 0x40 MLOAD DUP1 SWAP2 SUB SWAP1 RETURN JUMPDEST CALLVALUE DUP1 ISZERO PUSH2 0x605 JUMPI PUSH1 0x0 DUP1 REVERT JUMPDEST POP PUSH2 0x620 PUSH1 0x4 DUP1 CALLDATASIZE SUB DUP2 ADD SWAP1 PUSH2 0x61B SWAP2 SWAP1 PUSH2 0x3AAE JUMP JUMPDEST PUSH2 0x1527 JUMP JUMPDEST PUSH1 0x40 MLOAD PUSH2 0x62D SWAP2 SWAP1 PUSH2 0x4512 JUMP JUMPDEST PUSH1 0x40 MLOAD DUP1 SWAP2 SUB SWAP1 RETURN JUMPDEST CALLVALUE DUP1 ISZERO PUSH2 0x642 JUMPI PUSH1 0x0 DUP1 REVERT JUMPDEST POP PUSH2 0x64B PUSH2 0x15D9 JUMP JUMPDEST PUSH1 0x40 MLOAD PUSH2 0x658 SWAP2 SWAP1 PUSH2 0x45B6 JUMP JUMPDEST PUSH1 0x40 MLOAD DUP1 SWAP2 SUB SWAP1 RETURN JUMPDEST CALLVALUE DUP1 ISZERO PUSH2 0x66D JUMPI PUSH1 0x0 DUP1 REVERT JUMPDEST POP PUSH2 0x676 PUSH2 0x1667 JUMP JUMPDEST PUSH1 0x40 MLOAD PUSH2 0x683 SWAP2 SWAP1 PUSH2 0x459B JUMP JUMPDEST PUSH1 0x40 MLOAD DUP1 SWAP2 SUB SWAP1 RETURN JUMPDEST CALLVALUE DUP1 ISZERO PUSH2 0x698 JUMPI PUSH1 0x0 DUP1 REVERT JUMPDEST POP PUSH2 0x6B3 PUSH1 0x4 DUP1 CALLDATASIZE SUB DUP2 ADD SWAP1 PUSH2 0x6AE SWAP2 SWAP1 PUSH2 0x3833 JUMP JUMPDEST PUSH2 0x167A JUMP JUMPDEST PUSH1 0x40 MLOAD PUSH2 0x6C0 SWAP2 SWAP1 PUSH2 0x48D8 JUMP JUMPDEST PUSH1 0x40 MLOAD DUP1 SWAP2 SUB SWAP1 RETURN JUMPDEST CALLVALUE DUP1 ISZERO PUSH2 0x6D5 JUMPI PUSH1 0x0 DUP1 REVERT JUMPDEST POP PUSH2 0x6DE PUSH2 0x1732 JUMP JUMPDEST STOP JUMPDEST CALLVALUE DUP1 ISZERO PUSH2 0x6EC JUMPI PUSH1 0x0 DUP1 REVERT JUMPDEST POP PUSH2 0x6F5 PUSH2 0x17BA JUMP JUMPDEST PUSH1 0x40 MLOAD PUSH2 0x702 SWAP2 SWAP1 PUSH2 0x48D8 JUMP JUMPDEST PUSH1 0x40 MLOAD DUP1 SWAP2 SUB SWAP1 RETURN JUMPDEST CALLVALUE DUP1 ISZERO PUSH2 0x717 JUMPI PUSH1 0x0 DUP1 REVERT JUMPDEST POP PUSH2 0x720 PUSH2 0x17C0 JUMP JUMPDEST PUSH1 0x40 MLOAD PUSH2 0x72D SWAP2 SWAP1 PUSH2 0x4512 JUMP JUMPDEST PUSH1 0x40 MLOAD DUP1 SWAP2 SUB SWAP1 RETURN JUMPDEST CALLVALUE DUP1 ISZERO PUSH2 0x742 JUMPI PUSH1 0x0 DUP1 REVERT JUMPDEST POP PUSH2 0x74B PUSH2 0x17EA JUMP JUMPDEST PUSH1 0x40 MLOAD PUSH2 0x758 SWAP2 SWAP1 PUSH2 0x45B6 JUMP JUMPDEST PUSH1 0x40 MLOAD DUP1 SWAP2 SUB SWAP1 RETURN JUMPDEST CALLVALUE DUP1 ISZERO PUSH2 0x76D JUMPI PUSH1 0x0 DUP1 REVERT JUMPDEST POP PUSH2 0x776 PUSH2 0x1878 JUMP JUMPDEST PUSH1 0x40 MLOAD PUSH2 0x783 SWAP2 SWAP1 PUSH2 0x45B6 JUMP JUMPDEST PUSH1 0x40 MLOAD DUP1 SWAP2 SUB SWAP1 RETURN JUMPDEST CALLVALUE DUP1 ISZERO PUSH2 0x798 JUMPI PUSH1 0x0 DUP1 REVERT JUMPDEST POP PUSH2 0x7B3 PUSH1 0x4 DUP1 CALLDATASIZE SUB DUP2 ADD SWAP1 PUSH2 0x7AE SWAP2 SWAP1 PUSH2 0x3833 JUMP JUMPDEST PUSH2 0x190A JUMP JUMPDEST PUSH1 0x40 MLOAD PUSH2 0x7C0 SWAP2 SWAP1 PUSH2 0x4579 JUMP JUMPDEST PUSH1 0x40 MLOAD DUP1 SWAP2 SUB SWAP1 RETURN JUMPDEST CALLVALUE DUP1 ISZERO PUSH2 0x7D5 JUMPI PUSH1 0x0 DUP1 REVERT JUMPDEST POP PUSH2 0x7F0 PUSH1 0x4 DUP1 CALLDATASIZE SUB DUP2 ADD SWAP1 PUSH2 0x7EB SWAP2 SWAP1 PUSH2 0x3962 JUMP JUMPDEST PUSH2 0x1A04 JUMP JUMPDEST STOP JUMPDEST CALLVALUE DUP1 ISZERO PUSH2 0x7FE JUMPI PUSH1 0x0 DUP1 REVERT JUMPDEST POP PUSH2 0x819 PUSH1 0x4 DUP1 CALLDATASIZE SUB DUP2 ADD SWAP1 PUSH2 0x814 SWAP2 SWAP1 PUSH2 0x3AD7 JUMP JUMPDEST PUSH2 0x1B85 JUMP JUMPDEST STOP JUMPDEST CALLVALUE DUP1 ISZERO PUSH2 0x827 JUMPI PUSH1 0x0 DUP1 REVERT JUMPDEST POP PUSH2 0x830 PUSH2 0x1CAB JUMP JUMPDEST STOP JUMPDEST CALLVALUE DUP1 ISZERO PUSH2 0x83E JUMPI PUSH1 0x0 DUP1 REVERT JUMPDEST POP PUSH2 0x859 PUSH1 0x4 DUP1 CALLDATASIZE SUB DUP2 ADD SWAP1 PUSH2 0x854 SWAP2 SWAP1 PUSH2 0x38E7 JUMP JUMPDEST PUSH2 0x1D70 JUMP JUMPDEST STOP JUMPDEST CALLVALUE DUP1 ISZERO PUSH2 0x867 JUMPI PUSH1 0x0 DUP1 REVERT JUMPDEST POP PUSH2 0x870 PUSH2 0x1DD2 JUMP JUMPDEST PUSH1 0x40 MLOAD PUSH2 0x87D SWAP2 SWAP1 PUSH2 0x48D8 JUMP JUMPDEST PUSH1 0x40 MLOAD DUP1 SWAP2 SUB SWAP1 RETURN JUMPDEST CALLVALUE DUP1 ISZERO PUSH2 0x892 JUMPI PUSH1 0x0 DUP1 REVERT JUMPDEST POP PUSH2 0x8AD PUSH1 0x4 DUP1 CALLDATASIZE SUB DUP2 ADD SWAP1 PUSH2 0x8A8 SWAP2 SWAP1 PUSH2 0x3AAE JUMP JUMPDEST PUSH2 0x1DE1 JUMP JUMPDEST PUSH1 0x40 MLOAD PUSH2 0x8BA SWAP2 SWAP1 PUSH2 0x45B6 JUMP JUMPDEST PUSH1 0x40 MLOAD DUP1 SWAP2 SUB SWAP1 RETURN JUMPDEST CALLVALUE DUP1 ISZERO PUSH2 0x8CF JUMPI PUSH1 0x0 DUP1 REVERT JUMPDEST POP PUSH2 0x8D8 PUSH2 0x1F57 JUMP JUMPDEST STOP JUMPDEST CALLVALUE DUP1 ISZERO PUSH2 0x8E6 JUMPI PUSH1 0x0 DUP1 REVERT JUMPDEST POP PUSH2 0x8EF PUSH2 0x2067 JUMP JUMPDEST PUSH1 0x40 MLOAD PUSH2 0x8FC SWAP2 SWAP1 PUSH2 0x48D8 JUMP JUMPDEST PUSH1 0x40 MLOAD DUP1 SWAP2 SUB SWAP1 RETURN JUMPDEST CALLVALUE DUP1 ISZERO PUSH2 0x911 JUMPI PUSH1 0x0 DUP1 REVERT JUMPDEST POP PUSH2 0x92C PUSH1 0x4 DUP1 CALLDATASIZE SUB DUP2 ADD SWAP1 PUSH2 0x927 SWAP2 SWAP1 PUSH2 0x385C JUMP JUMPDEST PUSH2 0x206C JUMP JUMPDEST PUSH1 0x40 MLOAD PUSH2 0x939 SWAP2 SWAP1 PUSH2 0x459B JUMP JUMPDEST PUSH1 0x40 MLOAD DUP1 SWAP2 SUB SWAP1 RETURN JUMPDEST CALLVALUE DUP1 ISZERO PUSH2 0x94E JUMPI PUSH1 0x0 DUP1 REVERT JUMPDEST POP PUSH2 0x969 PUSH1 0x4 DUP1 CALLDATASIZE SUB DUP2 ADD SWAP1 PUSH2 0x964 SWAP2 SWAP1 PUSH2 0x3833 JUMP JUMPDEST PUSH2 0x2100 JUMP JUMPDEST STOP JUMPDEST CALLVALUE DUP1 ISZERO PUSH2 0x977 JUMPI PUSH1 0x0 DUP1 REVERT JUMPDEST POP PUSH2 0x992 PUSH1 0x4 DUP1 CALLDATASIZE SUB DUP2 ADD SWAP1 PUSH2 0x98D SWAP2 SWAP1 PUSH2 0x3AAE JUMP JUMPDEST PUSH2 0x21F8 JUMP JUMPDEST STOP JUMPDEST CALLVALUE DUP1 ISZERO PUSH2 0x9A0 JUMPI PUSH1 0x0 DUP1 REVERT JUMPDEST POP PUSH2 0x9A9 PUSH2 0x22DF JUMP JUMPDEST PUSH1 0x40 MLOAD PUSH2 0x9B6 SWAP2 SWAP1 PUSH2 0x48D8 JUMP JUMPDEST PUSH1 0x40 MLOAD DUP1 SWAP2 SUB SWAP1 RETURN JUMPDEST PUSH2 0x9C7 PUSH2 0x22E5 JUMP JUMPDEST PUSH20 0xFFFFFFFFFFFFFFFFFFFFFFFFFFFFFFFFFFFFFFFF AND PUSH2 0x9E5 PUSH2 0x17C0 JUMP JUMPDEST PUSH20 0xFFFFFFFFFFFFFFFFFFFFFFFFFFFFFFFFFFFFFFFF AND EQ PUSH2 0xA3B JUMPI PUSH1 0x40 MLOAD PUSH32 0x8C379A000000000000000000000000000000000000000000000000000000000 DUP2 MSTORE PUSH1 0x4 ADD PUSH2 0xA32 SWAP1 PUSH2 0x47B8 JUMP JUMPDEST PUSH1 0x40 MLOAD DUP1 SWAP2 SUB SWAP1 REVERT JUMPDEST DUP1 PUSH1 0xD DUP2 SWAP1 SSTORE POP POP JUMP JUMPDEST PUSH1 0x0 PUSH2 0xA50 DUP3 PUSH2 0x22ED JUMP JUMPDEST SWAP1 POP SWAP2 SWAP1 POP JUMP JUMPDEST PUSH1 0x60 PUSH1 0x0 DUP1 SLOAD PUSH2 0xA66 SWAP1 PUSH2 0x4B9D JUMP JUMPDEST DUP1 PUSH1 0x1F ADD PUSH1 0x20 DUP1 SWAP2 DIV MUL PUSH1 0x20 ADD PUSH1 0x40 MLOAD SWAP1 DUP2 ADD PUSH1 0x40 MSTORE DUP1 SWAP3 SWAP2 SWAP1 DUP2 DUP2 MSTORE PUSH1 0x20 ADD DUP3 DUP1 SLOAD PUSH2 0xA92 SWAP1 PUSH2 0x4B9D JUMP JUMPDEST DUP1 ISZERO PUSH2 0xADF JUMPI DUP1 PUSH1 0x1F LT PUSH2 0xAB4 JUMPI PUSH2 0x100 DUP1 DUP4 SLOAD DIV MUL DUP4 MSTORE SWAP2 PUSH1 0x20 ADD SWAP2 PUSH2 0xADF JUMP JUMPDEST DUP3 ADD SWAP2 SWAP1 PUSH1 0x0 MSTORE PUSH1 0x20 PUSH1 0x0 KECCAK256 SWAP1 JUMPDEST DUP2 SLOAD DUP2 MSTORE SWAP1 PUSH1 0x1 ADD SWAP1 PUSH1 0x20 ADD DUP1 DUP4 GT PUSH2 0xAC2 JUMPI DUP3 SWAP1 SUB PUSH1 0x1F AND DUP3 ADD SWAP2 JUMPDEST POP POP POP POP POP SWAP1 POP SWAP1 JUMP JUMPDEST PUSH1 0x0 PUSH2 0xAF4 DUP3 PUSH2 0x2367 JUMP JUMPDEST PUSH2 0xB33 JUMPI PUSH1 0x40 MLOAD PUSH32 0x8C379A000000000000000000000000000000000000000000000000000000000 DUP2 MSTORE PUSH1 0x4 ADD PUSH2 0xB2A SWAP1 PUSH2 0x4798 JUMP JUMPDEST PUSH1 0x40 MLOAD DUP1 SWAP2 SUB SWAP1 REVERT JUMPDEST PUSH1 0x4 PUSH1 0x0 DUP4 DUP2 MSTORE PUSH1 0x20 ADD SWAP1 DUP2 MSTORE PUSH1 0x20 ADD PUSH1 0x0 KECCAK256 PUSH1 0x0 SWAP1 SLOAD SWAP1 PUSH2 0x100 EXP SWAP1 DIV PUSH20 0xFFFFFFFFFFFFFFFFFFFFFFFFFFFFFFFFFFFFFFFF AND SWAP1 POP SWAP2 SWAP1 POP JUMP JUMPDEST PUSH1 0x0 PUSH2 0xB79 DUP3 PUSH2 0x1527 JUMP JUMPDEST SWAP1 POP DUP1 PUSH20 0xFFFFFFFFFFFFFFFFFFFFFFFFFFFFFFFFFFFFFFFF AND DUP4 PUSH20 0xFFFFFFFFFFFFFFFFFFFFFFFFFFFFFFFFFFFFFFFF AND EQ ISZERO PUSH2 0xBEA JUMPI PUSH1 0x40 MLOAD PUSH32 0x8C379A000000000000000000000000000000000000000000000000000000000 DUP2 MSTORE PUSH1 0x4 ADD PUSH2 0xBE1 SWAP1 PUSH2 0x4818 JUMP JUMPDEST PUSH1 0x40 MLOAD DUP1 SWAP2 SUB SWAP1 REVERT JUMPDEST DUP1 PUSH20 0xFFFFFFFFFFFFFFFFFFFFFFFFFFFFFFFFFFFFFFFF AND PUSH2 0xC09 PUSH2 0x22E5 JUMP JUMPDEST PUSH20 0xFFFFFFFFFFFFFFFFFFFFFFFFFFFFFFFFFFFFFFFF AND EQ DUP1 PUSH2 0xC38 JUMPI POP PUSH2 0xC37 DUP2 PUSH2 0xC32 PUSH2 0x22E5 JUMP JUMPDEST PUSH2 0x206C JUMP JUMPDEST JUMPDEST PUSH2 0xC77 JUMPI PUSH1 0x40 MLOAD PUSH32 0x8C379A000000000000000000000000000000000000000000000000000000000 DUP2 MSTORE PUSH1 0x4 ADD PUSH2 0xC6E SWAP1 PUSH2 0x4718 JUMP JUMPDEST PUSH1 0x40 MLOAD DUP1 SWAP2 SUB SWAP1 REVERT JUMPDEST PUSH2 0xC81 DUP4 DUP4 PUSH2 0x23D3 JUMP JUMPDEST POP POP POP JUMP JUMPDEST PUSH2 0xC8E PUSH2 0x22E5 JUMP JUMPDEST PUSH20 0xFFFFFFFFFFFFFFFFFFFFFFFFFFFFFFFFFFFFFFFF AND PUSH2 0xCAC PUSH2 0x17C0 JUMP JUMPDEST PUSH20 0xFFFFFFFFFFFFFFFFFFFFFFFFFFFFFFFFFFFFFFFF AND EQ PUSH2 0xD02 JUMPI PUSH1 0x40 MLOAD PUSH32 0x8C379A000000000000000000000000000000000000000000000000000000000 DUP2 MSTORE PUSH1 0x4 ADD PUSH2 0xCF9 SWAP1 PUSH2 0x47B8 JUMP JUMPDEST PUSH1 0x40 MLOAD DUP1 SWAP2 SUB SWAP1 REVERT JUMPDEST DUP1 PUSH1 0xE SWAP1 DUP1 MLOAD SWAP1 PUSH1 0x20 ADD SWAP1 PUSH2 0xD18 SWAP3 SWAP2 SWAP1 PUSH2 0x35C1 JUMP JUMPDEST POP POP JUMP JUMPDEST PUSH8 0x11C37937E080000 DUP2 JUMP JUMPDEST PUSH1 0x0 PUSH1 0x8 DUP1 SLOAD SWAP1 POP SWAP1 POP SWAP1 JUMP JUMPDEST PUSH1 0xC SLOAD DUP2 JUMP JUMPDEST PUSH1 0xA PUSH1 0x14 SWAP1 SLOAD SWAP1 PUSH2 0x100 EXP SWAP1 DIV PUSH1 0xFF AND PUSH2 0xD8A JUMPI PUSH1 0x40 MLOAD PUSH32 0x8C379A000000000000000000000000000000000000000000000000000000000 DUP2 MSTORE PUSH1 0x4 ADD PUSH2 0xD81 SWAP1 PUSH2 0x46D8 JUMP JUMPDEST PUSH1 0x40 MLOAD DUP1 SWAP2 SUB SWAP1 REVERT JUMPDEST PUSH2 0x2B67 PUSH2 0xDA8 PUSH1 0x1 PUSH2 0xD9A PUSH2 0xD28 JUMP JUMPDEST PUSH2 0x248C SWAP1 SWAP2 SWAP1 PUSH4 0xFFFFFFFF AND JUMP JUMPDEST GT ISZERO PUSH2 0xDE9 JUMPI PUSH1 0x40 MLOAD PUSH32 0x8C379A000000000000000000000000000000000000000000000000000000000 DUP2 MSTORE PUSH1 0x4 ADD PUSH2 0xDE0 SWAP1 PUSH2 0x4658 JUMP JUMPDEST PUSH1 0x40 MLOAD DUP1 SWAP2 SUB SWAP1 REVERT JUMPDEST CALLVALUE PUSH8 0x11C37937E080000 GT ISZERO PUSH2 0xE34 JUMPI PUSH1 0x40 MLOAD PUSH32 0x8C379A000000000000000000000000000000000000000000000000000000000 DUP2 MSTORE PUSH1 0x4 ADD PUSH2 0xE2B SWAP1 PUSH2 0x4898 JUMP JUMPDEST PUSH1 0x40 MLOAD DUP1 SWAP2 SUB SWAP1 REVERT JUMPDEST PUSH2 0xE3F PUSH1 0x1 CALLER PUSH2 0x24A2 JUMP JUMPDEST PUSH32 0xF00D28232B285F24F2E38415DEB2CEB31069E70D4505838B3911B4F02058502E PUSH2 0xE68 PUSH2 0xD28 JUMP JUMPDEST PUSH1 0x40 MLOAD PUSH2 0xE75 SWAP2 SWAP1 PUSH2 0x48D8 JUMP JUMPDEST PUSH1 0x40 MLOAD DUP1 SWAP2 SUB SWAP1 LOG1 JUMP JUMPDEST PUSH2 0xE90 PUSH2 0xE8A PUSH2 0x22E5 JUMP JUMPDEST DUP3 PUSH2 0x251C JUMP JUMPDEST PUSH2 0xECF JUMPI PUSH1 0x40 MLOAD PUSH32 0x8C379A000000000000000000000000000000000000000000000000000000000 DUP2 MSTORE PUSH1 0x4 ADD PUSH2 0xEC6 SWAP1 PUSH2 0x4858 JUMP JUMPDEST PUSH1 0x40 MLOAD DUP1 SWAP2 SUB SWAP1 REVERT JUMPDEST PUSH2 0xEDA DUP4 DUP4 DUP4 PUSH2 0x25FA JUMP JUMPDEST POP POP POP JUMP JUMPDEST PUSH2 0xEE7 PUSH2 0x22E5 JUMP JUMPDEST PUSH20 0xFFFFFFFFFFFFFFFFFFFFFFFFFFFFFFFFFFFFFFFF AND PUSH2 0xF05 PUSH2 0x17C0 JUMP JUMPDEST PUSH20 0xFFFFFFFFFFFFFFFFFFFFFFFFFFFFFFFFFFFFFFFF AND EQ PUSH2 0xF5B JUMPI PUSH1 0x40 MLOAD PUSH32 0x8C379A000000000000000000000000000000000000000000000000000000000 DUP2 MSTORE PUSH1 0x4 ADD PUSH2 0xF52 SWAP1 PUSH2 0x47B8 JUMP JUMPDEST PUSH1 0x40 MLOAD DUP1 SWAP2 SUB SWAP1 REVERT JUMPDEST DUP1 PUSH1 0x10 SWAP1 DUP1 MLOAD SWAP1 PUSH1 0x20 ADD SWAP1 PUSH2 0xF71 SWAP3 SWAP2 SWAP1 PUSH2 0x35C1 JUMP JUMPDEST POP POP JUMP JUMPDEST PUSH1 0x0 PUSH2 0xF80 DUP4 PUSH2 0x167A JUMP JUMPDEST DUP3 LT PUSH2 0xFC1 JUMPI PUSH1 0x40 MLOAD PUSH32 0x8C379A000000000000000000000000000000000000000000000000000000000 DUP2 MSTORE PUSH1 0x4 ADD PUSH2 0xFB8 SWAP1 PUSH2 0x45D8 JUMP JUMPDEST PUSH1 0x40 MLOAD DUP1 SWAP2 SUB SWAP1 REVERT JUMPDEST PUSH1 0x6 PUSH1 0x0 DUP5 PUSH20 0xFFFFFFFFFFFFFFFFFFFFFFFFFFFFFFFFFFFFFFFF AND PUSH20 0xFFFFFFFFFFFFFFFFFFFFFFFFFFFFFFFFFFFFFFFF AND DUP2 MSTORE PUSH1 0x20 ADD SWAP1 DUP2 MSTORE PUSH1 0x20 ADD PUSH1 0x0 KECCAK256 PUSH1 0x0 DUP4 DUP2 MSTORE PUSH1 0x20 ADD SWAP1 DUP2 MSTORE PUSH1 0x20 ADD PUSH1 0x0 KECCAK256 SLOAD SWAP1 POP SWAP3 SWAP2 POP POP JUMP JUMPDEST PUSH2 0x2B67 DUP2 JUMP JUMPDEST PUSH2 0x1028 PUSH2 0x22E5 JUMP JUMPDEST PUSH20 0xFFFFFFFFFFFFFFFFFFFFFFFFFFFFFFFFFFFFFFFF AND PUSH2 0x1046 PUSH2 0x17C0 JUMP JUMPDEST PUSH20 0xFFFFFFFFFFFFFFFFFFFFFFFFFFFFFFFFFFFFFFFF AND EQ PUSH2 0x109C JUMPI PUSH1 0x40 MLOAD PUSH32 0x8C379A000000000000000000000000000000000000000000000000000000000 DUP2 MSTORE PUSH1 0x4 ADD PUSH2 0x1093 SWAP1 PUSH2 0x47B8 JUMP JUMPDEST PUSH1 0x40 MLOAD DUP1 SWAP2 SUB SWAP1 REVERT JUMPDEST PUSH1 0x0 SELFBALANCE SWAP1 POP CALLER PUSH20 0xFFFFFFFFFFFFFFFFFFFFFFFFFFFFFFFFFFFFFFFF AND PUSH2 0x8FC DUP3 SWAP1 DUP2 ISZERO MUL SWAP1 PUSH1 0x40 MLOAD PUSH1 0x0 PUSH1 0x40 MLOAD DUP1 DUP4 SUB DUP2 DUP6 DUP9 DUP9 CALL SWAP4 POP POP POP POP ISZERO DUP1 ISZERO PUSH2 0x10E7 JUMPI RETURNDATASIZE PUSH1 0x0 DUP1 RETURNDATACOPY RETURNDATASIZE PUSH1 0x0 REVERT JUMPDEST POP POP JUMP JUMPDEST PUSH2 0x10F3 PUSH2 0x22E5 JUMP JUMPDEST PUSH20 0xFFFFFFFFFFFFFFFFFFFFFFFFFFFFFFFFFFFFFFFF AND PUSH2 0x1111 PUSH2 0x17C0 JUMP JUMPDEST PUSH20 0xFFFFFFFFFFFFFFFFFFFFFFFFFFFFFFFFFFFFFFFF AND EQ PUSH2 0x1167 JUMPI PUSH1 0x40 MLOAD PUSH32 0x8C379A000000000000000000000000000000000000000000000000000000000 DUP2 MSTORE PUSH1 0x4 ADD PUSH2 0x115E SWAP1 PUSH2 0x47B8 JUMP JUMPDEST PUSH1 0x40 MLOAD DUP1 SWAP2 SUB SWAP1 REVERT JUMPDEST PUSH1 0x0 PUSH1 0xB SLOAD EQ PUSH2 0x11AC JUMPI PUSH1 0x40 MLOAD PUSH32 0x8C379A000000000000000000000000000000000000000000000000000000000 DUP2 MSTORE PUSH1 0x4 ADD PUSH2 0x11A3 SWAP1 PUSH2 0x46F8 JUMP JUMPDEST PUSH1 0x40 MLOAD DUP1 SWAP2 SUB SWAP1 REVERT JUMPDEST NUMBER PUSH1 0xC DUP2 SWAP1 SSTORE POP JUMP JUMPDEST PUSH2 0x11BD PUSH2 0x22E5 JUMP JUMPDEST PUSH20 0xFFFFFFFFFFFFFFFFFFFFFFFFFFFFFFFFFFFFFFFF AND PUSH2 0x11DB PUSH2 0x17C0 JUMP JUMPDEST PUSH20 0xFFFFFFFFFFFFFFFFFFFFFFFFFFFFFFFFFFFFFFFF AND EQ PUSH2 0x1231 JUMPI PUSH1 0x40 MLOAD PUSH32 0x8C379A000000000000000000000000000000000000000000000000000000000 DUP2 MSTORE PUSH1 0x4 ADD PUSH2 0x1228 SWAP1 PUSH2 0x47B8 JUMP JUMPDEST PUSH1 0x40 MLOAD DUP1 SWAP2 SUB SWAP1 REVERT JUMPDEST PUSH2 0x2B67 PUSH2 0x124F DUP3 MLOAD PUSH2 0x1241 PUSH2 0xD28 JUMP JUMPDEST PUSH2 0x248C SWAP1 SWAP2 SWAP1 PUSH4 0xFFFFFFFF AND JUMP JUMPDEST GT ISZERO PUSH2 0x1290 JUMPI PUSH1 0x40 MLOAD PUSH32 0x8C379A000000000000000000000000000000000000000000000000000000000 DUP2 MSTORE PUSH1 0x4 ADD PUSH2 0x1287 SWAP1 PUSH2 0x4658 JUMP JUMPDEST PUSH1 0x40 MLOAD DUP1 SWAP2 SUB SWAP1 REVERT JUMPDEST PUSH1 0x0 JUMPDEST DUP2 MLOAD DUP2 LT ISZERO PUSH2 0x12FA JUMPI PUSH2 0x12E7 PUSH1 0x1 DUP4 DUP4 DUP2 MLOAD DUP2 LT PUSH2 0x12DA JUMPI PUSH32 0x4E487B7100000000000000000000000000000000000000000000000000000000 PUSH1 0x0 MSTORE PUSH1 0x32 PUSH1 0x4 MSTORE PUSH1 0x24 PUSH1 0x0 REVERT JUMPDEST PUSH1 0x20 MUL PUSH1 0x20 ADD ADD MLOAD PUSH2 0x1B85 JUMP JUMPDEST DUP1 DUP1 PUSH2 0x12F2 SWAP1 PUSH2 0x4BCF JUMP JUMPDEST SWAP2 POP POP PUSH2 0x1293 JUMP JUMPDEST POP POP JUMP JUMPDEST PUSH2 0x1319 DUP4 DUP4 DUP4 PUSH1 0x40 MLOAD DUP1 PUSH1 0x20 ADD PUSH1 0x40 MSTORE DUP1 PUSH1 0x0 DUP2 MSTORE POP PUSH2 0x1D70 JUMP JUMPDEST POP POP POP JUMP JUMPDEST PUSH1 0x0 PUSH2 0x1328 PUSH2 0xD28 JUMP JUMPDEST DUP3 LT PUSH2 0x1369 JUMPI PUSH1 0x40 MLOAD PUSH32 0x8C379A000000000000000000000000000000000000000000000000000000000 DUP2 MSTORE PUSH1 0x4 ADD PUSH2 0x1360 SWAP1 PUSH2 0x4878 JUMP JUMPDEST PUSH1 0x40 MLOAD DUP1 SWAP2 SUB SWAP1 REVERT JUMPDEST PUSH1 0x8 DUP3 DUP2 SLOAD DUP2 LT PUSH2 0x13A3 JUMPI PUSH32 0x4E487B7100000000000000000000000000000000000000000000000000000000 PUSH1 0x0 MSTORE PUSH1 0x32 PUSH1 0x4 MSTORE PUSH1 0x24 PUSH1 0x0 REVERT JUMPDEST SWAP1 PUSH1 0x0 MSTORE PUSH1 0x20 PUSH1 0x0 KECCAK256 ADD SLOAD SWAP1 POP SWAP2 SWAP1 POP JUMP JUMPDEST PUSH2 0x13BD PUSH2 0x22E5 JUMP JUMPDEST PUSH20 0xFFFFFFFFFFFFFFFFFFFFFFFFFFFFFFFFFFFFFFFF AND PUSH2 0x13DB PUSH2 0x17C0 JUMP JUMPDEST PUSH20 0xFFFFFFFFFFFFFFFFFFFFFFFFFFFFFFFFFFFFFFFF AND EQ PUSH2 0x1431 JUMPI PUSH1 0x40 MLOAD PUSH32 0x8C379A000000000000000000000000000000000000000000000000000000000 DUP2 MSTORE PUSH1 0x4 ADD PUSH2 0x1428 SWAP1 PUSH2 0x47B8 JUMP JUMPDEST PUSH1 0x40 MLOAD DUP1 SWAP2 SUB SWAP1 REVERT JUMPDEST PUSH1 0x0 PUSH1 0xA PUSH1 0x14 PUSH2 0x100 EXP DUP2 SLOAD DUP2 PUSH1 0xFF MUL NOT AND SWAP1 DUP4 ISZERO ISZERO MUL OR SWAP1 SSTORE POP PUSH32 0xDF515AB57EC796FD111DA4DD488177601B9465CE9C442DE16857682B7F10297A PUSH1 0x40 MLOAD PUSH1 0x40 MLOAD DUP1 SWAP2 SUB SWAP1 LOG1 JUMP JUMPDEST PUSH2 0x1482 PUSH2 0x22E5 JUMP JUMPDEST PUSH20 0xFFFFFFFFFFFFFFFFFFFFFFFFFFFFFFFFFFFFFFFF AND PUSH2 0x14A0 PUSH2 0x17C0 JUMP JUMPDEST PUSH20 0xFFFFFFFFFFFFFFFFFFFFFFFFFFFFFFFFFFFFFFFF AND EQ PUSH2 0x14F6 JUMPI PUSH1 0x40 MLOAD PUSH32 0x8C379A000000000000000000000000000000000000000000000000000000000 DUP2 MSTORE PUSH1 0x4 ADD PUSH2 0x14ED SWAP1 PUSH2 0x47B8 JUMP JUMPDEST PUSH1 0x40 MLOAD DUP1 SWAP2 SUB SWAP1 REVERT JUMPDEST DUP1 PUSH1 0xF SWAP1 DUP1 MLOAD SWAP1 PUSH1 0x20 ADD SWAP1 PUSH2 0x150C SWAP3 SWAP2 SWAP1 PUSH2 0x35C1 JUMP JUMPDEST POP POP JUMP JUMPDEST PUSH1 0x0 PUSH1 0xA PUSH1 0x14 SWAP1 SLOAD SWAP1 PUSH2 0x100 EXP SWAP1 DIV PUSH1 0xFF AND SWAP1 POP SWAP1 JUMP JUMPDEST PUSH1 0x0 DUP1 PUSH1 0x2 PUSH1 0x0 DUP5 DUP2 MSTORE PUSH1 0x20 ADD SWAP1 DUP2 MSTORE PUSH1 0x20 ADD PUSH1 0x0 KECCAK256 PUSH1 0x0 SWAP1 SLOAD SWAP1 PUSH2 0x100 EXP SWAP1 DIV PUSH20 0xFFFFFFFFFFFFFFFFFFFFFFFFFFFFFFFFFFFFFFFF AND SWAP1 POP PUSH1 0x0 PUSH20 0xFFFFFFFFFFFFFFFFFFFFFFFFFFFFFFFFFFFFFFFF AND DUP2 PUSH20 0xFFFFFFFFFFFFFFFFFFFFFFFFFFFFFFFFFFFFFFFF AND EQ ISZERO PUSH2 0x15D0 JUMPI PUSH1 0x40 MLOAD PUSH32 0x8C379A000000000000000000000000000000000000000000000000000000000 DUP2 MSTORE PUSH1 0x4 ADD PUSH2 0x15C7 SWAP1 PUSH2 0x4758 JUMP JUMPDEST PUSH1 0x40 MLOAD DUP1 SWAP2 SUB SWAP1 REVERT JUMPDEST DUP1 SWAP2 POP POP SWAP2 SWAP1 POP JUMP JUMPDEST PUSH1 0xF DUP1 SLOAD PUSH2 0x15E6 SWAP1 PUSH2 0x4B9D JUMP JUMPDEST DUP1 PUSH1 0x1F ADD PUSH1 0x20 DUP1 SWAP2 DIV MUL PUSH1 0x20 ADD PUSH1 0x40 MLOAD SWAP1 DUP2 ADD PUSH1 0x40 MSTORE DUP1 SWAP3 SWAP2 SWAP1 DUP2 DUP2 MSTORE PUSH1 0x20 ADD DUP3 DUP1 SLOAD PUSH2 0x1612 SWAP1 PUSH2 0x4B9D JUMP JUMPDEST DUP1 ISZERO PUSH2 0x165F JUMPI DUP1 PUSH1 0x1F LT PUSH2 0x1634 JUMPI PUSH2 0x100 DUP1 DUP4 SLOAD DIV MUL DUP4 MSTORE SWAP2 PUSH1 0x20 ADD SWAP2 PUSH2 0x165F JUMP JUMPDEST DUP3 ADD SWAP2 SWAP1 PUSH1 0x0 MSTORE PUSH1 0x20 PUSH1 0x0 KECCAK256 SWAP1 JUMPDEST DUP2 SLOAD DUP2 MSTORE SWAP1 PUSH1 0x1 ADD SWAP1 PUSH1 0x20 ADD DUP1 DUP4 GT PUSH2 0x1642 JUMPI DUP3 SWAP1 SUB PUSH1 0x1F AND DUP3 ADD SWAP2 JUMPDEST POP POP POP POP POP DUP2 JUMP JUMPDEST PUSH1 0xA PUSH1 0x14 SWAP1 SLOAD SWAP1 PUSH2 0x100 EXP SWAP1 DIV PUSH1 0xFF AND DUP2 JUMP JUMPDEST PUSH1 0x0 DUP1 PUSH20 0xFFFFFFFFFFFFFFFFFFFFFFFFFFFFFFFFFFFFFFFF AND DUP3 PUSH20 0xFFFFFFFFFFFFFFFFFFFFFFFFFFFFFFFFFFFFFFFF AND EQ ISZERO PUSH2 0x16EB JUMPI PUSH1 0x40 MLOAD PUSH32 0x8C379A000000000000000000000000000000000000000000000000000000000 DUP2 MSTORE PUSH1 0x4 ADD PUSH2 0x16E2 SWAP1 PUSH2 0x4738 JUMP JUMPDEST PUSH1 0x40 MLOAD DUP1 SWAP2 SUB SWAP1 REVERT JUMPDEST PUSH1 0x3 PUSH1 0x0 DUP4 PUSH20 0xFFFFFFFFFFFFFFFFFFFFFFFFFFFFFFFFFFFFFFFF AND PUSH20 0xFFFFFFFFFFFFFFFFFFFFFFFFFFFFFFFFFFFFFFFF AND DUP2 MSTORE PUSH1 0x20 ADD SWAP1 DUP2 MSTORE PUSH1 0x20 ADD PUSH1 0x0 KECCAK256 SLOAD SWAP1 POP SWAP2 SWAP1 POP JUMP JUMPDEST PUSH2 0x173A PUSH2 0x22E5 JUMP JUMPDEST PUSH20 0xFFFFFFFFFFFFFFFFFFFFFFFFFFFFFFFFFFFFFFFF AND PUSH2 0x1758 PUSH2 0x17C0 JUMP JUMPDEST PUSH20 0xFFFFFFFFFFFFFFFFFFFFFFFFFFFFFFFFFFFFFFFF AND EQ PUSH2 0x17AE JUMPI PUSH1 0x40 MLOAD PUSH32 0x8C379A000000000000000000000000000000000000000000000000000000000 DUP2 MSTORE PUSH1 0x4 ADD PUSH2 0x17A5 SWAP1 PUSH2 0x47B8 JUMP JUMPDEST PUSH1 0x40 MLOAD DUP1 SWAP2 SUB SWAP1 REVERT JUMPDEST PUSH2 0x17B8 PUSH1 0x0 PUSH2 0x2856 JUMP JUMPDEST JUMP JUMPDEST PUSH1 0xD SLOAD DUP2 JUMP JUMPDEST PUSH1 0x0 PUSH1 0xA PUSH1 0x0 SWAP1 SLOAD SWAP1 PUSH2 0x100 EXP SWAP1 DIV PUSH20 0xFFFFFFFFFFFFFFFFFFFFFFFFFFFFFFFFFFFFFFFF AND SWAP1 POP SWAP1 JUMP JUMPDEST PUSH1 0xE DUP1 SLOAD PUSH2 0x17F7 SWAP1 PUSH2 0x4B9D JUMP JUMPDEST DUP1 PUSH1 0x1F ADD PUSH1 0x20 DUP1 SWAP2 DIV MUL PUSH1 0x20 ADD PUSH1 0x40 MLOAD SWAP1 DUP2 ADD PUSH1 0x40 MSTORE DUP1 SWAP3 SWAP2 SWAP1 DUP2 DUP2 MSTORE PUSH1 0x20 ADD DUP3 DUP1 SLOAD PUSH2 0x1823 SWAP1 PUSH2 0x4B9D JUMP JUMPDEST DUP1 ISZERO PUSH2 0x1870 JUMPI DUP1 PUSH1 0x1F LT PUSH2 0x1845 JUMPI PUSH2 0x100 DUP1 DUP4 SLOAD DIV MUL DUP4 MSTORE SWAP2 PUSH1 0x20 ADD SWAP2 PUSH2 0x1870 JUMP JUMPDEST DUP3 ADD SWAP2 SWAP1 PUSH1 0x0 MSTORE PUSH1 0x20 PUSH1 0x0 KECCAK256 SWAP1 JUMPDEST DUP2 SLOAD DUP2 MSTORE SWAP1 PUSH1 0x1 ADD SWAP1 PUSH1 0x20 ADD DUP1 DUP4 GT PUSH2 0x1853 JUMPI DUP3 SWAP1 SUB PUSH1 0x1F AND DUP3 ADD SWAP2 JUMPDEST POP POP POP POP POP DUP2 JUMP JUMPDEST PUSH1 0x60 PUSH1 0x1 DUP1 SLOAD PUSH2 0x1887 SWAP1 PUSH2 0x4B9D JUMP JUMPDEST DUP1 PUSH1 0x1F ADD PUSH1 0x20 DUP1 SWAP2 DIV MUL PUSH1 0x20 ADD PUSH1 0x40 MLOAD SWAP1 DUP2 ADD PUSH1 0x40 MSTORE DUP1 SWAP3 SWAP2 SWAP1 DUP2 DUP2 MSTORE PUSH1 0x20 ADD DUP3 DUP1 SLOAD PUSH2 0x18B3 SWAP1 PUSH2 0x4B9D JUMP JUMPDEST DUP1 ISZERO PUSH2 0x1900 JUMPI DUP1 PUSH1 0x1F LT PUSH2 0x18D5 JUMPI PUSH2 0x100 DUP1 DUP4 SLOAD DIV MUL DUP4 MSTORE SWAP2 PUSH1 0x20 ADD SWAP2 PUSH2 0x1900 JUMP JUMPDEST DUP3 ADD SWAP2 SWAP1 PUSH1 0x0 MSTORE PUSH1 0x20 PUSH1 0x0 KECCAK256 SWAP1 JUMPDEST DUP2 SLOAD DUP2 MSTORE SWAP1 PUSH1 0x1 ADD SWAP1 PUSH1 0x20 ADD DUP1 DUP4 GT PUSH2 0x18E3 JUMPI DUP3 SWAP1 SUB PUSH1 0x1F AND DUP3 ADD SWAP2 JUMPDEST POP POP POP POP POP SWAP1 POP SWAP1 JUMP JUMPDEST PUSH1 0x60 PUSH1 0x0 PUSH2 0x1917 DUP4 PUSH2 0x167A JUMP JUMPDEST SWAP1 POP PUSH1 0x0 DUP2 PUSH8 0xFFFFFFFFFFFFFFFF DUP2 GT ISZERO PUSH2 0x195B JUMPI PUSH32 0x4E487B7100000000000000000000000000000000000000000000000000000000 PUSH1 0x0 MSTORE PUSH1 0x41 PUSH1 0x4 MSTORE PUSH1 0x24 PUSH1 0x0 REVERT JUMPDEST PUSH1 0x40 MLOAD SWAP1 DUP1 DUP3 MSTORE DUP1 PUSH1 0x20 MUL PUSH1 0x20 ADD DUP3 ADD PUSH1 0x40 MSTORE DUP1 ISZERO PUSH2 0x1989 JUMPI DUP2 PUSH1 0x20 ADD PUSH1 0x20 DUP3 MUL DUP1 CALLDATASIZE DUP4 CALLDATACOPY DUP1 DUP3 ADD SWAP2 POP POP SWAP1 POP JUMPDEST POP SWAP1 POP PUSH1 0x0 JUMPDEST DUP3 DUP2 LT ISZERO PUSH2 0x19F9 JUMPI PUSH2 0x19A1 DUP6 DUP3 PUSH2 0xF75 JUMP JUMPDEST DUP3 DUP3 DUP2 MLOAD DUP2 LT PUSH2 0x19DA JUMPI PUSH32 0x4E487B7100000000000000000000000000000000000000000000000000000000 PUSH1 0x0 MSTORE PUSH1 0x32 PUSH1 0x4 MSTORE PUSH1 0x24 PUSH1 0x0 REVERT JUMPDEST PUSH1 0x20 MUL PUSH1 0x20 ADD ADD DUP2 DUP2 MSTORE POP POP DUP1 DUP1 PUSH2 0x19F1 SWAP1 PUSH2 0x4BCF JUMP JUMPDEST SWAP2 POP POP PUSH2 0x198F JUMP JUMPDEST POP DUP1 SWAP3 POP POP POP SWAP2 SWAP1 POP JUMP JUMPDEST PUSH2 0x1A0C PUSH2 0x22E5 JUMP JUMPDEST PUSH20 0xFFFFFFFFFFFFFFFFFFFFFFFFFFFFFFFFFFFFFFFF AND DUP3 PUSH20 0xFFFFFFFFFFFFFFFFFFFFFFFFFFFFFFFFFFFFFFFF AND EQ ISZERO PUSH2 0x1A7A JUMPI PUSH1 0x40 MLOAD PUSH32 0x8C379A000000000000000000000000000000000000000000000000000000000 DUP2 MSTORE PUSH1 0x4 ADD PUSH2 0x1A71 SWAP1 PUSH2 0x4698 JUMP JUMPDEST PUSH1 0x40 MLOAD DUP1 SWAP2 SUB SWAP1 REVERT JUMPDEST DUP1 PUSH1 0x5 PUSH1 0x0 PUSH2 0x1A87 PUSH2 0x22E5 JUMP JUMPDEST PUSH20 0xFFFFFFFFFFFFFFFFFFFFFFFFFFFFFFFFFFFFFFFF AND PUSH20 0xFFFFFFFFFFFFFFFFFFFFFFFFFFFFFFFFFFFFFFFF AND DUP2 MSTORE PUSH1 0x20 ADD SWAP1 DUP2 MSTORE PUSH1 0x20 ADD PUSH1 0x0 KECCAK256 PUSH1 0x0 DUP5 PUSH20 0xFFFFFFFFFFFFFFFFFFFFFFFFFFFFFFFFFFFFFFFF AND PUSH20 0xFFFFFFFFFFFFFFFFFFFFFFFFFFFFFFFFFFFFFFFF AND DUP2 MSTORE PUSH1 0x20 ADD SWAP1 DUP2 MSTORE PUSH1 0x20 ADD PUSH1 0x0 KECCAK256 PUSH1 0x0 PUSH2 0x100 EXP DUP2 SLOAD DUP2 PUSH1 0xFF MUL NOT AND SWAP1 DUP4 ISZERO ISZERO MUL OR SWAP1 SSTORE POP DUP2 PUSH20 0xFFFFFFFFFFFFFFFFFFFFFFFFFFFFFFFFFFFFFFFF AND PUSH2 0x1B34 PUSH2 0x22E5 JUMP JUMPDEST PUSH20 0xFFFFFFFFFFFFFFFFFFFFFFFFFFFFFFFFFFFFFFFF AND PUSH32 0x17307EAB39AB6107E8899845AD3D59BD9653F200F220920489CA2B5937696C31 DUP4 PUSH1 0x40 MLOAD PUSH2 0x1B79 SWAP2 SWAP1 PUSH2 0x459B JUMP JUMPDEST PUSH1 0x40 MLOAD DUP1 SWAP2 SUB SWAP1 LOG3 POP POP JUMP JUMPDEST PUSH2 0x1B8D PUSH2 0x22E5 JUMP JUMPDEST PUSH20 0xFFFFFFFFFFFFFFFFFFFFFFFFFFFFFFFFFFFFFFFF AND PUSH2 0x1BAB PUSH2 0x17C0 JUMP JUMPDEST PUSH20 0xFFFFFFFFFFFFFFFFFFFFFFFFFFFFFFFFFFFFFFFF AND EQ PUSH2 0x1C01 JUMPI PUSH1 0x40 MLOAD PUSH32 0x8C379A000000000000000000000000000000000000000000000000000000000 DUP2 MSTORE PUSH1 0x4 ADD PUSH2 0x1BF8 SWAP1 PUSH2 0x47B8 JUMP JUMPDEST PUSH1 0x40 MLOAD DUP1 SWAP2 SUB SWAP1 REVERT JUMPDEST PUSH2 0x2B67 PUSH2 0x1C1E DUP4 PUSH2 0x1C10 PUSH2 0xD28 JUMP JUMPDEST PUSH2 0x248C SWAP1 SWAP2 SWAP1 PUSH4 0xFFFFFFFF AND JUMP JUMPDEST GT ISZERO PUSH2 0x1C5F JUMPI PUSH1 0x40 MLOAD PUSH32 0x8C379A000000000000000000000000000000000000000000000000000000000 DUP2 MSTORE PUSH1 0x4 ADD PUSH2 0x1C56 SWAP1 PUSH2 0x4658 JUMP JUMPDEST PUSH1 0x40 MLOAD DUP1 SWAP2 SUB SWAP1 REVERT JUMPDEST PUSH2 0x1C69 DUP3 DUP3 PUSH2 0x24A2 JUMP JUMPDEST PUSH32 0xF00D28232B285F24F2E38415DEB2CEB31069E70D4505838B3911B4F02058502E PUSH2 0x1C92 PUSH2 0xD28 JUMP JUMPDEST PUSH1 0x40 MLOAD PUSH2 0x1C9F SWAP2 SWAP1 PUSH2 0x48D8 JUMP JUMPDEST PUSH1 0x40 MLOAD DUP1 SWAP2 SUB SWAP1 LOG1 POP POP JUMP JUMPDEST PUSH2 0x1CB3 PUSH2 0x22E5 JUMP JUMPDEST PUSH20 0xFFFFFFFFFFFFFFFFFFFFFFFFFFFFFFFFFFFFFFFF AND PUSH2 0x1CD1 PUSH2 0x17C0 JUMP JUMPDEST PUSH20 0xFFFFFFFFFFFFFFFFFFFFFFFFFFFFFFFFFFFFFFFF AND EQ PUSH2 0x1D27 JUMPI PUSH1 0x40 MLOAD PUSH32 0x8C379A000000000000000000000000000000000000000000000000000000000 DUP2 MSTORE PUSH1 0x4 ADD PUSH2 0x1D1E SWAP1 PUSH2 0x47B8 JUMP JUMPDEST PUSH1 0x40 MLOAD DUP1 SWAP2 SUB SWAP1 REVERT JUMPDEST PUSH1 0x1 PUSH1 0xA PUSH1 0x14 PUSH2 0x100 EXP DUP2 SLOAD DUP2 PUSH1 0xFF MUL NOT AND SWAP1 DUP4 ISZERO ISZERO MUL OR SWAP1 SSTORE POP PUSH32 0x912EE23DDE46EC889D6748212CCE445D667F7041597691DC89E8549AD8BC0ACB PUSH1 0x40 MLOAD PUSH1 0x40 MLOAD DUP1 SWAP2 SUB SWAP1 LOG1 JUMP JUMPDEST PUSH2 0x1D81 PUSH2 0x1D7B PUSH2 0x22E5 JUMP JUMPDEST DUP4 PUSH2 0x251C JUMP JUMPDEST PUSH2 0x1DC0 JUMPI PUSH1 0x40 MLOAD PUSH32 0x8C379A000000000000000000000000000000000000000000000000000000000 DUP2 MSTORE PUSH1 0x4 ADD PUSH2 0x1DB7 SWAP1 PUSH2 0x4858 JUMP JUMPDEST PUSH1 0x40 MLOAD DUP1 SWAP2 SUB SWAP1 REVERT JUMPDEST PUSH2 0x1DCC DUP5 DUP5 DUP5 DUP5 PUSH2 0x291C JUMP JUMPDEST POP POP POP POP JUMP JUMPDEST PUSH1 0x0 PUSH2 0x1DDC PUSH2 0xD28 JUMP JUMPDEST SWAP1 POP SWAP1 JUMP JUMPDEST PUSH1 0x60 PUSH2 0x1DEC DUP3 PUSH2 0x2367 JUMP JUMPDEST PUSH2 0x1E2B JUMPI PUSH1 0x40 MLOAD PUSH32 0x8C379A000000000000000000000000000000000000000000000000000000000 DUP2 MSTORE PUSH1 0x4 ADD PUSH2 0x1E22 SWAP1 PUSH2 0x47F8 JUMP JUMPDEST PUSH1 0x40 MLOAD DUP1 SWAP2 SUB SWAP1 REVERT JUMPDEST PUSH2 0x2B67 PUSH2 0x1E36 PUSH2 0xD28 JUMP JUMPDEST LT ISZERO DUP1 PUSH2 0x1E45 JUMPI POP PUSH1 0xD SLOAD TIMESTAMP LT ISZERO JUMPDEST ISZERO PUSH2 0x1EC4 JUMPI PUSH1 0x0 PUSH2 0x1E89 PUSH2 0x2B67 PUSH2 0x1E7B PUSH2 0x1E6C PUSH1 0xB SLOAD PUSH2 0x2B67 PUSH2 0x2978 SWAP1 SWAP2 SWAP1 PUSH4 0xFFFFFFFF AND JUMP JUMPDEST DUP7 PUSH2 0x248C SWAP1 SWAP2 SWAP1 PUSH4 0xFFFFFFFF AND JUMP JUMPDEST PUSH2 0x298E SWAP1 SWAP2 SWAP1 PUSH4 0xFFFFFFFF AND JUMP JUMPDEST SWAP1 POP PUSH2 0x1E93 PUSH2 0x29A4 JUMP JUMPDEST PUSH2 0x1E9C DUP3 PUSH2 0x2A36 JUMP JUMPDEST PUSH1 0x40 MLOAD PUSH1 0x20 ADD PUSH2 0x1EAD SWAP3 SWAP2 SWAP1 PUSH2 0x44EE JUMP JUMPDEST PUSH1 0x40 MLOAD PUSH1 0x20 DUP2 DUP4 SUB SUB DUP2 MSTORE SWAP1 PUSH1 0x40 MSTORE SWAP2 POP POP PUSH2 0x1F52 JUMP JUMPDEST PUSH1 0x10 DUP1 SLOAD PUSH2 0x1ED1 SWAP1 PUSH2 0x4B9D JUMP JUMPDEST DUP1 PUSH1 0x1F ADD PUSH1 0x20 DUP1 SWAP2 DIV MUL PUSH1 0x20 ADD PUSH1 0x40 MLOAD SWAP1 DUP2 ADD PUSH1 0x40 MSTORE DUP1 SWAP3 SWAP2 SWAP1 DUP2 DUP2 MSTORE PUSH1 0x20 ADD DUP3 DUP1 SLOAD PUSH2 0x1EFD SWAP1 PUSH2 0x4B9D JUMP JUMPDEST DUP1 ISZERO PUSH2 0x1F4A JUMPI DUP1 PUSH1 0x1F LT PUSH2 0x1F1F JUMPI PUSH2 0x100 DUP1 DUP4 SLOAD DIV MUL DUP4 MSTORE SWAP2 PUSH1 0x20 ADD SWAP2 PUSH2 0x1F4A JUMP JUMPDEST DUP3 ADD SWAP2 SWAP1 PUSH1 0x0 MSTORE PUSH1 0x20 PUSH1 0x0 KECCAK256 SWAP1 JUMPDEST DUP2 SLOAD DUP2 MSTORE SWAP1 PUSH1 0x1 ADD SWAP1 PUSH1 0x20 ADD DUP1 DUP4 GT PUSH2 0x1F2D JUMPI DUP3 SWAP1 SUB PUSH1 0x1F AND DUP3 ADD SWAP2 JUMPDEST POP POP POP POP POP SWAP1 POP JUMPDEST SWAP2 SWAP1 POP JUMP JUMPDEST PUSH1 0x0 PUSH1 0xB SLOAD EQ PUSH2 0x1F9C JUMPI PUSH1 0x40 MLOAD PUSH32 0x8C379A000000000000000000000000000000000000000000000000000000000 DUP2 MSTORE PUSH1 0x4 ADD PUSH2 0x1F93 SWAP1 PUSH2 0x48B8 JUMP JUMPDEST PUSH1 0x40 MLOAD DUP1 SWAP2 SUB SWAP1 REVERT JUMPDEST PUSH1 0x0 PUSH1 0xC SLOAD EQ ISZERO PUSH2 0x1FE2 JUMPI PUSH1 0x40 MLOAD PUSH32 0x8C379A000000000000000000000000000000000000000000000000000000000 DUP2 MSTORE PUSH1 0x4 ADD PUSH2 0x1FD9 SWAP1 PUSH2 0x4838 JUMP JUMPDEST PUSH1 0x40 MLOAD DUP1 SWAP2 SUB SWAP1 REVERT JUMPDEST PUSH1 0xFF PUSH2 0x1FF9 PUSH1 0xC SLOAD NUMBER PUSH2 0x2978 SWAP1 SWAP2 SWAP1 PUSH4 0xFFFFFFFF AND JUMP JUMPDEST GT ISZERO PUSH2 0x202F JUMPI PUSH2 0x2024 PUSH2 0x2B67 PUSH1 0x1 NUMBER PUSH2 0x2012 SWAP2 SWAP1 PUSH2 0x4AB3 JUMP JUMPDEST BLOCKHASH PUSH1 0x0 SHR PUSH2 0x298E SWAP1 SWAP2 SWAP1 PUSH4 0xFFFFFFFF AND JUMP JUMPDEST PUSH1 0xB DUP2 SWAP1 SSTORE POP PUSH2 0x2051 JUMP JUMPDEST PUSH2 0x204A PUSH2 0x2B67 PUSH1 0xC SLOAD BLOCKHASH PUSH1 0x0 SHR PUSH2 0x298E SWAP1 SWAP2 SWAP1 PUSH4 0xFFFFFFFF AND JUMP JUMPDEST PUSH1 0xB DUP2 SWAP1 SSTORE POP JUMPDEST PUSH1 0x0 PUSH1 0xB SLOAD EQ ISZERO PUSH2 0x2065 JUMPI PUSH1 0x1 PUSH1 0xB DUP2 SWAP1 SSTORE POP JUMPDEST JUMP JUMPDEST PUSH1 0x1 DUP2 JUMP JUMPDEST PUSH1 0x0 PUSH1 0x5 PUSH1 0x0 DUP5 PUSH20 0xFFFFFFFFFFFFFFFFFFFFFFFFFFFFFFFFFFFFFFFF AND PUSH20 0xFFFFFFFFFFFFFFFFFFFFFFFFFFFFFFFFFFFFFFFF AND DUP2 MSTORE PUSH1 0x20 ADD SWAP1 DUP2 MSTORE PUSH1 0x20 ADD PUSH1 0x0 KECCAK256 PUSH1 0x0 DUP4 PUSH20 0xFFFFFFFFFFFFFFFFFFFFFFFFFFFFFFFFFFFFFFFF AND PUSH20 0xFFFFFFFFFFFFFFFFFFFFFFFFFFFFFFFFFFFFFFFF AND DUP2 MSTORE PUSH1 0x20 ADD SWAP1 DUP2 MSTORE PUSH1 0x20 ADD PUSH1 0x0 KECCAK256 PUSH1 0x0 SWAP1 SLOAD SWAP1 PUSH2 0x100 EXP SWAP1 DIV PUSH1 0xFF AND SWAP1 POP SWAP3 SWAP2 POP POP JUMP JUMPDEST PUSH2 0x2108 PUSH2 0x22E5 JUMP JUMPDEST PUSH20 0xFFFFFFFFFFFFFFFFFFFFFFFFFFFFFFFFFFFFFFFF AND PUSH2 0x2126 PUSH2 0x17C0 JUMP JUMPDEST PUSH20 0xFFFFFFFFFFFFFFFFFFFFFFFFFFFFFFFFFFFFFFFF AND EQ PUSH2 0x217C JUMPI PUSH1 0x40 MLOAD PUSH32 0x8C379A000000000000000000000000000000000000000000000000000000000 DUP2 MSTORE PUSH1 0x4 ADD PUSH2 0x2173 SWAP1 PUSH2 0x47B8 JUMP JUMPDEST PUSH1 0x40 MLOAD DUP1 SWAP2 SUB SWAP1 REVERT JUMPDEST PUSH1 0x0 PUSH20 0xFFFFFFFFFFFFFFFFFFFFFFFFFFFFFFFFFFFFFFFF AND DUP2 PUSH20 0xFFFFFFFFFFFFFFFFFFFFFFFFFFFFFFFFFFFFFFFF AND EQ ISZERO PUSH2 0x21EC JUMPI PUSH1 0x40 MLOAD PUSH32 0x8C379A000000000000000000000000000000000000000000000000000000000 DUP2 MSTORE PUSH1 0x4 ADD PUSH2 0x21E3 SWAP1 PUSH2 0x4618 JUMP JUMPDEST PUSH1 0x40 MLOAD DUP1 SWAP2 SUB SWAP1 REVERT JUMPDEST PUSH2 0x21F5 DUP2 PUSH2 0x2856 JUMP JUMPDEST POP JUMP JUMPDEST PUSH2 0x2200 PUSH2 0x22E5 JUMP JUMPDEST PUSH20 0xFFFFFFFFFFFFFFFFFFFFFFFFFFFFFFFFFFFFFFFF AND PUSH2 0x221E PUSH2 0x17C0 JUMP JUMPDEST PUSH20 0xFFFFFFFFFFFFFFFFFFFFFFFFFFFFFFFFFFFFFFFF AND EQ PUSH2 0x2274 JUMPI PUSH1 0x40 MLOAD PUSH32 0x8C379A000000000000000000000000000000000000000000000000000000000 DUP2 MSTORE PUSH1 0x4 ADD PUSH2 0x226B SWAP1 PUSH2 0x47B8 JUMP JUMPDEST PUSH1 0x40 MLOAD DUP1 SWAP2 SUB SWAP1 REVERT JUMPDEST PUSH2 0x2B67 PUSH2 0x2291 DUP3 PUSH2 0x2283 PUSH2 0xD28 JUMP JUMPDEST PUSH2 0x248C SWAP1 SWAP2 SWAP1 PUSH4 0xFFFFFFFF AND JUMP JUMPDEST GT ISZERO PUSH2 0x22D2 JUMPI PUSH1 0x40 MLOAD PUSH32 0x8C379A000000000000000000000000000000000000000000000000000000000 DUP2 MSTORE PUSH1 0x4 ADD PUSH2 0x22C9 SWAP1 PUSH2 0x4658 JUMP JUMPDEST PUSH1 0x40 MLOAD DUP1 SWAP2 SUB SWAP1 REVERT JUMPDEST PUSH2 0x22DC DUP2 CALLER PUSH2 0x24A2 JUMP JUMPDEST POP JUMP JUMPDEST PUSH1 0xB SLOAD DUP2 JUMP JUMPDEST PUSH1 0x0 CALLER SWAP1 POP SWAP1 JUMP JUMPDEST PUSH1 0x0 PUSH32 0x780E9D6300000000000000000000000000000000000000000000000000000000 PUSH28 0xFFFFFFFFFFFFFFFFFFFFFFFFFFFFFFFFFFFFFFFFFFFFFFFFFFFFFFFF NOT AND DUP3 PUSH28 0xFFFFFFFFFFFFFFFFFFFFFFFFFFFFFFFFFFFFFFFFFFFFFFFFFFFFFFFF NOT AND EQ DUP1 PUSH2 0x2360 JUMPI POP PUSH2 0x235F DUP3 PUSH2 0x2BE3 JUMP JUMPDEST JUMPDEST SWAP1 POP SWAP2 SWAP1 POP JUMP JUMPDEST PUSH1 0x0 DUP1 PUSH20 0xFFFFFFFFFFFFFFFFFFFFFFFFFFFFFFFFFFFFFFFF AND PUSH1 0x2 PUSH1 0x0 DUP5 DUP2 MSTORE PUSH1 0x20 ADD SWAP1 DUP2 MSTORE PUSH1 0x20 ADD PUSH1 0x0 KECCAK256 PUSH1 0x0 SWAP1 SLOAD SWAP1 PUSH2 0x100 EXP SWAP1 DIV PUSH20 0xFFFFFFFFFFFFFFFFFFFFFFFFFFFFFFFFFFFFFFFF AND PUSH20 0xFFFFFFFFFFFFFFFFFFFFFFFFFFFFFFFFFFFFFFFF AND EQ ISZERO SWAP1 POP SWAP2 SWAP1 POP JUMP JUMPDEST DUP2 PUSH1 0x4 PUSH1 0x0 DUP4 DUP2 MSTORE PUSH1 0x20 ADD SWAP1 DUP2 MSTORE PUSH1 0x20 ADD PUSH1 0x0 KECCAK256 PUSH1 0x0 PUSH2 0x100 EXP DUP2 SLOAD DUP2 PUSH20 0xFFFFFFFFFFFFFFFFFFFFFFFFFFFFFFFFFFFFFFFF MUL NOT AND SWAP1 DUP4 PUSH20 0xFFFFFFFFFFFFFFFFFFFFFFFFFFFFFFFFFFFFFFFF AND MUL OR SWAP1 SSTORE POP DUP1 DUP3 PUSH20 0xFFFFFFFFFFFFFFFFFFFFFFFFFFFFFFFFFFFFFFFF AND PUSH2 0x2446 DUP4 PUSH2 0x1527 JUMP JUMPDEST PUSH20 0xFFFFFFFFFFFFFFFFFFFFFFFFFFFFFFFFFFFFFFFF AND PUSH32 0x8C5BE1E5EBEC7D5BD14F71427D1E84F3DD0314C0F7B2291E5B200AC8C7C3B925 PUSH1 0x40 MLOAD PUSH1 0x40 MLOAD DUP1 SWAP2 SUB SWAP1 LOG4 POP POP JUMP JUMPDEST PUSH1 0x0 DUP2 DUP4 PUSH2 0x249A SWAP2 SWAP1 PUSH2 0x4A2C JUMP JUMPDEST SWAP1 POP SWAP3 SWAP2 POP POP JUMP JUMPDEST PUSH1 0x0 PUSH2 0x24AC PUSH2 0xD28 JUMP JUMPDEST SWAP1 POP PUSH1 0x0 JUMPDEST DUP4 DUP2 LT ISZERO PUSH2 0x24E1 JUMPI PUSH2 0x24CE DUP4 DUP3 DUP5 PUSH2 0x24C9 SWAP2 SWAP1 PUSH2 0x4A2C JUMP JUMPDEST PUSH2 0x2CC5 JUMP JUMPDEST DUP1 DUP1 PUSH2 0x24D9 SWAP1 PUSH2 0x4BCF JUMP JUMPDEST SWAP2 POP POP PUSH2 0x24B1 JUMP JUMPDEST POP PUSH1 0x0 PUSH1 0xC SLOAD EQ DUP1 ISZERO PUSH2 0x250A JUMPI POP PUSH2 0x2B67 PUSH2 0x24FA PUSH2 0xD28 JUMP JUMPDEST LT ISZERO DUP1 PUSH2 0x2509 JUMPI POP PUSH1 0xD SLOAD TIMESTAMP LT ISZERO JUMPDEST JUMPDEST ISZERO PUSH2 0x2517 JUMPI NUMBER PUSH1 0xC DUP2 SWAP1 SSTORE POP JUMPDEST POP POP POP JUMP JUMPDEST PUSH1 0x0 PUSH2 0x2527 DUP3 PUSH2 0x2367 JUMP JUMPDEST PUSH2 0x2566 JUMPI PUSH1 0x40 MLOAD PUSH32 0x8C379A000000000000000000000000000000000000000000000000000000000 DUP2 MSTORE PUSH1 0x4 ADD PUSH2 0x255D SWAP1 PUSH2 0x46B8 JUMP JUMPDEST PUSH1 0x40 MLOAD DUP1 SWAP2 SUB SWAP1 REVERT JUMPDEST PUSH1 0x0 PUSH2 0x2571 DUP4 PUSH2 0x1527 JUMP JUMPDEST SWAP1 POP DUP1 PUSH20 0xFFFFFFFFFFFFFFFFFFFFFFFFFFFFFFFFFFFFFFFF AND DUP5 PUSH20 0xFFFFFFFFFFFFFFFFFFFFFFFFFFFFFFFFFFFFFFFF AND EQ DUP1 PUSH2 0x25E0 JUMPI POP DUP4 PUSH20 0xFFFFFFFFFFFFFFFFFFFFFFFFFFFFFFFFFFFFFFFF AND PUSH2 0x25C8 DUP5 PUSH2 0xAE9 JUMP JUMPDEST PUSH20 0xFFFFFFFFFFFFFFFFFFFFFFFFFFFFFFFFFFFFFFFF AND EQ JUMPDEST DUP1 PUSH2 0x25F1 JUMPI POP PUSH2 0x25F0 DUP2 DUP6 PUSH2 0x206C JUMP JUMPDEST JUMPDEST SWAP2 POP POP SWAP3 SWAP2 POP POP JUMP JUMPDEST DUP3 PUSH20 0xFFFFFFFFFFFFFFFFFFFFFFFFFFFFFFFFFFFFFFFF AND PUSH2 0x261A DUP3 PUSH2 0x1527 JUMP JUMPDEST PUSH20 0xFFFFFFFFFFFFFFFFFFFFFFFFFFFFFFFFFFFFFFFF AND EQ PUSH2 0x2670 JUMPI PUSH1 0x40 MLOAD PUSH32 0x8C379A000000000000000000000000000000000000000000000000000000000 DUP2 MSTORE PUSH1 0x4 ADD PUSH2 0x2667 SWAP1 PUSH2 0x47D8 JUMP JUMPDEST PUSH1 0x40 MLOAD DUP1 SWAP2 SUB SWAP1 REVERT JUMPDEST PUSH1 0x0 PUSH20 0xFFFFFFFFFFFFFFFFFFFFFFFFFFFFFFFFFFFFFFFF AND DUP3 PUSH20 0xFFFFFFFFFFFFFFFFFFFFFFFFFFFFFFFFFFFFFFFF AND EQ ISZERO PUSH2 0x26E0 JUMPI PUSH1 0x40 MLOAD PUSH32 0x8C379A000000000000000000000000000000000000000000000000000000000 DUP2 MSTORE PUSH1 0x4 ADD PUSH2 0x26D7 SWAP1 PUSH2 0x4678 JUMP JUMPDEST PUSH1 0x40 MLOAD DUP1 SWAP2 SUB SWAP1 REVERT JUMPDEST PUSH2 0x26EB DUP4 DUP4 DUP4 PUSH2 0x2CE3 JUMP JUMPDEST PUSH2 0x26F6 PUSH1 0x0 DUP3 PUSH2 0x23D3 JUMP JUMPDEST PUSH1 0x1 PUSH1 0x3 PUSH1 0x0 DUP6 PUSH20 0xFFFFFFFFFFFFFFFFFFFFFFFFFFFFFFFFFFFFFFFF AND PUSH20 0xFFFFFFFFFFFFFFFFFFFFFFFFFFFFFFFFFFFFFFFF AND DUP2 MSTORE PUSH1 0x20 ADD SWAP1 DUP2 MSTORE PUSH1 0x20 ADD PUSH1 0x0 KECCAK256 PUSH1 0x0 DUP3 DUP3 SLOAD PUSH2 0x2746 SWAP2 SWAP1 PUSH2 0x4AB3 JUMP JUMPDEST SWAP3 POP POP DUP2 SWAP1 SSTORE POP PUSH1 0x1 PUSH1 0x3 PUSH1 0x0 DUP5 PUSH20 0xFFFFFFFFFFFFFFFFFFFFFFFFFFFFFFFFFFFFFFFF AND PUSH20 0xFFFFFFFFFFFFFFFFFFFFFFFFFFFFFFFFFFFFFFFF AND DUP2 MSTORE PUSH1 0x20 ADD SWAP1 DUP2 MSTORE PUSH1 0x20 ADD PUSH1 0x0 KECCAK256 PUSH1 0x0 DUP3 DUP3 SLOAD PUSH2 0x279D SWAP2 SWAP1 PUSH2 0x4A2C JUMP JUMPDEST SWAP3 POP POP DUP2 SWAP1 SSTORE POP DUP2 PUSH1 0x2 PUSH1 0x0 DUP4 DUP2 MSTORE PUSH1 0x20 ADD SWAP1 DUP2 MSTORE PUSH1 0x20 ADD PUSH1 0x0 KECCAK256 PUSH1 0x0 PUSH2 0x100 EXP DUP2 SLOAD DUP2 PUSH20 0xFFFFFFFFFFFFFFFFFFFFFFFFFFFFFFFFFFFFFFFF MUL NOT AND SWAP1 DUP4 PUSH20 0xFFFFFFFFFFFFFFFFFFFFFFFFFFFFFFFFFFFFFFFF AND MUL OR SWAP1 SSTORE POP DUP1 DUP3 PUSH20 0xFFFFFFFFFFFFFFFFFFFFFFFFFFFFFFFFFFFFFFFF AND DUP5 PUSH20 0xFFFFFFFFFFFFFFFFFFFFFFFFFFFFFFFFFFFFFFFF AND PUSH32 0xDDF252AD1BE2C89B69C2B068FC378DAA952BA7F163C4A11628F55A4DF523B3EF PUSH1 0x40 MLOAD PUSH1 0x40 MLOAD DUP1 SWAP2 SUB SWAP1 LOG4 POP POP POP JUMP JUMPDEST PUSH1 0x0 PUSH1 0xA PUSH1 0x0 SWAP1 SLOAD SWAP1 PUSH2 0x100 EXP SWAP1 DIV PUSH20 0xFFFFFFFFFFFFFFFFFFFFFFFFFFFFFFFFFFFFFFFF AND SWAP1 POP DUP2 PUSH1 0xA PUSH1 0x0 PUSH2 0x100 EXP DUP2 SLOAD DUP2 PUSH20 0xFFFFFFFFFFFFFFFFFFFFFFFFFFFFFFFFFFFFFFFF MUL NOT AND SWAP1 DUP4 PUSH20 0xFFFFFFFFFFFFFFFFFFFFFFFFFFFFFFFFFFFFFFFF AND MUL OR SWAP1 SSTORE POP DUP2 PUSH20 0xFFFFFFFFFFFFFFFFFFFFFFFFFFFFFFFFFFFFFFFF AND DUP2 PUSH20 0xFFFFFFFFFFFFFFFFFFFFFFFFFFFFFFFFFFFFFFFF AND PUSH32 0x8BE0079C531659141344CD1FD0A4F28419497F9722A3DAAFE3B4186F6B6457E0 PUSH1 0x40 MLOAD PUSH1 0x40 MLOAD DUP1 SWAP2 SUB SWAP1 LOG3 POP POP JUMP JUMPDEST PUSH2 0x2927 DUP5 DUP5 DUP5 PUSH2 0x25FA JUMP JUMPDEST PUSH2 0x2933 DUP5 DUP5 DUP5 DUP5 PUSH2 0x2CF3 JUMP JUMPDEST PUSH2 0x2972 JUMPI PUSH1 0x40 MLOAD PUSH32 0x8C379A000000000000000000000000000000000000000000000000000000000 DUP2 MSTORE PUSH1 0x4 ADD PUSH2 0x2969 SWAP1 PUSH2 0x45F8 JUMP JUMPDEST PUSH1 0x40 MLOAD DUP1 SWAP2 SUB SWAP1 REVERT JUMPDEST POP POP POP POP JUMP JUMPDEST PUSH1 0x0 DUP2 DUP4 PUSH2 0x2986 SWAP2 SWAP1 PUSH2 0x4AB3 JUMP JUMPDEST SWAP1 POP SWAP3 SWAP2 POP POP JUMP JUMPDEST PUSH1 0x0 DUP2 DUP4 PUSH2 0x299C SWAP2 SWAP1 PUSH2 0x4C18 JUMP JUMPDEST SWAP1 POP SWAP3 SWAP2 POP POP JUMP JUMPDEST PUSH1 0x60 PUSH1 0xF DUP1 SLOAD PUSH2 0x29B3 SWAP1 PUSH2 0x4B9D JUMP JUMPDEST DUP1 PUSH1 0x1F ADD PUSH1 0x20 DUP1 SWAP2 DIV MUL PUSH1 0x20 ADD PUSH1 0x40 MLOAD SWAP1 DUP2 ADD PUSH1 0x40 MSTORE DUP1 SWAP3 SWAP2 SWAP1 DUP2 DUP2 MSTORE PUSH1 0x20 ADD DUP3 DUP1 SLOAD PUSH2 0x29DF SWAP1 PUSH2 0x4B9D JUMP JUMPDEST DUP1 ISZERO PUSH2 0x2A2C JUMPI DUP1 PUSH1 0x1F LT PUSH2 0x2A01 JUMPI PUSH2 0x100 DUP1 DUP4 SLOAD DIV MUL DUP4 MSTORE SWAP2 PUSH1 0x20 ADD SWAP2 PUSH2 0x2A2C JUMP JUMPDEST DUP3 ADD SWAP2 SWAP1 PUSH1 0x0 MSTORE PUSH1 0x20 PUSH1 0x0 KECCAK256 SWAP1 JUMPDEST DUP2 SLOAD DUP2 MSTORE SWAP1 PUSH1 0x1 ADD SWAP1 PUSH1 0x20 ADD DUP1 DUP4 GT PUSH2 0x2A0F JUMPI DUP3 SWAP1 SUB PUSH1 0x1F AND DUP3 ADD SWAP2 JUMPDEST POP POP POP POP POP SWAP1 POP SWAP1 JUMP JUMPDEST PUSH1 0x60 PUSH1 0x0 DUP3 EQ ISZERO PUSH2 0x2A7E JUMPI PUSH1 0x40 MLOAD DUP1 PUSH1 0x40 ADD PUSH1 0x40 MSTORE DUP1 PUSH1 0x1 DUP2 MSTORE PUSH1 0x20 ADD PUSH32 0x3000000000000000000000000000000000000000000000000000000000000000 DUP2 MSTORE POP SWAP1 POP PUSH2 0x2BDE JUMP JUMPDEST PUSH1 0x0 DUP3 SWAP1 POP PUSH1 0x0 JUMPDEST PUSH1 0x0 DUP3 EQ PUSH2 0x2AB0 JUMPI DUP1 DUP1 PUSH2 0x2A99 SWAP1 PUSH2 0x4BCF JUMP JUMPDEST SWAP2 POP POP PUSH1 0xA DUP3 PUSH2 0x2AA9 SWAP2 SWAP1 PUSH2 0x4A82 JUMP JUMPDEST SWAP2 POP PUSH2 0x2A86 JUMP JUMPDEST PUSH1 0x0 DUP2 PUSH8 0xFFFFFFFFFFFFFFFF DUP2 GT ISZERO PUSH2 0x2AF2 JUMPI PUSH32 0x4E487B7100000000000000000000000000000000000000000000000000000000 PUSH1 0x0 MSTORE PUSH1 0x41 PUSH1 0x4 MSTORE PUSH1 0x24 PUSH1 0x0 REVERT JUMPDEST PUSH1 0x40 MLOAD SWAP1 DUP1 DUP3 MSTORE DUP1 PUSH1 0x1F ADD PUSH1 0x1F NOT AND PUSH1 0x20 ADD DUP3 ADD PUSH1 0x40 MSTORE DUP1 ISZERO PUSH2 0x2B24 JUMPI DUP2 PUSH1 0x20 ADD PUSH1 0x1 DUP3 MUL DUP1 CALLDATASIZE DUP4 CALLDATACOPY DUP1 DUP3 ADD SWAP2 POP POP SWAP1 POP JUMPDEST POP SWAP1 POP JUMPDEST PUSH1 0x0 DUP6 EQ PUSH2 0x2BD7 JUMPI PUSH1 0x1 DUP3 PUSH2 0x2B3D SWAP2 SWAP1 PUSH2 0x4AB3 JUMP JUMPDEST SWAP2 POP PUSH1 0xA DUP6 PUSH2 0x2B4C SWAP2 SWAP1 PUSH2 0x4C18 JUMP JUMPDEST PUSH1 0x30 PUSH2 0x2B58 SWAP2 SWAP1 PUSH2 0x4A2C JUMP JUMPDEST PUSH1 0xF8 SHL DUP2 DUP4 DUP2 MLOAD DUP2 LT PUSH2 0x2B94 JUMPI PUSH32 0x4E487B7100000000000000000000000000000000000000000000000000000000 PUSH1 0x0 MSTORE PUSH1 0x32 PUSH1 0x4 MSTORE PUSH1 0x24 PUSH1 0x0 REVERT JUMPDEST PUSH1 0x20 ADD ADD SWAP1 PUSH31 0xFFFFFFFFFFFFFFFFFFFFFFFFFFFFFFFFFFFFFFFFFFFFFFFFFFFFFFFFFFFFFF NOT AND SWAP1 DUP2 PUSH1 0x0 BYTE SWAP1 MSTORE8 POP PUSH1 0xA DUP6 PUSH2 0x2BD0 SWAP2 SWAP1 PUSH2 0x4A82 JUMP JUMPDEST SWAP5 POP PUSH2 0x2B28 JUMP JUMPDEST DUP1 SWAP4 POP POP POP POP JUMPDEST SWAP2 SWAP1 POP JUMP JUMPDEST PUSH1 0x0 PUSH32 0x80AC58CD00000000000000000000000000000000000000000000000000000000 PUSH28 0xFFFFFFFFFFFFFFFFFFFFFFFFFFFFFFFFFFFFFFFFFFFFFFFFFFFFFFFF NOT AND DUP3 PUSH28 0xFFFFFFFFFFFFFFFFFFFFFFFFFFFFFFFFFFFFFFFFFFFFFFFFFFFFFFFF NOT AND EQ DUP1 PUSH2 0x2CAE JUMPI POP PUSH32 0x5B5E139F00000000000000000000000000000000000000000000000000000000 PUSH28 0xFFFFFFFFFFFFFFFFFFFFFFFFFFFFFFFFFFFFFFFFFFFFFFFFFFFFFFFF NOT AND DUP3 PUSH28 0xFFFFFFFFFFFFFFFFFFFFFFFFFFFFFFFFFFFFFFFFFFFFFFFFFFFFFFFF NOT AND EQ JUMPDEST DUP1 PUSH2 0x2CBE JUMPI POP PUSH2 0x2CBD DUP3 PUSH2 0x2E8A JUMP JUMPDEST JUMPDEST SWAP1 POP SWAP2 SWAP1 POP JUMP JUMPDEST PUSH2 0x2CDF DUP3 DUP3 PUSH1 0x40 MLOAD DUP1 PUSH1 0x20 ADD PUSH1 0x40 MSTORE DUP1 PUSH1 0x0 DUP2 MSTORE POP PUSH2 0x2EF4 JUMP JUMPDEST POP POP JUMP JUMPDEST PUSH2 0x2CEE DUP4 DUP4 DUP4 PUSH2 0x2F4F JUMP JUMPDEST POP POP POP JUMP JUMPDEST PUSH1 0x0 PUSH2 0x2D14 DUP5 PUSH20 0xFFFFFFFFFFFFFFFFFFFFFFFFFFFFFFFFFFFFFFFF AND PUSH2 0x3063 JUMP JUMPDEST ISZERO PUSH2 0x2E7D JUMPI DUP4 PUSH20 0xFFFFFFFFFFFFFFFFFFFFFFFFFFFFFFFFFFFFFFFF AND PUSH4 0x150B7A02 PUSH2 0x2D3D PUSH2 0x22E5 JUMP JUMPDEST DUP8 DUP7 DUP7 PUSH1 0x40 MLOAD DUP6 PUSH4 0xFFFFFFFF AND PUSH1 0xE0 SHL DUP2 MSTORE PUSH1 0x4 ADD PUSH2 0x2D5F SWAP5 SWAP4 SWAP3 SWAP2 SWAP1 PUSH2 0x452D JUMP JUMPDEST PUSH1 0x20 PUSH1 0x40 MLOAD DUP1 DUP4 SUB DUP2 PUSH1 0x0 DUP8 DUP1 EXTCODESIZE ISZERO DUP1 ISZERO PUSH2 0x2D79 JUMPI PUSH1 0x0 DUP1 REVERT JUMPDEST POP GAS CALL SWAP3 POP POP POP DUP1 ISZERO PUSH2 0x2DAA JUMPI POP PUSH1 0x40 MLOAD RETURNDATASIZE PUSH1 0x1F NOT PUSH1 0x1F DUP3 ADD AND DUP3 ADD DUP1 PUSH1 0x40 MSTORE POP DUP2 ADD SWAP1 PUSH2 0x2DA7 SWAP2 SWAP1 PUSH2 0x3A44 JUMP JUMPDEST PUSH1 0x1 JUMPDEST PUSH2 0x2E2D JUMPI RETURNDATASIZE DUP1 PUSH1 0x0 DUP2 EQ PUSH2 0x2DDA JUMPI PUSH1 0x40 MLOAD SWAP2 POP PUSH1 0x1F NOT PUSH1 0x3F RETURNDATASIZE ADD AND DUP3 ADD PUSH1 0x40 MSTORE RETURNDATASIZE DUP3 MSTORE RETURNDATASIZE PUSH1 0x0 PUSH1 0x20 DUP5 ADD RETURNDATACOPY PUSH2 0x2DDF JUMP JUMPDEST PUSH1 0x60 SWAP2 POP JUMPDEST POP PUSH1 0x0 DUP2 MLOAD EQ ISZERO PUSH2 0x2E25 JUMPI PUSH1 0x40 MLOAD PUSH32 0x8C379A000000000000000000000000000000000000000000000000000000000 DUP2 MSTORE PUSH1 0x4 ADD PUSH2 0x2E1C SWAP1 PUSH2 0x45F8 JUMP JUMPDEST PUSH1 0x40 MLOAD DUP1 SWAP2 SUB SWAP1 REVERT JUMPDEST DUP1 MLOAD DUP2 PUSH1 0x20 ADD REVERT JUMPDEST PUSH4 0x150B7A02 PUSH1 0xE0 SHL PUSH28 0xFFFFFFFFFFFFFFFFFFFFFFFFFFFFFFFFFFFFFFFFFFFFFFFFFFFFFFFF NOT AND DUP2 PUSH28 0xFFFFFFFFFFFFFFFFFFFFFFFFFFFFFFFFFFFFFFFFFFFFFFFFFFFFFFFF NOT AND EQ SWAP2 POP POP PUSH2 0x2E82 JUMP JUMPDEST PUSH1 0x1 SWAP1 POP JUMPDEST SWAP5 SWAP4 POP POP POP POP JUMP JUMPDEST PUSH1 0x0 PUSH32 0x1FFC9A700000000000000000000000000000000000000000000000000000000 PUSH28 0xFFFFFFFFFFFFFFFFFFFFFFFFFFFFFFFFFFFFFFFFFFFFFFFFFFFFFFFF NOT AND DUP3 PUSH28 0xFFFFFFFFFFFFFFFFFFFFFFFFFFFFFFFFFFFFFFFFFFFFFFFFFFFFFFFF NOT AND EQ SWAP1 POP SWAP2 SWAP1 POP JUMP JUMPDEST PUSH2 0x2EFE DUP4 DUP4 PUSH2 0x3076 JUMP JUMPDEST PUSH2 0x2F0B PUSH1 0x0 DUP5 DUP5 DUP5 PUSH2 0x2CF3 JUMP JUMPDEST PUSH2 0x2F4A JUMPI PUSH1 0x40 MLOAD PUSH32 0x8C379A000000000000000000000000000000000000000000000000000000000 DUP2 MSTORE PUSH1 0x4 ADD PUSH2 0x2F41 SWAP1 PUSH2 0x45F8 JUMP JUMPDEST PUSH1 0x40 MLOAD DUP1 SWAP2 SUB SWAP1 REVERT JUMPDEST POP POP POP JUMP JUMPDEST PUSH2 0x2F5A DUP4 DUP4 DUP4 PUSH2 0x3244 JUMP JUMPDEST PUSH1 0x0 PUSH20 0xFFFFFFFFFFFFFFFFFFFFFFFFFFFFFFFFFFFFFFFF AND DUP4 PUSH20 0xFFFFFFFFFFFFFFFFFFFFFFFFFFFFFFFFFFFFFFFF AND EQ ISZERO PUSH2 0x2F9D JUMPI PUSH2 0x2F98 DUP2 PUSH2 0x3249 JUMP JUMPDEST PUSH2 0x2FDC JUMP JUMPDEST DUP2 PUSH20 0xFFFFFFFFFFFFFFFFFFFFFFFFFFFFFFFFFFFFFFFF AND DUP4 PUSH20 0xFFFFFFFFFFFFFFFFFFFFFFFFFFFFFFFFFFFFFFFF AND EQ PUSH2 0x2FDB JUMPI PUSH2 0x2FDA DUP4 DUP3 PUSH2 0x3292 JUMP JUMPDEST JUMPDEST JUMPDEST PUSH1 0x0 PUSH20 0xFFFFFFFFFFFFFFFFFFFFFFFFFFFFFFFFFFFFFFFF AND DUP3 PUSH20 0xFFFFFFFFFFFFFFFFFFFFFFFFFFFFFFFFFFFFFFFF AND EQ ISZERO PUSH2 0x301F JUMPI PUSH2 0x301A DUP2 PUSH2 0x33FF JUMP JUMPDEST PUSH2 0x305E JUMP JUMPDEST DUP3 PUSH20 0xFFFFFFFFFFFFFFFFFFFFFFFFFFFFFFFFFFFFFFFF AND DUP3 PUSH20 0xFFFFFFFFFFFFFFFFFFFFFFFFFFFFFFFFFFFFFFFF AND EQ PUSH2 0x305D JUMPI PUSH2 0x305C DUP3 DUP3 PUSH2 0x3542 JUMP JUMPDEST JUMPDEST JUMPDEST POP POP POP JUMP JUMPDEST PUSH1 0x0 DUP1 DUP3 EXTCODESIZE SWAP1 POP PUSH1 0x0 DUP2 GT SWAP2 POP POP SWAP2 SWAP1 POP JUMP JUMPDEST PUSH1 0x0 PUSH20 0xFFFFFFFFFFFFFFFFFFFFFFFFFFFFFFFFFFFFFFFF AND DUP3 PUSH20 0xFFFFFFFFFFFFFFFFFFFFFFFFFFFFFFFFFFFFFFFF AND EQ ISZERO PUSH2 0x30E6 JUMPI PUSH1 0x40 MLOAD PUSH32 0x8C379A000000000000000000000000000000000000000000000000000000000 DUP2 MSTORE PUSH1 0x4 ADD PUSH2 0x30DD SWAP1 PUSH2 0x4778 JUMP JUMPDEST PUSH1 0x40 MLOAD DUP1 SWAP2 SUB SWAP1 REVERT JUMPDEST PUSH2 0x30EF DUP2 PUSH2 0x2367 JUMP JUMPDEST ISZERO PUSH2 0x312F JUMPI PUSH1 0x40 MLOAD PUSH32 0x8C379A000000000000000000000000000000000000000000000000000000000 DUP2 MSTORE PUSH1 0x4 ADD PUSH2 0x3126 SWAP1 PUSH2 0x4638 JUMP JUMPDEST PUSH1 0x40 MLOAD DUP1 SWAP2 SUB SWAP1 REVERT JUMPDEST PUSH2 0x313B PUSH1 0x0 DUP4 DUP4 PUSH2 0x2CE3 JUMP JUMPDEST PUSH1 0x1 PUSH1 0x3 PUSH1 0x0 DUP5 PUSH20 0xFFFFFFFFFFFFFFFFFFFFFFFFFFFFFFFFFFFFFFFF AND PUSH20 0xFFFFFFFFFFFFFFFFFFFFFFFFFFFFFFFFFFFFFFFF AND DUP2 MSTORE PUSH1 0x20 ADD SWAP1 DUP2 MSTORE PUSH1 0x20 ADD PUSH1 0x0 KECCAK256 PUSH1 0x0 DUP3 DUP3 SLOAD PUSH2 0x318B SWAP2 SWAP1 PUSH2 0x4A2C JUMP JUMPDEST SWAP3 POP POP DUP2 SWAP1 SSTORE POP DUP2 PUSH1 0x2 PUSH1 0x0 DUP4 DUP2 MSTORE PUSH1 0x20 ADD SWAP1 DUP2 MSTORE PUSH1 0x20 ADD PUSH1 0x0 KECCAK256 PUSH1 0x0 PUSH2 0x100 EXP DUP2 SLOAD DUP2 PUSH20 0xFFFFFFFFFFFFFFFFFFFFFFFFFFFFFFFFFFFFFFFF MUL NOT AND SWAP1 DUP4 PUSH20 0xFFFFFFFFFFFFFFFFFFFFFFFFFFFFFFFFFFFFFFFF AND MUL OR SWAP1 SSTORE POP DUP1 DUP3 PUSH20 0xFFFFFFFFFFFFFFFFFFFFFFFFFFFFFFFFFFFFFFFF AND PUSH1 0x0 PUSH20 0xFFFFFFFFFFFFFFFFFFFFFFFFFFFFFFFFFFFFFFFF AND PUSH32 0xDDF252AD1BE2C89B69C2B068FC378DAA952BA7F163C4A11628F55A4DF523B3EF PUSH1 0x40 MLOAD PUSH1 0x40 MLOAD DUP1 SWAP2 SUB SWAP1 LOG4 POP POP JUMP JUMPDEST POP POP POP JUMP JUMPDEST PUSH1 0x8 DUP1 SLOAD SWAP1 POP PUSH1 0x9 PUSH1 0x0 DUP4 DUP2 MSTORE PUSH1 0x20 ADD SWAP1 DUP2 MSTORE PUSH1 0x20 ADD PUSH1 0x0 KECCAK256 DUP2 SWAP1 SSTORE POP PUSH1 0x8 DUP2 SWAP1 DUP1 PUSH1 0x1 DUP2 SLOAD ADD DUP1 DUP3 SSTORE DUP1 SWAP2 POP POP PUSH1 0x1 SWAP1 SUB SWAP1 PUSH1 0x0 MSTORE PUSH1 0x20 PUSH1 0x0 KECCAK256 ADD PUSH1 0x0 SWAP1 SWAP2 SWAP1 SWAP2 SWAP1 SWAP2 POP SSTORE POP JUMP JUMPDEST PUSH1 0x0 PUSH1 0x1 PUSH2 0x329F DUP5 PUSH2 0x167A JUMP JUMPDEST PUSH2 0x32A9 SWAP2 SWAP1 PUSH2 0x4AB3 JUMP JUMPDEST SWAP1 POP PUSH1 0x0 PUSH1 0x7 PUSH1 0x0 DUP5 DUP2 MSTORE PUSH1 0x20 ADD SWAP1 DUP2 MSTORE PUSH1 0x20 ADD PUSH1 0x0 KECCAK256 SLOAD SWAP1 POP DUP2 DUP2 EQ PUSH2 0x338E JUMPI PUSH1 0x0 PUSH1 0x6 PUSH1 0x0 DUP7 PUSH20 0xFFFFFFFFFFFFFFFFFFFFFFFFFFFFFFFFFFFFFFFF AND PUSH20 0xFFFFFFFFFFFFFFFFFFFFFFFFFFFFFFFFFFFFFFFF AND DUP2 MSTORE PUSH1 0x20 ADD SWAP1 DUP2 MSTORE PUSH1 0x20 ADD PUSH1 0x0 KECCAK256 PUSH1 0x0 DUP5 DUP2 MSTORE PUSH1 0x20 ADD SWAP1 DUP2 MSTORE PUSH1 0x20 ADD PUSH1 0x0 KECCAK256 SLOAD SWAP1 POP DUP1 PUSH1 0x6 PUSH1 0x0 DUP8 PUSH20 0xFFFFFFFFFFFFFFFFFFFFFFFFFFFFFFFFFFFFFFFF AND PUSH20 0xFFFFFFFFFFFFFFFFFFFFFFFFFFFFFFFFFFFFFFFF AND DUP2 MSTORE PUSH1 0x20 ADD SWAP1 DUP2 MSTORE PUSH1 0x20 ADD PUSH1 0x0 KECCAK256 PUSH1 0x0 DUP5 DUP2 MSTORE PUSH1 0x20 ADD SWAP1 DUP2 MSTORE PUSH1 0x20 ADD PUSH1 0x0 KECCAK256 DUP2 SWAP1 SSTORE POP DUP2 PUSH1 0x7 PUSH1 0x0 DUP4 DUP2 MSTORE PUSH1 0x20 ADD SWAP1 DUP2 MSTORE PUSH1 0x20 ADD PUSH1 0x0 KECCAK256 DUP2 SWAP1 SSTORE POP POP JUMPDEST PUSH1 0x7 PUSH1 0x0 DUP5 DUP2 MSTORE PUSH1 0x20 ADD SWAP1 DUP2 MSTORE PUSH1 0x20 ADD PUSH1 0x0 KECCAK256 PUSH1 0x0 SWAP1 SSTORE PUSH1 0x6 PUSH1 0x0 DUP6 PUSH20 0xFFFFFFFFFFFFFFFFFFFFFFFFFFFFFFFFFFFFFFFF AND PUSH20 0xFFFFFFFFFFFFFFFFFFFFFFFFFFFFFFFFFFFFFFFF AND DUP2 MSTORE PUSH1 0x20 ADD SWAP1 DUP2 MSTORE PUSH1 0x20 ADD PUSH1 0x0 KECCAK256 PUSH1 0x0 DUP4 DUP2 MSTORE PUSH1 0x20 ADD SWAP1 DUP2 MSTORE PUSH1 0x20 ADD PUSH1 0x0 KECCAK256 PUSH1 0x0 SWAP1 SSTORE POP POP POP POP JUMP JUMPDEST PUSH1 0x0 PUSH1 0x1 PUSH1 0x8 DUP1 SLOAD SWAP1 POP PUSH2 0x3413 SWAP2 SWAP1 PUSH2 0x4AB3 JUMP JUMPDEST SWAP1 POP PUSH1 0x0 PUSH1 0x9 PUSH1 0x0 DUP5 DUP2 MSTORE PUSH1 0x20 ADD SWAP1 DUP2 MSTORE PUSH1 0x20 ADD PUSH1 0x0 KECCAK256 SLOAD SWAP1 POP PUSH1 0x0 PUSH1 0x8 DUP4 DUP2 SLOAD DUP2 LT PUSH2 0x3469 JUMPI PUSH32 0x4E487B7100000000000000000000000000000000000000000000000000000000 PUSH1 0x0 MSTORE PUSH1 0x32 PUSH1 0x4 MSTORE PUSH1 0x24 PUSH1 0x0 REVERT JUMPDEST SWAP1 PUSH1 0x0 MSTORE PUSH1 0x20 PUSH1 0x0 KECCAK256 ADD SLOAD SWAP1 POP DUP1 PUSH1 0x8 DUP4 DUP2 SLOAD DUP2 LT PUSH2 0x34B1 JUMPI PUSH32 0x4E487B7100000000000000000000000000000000000000000000000000000000 PUSH1 0x0 MSTORE PUSH1 0x32 PUSH1 0x4 MSTORE PUSH1 0x24 PUSH1 0x0 REVERT JUMPDEST SWAP1 PUSH1 0x0 MSTORE PUSH1 0x20 PUSH1 0x0 KECCAK256 ADD DUP2 SWAP1 SSTORE POP DUP2 PUSH1 0x9 PUSH1 0x0 DUP4 DUP2 MSTORE PUSH1 0x20 ADD SWAP1 DUP2 MSTORE PUSH1 0x20 ADD PUSH1 0x0 KECCAK256 DUP2 SWAP1 SSTORE POP PUSH1 0x9 PUSH1 0x0 DUP6 DUP2 MSTORE PUSH1 0x20 ADD SWAP1 DUP2 MSTORE PUSH1 0x20 ADD PUSH1 0x0 KECCAK256 PUSH1 0x0 SWAP1 SSTORE PUSH1 0x8 DUP1 SLOAD DUP1 PUSH2 0x3526 JUMPI PUSH32 0x4E487B7100000000000000000000000000000000000000000000000000000000 PUSH1 0x0 MSTORE PUSH1 0x31 PUSH1 0x4 MSTORE PUSH1 0x24 PUSH1 0x0 REVERT JUMPDEST PUSH1 0x1 SWAP1 SUB DUP2 DUP2 SWAP1 PUSH1 0x0 MSTORE PUSH1 0x20 PUSH1 0x0 KECCAK256 ADD PUSH1 0x0 SWAP1 SSTORE SWAP1 SSTORE POP POP POP POP JUMP JUMPDEST PUSH1 0x0 PUSH2 0x354D DUP4 PUSH2 0x167A JUMP JUMPDEST SWAP1 POP DUP2 PUSH1 0x6 PUSH1 0x0 DUP6 PUSH20 0xFFFFFFFFFFFFFFFFFFFFFFFFFFFFFFFFFFFFFFFF AND PUSH20 0xFFFFFFFFFFFFFFFFFFFFFFFFFFFFFFFFFFFFFFFF AND DUP2 MSTORE PUSH1 0x20 ADD SWAP1 DUP2 MSTORE PUSH1 0x20 ADD PUSH1 0x0 KECCAK256 PUSH1 0x0 DUP4 DUP2 MSTORE PUSH1 0x20 ADD SWAP1 DUP2 MSTORE PUSH1 0x20 ADD PUSH1 0x0 KECCAK256 DUP2 SWAP1 SSTORE POP DUP1 PUSH1 0x7 PUSH1 0x0 DUP5 DUP2 MSTORE PUSH1 0x20 ADD SWAP1 DUP2 MSTORE PUSH1 0x20 ADD PUSH1 0x0 KECCAK256 DUP2 SWAP1 SSTORE POP POP POP POP JUMP JUMPDEST DUP3 DUP1 SLOAD PUSH2 0x35CD SWAP1 PUSH2 0x4B9D JUMP JUMPDEST SWAP1 PUSH1 0x0 MSTORE PUSH1 0x20 PUSH1 0x0 KECCAK256 SWAP1 PUSH1 0x1F ADD PUSH1 0x20 SWAP1 DIV DUP2 ADD SWAP3 DUP3 PUSH2 0x35EF JUMPI PUSH1 0x0 DUP6 SSTORE PUSH2 0x3636 JUMP JUMPDEST DUP3 PUSH1 0x1F LT PUSH2 0x3608 JUMPI DUP1 MLOAD PUSH1 0xFF NOT AND DUP4 DUP1 ADD OR DUP6 SSTORE PUSH2 0x3636 JUMP JUMPDEST DUP3 DUP1 ADD PUSH1 0x1 ADD DUP6 SSTORE DUP3 ISZERO PUSH2 0x3636 JUMPI SWAP2 DUP3 ADD JUMPDEST DUP3 DUP2 GT ISZERO PUSH2 0x3635 JUMPI DUP3 MLOAD DUP3 SSTORE SWAP2 PUSH1 0x20 ADD SWAP2 SWAP1 PUSH1 0x1 ADD SWAP1 PUSH2 0x361A JUMP JUMPDEST JUMPDEST POP SWAP1 POP PUSH2 0x3643 SWAP2 SWAP1 PUSH2 0x3647 JUMP JUMPDEST POP SWAP1 JUMP JUMPDEST JUMPDEST DUP1 DUP3 GT ISZERO PUSH2 0x3660 JUMPI PUSH1 0x0 DUP2 PUSH1 0x0 SWAP1 SSTORE POP PUSH1 0x1 ADD PUSH2 0x3648 JUMP JUMPDEST POP SWAP1 JUMP JUMPDEST PUSH1 0x0 PUSH2 0x3677 PUSH2 0x3672 DUP5 PUSH2 0x4924 JUMP JUMPDEST PUSH2 0x48F3 JUMP JUMPDEST SWAP1 POP DUP1 DUP4 DUP3 MSTORE PUSH1 0x20 DUP3 ADD SWAP1 POP DUP3 DUP6 PUSH1 0x20 DUP7 MUL DUP3 ADD GT ISZERO PUSH2 0x3696 JUMPI PUSH1 0x0 DUP1 REVERT JUMPDEST PUSH1 0x0 JUMPDEST DUP6 DUP2 LT ISZERO PUSH2 0x36C6 JUMPI DUP2 PUSH2 0x36AC DUP9 DUP3 PUSH2 0x374C JUMP JUMPDEST DUP5 MSTORE PUSH1 0x20 DUP5 ADD SWAP4 POP PUSH1 0x20 DUP4 ADD SWAP3 POP POP PUSH1 0x1 DUP2 ADD SWAP1 POP PUSH2 0x3699 JUMP JUMPDEST POP POP POP SWAP4 SWAP3 POP POP POP JUMP JUMPDEST PUSH1 0x0 PUSH2 0x36E3 PUSH2 0x36DE DUP5 PUSH2 0x4950 JUMP JUMPDEST PUSH2 0x48F3 JUMP JUMPDEST SWAP1 POP DUP3 DUP2 MSTORE PUSH1 0x20 DUP2 ADD DUP5 DUP5 DUP5 ADD GT ISZERO PUSH2 0x36FB JUMPI PUSH1 0x0 DUP1 REVERT JUMPDEST PUSH2 0x3706 DUP5 DUP3 DUP6 PUSH2 0x4B5B JUMP JUMPDEST POP SWAP4 SWAP3 POP POP POP JUMP JUMPDEST PUSH1 0x0 PUSH2 0x3721 PUSH2 0x371C DUP5 PUSH2 0x4980 JUMP JUMPDEST PUSH2 0x48F3 JUMP JUMPDEST SWAP1 POP DUP3 DUP2 MSTORE PUSH1 0x20 DUP2 ADD DUP5 DUP5 DUP5 ADD GT ISZERO PUSH2 0x3739 JUMPI PUSH1 0x0 DUP1 REVERT JUMPDEST PUSH2 0x3744 DUP5 DUP3 DUP6 PUSH2 0x4B5B JUMP JUMPDEST POP SWAP4 SWAP3 POP POP POP JUMP JUMPDEST PUSH1 0x0 DUP2 CALLDATALOAD SWAP1 POP PUSH2 0x375B DUP2 PUSH2 0x4D16 JUMP JUMPDEST SWAP3 SWAP2 POP POP JUMP JUMPDEST PUSH1 0x0 DUP3 PUSH1 0x1F DUP4 ADD SLT PUSH2 0x3772 JUMPI PUSH1 0x0 DUP1 REVERT JUMPDEST DUP2 CALLDATALOAD PUSH2 0x3782 DUP5 DUP3 PUSH1 0x20 DUP7 ADD PUSH2 0x3664 JUMP JUMPDEST SWAP2 POP POP SWAP3 SWAP2 POP POP JUMP JUMPDEST PUSH1 0x0 DUP2 CALLDATALOAD SWAP1 POP PUSH2 0x379A DUP2 PUSH2 0x4D2D JUMP JUMPDEST SWAP3 SWAP2 POP POP JUMP JUMPDEST PUSH1 0x0 DUP2 CALLDATALOAD SWAP1 POP PUSH2 0x37AF DUP2 PUSH2 0x4D44 JUMP JUMPDEST SWAP3 SWAP2 POP POP JUMP JUMPDEST PUSH1 0x0 DUP2 MLOAD SWAP1 POP PUSH2 0x37C4 DUP2 PUSH2 0x4D44 JUMP JUMPDEST SWAP3 SWAP2 POP POP JUMP JUMPDEST PUSH1 0x0 DUP3 PUSH1 0x1F DUP4 ADD SLT PUSH2 0x37DB JUMPI PUSH1 0x0 DUP1 REVERT JUMPDEST DUP2 CALLDATALOAD PUSH2 0x37EB DUP5 DUP3 PUSH1 0x20 DUP7 ADD PUSH2 0x36D0 JUMP JUMPDEST SWAP2 POP POP SWAP3 SWAP2 POP POP JUMP JUMPDEST PUSH1 0x0 DUP3 PUSH1 0x1F DUP4 ADD SLT PUSH2 0x3805 JUMPI PUSH1 0x0 DUP1 REVERT JUMPDEST DUP2 CALLDATALOAD PUSH2 0x3815 DUP5 DUP3 PUSH1 0x20 DUP7 ADD PUSH2 0x370E JUMP JUMPDEST SWAP2 POP POP SWAP3 SWAP2 POP POP JUMP JUMPDEST PUSH1 0x0 DUP2 CALLDATALOAD SWAP1 POP PUSH2 0x382D DUP2 PUSH2 0x4D5B JUMP JUMPDEST SWAP3 SWAP2 POP POP JUMP JUMPDEST PUSH1 0x0 PUSH1 0x20 DUP3 DUP5 SUB SLT ISZERO PUSH2 0x3845 JUMPI PUSH1 0x0 DUP1 REVERT JUMPDEST PUSH1 0x0 PUSH2 0x3853 DUP5 DUP3 DUP6 ADD PUSH2 0x374C JUMP JUMPDEST SWAP2 POP POP SWAP3 SWAP2 POP POP JUMP JUMPDEST PUSH1 0x0 DUP1 PUSH1 0x40 DUP4 DUP6 SUB SLT ISZERO PUSH2 0x386F JUMPI PUSH1 0x0 DUP1 REVERT JUMPDEST PUSH1 0x0 PUSH2 0x387D DUP6 DUP3 DUP7 ADD PUSH2 0x374C JUMP JUMPDEST SWAP3 POP POP PUSH1 0x20 PUSH2 0x388E DUP6 DUP3 DUP7 ADD PUSH2 0x374C JUMP JUMPDEST SWAP2 POP POP SWAP3 POP SWAP3 SWAP1 POP JUMP JUMPDEST PUSH1 0x0 DUP1 PUSH1 0x0 PUSH1 0x60 DUP5 DUP7 SUB SLT ISZERO PUSH2 0x38AD JUMPI PUSH1 0x0 DUP1 REVERT JUMPDEST PUSH1 0x0 PUSH2 0x38BB DUP7 DUP3 DUP8 ADD PUSH2 0x374C JUMP JUMPDEST SWAP4 POP POP PUSH1 0x20 PUSH2 0x38CC DUP7 DUP3 DUP8 ADD PUSH2 0x374C JUMP JUMPDEST SWAP3 POP POP PUSH1 0x40 PUSH2 0x38DD DUP7 DUP3 DUP8 ADD PUSH2 0x381E JUMP JUMPDEST SWAP2 POP POP SWAP3 POP SWAP3 POP SWAP3 JUMP JUMPDEST PUSH1 0x0 DUP1 PUSH1 0x0 DUP1 PUSH1 0x80 DUP6 DUP8 SUB SLT ISZERO PUSH2 0x38FD JUMPI PUSH1 0x0 DUP1 REVERT JUMPDEST PUSH1 0x0 PUSH2 0x390B DUP8 DUP3 DUP9 ADD PUSH2 0x374C JUMP JUMPDEST SWAP5 POP POP PUSH1 0x20 PUSH2 0x391C DUP8 DUP3 DUP9 ADD PUSH2 0x374C JUMP JUMPDEST SWAP4 POP POP PUSH1 0x40 PUSH2 0x392D DUP8 DUP3 DUP9 ADD PUSH2 0x381E JUMP JUMPDEST SWAP3 POP POP PUSH1 0x60 DUP6 ADD CALLDATALOAD PUSH8 0xFFFFFFFFFFFFFFFF DUP2 GT ISZERO PUSH2 0x394A JUMPI PUSH1 0x0 DUP1 REVERT JUMPDEST PUSH2 0x3956 DUP8 DUP3 DUP9 ADD PUSH2 0x37CA JUMP JUMPDEST SWAP2 POP POP SWAP3 SWAP6 SWAP2 SWAP5 POP SWAP3 POP JUMP JUMPDEST PUSH1 0x0 DUP1 PUSH1 0x40 DUP4 DUP6 SUB SLT ISZERO PUSH2 0x3975 JUMPI PUSH1 0x0 DUP1 REVERT JUMPDEST PUSH1 0x0 PUSH2 0x3983 DUP6 DUP3 DUP7 ADD PUSH2 0x374C JUMP JUMPDEST SWAP3 POP POP PUSH1 0x20 PUSH2 0x3994 DUP6 DUP3 DUP7 ADD PUSH2 0x378B JUMP JUMPDEST SWAP2 POP POP SWAP3 POP SWAP3 SWAP1 POP JUMP JUMPDEST PUSH1 0x0 DUP1 PUSH1 0x40 DUP4 DUP6 SUB SLT ISZERO PUSH2 0x39B1 JUMPI PUSH1 0x0 DUP1 REVERT JUMPDEST PUSH1 0x0 PUSH2 0x39BF DUP6 DUP3 DUP7 ADD PUSH2 0x374C JUMP JUMPDEST SWAP3 POP POP PUSH1 0x20 PUSH2 0x39D0 DUP6 DUP3 DUP7 ADD PUSH2 0x381E JUMP JUMPDEST SWAP2 POP POP SWAP3 POP SWAP3 SWAP1 POP JUMP JUMPDEST PUSH1 0x0 PUSH1 0x20 DUP3 DUP5 SUB SLT ISZERO PUSH2 0x39EC JUMPI PUSH1 0x0 DUP1 REVERT JUMPDEST PUSH1 0x0 DUP3 ADD CALLDATALOAD PUSH8 0xFFFFFFFFFFFFFFFF DUP2 GT ISZERO PUSH2 0x3A06 JUMPI PUSH1 0x0 DUP1 REVERT JUMPDEST PUSH2 0x3A12 DUP5 DUP3 DUP6 ADD PUSH2 0x3761 JUMP JUMPDEST SWAP2 POP POP SWAP3 SWAP2 POP POP JUMP JUMPDEST PUSH1 0x0 PUSH1 0x20 DUP3 DUP5 SUB SLT ISZERO PUSH2 0x3A2D JUMPI PUSH1 0x0 DUP1 REVERT JUMPDEST PUSH1 0x0 PUSH2 0x3A3B DUP5 DUP3 DUP6 ADD PUSH2 0x37A0 JUMP JUMPDEST SWAP2 POP POP SWAP3 SWAP2 POP POP JUMP JUMPDEST PUSH1 0x0 PUSH1 0x20 DUP3 DUP5 SUB SLT ISZERO PUSH2 0x3A56 JUMPI PUSH1 0x0 DUP1 REVERT JUMPDEST PUSH1 0x0 PUSH2 0x3A64 DUP5 DUP3 DUP6 ADD PUSH2 0x37B5 JUMP JUMPDEST SWAP2 POP POP SWAP3 SWAP2 POP POP JUMP JUMPDEST PUSH1 0x0 PUSH1 0x20 DUP3 DUP5 SUB SLT ISZERO PUSH2 0x3A7F JUMPI PUSH1 0x0 DUP1 REVERT JUMPDEST PUSH1 0x0 DUP3 ADD CALLDATALOAD PUSH8 0xFFFFFFFFFFFFFFFF DUP2 GT ISZERO PUSH2 0x3A99 JUMPI PUSH1 0x0 DUP1 REVERT JUMPDEST PUSH2 0x3AA5 DUP5 DUP3 DUP6 ADD PUSH2 0x37F4 JUMP JUMPDEST SWAP2 POP POP SWAP3 SWAP2 POP POP JUMP JUMPDEST PUSH1 0x0 PUSH1 0x20 DUP3 DUP5 SUB SLT ISZERO PUSH2 0x3AC0 JUMPI PUSH1 0x0 DUP1 REVERT JUMPDEST PUSH1 0x0 PUSH2 0x3ACE DUP5 DUP3 DUP6 ADD PUSH2 0x381E JUMP JUMPDEST SWAP2 POP POP SWAP3 SWAP2 POP POP JUMP JUMPDEST PUSH1 0x0 DUP1 PUSH1 0x40 DUP4 DUP6 SUB SLT ISZERO PUSH2 0x3AEA JUMPI PUSH1 0x0 DUP1 REVERT JUMPDEST PUSH1 0x0 PUSH2 0x3AF8 DUP6 DUP3 DUP7 ADD PUSH2 0x381E JUMP JUMPDEST SWAP3 POP POP PUSH1 0x20 PUSH2 0x3B09 DUP6 DUP3 DUP7 ADD PUSH2 0x374C JUMP JUMPDEST SWAP2 POP POP SWAP3 POP SWAP3 SWAP1 POP JUMP JUMPDEST PUSH1 0x0 PUSH2 0x3B1F DUP4 DUP4 PUSH2 0x44D0 JUMP JUMPDEST PUSH1 0x20 DUP4 ADD SWAP1 POP SWAP3 SWAP2 POP POP JUMP JUMPDEST PUSH2 0x3B34 DUP2 PUSH2 0x4AE7 JUMP JUMPDEST DUP3 MSTORE POP POP JUMP JUMPDEST PUSH1 0x0 PUSH2 0x3B45 DUP3 PUSH2 0x49C0 JUMP JUMPDEST PUSH2 0x3B4F DUP2 DUP6 PUSH2 0x49EE JUMP JUMPDEST SWAP4 POP PUSH2 0x3B5A DUP4 PUSH2 0x49B0 JUMP JUMPDEST DUP1 PUSH1 0x0 JUMPDEST DUP4 DUP2 LT ISZERO PUSH2 0x3B8B JUMPI DUP2 MLOAD PUSH2 0x3B72 DUP9 DUP3 PUSH2 0x3B13 JUMP JUMPDEST SWAP8 POP PUSH2 0x3B7D DUP4 PUSH2 0x49E1 JUMP JUMPDEST SWAP3 POP POP PUSH1 0x1 DUP2 ADD SWAP1 POP PUSH2 0x3B5E JUMP JUMPDEST POP DUP6 SWAP4 POP POP POP POP SWAP3 SWAP2 POP POP JUMP JUMPDEST PUSH2 0x3BA1 DUP2 PUSH2 0x4AF9 JUMP JUMPDEST DUP3 MSTORE POP POP JUMP JUMPDEST PUSH1 0x0 PUSH2 0x3BB2 DUP3 PUSH2 0x49CB JUMP JUMPDEST PUSH2 0x3BBC DUP2 DUP6 PUSH2 0x49FF JUMP JUMPDEST SWAP4 POP PUSH2 0x3BCC DUP2 DUP6 PUSH1 0x20 DUP7 ADD PUSH2 0x4B6A JUMP JUMPDEST PUSH2 0x3BD5 DUP2 PUSH2 0x4D05 JUMP JUMPDEST DUP5 ADD SWAP2 POP POP SWAP3 SWAP2 POP POP JUMP JUMPDEST PUSH1 0x0 PUSH2 0x3BEB DUP3 PUSH2 0x49D6 JUMP JUMPDEST PUSH2 0x3BF5 DUP2 DUP6 PUSH2 0x4A10 JUMP JUMPDEST SWAP4 POP PUSH2 0x3C05 DUP2 DUP6 PUSH1 0x20 DUP7 ADD PUSH2 0x4B6A JUMP JUMPDEST PUSH2 0x3C0E DUP2 PUSH2 0x4D05 JUMP JUMPDEST DUP5 ADD SWAP2 POP POP SWAP3 SWAP2 POP POP JUMP JUMPDEST PUSH1 0x0 PUSH2 0x3C24 DUP3 PUSH2 0x49D6 JUMP JUMPDEST PUSH2 0x3C2E DUP2 DUP6 PUSH2 0x4A21 JUMP JUMPDEST SWAP4 POP PUSH2 0x3C3E DUP2 DUP6 PUSH1 0x20 DUP7 ADD PUSH2 0x4B6A JUMP JUMPDEST DUP1 DUP5 ADD SWAP2 POP POP SWAP3 SWAP2 POP POP JUMP JUMPDEST PUSH1 0x0 PUSH2 0x3C57 PUSH1 0x2B DUP4 PUSH2 0x4A10 JUMP JUMPDEST SWAP2 POP PUSH32 0x455243373231456E756D657261626C653A206F776E657220696E646578206F75 PUSH1 0x0 DUP4 ADD MSTORE PUSH32 0x74206F6620626F756E6473000000000000000000000000000000000000000000 PUSH1 0x20 DUP4 ADD MSTORE PUSH1 0x40 DUP3 ADD SWAP1 POP SWAP2 SWAP1 POP JUMP JUMPDEST PUSH1 0x0 PUSH2 0x3CBD PUSH1 0x32 DUP4 PUSH2 0x4A10 JUMP JUMPDEST SWAP2 POP PUSH32 0x4552433732313A207472616E7366657220746F206E6F6E204552433732315265 PUSH1 0x0 DUP4 ADD MSTORE PUSH32 0x63656976657220696D706C656D656E7465720000000000000000000000000000 PUSH1 0x20 DUP4 ADD MSTORE PUSH1 0x40 DUP3 ADD SWAP1 POP SWAP2 SWAP1 POP JUMP JUMPDEST PUSH1 0x0 PUSH2 0x3D23 PUSH1 0x26 DUP4 PUSH2 0x4A10 JUMP JUMPDEST SWAP2 POP PUSH32 0x4F776E61626C653A206E6577206F776E657220697320746865207A65726F2061 PUSH1 0x0 DUP4 ADD MSTORE PUSH32 0x6464726573730000000000000000000000000000000000000000000000000000 PUSH1 0x20 DUP4 ADD MSTORE PUSH1 0x40 DUP3 ADD SWAP1 POP SWAP2 SWAP1 POP JUMP JUMPDEST PUSH1 0x0 PUSH2 0x3D89 PUSH1 0x1C DUP4 PUSH2 0x4A10 JUMP JUMPDEST SWAP2 POP PUSH32 0x4552433732313A20746F6B656E20616C7265616479206D696E74656400000000 PUSH1 0x0 DUP4 ADD MSTORE PUSH1 0x20 DUP3 ADD SWAP1 POP SWAP2 SWAP1 POP JUMP JUMPDEST PUSH1 0x0 PUSH2 0x3DC9 PUSH1 0x1C DUP4 PUSH2 0x4A10 JUMP JUMPDEST SWAP2 POP PUSH32 0x53616C6520776F756C6420657863656564206D617820737570706C7900000000 PUSH1 0x0 DUP4 ADD MSTORE PUSH1 0x20 DUP3 ADD SWAP1 POP SWAP2 SWAP1 POP JUMP JUMPDEST PUSH1 0x0 PUSH2 0x3E09 PUSH1 0x24 DUP4 PUSH2 0x4A10 JUMP JUMPDEST SWAP2 POP PUSH32 0x4552433732313A207472616E7366657220746F20746865207A65726F20616464 PUSH1 0x0 DUP4 ADD MSTORE PUSH32 0x7265737300000000000000000000000000000000000000000000000000000000 PUSH1 0x20 DUP4 ADD MSTORE PUSH1 0x40 DUP3 ADD SWAP1 POP SWAP2 SWAP1 POP JUMP JUMPDEST PUSH1 0x0 PUSH2 0x3E6F PUSH1 0x19 DUP4 PUSH2 0x4A10 JUMP JUMPDEST SWAP2 POP PUSH32 0x4552433732313A20617070726F766520746F2063616C6C657200000000000000 PUSH1 0x0 DUP4 ADD MSTORE PUSH1 0x20 DUP3 ADD SWAP1 POP SWAP2 SWAP1 POP JUMP JUMPDEST PUSH1 0x0 PUSH2 0x3EAF PUSH1 0x2C DUP4 PUSH2 0x4A10 JUMP JUMPDEST SWAP2 POP PUSH32 0x4552433732313A206F70657261746F7220717565727920666F72206E6F6E6578 PUSH1 0x0 DUP4 ADD MSTORE PUSH32 0x697374656E7420746F6B656E0000000000000000000000000000000000000000 PUSH1 0x20 DUP4 ADD MSTORE PUSH1 0x40 DUP3 ADD SWAP1 POP SWAP2 SWAP1 POP JUMP JUMPDEST PUSH1 0x0 PUSH2 0x3F15 PUSH1 0x26 DUP4 PUSH2 0x4A10 JUMP JUMPDEST SWAP2 POP PUSH32 0x53616C65206D7573742062652061637469766520746F206D696E742044696144 PUSH1 0x0 DUP4 ADD MSTORE PUSH32 0x7261676F6E730000000000000000000000000000000000000000000000000000 PUSH1 0x20 DUP4 ADD MSTORE PUSH1 0x40 DUP3 ADD SWAP1 POP SWAP2 SWAP1 POP JUMP JUMPDEST PUSH1 0x0 PUSH2 0x3F7B PUSH1 0x1D DUP4 PUSH2 0x4A10 JUMP JUMPDEST SWAP2 POP PUSH32 0x5374617274696E6720696E64657820697320616C726561647920736574000000 PUSH1 0x0 DUP4 ADD MSTORE PUSH1 0x20 DUP3 ADD SWAP1 POP SWAP2 SWAP1 POP JUMP JUMPDEST PUSH1 0x0 PUSH2 0x3FBB PUSH1 0x38 DUP4 PUSH2 0x4A10 JUMP JUMPDEST SWAP2 POP PUSH32 0x4552433732313A20617070726F76652063616C6C6572206973206E6F74206F77 PUSH1 0x0 DUP4 ADD MSTORE PUSH32 0x6E6572206E6F7220617070726F76656420666F7220616C6C0000000000000000 PUSH1 0x20 DUP4 ADD MSTORE PUSH1 0x40 DUP3 ADD SWAP1 POP SWAP2 SWAP1 POP JUMP JUMPDEST PUSH1 0x0 PUSH2 0x4021 PUSH1 0x2A DUP4 PUSH2 0x4A10 JUMP JUMPDEST SWAP2 POP PUSH32 0x4552433732313A2062616C616E636520717565727920666F7220746865207A65 PUSH1 0x0 DUP4 ADD MSTORE PUSH32 0x726F206164647265737300000000000000000000000000000000000000000000 PUSH1 0x20 DUP4 ADD MSTORE PUSH1 0x40 DUP3 ADD SWAP1 POP SWAP2 SWAP1 POP JUMP JUMPDEST PUSH1 0x0 PUSH2 0x4087 PUSH1 0x29 DUP4 PUSH2 0x4A10 JUMP JUMPDEST SWAP2 POP PUSH32 0x4552433732313A206F776E657220717565727920666F72206E6F6E6578697374 PUSH1 0x0 DUP4 ADD MSTORE PUSH32 0x656E7420746F6B656E0000000000000000000000000000000000000000000000 PUSH1 0x20 DUP4 ADD MSTORE PUSH1 0x40 DUP3 ADD SWAP1 POP SWAP2 SWAP1 POP JUMP JUMPDEST PUSH1 0x0 PUSH2 0x40ED PUSH1 0x20 DUP4 PUSH2 0x4A10 JUMP JUMPDEST SWAP2 POP PUSH32 0x4552433732313A206D696E7420746F20746865207A65726F2061646472657373 PUSH1 0x0 DUP4 ADD MSTORE PUSH1 0x20 DUP3 ADD SWAP1 POP SWAP2 SWAP1 POP JUMP JUMPDEST PUSH1 0x0 PUSH2 0x412D PUSH1 0x2C DUP4 PUSH2 0x4A10 JUMP JUMPDEST SWAP2 POP PUSH32 0x4552433732313A20617070726F76656420717565727920666F72206E6F6E6578 PUSH1 0x0 DUP4 ADD MSTORE PUSH32 0x697374656E7420746F6B656E0000000000000000000000000000000000000000 PUSH1 0x20 DUP4 ADD MSTORE PUSH1 0x40 DUP3 ADD SWAP1 POP SWAP2 SWAP1 POP JUMP JUMPDEST PUSH1 0x0 PUSH2 0x4193 PUSH1 0x20 DUP4 PUSH2 0x4A10 JUMP JUMPDEST SWAP2 POP PUSH32 0x4F776E61626C653A2063616C6C6572206973206E6F7420746865206F776E6572 PUSH1 0x0 DUP4 ADD MSTORE PUSH1 0x20 DUP3 ADD SWAP1 POP SWAP2 SWAP1 POP JUMP JUMPDEST PUSH1 0x0 PUSH2 0x41D3 PUSH1 0x29 DUP4 PUSH2 0x4A10 JUMP JUMPDEST SWAP2 POP PUSH32 0x4552433732313A207472616E73666572206F6620746F6B656E20746861742069 PUSH1 0x0 DUP4 ADD MSTORE PUSH32 0x73206E6F74206F776E0000000000000000000000000000000000000000000000 PUSH1 0x20 DUP4 ADD MSTORE PUSH1 0x40 DUP3 ADD SWAP1 POP SWAP2 SWAP1 POP JUMP JUMPDEST PUSH1 0x0 PUSH2 0x4239 PUSH1 0x2F DUP4 PUSH2 0x4A10 JUMP JUMPDEST SWAP2 POP PUSH32 0x4552433732314D657461646174613A2055524920717565727920666F72206E6F PUSH1 0x0 DUP4 ADD MSTORE PUSH32 0x6E6578697374656E7420746F6B656E0000000000000000000000000000000000 PUSH1 0x20 DUP4 ADD MSTORE PUSH1 0x40 DUP3 ADD SWAP1 POP SWAP2 SWAP1 POP JUMP JUMPDEST PUSH1 0x0 PUSH2 0x429F PUSH1 0x21 DUP4 PUSH2 0x4A10 JUMP JUMPDEST SWAP2 POP PUSH32 0x4552433732313A20617070726F76616C20746F2063757272656E74206F776E65 PUSH1 0x0 DUP4 ADD MSTORE PUSH32 0x7200000000000000000000000000000000000000000000000000000000000000 PUSH1 0x20 DUP4 ADD MSTORE PUSH1 0x40 DUP3 ADD SWAP1 POP SWAP2 SWAP1 POP JUMP JUMPDEST PUSH1 0x0 PUSH2 0x4305 PUSH1 0x20 DUP4 PUSH2 0x4A10 JUMP JUMPDEST SWAP2 POP PUSH32 0x5374617274696E6720696E64657820626C6F636B206D75737420626520736574 PUSH1 0x0 DUP4 ADD MSTORE PUSH1 0x20 DUP3 ADD SWAP1 POP SWAP2 SWAP1 POP JUMP JUMPDEST PUSH1 0x0 PUSH2 0x4345 PUSH1 0x31 DUP4 PUSH2 0x4A10 JUMP JUMPDEST SWAP2 POP PUSH32 0x4552433732313A207472616E736665722063616C6C6572206973206E6F74206F PUSH1 0x0 DUP4 ADD MSTORE PUSH32 0x776E6572206E6F7220617070726F766564000000000000000000000000000000 PUSH1 0x20 DUP4 ADD MSTORE PUSH1 0x40 DUP3 ADD SWAP1 POP SWAP2 SWAP1 POP JUMP JUMPDEST PUSH1 0x0 PUSH2 0x43AB PUSH1 0x2C DUP4 PUSH2 0x4A10 JUMP JUMPDEST SWAP2 POP PUSH32 0x455243373231456E756D657261626C653A20676C6F62616C20696E646578206F PUSH1 0x0 DUP4 ADD MSTORE PUSH32 0x7574206F6620626F756E64730000000000000000000000000000000000000000 PUSH1 0x20 DUP4 ADD MSTORE PUSH1 0x40 DUP3 ADD SWAP1 POP SWAP2 SWAP1 POP JUMP JUMPDEST PUSH1 0x0 PUSH2 0x4411 PUSH1 0x21 DUP4 PUSH2 0x4A10 JUMP JUMPDEST SWAP2 POP PUSH32 0x4E6F7420656E6F7567682065746865722073656E7420283C302E303720455448 PUSH1 0x0 DUP4 ADD MSTORE PUSH32 0x2900000000000000000000000000000000000000000000000000000000000000 PUSH1 0x20 DUP4 ADD MSTORE PUSH1 0x40 DUP3 ADD SWAP1 POP SWAP2 SWAP1 POP JUMP JUMPDEST PUSH1 0x0 PUSH2 0x4477 PUSH1 0x23 DUP4 PUSH2 0x4A10 JUMP JUMPDEST SWAP2 POP PUSH32 0x5374617274696E6720696E6465782068617320616C7265616479206265656E20 PUSH1 0x0 DUP4 ADD MSTORE PUSH32 0x7365740000000000000000000000000000000000000000000000000000000000 PUSH1 0x20 DUP4 ADD MSTORE PUSH1 0x40 DUP3 ADD SWAP1 POP SWAP2 SWAP1 POP JUMP JUMPDEST PUSH2 0x44D9 DUP2 PUSH2 0x4B51 JUMP JUMPDEST DUP3 MSTORE POP POP JUMP JUMPDEST PUSH2 0x44E8 DUP2 PUSH2 0x4B51 JUMP JUMPDEST DUP3 MSTORE POP POP JUMP JUMPDEST PUSH1 0x0 PUSH2 0x44FA DUP3 DUP6 PUSH2 0x3C19 JUMP JUMPDEST SWAP2 POP PUSH2 0x4506 DUP3 DUP5 PUSH2 0x3C19 JUMP JUMPDEST SWAP2 POP DUP2 SWAP1 POP SWAP4 SWAP3 POP POP POP JUMP JUMPDEST PUSH1 0x0 PUSH1 0x20 DUP3 ADD SWAP1 POP PUSH2 0x4527 PUSH1 0x0 DUP4 ADD DUP5 PUSH2 0x3B2B JUMP JUMPDEST SWAP3 SWAP2 POP POP JUMP JUMPDEST PUSH1 0x0 PUSH1 0x80 DUP3 ADD SWAP1 POP PUSH2 0x4542 PUSH1 0x0 DUP4 ADD DUP8 PUSH2 0x3B2B JUMP JUMPDEST PUSH2 0x454F PUSH1 0x20 DUP4 ADD DUP7 PUSH2 0x3B2B JUMP JUMPDEST PUSH2 0x455C PUSH1 0x40 DUP4 ADD DUP6 PUSH2 0x44DF JUMP JUMPDEST DUP2 DUP2 SUB PUSH1 0x60 DUP4 ADD MSTORE PUSH2 0x456E DUP2 DUP5 PUSH2 0x3BA7 JUMP JUMPDEST SWAP1 POP SWAP6 SWAP5 POP POP POP POP POP JUMP JUMPDEST PUSH1 0x0 PUSH1 0x20 DUP3 ADD SWAP1 POP DUP2 DUP2 SUB PUSH1 0x0 DUP4 ADD MSTORE PUSH2 0x4593 DUP2 DUP5 PUSH2 0x3B3A JUMP JUMPDEST SWAP1 POP SWAP3 SWAP2 POP POP JUMP JUMPDEST PUSH1 0x0 PUSH1 0x20 DUP3 ADD SWAP1 POP PUSH2 0x45B0 PUSH1 0x0 DUP4 ADD DUP5 PUSH2 0x3B98 JUMP JUMPDEST SWAP3 SWAP2 POP POP JUMP JUMPDEST PUSH1 0x0 PUSH1 0x20 DUP3 ADD SWAP1 POP DUP2 DUP2 SUB PUSH1 0x0 DUP4 ADD MSTORE PUSH2 0x45D0 DUP2 DUP5 PUSH2 0x3BE0 JUMP JUMPDEST SWAP1 POP SWAP3 SWAP2 POP POP JUMP JUMPDEST PUSH1 0x0 PUSH1 0x20 DUP3 ADD SWAP1 POP DUP2 DUP2 SUB PUSH1 0x0 DUP4 ADD MSTORE PUSH2 0x45F1 DUP2 PUSH2 0x3C4A JUMP JUMPDEST SWAP1 POP SWAP2 SWAP1 POP JUMP JUMPDEST PUSH1 0x0 PUSH1 0x20 DUP3 ADD SWAP1 POP DUP2 DUP2 SUB PUSH1 0x0 DUP4 ADD MSTORE PUSH2 0x4611 DUP2 PUSH2 0x3CB0 JUMP JUMPDEST SWAP1 POP SWAP2 SWAP1 POP JUMP JUMPDEST PUSH1 0x0 PUSH1 0x20 DUP3 ADD SWAP1 POP DUP2 DUP2 SUB PUSH1 0x0 DUP4 ADD MSTORE PUSH2 0x4631 DUP2 PUSH2 0x3D16 JUMP JUMPDEST SWAP1 POP SWAP2 SWAP1 POP JUMP JUMPDEST PUSH1 0x0 PUSH1 0x20 DUP3 ADD SWAP1 POP DUP2 DUP2 SUB PUSH1 0x0 DUP4 ADD MSTORE PUSH2 0x4651 DUP2 PUSH2 0x3D7C JUMP JUMPDEST SWAP1 POP SWAP2 SWAP1 POP JUMP JUMPDEST PUSH1 0x0 PUSH1 0x20 DUP3 ADD SWAP1 POP DUP2 DUP2 SUB PUSH1 0x0 DUP4 ADD MSTORE PUSH2 0x4671 DUP2 PUSH2 0x3DBC JUMP JUMPDEST SWAP1 POP SWAP2 SWAP1 POP JUMP JUMPDEST PUSH1 0x0 PUSH1 0x20 DUP3 ADD SWAP1 POP DUP2 DUP2 SUB PUSH1 0x0 DUP4 ADD MSTORE PUSH2 0x4691 DUP2 PUSH2 0x3DFC JUMP JUMPDEST SWAP1 POP SWAP2 SWAP1 POP JUMP JUMPDEST PUSH1 0x0 PUSH1 0x20 DUP3 ADD SWAP1 POP DUP2 DUP2 SUB PUSH1 0x0 DUP4 ADD MSTORE PUSH2 0x46B1 DUP2 PUSH2 0x3E62 JUMP JUMPDEST SWAP1 POP SWAP2 SWAP1 POP JUMP JUMPDEST PUSH1 0x0 PUSH1 0x20 DUP3 ADD SWAP1 POP DUP2 DUP2 SUB PUSH1 0x0 DUP4 ADD MSTORE PUSH2 0x46D1 DUP2 PUSH2 0x3EA2 JUMP JUMPDEST SWAP1 POP SWAP2 SWAP1 POP JUMP JUMPDEST PUSH1 0x0 PUSH1 0x20 DUP3 ADD SWAP1 POP DUP2 DUP2 SUB PUSH1 0x0 DUP4 ADD MSTORE PUSH2 0x46F1 DUP2 PUSH2 0x3F08 JUMP JUMPDEST SWAP1 POP SWAP2 SWAP1 POP JUMP JUMPDEST PUSH1 0x0 PUSH1 0x20 DUP3 ADD SWAP1 POP DUP2 DUP2 SUB PUSH1 0x0 DUP4 ADD MSTORE PUSH2 0x4711 DUP2 PUSH2 0x3F6E JUMP JUMPDEST SWAP1 POP SWAP2 SWAP1 POP JUMP JUMPDEST PUSH1 0x0 PUSH1 0x20 DUP3 ADD SWAP1 POP DUP2 DUP2 SUB PUSH1 0x0 DUP4 ADD MSTORE PUSH2 0x4731 DUP2 PUSH2 0x3FAE JUMP JUMPDEST SWAP1 POP SWAP2 SWAP1 POP JUMP JUMPDEST PUSH1 0x0 PUSH1 0x20 DUP3 ADD SWAP1 POP DUP2 DUP2 SUB PUSH1 0x0 DUP4 ADD MSTORE PUSH2 0x4751 DUP2 PUSH2 0x4014 JUMP JUMPDEST SWAP1 POP SWAP2 SWAP1 POP JUMP JUMPDEST PUSH1 0x0 PUSH1 0x20 DUP3 ADD SWAP1 POP DUP2 DUP2 SUB PUSH1 0x0 DUP4 ADD MSTORE PUSH2 0x4771 DUP2 PUSH2 0x407A JUMP JUMPDEST SWAP1 POP SWAP2 SWAP1 POP JUMP JUMPDEST PUSH1 0x0 PUSH1 0x20 DUP3 ADD SWAP1 POP DUP2 DUP2 SUB PUSH1 0x0 DUP4 ADD MSTORE PUSH2 0x4791 DUP2 PUSH2 0x40E0 JUMP JUMPDEST SWAP1 POP SWAP2 SWAP1 POP JUMP JUMPDEST PUSH1 0x0 PUSH1 0x20 DUP3 ADD SWAP1 POP DUP2 DUP2 SUB PUSH1 0x0 DUP4 ADD MSTORE PUSH2 0x47B1 DUP2 PUSH2 0x4120 JUMP JUMPDEST SWAP1 POP SWAP2 SWAP1 POP JUMP JUMPDEST PUSH1 0x0 PUSH1 0x20 DUP3 ADD SWAP1 POP DUP2 DUP2 SUB PUSH1 0x0 DUP4 ADD MSTORE PUSH2 0x47D1 DUP2 PUSH2 0x4186 JUMP JUMPDEST SWAP1 POP SWAP2 SWAP1 POP JUMP JUMPDEST PUSH1 0x0 PUSH1 0x20 DUP3 ADD SWAP1 POP DUP2 DUP2 SUB PUSH1 0x0 DUP4 ADD MSTORE PUSH2 0x47F1 DUP2 PUSH2 0x41C6 JUMP JUMPDEST SWAP1 POP SWAP2 SWAP1 POP JUMP JUMPDEST PUSH1 0x0 PUSH1 0x20 DUP3 ADD SWAP1 POP DUP2 DUP2 SUB PUSH1 0x0 DUP4 ADD MSTORE PUSH2 0x4811 DUP2 PUSH2 0x422C JUMP JUMPDEST SWAP1 POP SWAP2 SWAP1 POP JUMP JUMPDEST PUSH1 0x0 PUSH1 0x20 DUP3 ADD SWAP1 POP DUP2 DUP2 SUB PUSH1 0x0 DUP4 ADD MSTORE PUSH2 0x4831 DUP2 PUSH2 0x4292 JUMP JUMPDEST SWAP1 POP SWAP2 SWAP1 POP JUMP JUMPDEST PUSH1 0x0 PUSH1 0x20 DUP3 ADD SWAP1 POP DUP2 DUP2 SUB PUSH1 0x0 DUP4 ADD MSTORE PUSH2 0x4851 DUP2 PUSH2 0x42F8 JUMP JUMPDEST SWAP1 POP SWAP2 SWAP1 POP JUMP JUMPDEST PUSH1 0x0 PUSH1 0x20 DUP3 ADD SWAP1 POP DUP2 DUP2 SUB PUSH1 0x0 DUP4 ADD MSTORE PUSH2 0x4871 DUP2 PUSH2 0x4338 JUMP JUMPDEST SWAP1 POP SWAP2 SWAP1 POP JUMP JUMPDEST PUSH1 0x0 PUSH1 0x20 DUP3 ADD SWAP1 POP DUP2 DUP2 SUB PUSH1 0x0 DUP4 ADD MSTORE PUSH2 0x4891 DUP2 PUSH2 0x439E JUMP JUMPDEST SWAP1 POP SWAP2 SWAP1 POP JUMP JUMPDEST PUSH1 0x0 PUSH1 0x20 DUP3 ADD SWAP1 POP DUP2 DUP2 SUB PUSH1 0x0 DUP4 ADD MSTORE PUSH2 0x48B1 DUP2 PUSH2 0x4404 JUMP JUMPDEST SWAP1 POP SWAP2 SWAP1 POP JUMP JUMPDEST PUSH1 0x0 PUSH1 0x20 DUP3 ADD SWAP1 POP DUP2 DUP2 SUB PUSH1 0x0 DUP4 ADD MSTORE PUSH2 0x48D1 DUP2 PUSH2 0x446A JUMP JUMPDEST SWAP1 POP SWAP2 SWAP1 POP JUMP JUMPDEST PUSH1 0x0 PUSH1 0x20 DUP3 ADD SWAP1 POP PUSH2 0x48ED PUSH1 0x0 DUP4 ADD DUP5 PUSH2 0x44DF JUMP JUMPDEST SWAP3 SWAP2 POP POP JUMP JUMPDEST PUSH1 0x0 PUSH1 0x40 MLOAD SWAP1 POP DUP2 DUP2 ADD DUP2 DUP2 LT PUSH8 0xFFFFFFFFFFFFFFFF DUP3 GT OR ISZERO PUSH2 0x491A JUMPI PUSH2 0x4919 PUSH2 0x4CD6 JUMP JUMPDEST JUMPDEST DUP1 PUSH1 0x40 MSTORE POP SWAP2 SWAP1 POP JUMP JUMPDEST PUSH1 0x0 PUSH8 0xFFFFFFFFFFFFFFFF DUP3 GT ISZERO PUSH2 0x493F JUMPI PUSH2 0x493E PUSH2 0x4CD6 JUMP JUMPDEST JUMPDEST PUSH1 0x20 DUP3 MUL SWAP1 POP PUSH1 0x20 DUP2 ADD SWAP1 POP SWAP2 SWAP1 POP JUMP JUMPDEST PUSH1 0x0 PUSH8 0xFFFFFFFFFFFFFFFF DUP3 GT ISZERO PUSH2 0x496B JUMPI PUSH2 0x496A PUSH2 0x4CD6 JUMP JUMPDEST JUMPDEST PUSH1 0x1F NOT PUSH1 0x1F DUP4 ADD AND SWAP1 POP PUSH1 0x20 DUP2 ADD SWAP1 POP SWAP2 SWAP1 POP JUMP JUMPDEST PUSH1 0x0 PUSH8 0xFFFFFFFFFFFFFFFF DUP3 GT ISZERO PUSH2 0x499B JUMPI PUSH2 0x499A PUSH2 0x4CD6 JUMP JUMPDEST JUMPDEST PUSH1 0x1F NOT PUSH1 0x1F DUP4 ADD AND SWAP1 POP PUSH1 0x20 DUP2 ADD SWAP1 POP SWAP2 SWAP1 POP JUMP JUMPDEST PUSH1 0x0 DUP2 SWAP1 POP PUSH1 0x20 DUP3 ADD SWAP1 POP SWAP2 SWAP1 POP JUMP JUMPDEST PUSH1 0x0 DUP2 MLOAD SWAP1 POP SWAP2 SWAP1 POP JUMP JUMPDEST PUSH1 0x0 DUP2 MLOAD SWAP1 POP SWAP2 SWAP1 POP JUMP JUMPDEST PUSH1 0x0 DUP2 MLOAD SWAP1 POP SWAP2 SWAP1 POP JUMP JUMPDEST PUSH1 0x0 PUSH1 0x20 DUP3 ADD SWAP1 POP SWAP2 SWAP1 POP JUMP JUMPDEST PUSH1 0x0 DUP3 DUP3 MSTORE PUSH1 0x20 DUP3 ADD SWAP1 POP SWAP3 SWAP2 POP POP JUMP JUMPDEST PUSH1 0x0 DUP3 DUP3 MSTORE PUSH1 0x20 DUP3 ADD SWAP1 POP SWAP3 SWAP2 POP POP JUMP JUMPDEST PUSH1 0x0 DUP3 DUP3 MSTORE PUSH1 0x20 DUP3 ADD SWAP1 POP SWAP3 SWAP2 POP POP JUMP JUMPDEST PUSH1 0x0 DUP2 SWAP1 POP SWAP3 SWAP2 POP POP JUMP JUMPDEST PUSH1 0x0 PUSH2 0x4A37 DUP3 PUSH2 0x4B51 JUMP JUMPDEST SWAP2 POP PUSH2 0x4A42 DUP4 PUSH2 0x4B51 JUMP JUMPDEST SWAP3 POP DUP3 PUSH32 0xFFFFFFFFFFFFFFFFFFFFFFFFFFFFFFFFFFFFFFFFFFFFFFFFFFFFFFFFFFFFFFFF SUB DUP3 GT ISZERO PUSH2 0x4A77 JUMPI PUSH2 0x4A76 PUSH2 0x4C49 JUMP JUMPDEST JUMPDEST DUP3 DUP3 ADD SWAP1 POP SWAP3 SWAP2 POP POP JUMP JUMPDEST PUSH1 0x0 PUSH2 0x4A8D DUP3 PUSH2 0x4B51 JUMP JUMPDEST SWAP2 POP PUSH2 0x4A98 DUP4 PUSH2 0x4B51 JUMP JUMPDEST SWAP3 POP DUP3 PUSH2 0x4AA8 JUMPI PUSH2 0x4AA7 PUSH2 0x4C78 JUMP JUMPDEST JUMPDEST DUP3 DUP3 DIV SWAP1 POP SWAP3 SWAP2 POP POP JUMP JUMPDEST PUSH1 0x0 PUSH2 0x4ABE DUP3 PUSH2 0x4B51 JUMP JUMPDEST SWAP2 POP PUSH2 0x4AC9 DUP4 PUSH2 0x4B51 JUMP JUMPDEST SWAP3 POP DUP3 DUP3 LT ISZERO PUSH2 0x4ADC JUMPI PUSH2 0x4ADB PUSH2 0x4C49 JUMP JUMPDEST JUMPDEST DUP3 DUP3 SUB SWAP1 POP SWAP3 SWAP2 POP POP JUMP JUMPDEST PUSH1 0x0 PUSH2 0x4AF2 DUP3 PUSH2 0x4B31 JUMP JUMPDEST SWAP1 POP SWAP2 SWAP1 POP JUMP JUMPDEST PUSH1 0x0 DUP2 ISZERO ISZERO SWAP1 POP SWAP2 SWAP1 POP JUMP JUMPDEST PUSH1 0x0 PUSH32 0xFFFFFFFF00000000000000000000000000000000000000000000000000000000 DUP3 AND SWAP1 POP SWAP2 SWAP1 POP JUMP JUMPDEST PUSH1 0x0 PUSH20 0xFFFFFFFFFFFFFFFFFFFFFFFFFFFFFFFFFFFFFFFF DUP3 AND SWAP1 POP SWAP2 SWAP1 POP JUMP JUMPDEST PUSH1 0x0 DUP2 SWAP1 POP SWAP2 SWAP1 POP JUMP JUMPDEST DUP3 DUP2 DUP4 CALLDATACOPY PUSH1 0x0 DUP4 DUP4 ADD MSTORE POP POP POP JUMP JUMPDEST PUSH1 0x0 JUMPDEST DUP4 DUP2 LT ISZERO PUSH2 0x4B88 JUMPI DUP1 DUP3 ADD MLOAD DUP2 DUP5 ADD MSTORE PUSH1 0x20 DUP2 ADD SWAP1 POP PUSH2 0x4B6D JUMP JUMPDEST DUP4 DUP2 GT ISZERO PUSH2 0x4B97 JUMPI PUSH1 0x0 DUP5 DUP5 ADD MSTORE JUMPDEST POP POP POP POP JUMP JUMPDEST PUSH1 0x0 PUSH1 0x2 DUP3 DIV SWAP1 POP PUSH1 0x1 DUP3 AND DUP1 PUSH2 0x4BB5 JUMPI PUSH1 0x7F DUP3 AND SWAP2 POP JUMPDEST PUSH1 0x20 DUP3 LT DUP2 EQ ISZERO PUSH2 0x4BC9 JUMPI PUSH2 0x4BC8 PUSH2 0x4CA7 JUMP JUMPDEST JUMPDEST POP SWAP2 SWAP1 POP JUMP JUMPDEST PUSH1 0x0 PUSH2 0x4BDA DUP3 PUSH2 0x4B51 JUMP JUMPDEST SWAP2 POP PUSH32 0xFFFFFFFFFFFFFFFFFFFFFFFFFFFFFFFFFFFFFFFFFFFFFFFFFFFFFFFFFFFFFFFF DUP3 EQ ISZERO PUSH2 0x4C0D JUMPI PUSH2 0x4C0C PUSH2 0x4C49 JUMP JUMPDEST JUMPDEST PUSH1 0x1 DUP3 ADD SWAP1 POP SWAP2 SWAP1 POP JUMP JUMPDEST PUSH1 0x0 PUSH2 0x4C23 DUP3 PUSH2 0x4B51 JUMP JUMPDEST SWAP2 POP PUSH2 0x4C2E DUP4 PUSH2 0x4B51 JUMP JUMPDEST SWAP3 POP DUP3 PUSH2 0x4C3E JUMPI PUSH2 0x4C3D PUSH2 0x4C78 JUMP JUMPDEST JUMPDEST DUP3 DUP3 MOD SWAP1 POP SWAP3 SWAP2 POP POP JUMP JUMPDEST PUSH32 0x4E487B7100000000000000000000000000000000000000000000000000000000 PUSH1 0x0 MSTORE PUSH1 0x11 PUSH1 0x4 MSTORE PUSH1 0x24 PUSH1 0x0 REVERT JUMPDEST PUSH32 0x4E487B7100000000000000000000000000000000000000000000000000000000 PUSH1 0x0 MSTORE PUSH1 0x12 PUSH1 0x4 MSTORE PUSH1 0x24 PUSH1 0x0 REVERT JUMPDEST PUSH32 0x4E487B7100000000000000000000000000000000000000000000000000000000 PUSH1 0x0 MSTORE PUSH1 0x22 PUSH1 0x4 MSTORE PUSH1 0x24 PUSH1 0x0 REVERT JUMPDEST PUSH32 0x4E487B7100000000000000000000000000000000000000000000000000000000 PUSH1 0x0 MSTORE PUSH1 0x41 PUSH1 0x4 MSTORE PUSH1 0x24 PUSH1 0x0 REVERT JUMPDEST PUSH1 0x0 PUSH1 0x1F NOT PUSH1 0x1F DUP4 ADD AND SWAP1 POP SWAP2 SWAP1 POP JUMP JUMPDEST PUSH2 0x4D1F DUP2 PUSH2 0x4AE7 JUMP JUMPDEST DUP2 EQ PUSH2 0x4D2A JUMPI PUSH1 0x0 DUP1 REVERT JUMPDEST POP JUMP JUMPDEST PUSH2 0x4D36 DUP2 PUSH2 0x4AF9 JUMP JUMPDEST DUP2 EQ PUSH2 0x4D41 JUMPI PUSH1 0x0 DUP1 REVERT JUMPDEST POP JUMP JUMPDEST PUSH2 0x4D4D DUP2 PUSH2 0x4B05 JUMP JUMPDEST DUP2 EQ PUSH2 0x4D58 JUMPI PUSH1 0x0 DUP1 REVERT JUMPDEST POP JUMP JUMPDEST PUSH2 0x4D64 DUP2 PUSH2 0x4B51 JUMP JUMPDEST DUP2 EQ PUSH2 0x4D6F JUMPI PUSH1 0x0 DUP1 REVERT JUMPDEST POP JUMP INVALID LOG2 PUSH5 0x6970667358 0x22 SLT KECCAK256 DUP16 SHR ORIGIN 0x49 0xC9 0xCD DUP2 SWAP12 0x23 0xA7 0x1E 0xC1 LOG2 LOG3 SWAP12 CHAINID 0xC4 PUSH30 0xE49539FE0435D6592230AE49B4A164736F6C634300080000330000000000 "
		},
		"gasEstimates": {
			"creation": {
				"codeDepositCost": "3976000",
				"executionCost": "infinite",
				"totalCost": "infinite"
			},
			"external": {
				"DIADRAGONS_PROVENANCE()": "infinite",
				"MAX_SUPPLY()": "419",
				"TIER1_NUM_TOKENS()": "395",
				"TIER1_PRICE()": "397",
				"_isSaleActive()": "1311",
				"airdropDiaDragon(uint256,address)": "infinite",
				"airdropDiaDragonToMany(address[])": "infinite",
				"approve(address,uint256)": "infinite",
				"balanceOf(address)": "1691",
				"baseURI()": "infinite",
				"emergencySetOffsetIndexBlock()": "22054",
				"getApproved(uint256)": "2673",
				"getDiaDragonsByOwner(address)": "infinite",
				"getTotalSupply()": "1291",
				"isApprovedForAll(address,address)": "infinite",
				"isSaleActive()": "1384",
				"mintDiaDragonTier1()": "infinite",
				"name()": "infinite",
				"offsetIndex()": "1283",
				"offsetIndexBlock()": "1241",
				"owner()": "1289",
				"ownerOf(uint256)": "1694",
				"pauseSale()": "22889",
				"renounceOwnership()": "24508",
				"reserveDiaDragons(uint256)": "infinite",
				"revealTimeStamp()": "1174",
				"safeTransferFrom(address,address,uint256)": "infinite",
				"safeTransferFrom(address,address,uint256,bytes)": "infinite",
				"setApprovalForAll(address,bool)": "infinite",
				"setBaseURI(string)": "infinite",
				"setOffsetIndex()": "infinite",
				"setPreRevealURI(string)": "infinite",
				"setProvenanceHash(string)": "infinite",
				"setRevealTimestamp(uint256)": "21407",
				"startSale()": "22845",
				"supportsInterface(bytes4)": "974",
				"symbol()": "infinite",
				"tokenByIndex(uint256)": "infinite",
				"tokenOfOwnerByIndex(address,uint256)": "infinite",
				"tokenURI(uint256)": "infinite",
				"totalSupply()": "1235",
				"transferFrom(address,address,uint256)": "infinite",
				"transferOwnership(address)": "24833",
				"withdraw()": "infinite"
			},
			"internal": {
				"_baseURI()": "infinite",
				"_beforeTokenTransfer(address,address,uint256)": "infinite",
				"_mintDiaDragons(uint256,address)": "infinite"
			}
		},
		"methodIdentifiers": {
			"DIADRAGONS_PROVENANCE()": "94bb5437",
			"MAX_SUPPLY()": "32cb6b0c",
			"TIER1_NUM_TOKENS()": "e11c7fb5",
			"TIER1_PRICE()": "14cf19fe",
			"_isSaleActive()": "7080d6fc",
			"airdropDiaDragon(uint256,address)": "b3fba606",
			"airdropDiaDragonToMany(address[])": "42699fec",
			"approve(address,uint256)": "095ea7b3",
			"balanceOf(address)": "70a08231",
			"baseURI()": "6c0360eb",
			"emergencySetOffsetIndexBlock()": "3dc23a6d",
			"getApproved(uint256)": "081812fc",
			"getDiaDragonsByOwner(address)": "961ca5bf",
			"getTotalSupply()": "c4e41b22",
			"isApprovedForAll(address,address)": "e985e9c5",
			"isSaleActive()": "564566a8",
			"mintDiaDragonTier1()": "1faa77ea",
			"name()": "06fdde03",
			"offsetIndex()": "ffe90ba6",
			"offsetIndexBlock()": "1ba07240",
			"owner()": "8da5cb5b",
			"ownerOf(uint256)": "6352211e",
			"pauseSale()": "55367ba9",
			"renounceOwnership()": "715018a6",
			"reserveDiaDragons(uint256)": "f731b676",
			"revealTimeStamp()": "71f9c534",
			"safeTransferFrom(address,address,uint256)": "42842e0e",
			"safeTransferFrom(address,address,uint256,bytes)": "b88d4fde",
			"setApprovalForAll(address,bool)": "a22cb465",
			"setBaseURI(string)": "55f804b3",
			"setOffsetIndex()": "d2f90214",
			"setPreRevealURI(string)": "2a85db55",
			"setProvenanceHash(string)": "10969523",
			"setRevealTimestamp(uint256)": "018a2c37",
			"startSale()": "b66a0e5d",
			"supportsInterface(bytes4)": "01ffc9a7",
			"symbol()": "95d89b41",
			"tokenByIndex(uint256)": "4f6ccce7",
			"tokenOfOwnerByIndex(address,uint256)": "2f745c59",
			"tokenURI(uint256)": "c87b56dd",
			"totalSupply()": "18160ddd",
			"transferFrom(address,address,uint256)": "23b872dd",
			"transferOwnership(address)": "f2fde38b",
			"withdraw()": "3ccfd60b"
		}
	},
	"abi": [
		{
			"inputs": [],
			"stateMutability": "nonpayable",
			"type": "constructor"
		},
		{
			"anonymous": false,
			"inputs": [
				{
					"indexed": true,
					"internalType": "address",
					"name": "owner",
					"type": "address"
				},
				{
					"indexed": true,
					"internalType": "address",
					"name": "approved",
					"type": "address"
				},
				{
					"indexed": true,
					"internalType": "uint256",
					"name": "tokenId",
					"type": "uint256"
				}
			],
			"name": "Approval",
			"type": "event"
		},
		{
			"anonymous": false,
			"inputs": [
				{
					"indexed": true,
					"internalType": "address",
					"name": "owner",
					"type": "address"
				},
				{
					"indexed": true,
					"internalType": "address",
					"name": "operator",
					"type": "address"
				},
				{
					"indexed": false,
					"internalType": "bool",
					"name": "approved",
					"type": "bool"
				}
			],
			"name": "ApprovalForAll",
			"type": "event"
		},
		{
			"anonymous": false,
			"inputs": [
				{
					"indexed": true,
					"internalType": "address",
					"name": "previousOwner",
					"type": "address"
				},
				{
					"indexed": true,
					"internalType": "address",
					"name": "newOwner",
					"type": "address"
				}
			],
			"name": "OwnershipTransferred",
			"type": "event"
		},
		{
			"anonymous": false,
			"inputs": [],
			"name": "SaleStarted",
			"type": "event"
		},
		{
			"anonymous": false,
			"inputs": [],
			"name": "SaleStopped",
			"type": "event"
		},
		{
			"anonymous": false,
			"inputs": [
				{
					"indexed": false,
					"internalType": "uint256",
					"name": "supply",
					"type": "uint256"
				}
			],
			"name": "TokenMinted",
			"type": "event"
		},
		{
			"anonymous": false,
			"inputs": [
				{
					"indexed": true,
					"internalType": "address",
					"name": "from",
					"type": "address"
				},
				{
					"indexed": true,
					"internalType": "address",
					"name": "to",
					"type": "address"
				},
				{
					"indexed": true,
					"internalType": "uint256",
					"name": "tokenId",
					"type": "uint256"
				}
			],
			"name": "Transfer",
			"type": "event"
		},
		{
			"inputs": [],
			"name": "DIADRAGONS_PROVENANCE",
			"outputs": [
				{
					"internalType": "string",
					"name": "",
					"type": "string"
				}
			],
			"stateMutability": "view",
			"type": "function"
		},
		{
			"inputs": [],
			"name": "MAX_SUPPLY",
			"outputs": [
				{
					"internalType": "uint256",
					"name": "",
					"type": "uint256"
				}
			],
			"stateMutability": "view",
			"type": "function"
		},
		{
			"inputs": [],
			"name": "TIER1_NUM_TOKENS",
			"outputs": [
				{
					"internalType": "uint256",
					"name": "",
					"type": "uint256"
				}
			],
			"stateMutability": "view",
			"type": "function"
		},
		{
			"inputs": [],
			"name": "TIER1_PRICE",
			"outputs": [
				{
					"internalType": "uint256",
					"name": "",
					"type": "uint256"
				}
			],
			"stateMutability": "view",
			"type": "function"
		},
		{
			"inputs": [],
			"name": "_isSaleActive",
			"outputs": [
				{
					"internalType": "bool",
					"name": "",
					"type": "bool"
				}
			],
			"stateMutability": "view",
			"type": "function"
		},
		{
			"inputs": [
				{
					"internalType": "uint256",
					"name": "numDiaDragons",
					"type": "uint256"
				},
				{
					"internalType": "address",
					"name": "recipient",
					"type": "address"
				}
			],
			"name": "airdropDiaDragon",
			"outputs": [],
			"stateMutability": "nonpayable",
			"type": "function"
		},
		{
			"inputs": [
				{
					"internalType": "address[]",
					"name": "recipients",
					"type": "address[]"
				}
			],
			"name": "airdropDiaDragonToMany",
			"outputs": [],
			"stateMutability": "nonpayable",
			"type": "function"
		},
		{
			"inputs": [
				{
					"internalType": "address",
					"name": "to",
					"type": "address"
				},
				{
					"internalType": "uint256",
					"name": "tokenId",
					"type": "uint256"
				}
			],
			"name": "approve",
			"outputs": [],
			"stateMutability": "nonpayable",
			"type": "function"
		},
		{
			"inputs": [
				{
					"internalType": "address",
					"name": "owner",
					"type": "address"
				}
			],
			"name": "balanceOf",
			"outputs": [
				{
					"internalType": "uint256",
					"name": "",
					"type": "uint256"
				}
			],
			"stateMutability": "view",
			"type": "function"
		},
		{
			"inputs": [],
			"name": "baseURI",
			"outputs": [
				{
					"internalType": "string",
					"name": "",
					"type": "string"
				}
			],
			"stateMutability": "view",
			"type": "function"
		},
		{
			"inputs": [],
			"name": "emergencySetOffsetIndexBlock",
			"outputs": [],
			"stateMutability": "nonpayable",
			"type": "function"
		},
		{
			"inputs": [
				{
					"internalType": "uint256",
					"name": "tokenId",
					"type": "uint256"
				}
			],
			"name": "getApproved",
			"outputs": [
				{
					"internalType": "address",
					"name": "",
					"type": "address"
				}
			],
			"stateMutability": "view",
			"type": "function"
		},
		{
			"inputs": [
				{
					"internalType": "address",
					"name": "_owner",
					"type": "address"
				}
			],
			"name": "getDiaDragonsByOwner",
			"outputs": [
				{
					"internalType": "uint256[]",
					"name": "",
					"type": "uint256[]"
				}
			],
			"stateMutability": "view",
			"type": "function"
		},
		{
			"inputs": [],
			"name": "getTotalSupply",
			"outputs": [
				{
					"internalType": "uint256",
					"name": "",
					"type": "uint256"
				}
			],
			"stateMutability": "view",
			"type": "function"
		},
		{
			"inputs": [
				{
					"internalType": "address",
					"name": "owner",
					"type": "address"
				},
				{
					"internalType": "address",
					"name": "operator",
					"type": "address"
				}
			],
			"name": "isApprovedForAll",
			"outputs": [
				{
					"internalType": "bool",
					"name": "",
					"type": "bool"
				}
			],
			"stateMutability": "view",
			"type": "function"
		},
		{
			"inputs": [],
			"name": "isSaleActive",
			"outputs": [
				{
					"internalType": "bool",
					"name": "",
					"type": "bool"
				}
			],
			"stateMutability": "view",
			"type": "function"
		},
		{
			"inputs": [],
			"name": "mintDiaDragonTier1",
			"outputs": [],
			"stateMutability": "payable",
			"type": "function"
		},
		{
			"inputs": [],
			"name": "name",
			"outputs": [
				{
					"internalType": "string",
					"name": "",
					"type": "string"
				}
			],
			"stateMutability": "view",
			"type": "function"
		},
		{
			"inputs": [],
			"name": "offsetIndex",
			"outputs": [
				{
					"internalType": "uint256",
					"name": "",
					"type": "uint256"
				}
			],
			"stateMutability": "view",
			"type": "function"
		},
		{
			"inputs": [],
			"name": "offsetIndexBlock",
			"outputs": [
				{
					"internalType": "uint256",
					"name": "",
					"type": "uint256"
				}
			],
			"stateMutability": "view",
			"type": "function"
		},
		{
			"inputs": [],
			"name": "owner",
			"outputs": [
				{
					"internalType": "address",
					"name": "",
					"type": "address"
				}
			],
			"stateMutability": "view",
			"type": "function"
		},
		{
			"inputs": [
				{
					"internalType": "uint256",
					"name": "tokenId",
					"type": "uint256"
				}
			],
			"name": "ownerOf",
			"outputs": [
				{
					"internalType": "address",
					"name": "",
					"type": "address"
				}
			],
			"stateMutability": "view",
			"type": "function"
		},
		{
			"inputs": [],
			"name": "pauseSale",
			"outputs": [],
			"stateMutability": "nonpayable",
			"type": "function"
		},
		{
			"inputs": [],
			"name": "renounceOwnership",
			"outputs": [],
			"stateMutability": "nonpayable",
			"type": "function"
		},
		{
			"inputs": [
				{
					"internalType": "uint256",
					"name": "numDiaDragons",
					"type": "uint256"
				}
			],
			"name": "reserveDiaDragons",
			"outputs": [],
			"stateMutability": "nonpayable",
			"type": "function"
		},
		{
			"inputs": [],
			"name": "revealTimeStamp",
			"outputs": [
				{
					"internalType": "uint256",
					"name": "",
					"type": "uint256"
				}
			],
			"stateMutability": "view",
			"type": "function"
		},
		{
			"inputs": [
				{
					"internalType": "address",
					"name": "from",
					"type": "address"
				},
				{
					"internalType": "address",
					"name": "to",
					"type": "address"
				},
				{
					"internalType": "uint256",
					"name": "tokenId",
					"type": "uint256"
				}
			],
			"name": "safeTransferFrom",
			"outputs": [],
			"stateMutability": "nonpayable",
			"type": "function"
		},
		{
			"inputs": [
				{
					"internalType": "address",
					"name": "from",
					"type": "address"
				},
				{
					"internalType": "address",
					"name": "to",
					"type": "address"
				},
				{
					"internalType": "uint256",
					"name": "tokenId",
					"type": "uint256"
				},
				{
					"internalType": "bytes",
					"name": "_data",
					"type": "bytes"
				}
			],
			"name": "safeTransferFrom",
			"outputs": [],
			"stateMutability": "nonpayable",
			"type": "function"
		},
		{
			"inputs": [
				{
					"internalType": "address",
					"name": "operator",
					"type": "address"
				},
				{
					"internalType": "bool",
					"name": "approved",
					"type": "bool"
				}
			],
			"name": "setApprovalForAll",
			"outputs": [],
			"stateMutability": "nonpayable",
			"type": "function"
		},
		{
			"inputs": [
				{
					"internalType": "string",
					"name": "_newBaseURI",
					"type": "string"
				}
			],
			"name": "setBaseURI",
			"outputs": [],
			"stateMutability": "nonpayable",
			"type": "function"
		},
		{
			"inputs": [],
			"name": "setOffsetIndex",
			"outputs": [],
			"stateMutability": "nonpayable",
			"type": "function"
		},
		{
			"inputs": [
				{
					"internalType": "string",
					"name": "preRevealURI",
					"type": "string"
				}
			],
			"name": "setPreRevealURI",
			"outputs": [],
			"stateMutability": "nonpayable",
			"type": "function"
		},
		{
			"inputs": [
				{
					"internalType": "string",
					"name": "provenanceHash",
					"type": "string"
				}
			],
			"name": "setProvenanceHash",
			"outputs": [],
			"stateMutability": "nonpayable",
			"type": "function"
		},
		{
			"inputs": [
				{
					"internalType": "uint256",
					"name": "newRevealTimeStamp",
					"type": "uint256"
				}
			],
			"name": "setRevealTimestamp",
			"outputs": [],
			"stateMutability": "nonpayable",
			"type": "function"
		},
		{
			"inputs": [],
			"name": "startSale",
			"outputs": [],
			"stateMutability": "nonpayable",
			"type": "function"
		},
		{
			"inputs": [
				{
					"internalType": "bytes4",
					"name": "interfaceId",
					"type": "bytes4"
				}
			],
			"name": "supportsInterface",
			"outputs": [
				{
					"internalType": "bool",
					"name": "",
					"type": "bool"
				}
			],
			"stateMutability": "view",
			"type": "function"
		},
		{
			"inputs": [],
			"name": "symbol",
			"outputs": [
				{
					"internalType": "string",
					"name": "",
					"type": "string"
				}
			],
			"stateMutability": "view",
			"type": "function"
		},
		{
			"inputs": [
				{
					"internalType": "uint256",
					"name": "index",
					"type": "uint256"
				}
			],
			"name": "tokenByIndex",
			"outputs": [
				{
					"internalType": "uint256",
					"name": "",
					"type": "uint256"
				}
			],
			"stateMutability": "view",
			"type": "function"
		},
		{
			"inputs": [
				{
					"internalType": "address",
					"name": "owner",
					"type": "address"
				},
				{
					"internalType": "uint256",
					"name": "index",
					"type": "uint256"
				}
			],
			"name": "tokenOfOwnerByIndex",
			"outputs": [
				{
					"internalType": "uint256",
					"name": "",
					"type": "uint256"
				}
			],
			"stateMutability": "view",
			"type": "function"
		},
		{
			"inputs": [
				{
					"internalType": "uint256",
					"name": "tokenId",
					"type": "uint256"
				}
			],
			"name": "tokenURI",
			"outputs": [
				{
					"internalType": "string",
					"name": "",
					"type": "string"
				}
			],
			"stateMutability": "view",
			"type": "function"
		},
		{
			"inputs": [],
			"name": "totalSupply",
			"outputs": [
				{
					"internalType": "uint256",
					"name": "",
					"type": "uint256"
				}
			],
			"stateMutability": "view",
			"type": "function"
		},
		{
			"inputs": [
				{
					"internalType": "address",
					"name": "from",
					"type": "address"
				},
				{
					"internalType": "address",
					"name": "to",
					"type": "address"
				},
				{
					"internalType": "uint256",
					"name": "tokenId",
					"type": "uint256"
				}
			],
			"name": "transferFrom",
			"outputs": [],
			"stateMutability": "nonpayable",
			"type": "function"
		},
		{
			"inputs": [
				{
					"internalType": "address",
					"name": "newOwner",
					"type": "address"
				}
			],
			"name": "transferOwnership",
			"outputs": [],
			"stateMutability": "nonpayable",
			"type": "function"
		},
		{
			"inputs": [],
			"name": "withdraw",
			"outputs": [],
			"stateMutability": "nonpayable",
			"type": "function"
		}
	]
}