{
  "_format": "hh-sol-artifact-1",
  "contractName": "Diadragons",
  "sourceName": "contracts/DiaDragons.sol",
  "abi": [
    {
      "inputs": [],
      "stateMutability": "nonpayable",
      "type": "constructor"
    },
    {
      "anonymous": false,
      "inputs": [
        {
          "indexed": true,
          "internalType": "address",
          "name": "owner",
          "type": "address"
        },
        {
          "indexed": true,
          "internalType": "address",
          "name": "approved",
          "type": "address"
        },
        {
          "indexed": true,
          "internalType": "uint256",
          "name": "tokenId",
          "type": "uint256"
        }
      ],
      "name": "Approval",
      "type": "event"
    },
    {
      "anonymous": false,
      "inputs": [
        {
          "indexed": true,
          "internalType": "address",
          "name": "owner",
          "type": "address"
        },
        {
          "indexed": true,
          "internalType": "address",
          "name": "operator",
          "type": "address"
        },
        {
          "indexed": false,
          "internalType": "bool",
          "name": "approved",
          "type": "bool"
        }
      ],
      "name": "ApprovalForAll",
      "type": "event"
    },
    {
      "anonymous": false,
      "inputs": [
        {
          "indexed": true,
          "internalType": "address",
          "name": "previousOwner",
          "type": "address"
        },
        {
          "indexed": true,
          "internalType": "address",
          "name": "newOwner",
          "type": "address"
        }
      ],
      "name": "OwnershipTransferred",
      "type": "event"
    },
    {
      "anonymous": false,
      "inputs": [],
      "name": "SaleStarted",
      "type": "event"
    },
    {
      "anonymous": false,
      "inputs": [],
      "name": "SaleStopped",
      "type": "event"
    },
    {
      "anonymous": false,
      "inputs": [
        {
          "indexed": false,
          "internalType": "uint256",
          "name": "supply",
          "type": "uint256"
        }
      ],
      "name": "TokenMinted",
      "type": "event"
    },
    {
      "anonymous": false,
      "inputs": [
        {
          "indexed": true,
          "internalType": "address",
          "name": "from",
          "type": "address"
        },
        {
          "indexed": true,
          "internalType": "address",
          "name": "to",
          "type": "address"
        },
        {
          "indexed": true,
          "internalType": "uint256",
          "name": "tokenId",
          "type": "uint256"
        }
      ],
      "name": "Transfer",
      "type": "event"
    },
    {
      "inputs": [],
      "name": "DIADRAGONS_PROVENANCE",
      "outputs": [
        {
          "internalType": "string",
          "name": "",
          "type": "string"
        }
      ],
      "stateMutability": "view",
      "type": "function"
    },
    {
      "inputs": [],
      "name": "MAX_SUPPLY",
      "outputs": [
        {
          "internalType": "uint256",
          "name": "",
          "type": "uint256"
        }
      ],
      "stateMutability": "view",
      "type": "function"
    },
    {
      "inputs": [],
      "name": "TIER1_PRICE",
      "outputs": [
        {
          "internalType": "uint256",
          "name": "",
          "type": "uint256"
        }
      ],
      "stateMutability": "view",
      "type": "function"
    },
    {
      "inputs": [],
      "name": "_isPresaleActive",
      "outputs": [
        {
          "internalType": "bool",
          "name": "",
          "type": "bool"
        }
      ],
      "stateMutability": "view",
      "type": "function"
    },
    {
      "inputs": [],
      "name": "_isSaleActive",
      "outputs": [
        {
          "internalType": "bool",
          "name": "",
          "type": "bool"
        }
      ],
      "stateMutability": "view",
      "type": "function"
    },
    {
      "inputs": [
        {
          "internalType": "address",
          "name": "to",
          "type": "address"
        },
        {
          "internalType": "uint256",
          "name": "tokenId",
          "type": "uint256"
        }
      ],
      "name": "approve",
      "outputs": [],
      "stateMutability": "nonpayable",
      "type": "function"
    },
    {
      "inputs": [
        {
          "internalType": "address",
          "name": "owner",
          "type": "address"
        }
      ],
      "name": "balanceOf",
      "outputs": [
        {
          "internalType": "uint256",
          "name": "",
          "type": "uint256"
        }
      ],
      "stateMutability": "view",
      "type": "function"
    },
    {
      "inputs": [],
      "name": "baseURI",
      "outputs": [
        {
          "internalType": "string",
          "name": "",
          "type": "string"
        }
      ],
      "stateMutability": "view",
      "type": "function"
    },
    {
      "inputs": [
        {
          "internalType": "uint256",
          "name": "numDiadragons",
          "type": "uint256"
        },
        {
          "internalType": "address",
          "name": "recipient",
          "type": "address"
        }
      ],
      "name": "boughtInFiat",
      "outputs": [],
      "stateMutability": "nonpayable",
      "type": "function"
    },
    {
      "inputs": [],
      "name": "emergencySetOffsetIndexBlock",
      "outputs": [],
      "stateMutability": "nonpayable",
      "type": "function"
    },
    {
      "inputs": [
        {
          "internalType": "uint256",
          "name": "tokenId",
          "type": "uint256"
        }
      ],
      "name": "getApproved",
      "outputs": [
        {
          "internalType": "address",
          "name": "",
          "type": "address"
        }
      ],
      "stateMutability": "view",
      "type": "function"
    },
    {
      "inputs": [
        {
          "internalType": "address",
          "name": "_owner",
          "type": "address"
        }
      ],
      "name": "getDiadragonsByOwner",
      "outputs": [
        {
          "internalType": "uint256[]",
          "name": "",
          "type": "uint256[]"
        }
      ],
      "stateMutability": "view",
      "type": "function"
    },
    {
      "inputs": [],
      "name": "getTotalSupply",
      "outputs": [
        {
          "internalType": "uint256",
          "name": "",
          "type": "uint256"
        }
      ],
      "stateMutability": "view",
      "type": "function"
    },
    {
      "inputs": [
        {
          "internalType": "address",
          "name": "owner",
          "type": "address"
        },
        {
          "internalType": "address",
          "name": "operator",
          "type": "address"
        }
      ],
      "name": "isApprovedForAll",
      "outputs": [
        {
          "internalType": "bool",
          "name": "",
          "type": "bool"
        }
      ],
      "stateMutability": "view",
      "type": "function"
    },
    {
      "inputs": [],
      "name": "isSaleActive",
      "outputs": [
        {
          "internalType": "bool",
          "name": "",
          "type": "bool"
        }
      ],
      "stateMutability": "view",
      "type": "function"
    },
    {
      "inputs": [
        {
          "internalType": "uint256",
          "name": "numDiadragons",
          "type": "uint256"
        }
      ],
      "name": "mintDiadragons",
      "outputs": [],
      "stateMutability": "payable",
      "type": "function"
    },
    {
      "inputs": [],
      "name": "name",
      "outputs": [
        {
          "internalType": "string",
          "name": "",
          "type": "string"
        }
      ],
      "stateMutability": "view",
      "type": "function"
    },
    {
      "inputs": [],
      "name": "offsetIndex",
      "outputs": [
        {
          "internalType": "uint256",
          "name": "",
          "type": "uint256"
        }
      ],
      "stateMutability": "view",
      "type": "function"
    },
    {
      "inputs": [],
      "name": "offsetIndexBlock",
      "outputs": [
        {
          "internalType": "uint256",
          "name": "",
          "type": "uint256"
        }
      ],
      "stateMutability": "view",
      "type": "function"
    },
    {
      "inputs": [],
      "name": "owner",
      "outputs": [
        {
          "internalType": "address",
          "name": "",
          "type": "address"
        }
      ],
      "stateMutability": "view",
      "type": "function"
    },
    {
      "inputs": [
        {
          "internalType": "uint256",
          "name": "tokenId",
          "type": "uint256"
        }
      ],
      "name": "ownerOf",
      "outputs": [
        {
          "internalType": "address",
          "name": "",
          "type": "address"
        }
      ],
      "stateMutability": "view",
      "type": "function"
    },
    {
      "inputs": [],
      "name": "pauseSale",
      "outputs": [],
      "stateMutability": "nonpayable",
      "type": "function"
    },
    {
      "inputs": [],
      "name": "renounceOwnership",
      "outputs": [],
      "stateMutability": "nonpayable",
      "type": "function"
    },
    {
      "inputs": [
        {
          "internalType": "uint256",
          "name": "numDiadragons",
          "type": "uint256"
        }
      ],
      "name": "reserveDiadragons",
      "outputs": [],
      "stateMutability": "nonpayable",
      "type": "function"
    },
    {
      "inputs": [],
      "name": "revealTimeStamp",
      "outputs": [
        {
          "internalType": "uint256",
          "name": "",
          "type": "uint256"
        }
      ],
      "stateMutability": "view",
      "type": "function"
    },
    {
      "inputs": [
        {
          "internalType": "address",
          "name": "from",
          "type": "address"
        },
        {
          "internalType": "address",
          "name": "to",
          "type": "address"
        },
        {
          "internalType": "uint256",
          "name": "tokenId",
          "type": "uint256"
        }
      ],
      "name": "safeTransferFrom",
      "outputs": [],
      "stateMutability": "nonpayable",
      "type": "function"
    },
    {
      "inputs": [
        {
          "internalType": "address",
          "name": "from",
          "type": "address"
        },
        {
          "internalType": "address",
          "name": "to",
          "type": "address"
        },
        {
          "internalType": "uint256",
          "name": "tokenId",
          "type": "uint256"
        },
        {
          "internalType": "bytes",
          "name": "_data",
          "type": "bytes"
        }
      ],
      "name": "safeTransferFrom",
      "outputs": [],
      "stateMutability": "nonpayable",
      "type": "function"
    },
    {
      "inputs": [
        {
          "internalType": "address[]",
          "name": "recipients",
          "type": "address[]"
        }
      ],
      "name": "sendDiadragonToMany",
      "outputs": [],
      "stateMutability": "nonpayable",
      "type": "function"
    },
    {
      "inputs": [
        {
          "internalType": "address",
          "name": "operator",
          "type": "address"
        },
        {
          "internalType": "bool",
          "name": "approved",
          "type": "bool"
        }
      ],
      "name": "setApprovalForAll",
      "outputs": [],
      "stateMutability": "nonpayable",
      "type": "function"
    },
    {
      "inputs": [
        {
          "internalType": "string",
          "name": "_newBaseURI",
          "type": "string"
        }
      ],
      "name": "setBaseURI",
      "outputs": [],
      "stateMutability": "nonpayable",
      "type": "function"
    },
    {
      "inputs": [],
      "name": "setOffsetIndex",
      "outputs": [],
      "stateMutability": "nonpayable",
      "type": "function"
    },
    {
      "inputs": [
        {
          "internalType": "string",
          "name": "preRevealURI",
          "type": "string"
        }
      ],
      "name": "setPreRevealURI",
      "outputs": [],
      "stateMutability": "nonpayable",
      "type": "function"
    },
    {
      "inputs": [
        {
          "internalType": "string",
          "name": "provenanceHash",
          "type": "string"
        }
      ],
      "name": "setProvenanceHash",
      "outputs": [],
      "stateMutability": "nonpayable",
      "type": "function"
    },
    {
      "inputs": [
        {
          "internalType": "uint256",
          "name": "newRevealTimeStamp",
          "type": "uint256"
        }
      ],
      "name": "setRevealTimestamp",
      "outputs": [],
      "stateMutability": "nonpayable",
      "type": "function"
    },
    {
      "inputs": [],
      "name": "startSale",
      "outputs": [],
      "stateMutability": "nonpayable",
      "type": "function"
    },
    {
      "inputs": [
        {
          "internalType": "bytes4",
          "name": "interfaceId",
          "type": "bytes4"
        }
      ],
      "name": "supportsInterface",
      "outputs": [
        {
          "internalType": "bool",
          "name": "",
          "type": "bool"
        }
      ],
      "stateMutability": "view",
      "type": "function"
    },
    {
      "inputs": [],
      "name": "symbol",
      "outputs": [
        {
          "internalType": "string",
          "name": "",
          "type": "string"
        }
      ],
      "stateMutability": "view",
      "type": "function"
    },
    {
      "inputs": [
        {
          "internalType": "uint256",
          "name": "index",
          "type": "uint256"
        }
      ],
      "name": "tokenByIndex",
      "outputs": [
        {
          "internalType": "uint256",
          "name": "",
          "type": "uint256"
        }
      ],
      "stateMutability": "view",
      "type": "function"
    },
    {
      "inputs": [
        {
          "internalType": "address",
          "name": "owner",
          "type": "address"
        },
        {
          "internalType": "uint256",
          "name": "index",
          "type": "uint256"
        }
      ],
      "name": "tokenOfOwnerByIndex",
      "outputs": [
        {
          "internalType": "uint256",
          "name": "",
          "type": "uint256"
        }
      ],
      "stateMutability": "view",
      "type": "function"
    },
    {
      "inputs": [
        {
          "internalType": "uint256",
          "name": "tokenId",
          "type": "uint256"
        }
      ],
      "name": "tokenURI",
      "outputs": [
        {
          "internalType": "string",
          "name": "",
          "type": "string"
        }
      ],
      "stateMutability": "view",
      "type": "function"
    },
    {
      "inputs": [],
      "name": "totalSupply",
      "outputs": [
        {
          "internalType": "uint256",
          "name": "",
          "type": "uint256"
        }
      ],
      "stateMutability": "view",
      "type": "function"
    },
    {
      "inputs": [
        {
          "internalType": "address",
          "name": "from",
          "type": "address"
        },
        {
          "internalType": "address",
          "name": "to",
          "type": "address"
        },
        {
          "internalType": "uint256",
          "name": "tokenId",
          "type": "uint256"
        }
      ],
      "name": "transferFrom",
      "outputs": [],
      "stateMutability": "nonpayable",
      "type": "function"
    },
    {
      "inputs": [
        {
          "internalType": "address",
          "name": "newOwner",
          "type": "address"
        }
      ],
      "name": "transferOwnership",
      "outputs": [],
      "stateMutability": "nonpayable",
      "type": "function"
    },
    {
      "inputs": [],
      "name": "withdraw",
      "outputs": [],
      "stateMutability": "nonpayable",
      "type": "function"
    }
  ],
  "bytecode": "0x60806040526000600a60146101000a81548160ff0219169083151502179055506001600a60156101000a81548160ff0219169083151502179055506000600b556000600c5562093a8042620000559190620002d2565b600d5560405180602001604052806000815250600e90805190602001906200007f92919062000222565b503480156200008d57600080fd5b506040518060400160405280600a81526020017f446961447261676f6e73000000000000000000000000000000000000000000008152506040518060400160405280600281526020017f444400000000000000000000000000000000000000000000000000000000000081525081600090805190602001906200011292919062000222565b5080600190805190602001906200012b92919062000222565b5050506200014e620001426200015460201b60201c565b6200015c60201b60201c565b620003cd565b600033905090565b6000600a60009054906101000a900473ffffffffffffffffffffffffffffffffffffffff16905081600a60006101000a81548173ffffffffffffffffffffffffffffffffffffffff021916908373ffffffffffffffffffffffffffffffffffffffff1602179055508173ffffffffffffffffffffffffffffffffffffffff168173ffffffffffffffffffffffffffffffffffffffff167f8be0079c531659141344cd1fd0a4f28419497f9722a3daafe3b4186f6b6457e060405160405180910390a35050565b828054620002309062000339565b90600052602060002090601f016020900481019282620002545760008555620002a0565b82601f106200026f57805160ff1916838001178555620002a0565b82800160010185558215620002a0579182015b828111156200029f57825182559160200191906001019062000282565b5b509050620002af9190620002b3565b5090565b5b80821115620002ce576000816000905550600101620002b4565b5090565b6000620002df826200032f565b9150620002ec836200032f565b9250827fffffffffffffffffffffffffffffffffffffffffffffffffffffffffffffffff038211156200032457620003236200036f565b5b828201905092915050565b6000819050919050565b600060028204905060018216806200035257607f821691505b602082108114156200036957620003686200039e565b5b50919050565b7f4e487b7100000000000000000000000000000000000000000000000000000000600052601160045260246000fd5b7f4e487b7100000000000000000000000000000000000000000000000000000000600052602260045260246000fd5b614e4980620003dd6000396000f3fe6080604052600436106102675760003560e01c80636c0360eb11610144578063af2a1714116100b6578063cc4e96111161007a578063cc4e9611146108e2578063d2f902141461090d578063e985e9c514610924578063ec8d15e314610961578063f2fde38b1461097d578063ffe90ba6146109a657610267565b8063af2a171414610811578063b66a0e5d1461083a578063b88d4fde14610851578063c4e41b221461087a578063c87b56dd146108a557610267565b806371f9c5341161010857806371f9c53414610713578063823fbf021461073e5780638da5cb5b1461076757806394bb54371461079257806395d89b41146107bd578063a22cb465146107e857610267565b80636c0360eb146106405780637080d6fc1461066b57806370a082311461069657806370b7e0e3146106d3578063715018a6146106fc57610267565b80632f745c59116101dd5780634d500ade116101a15780634d500ade1461051e5780634f6ccce71461055b57806355367ba91461059857806355f804b3146105af578063564566a8146105d85780636352211e1461060357610267565b80632f745c591461045f57806332cb6b0c1461049c5780633ccfd60b146104c75780633dc23a6d146104de57806342842e0e146104f557610267565b8063109695231161022f578063109695231461036357806314cf19fe1461038c57806318160ddd146103b75780631ba07240146103e257806323b872dd1461040d5780632a85db551461043657610267565b8063018a2c371461026c57806301ffc9a71461029557806306fdde03146102d2578063081812fc146102fd578063095ea7b31461033a575b600080fd5b34801561027857600080fd5b50610293600480360381019061028e9190613af5565b6109d1565b005b3480156102a157600080fd5b506102bc60048036038101906102b79190613a62565b610a57565b6040516102c991906145e2565b60405180910390f35b3480156102de57600080fd5b506102e7610a69565b6040516102f491906145fd565b60405180910390f35b34801561030957600080fd5b50610324600480360381019061031f9190613af5565b610afb565b6040516103319190614559565b60405180910390f35b34801561034657600080fd5b50610361600480360381019061035c91906139e5565b610b80565b005b34801561036f57600080fd5b5061038a60048036038101906103859190613ab4565b610c98565b005b34801561039857600080fd5b506103a1610d2e565b6040516103ae919061491f565b60405180910390f35b3480156103c357600080fd5b506103cc610d3a565b6040516103d9919061491f565b60405180910390f35b3480156103ee57600080fd5b506103f7610d47565b604051610404919061491f565b60405180910390f35b34801561041957600080fd5b50610434600480360381019061042f91906138df565b610d4d565b005b34801561044257600080fd5b5061045d60048036038101906104589190613ab4565b610dad565b005b34801561046b57600080fd5b50610486600480360381019061048191906139e5565b610e43565b604051610493919061491f565b60405180910390f35b3480156104a857600080fd5b506104b1610ee8565b6040516104be919061491f565b60405180910390f35b3480156104d357600080fd5b506104dc610eee565b005b3480156104ea57600080fd5b506104f3610fb9565b005b34801561050157600080fd5b5061051c600480360381019061051791906138df565b611083565b005b34801561052a57600080fd5b506105456004803603810190610540919061387a565b6110a3565b60405161055291906145c0565b60405180910390f35b34801561056757600080fd5b50610582600480360381019061057d9190613af5565b61119d565b60405161058f919061491f565b60405180910390f35b3480156105a457600080fd5b506105ad611234565b005b3480156105bb57600080fd5b506105d660048036038101906105d19190613ab4565b6112f9565b005b3480156105e457600080fd5b506105ed61138f565b6040516105fa91906145e2565b60405180910390f35b34801561060f57600080fd5b5061062a60048036038101906106259190613af5565b6113a6565b6040516106379190614559565b60405180910390f35b34801561064c57600080fd5b50610655611458565b60405161066291906145fd565b60405180910390f35b34801561067757600080fd5b506106806114e6565b60405161068d91906145e2565b60405180910390f35b3480156106a257600080fd5b506106bd60048036038101906106b8919061387a565b6114f9565b6040516106ca919061491f565b60405180910390f35b3480156106df57600080fd5b506106fa60048036038101906106f59190613a21565b6115b1565b005b34801561070857600080fd5b506107116116fa565b005b34801561071f57600080fd5b50610728611782565b604051610735919061491f565b60405180910390f35b34801561074a57600080fd5b5061076560048036038101906107609190613b1e565b611788565b005b34801561077357600080fd5b5061077c6118ae565b6040516107899190614559565b60405180910390f35b34801561079e57600080fd5b506107a76118d8565b6040516107b491906145fd565b60405180910390f35b3480156107c957600080fd5b506107d2611966565b6040516107df91906145fd565b60405180910390f35b3480156107f457600080fd5b5061080f600480360381019061080a91906139a9565b6119f8565b005b34801561081d57600080fd5b5061083860048036038101906108339190613af5565b611b79565b005b34801561084657600080fd5b5061084f611c60565b005b34801561085d57600080fd5b506108786004803603810190610873919061392e565b611d25565b005b34801561088657600080fd5b5061088f611d87565b60405161089c919061491f565b60405180910390f35b3480156108b157600080fd5b506108cc60048036038101906108c79190613af5565b611d96565b6040516108d991906145fd565b60405180910390f35b3480156108ee57600080fd5b506108f7611f0c565b60405161090491906145e2565b60405180910390f35b34801561091957600080fd5b50610922611f1f565b005b34801561093057600080fd5b5061094b600480360381019061094691906138a3565b61202f565b60405161095891906145e2565b60405180910390f35b61097b60048036038101906109769190613af5565b6120c3565b005b34801561098957600080fd5b506109a4600480360381019061099f919061387a565b612218565b005b3480156109b257600080fd5b506109bb612310565b6040516109c8919061491f565b60405180910390f35b6109d9612316565b73ffffffffffffffffffffffffffffffffffffffff166109f76118ae565b73ffffffffffffffffffffffffffffffffffffffff1614610a4d576040517f08c379a0000000000000000000000000000000000000000000000000000000008152600401610a449061481f565b60405180910390fd5b80600d8190555050565b6000610a628261231e565b9050919050565b606060008054610a7890614c3e565b80601f0160208091040260200160405190810160405280929190818152602001828054610aa490614c3e565b8015610af15780601f10610ac657610100808354040283529160200191610af1565b820191906000526020600020905b815481529060010190602001808311610ad457829003601f168201915b5050505050905090565b6000610b0682612398565b610b45576040517f08c379a0000000000000000000000000000000000000000000000000000000008152600401610b3c906147ff565b60405180910390fd5b6004600083815260200190815260200160002060009054906101000a900473ffffffffffffffffffffffffffffffffffffffff169050919050565b6000610b8b826113a6565b90508073ffffffffffffffffffffffffffffffffffffffff168373ffffffffffffffffffffffffffffffffffffffff161415610bfc576040517f08c379a0000000000000000000000000000000000000000000000000000000008152600401610bf39061487f565b60405180910390fd5b8073ffffffffffffffffffffffffffffffffffffffff16610c1b612316565b73ffffffffffffffffffffffffffffffffffffffff161480610c4a5750610c4981610c44612316565b61202f565b5b610c89576040517f08c379a0000000000000000000000000000000000000000000000000000000008152600401610c809061475f565b60405180910390fd5b610c938383612404565b505050565b610ca0612316565b73ffffffffffffffffffffffffffffffffffffffff16610cbe6118ae565b73ffffffffffffffffffffffffffffffffffffffff1614610d14576040517f08c379a0000000000000000000000000000000000000000000000000000000008152600401610d0b9061481f565b60405180910390fd5b80600e9080519060200190610d2a929190613608565b5050565b67d02ab486cedc000081565b6000600880549050905090565b600c5481565b610d5e610d58612316565b826124bd565b610d9d576040517f08c379a0000000000000000000000000000000000000000000000000000000008152600401610d94906148bf565b60405180910390fd5b610da883838361259b565b505050565b610db5612316565b73ffffffffffffffffffffffffffffffffffffffff16610dd36118ae565b73ffffffffffffffffffffffffffffffffffffffff1614610e29576040517f08c379a0000000000000000000000000000000000000000000000000000000008152600401610e209061481f565b60405180910390fd5b8060109080519060200190610e3f929190613608565b5050565b6000610e4e836114f9565b8210610e8f576040517f08c379a0000000000000000000000000000000000000000000000000000000008152600401610e869061463f565b60405180910390fd5b600660008473ffffffffffffffffffffffffffffffffffffffff1673ffffffffffffffffffffffffffffffffffffffff168152602001908152602001600020600083815260200190815260200160002054905092915050565b612b6781565b610ef6612316565b73ffffffffffffffffffffffffffffffffffffffff16610f146118ae565b73ffffffffffffffffffffffffffffffffffffffff1614610f6a576040517f08c379a0000000000000000000000000000000000000000000000000000000008152600401610f619061481f565b60405180910390fd5b60004790503373ffffffffffffffffffffffffffffffffffffffff166108fc829081150290604051600060405180830381858888f19350505050158015610fb5573d6000803e3d6000fd5b5050565b610fc1612316565b73ffffffffffffffffffffffffffffffffffffffff16610fdf6118ae565b73ffffffffffffffffffffffffffffffffffffffff1614611035576040517f08c379a000000000000000000000000000000000000000000000000000000000815260040161102c9061481f565b60405180910390fd5b6000600b541461107a576040517f08c379a00000000000000000000000000000000000000000000000000000000081526004016110719061473f565b60405180910390fd5b43600c81905550565b61109e83838360405180602001604052806000815250611d25565b505050565b606060006110b0836114f9565b905060008167ffffffffffffffff8111156110f4577f4e487b7100000000000000000000000000000000000000000000000000000000600052604160045260246000fd5b6040519080825280602002602001820160405280156111225781602001602082028036833780820191505090505b50905060005b828110156111925761113a8582610e43565b828281518110611173577f4e487b7100000000000000000000000000000000000000000000000000000000600052603260045260246000fd5b602002602001018181525050808061118a90614c70565b915050611128565b508092505050919050565b60006111a7610d3a565b82106111e8576040517f08c379a00000000000000000000000000000000000000000000000000000000081526004016111df906148df565b60405180910390fd5b60088281548110611222577f4e487b7100000000000000000000000000000000000000000000000000000000600052603260045260246000fd5b90600052602060002001549050919050565b61123c612316565b73ffffffffffffffffffffffffffffffffffffffff1661125a6118ae565b73ffffffffffffffffffffffffffffffffffffffff16146112b0576040517f08c379a00000000000000000000000000000000000000000000000000000000081526004016112a79061481f565b60405180910390fd5b6000600a60146101000a81548160ff0219169083151502179055507fdf515ab57ec796fd111da4dd488177601b9465ce9c442de16857682b7f10297a60405160405180910390a1565b611301612316565b73ffffffffffffffffffffffffffffffffffffffff1661131f6118ae565b73ffffffffffffffffffffffffffffffffffffffff1614611375576040517f08c379a000000000000000000000000000000000000000000000000000000000815260040161136c9061481f565b60405180910390fd5b80600f908051906020019061138b929190613608565b5050565b6000600a60149054906101000a900460ff16905090565b6000806002600084815260200190815260200160002060009054906101000a900473ffffffffffffffffffffffffffffffffffffffff169050600073ffffffffffffffffffffffffffffffffffffffff168173ffffffffffffffffffffffffffffffffffffffff16141561144f576040517f08c379a00000000000000000000000000000000000000000000000000000000081526004016114469061479f565b60405180910390fd5b80915050919050565b600f805461146590614c3e565b80601f016020809104026020016040519081016040528092919081815260200182805461149190614c3e565b80156114de5780601f106114b3576101008083540402835291602001916114de565b820191906000526020600020905b8154815290600101906020018083116114c157829003601f168201915b505050505081565b600a60149054906101000a900460ff1681565b60008073ffffffffffffffffffffffffffffffffffffffff168273ffffffffffffffffffffffffffffffffffffffff16141561156a576040517f08c379a00000000000000000000000000000000000000000000000000000000081526004016115619061477f565b60405180910390fd5b600360008373ffffffffffffffffffffffffffffffffffffffff1673ffffffffffffffffffffffffffffffffffffffff168152602001908152602001600020549050919050565b6115b9612316565b73ffffffffffffffffffffffffffffffffffffffff166115d76118ae565b73ffffffffffffffffffffffffffffffffffffffff161461162d576040517f08c379a00000000000000000000000000000000000000000000000000000000081526004016116249061481f565b60405180910390fd5b612b6761164b825161163d610d3a565b6127f790919063ffffffff16565b111561168c576040517f08c379a0000000000000000000000000000000000000000000000000000000008152600401611683906146bf565b60405180910390fd5b60005b81518110156116f6576116e360018383815181106116d6577f4e487b7100000000000000000000000000000000000000000000000000000000600052603260045260246000fd5b6020026020010151611788565b80806116ee90614c70565b91505061168f565b5050565b611702612316565b73ffffffffffffffffffffffffffffffffffffffff166117206118ae565b73ffffffffffffffffffffffffffffffffffffffff1614611776576040517f08c379a000000000000000000000000000000000000000000000000000000000815260040161176d9061481f565b60405180910390fd5b611780600061280d565b565b600d5481565b611790612316565b73ffffffffffffffffffffffffffffffffffffffff166117ae6118ae565b73ffffffffffffffffffffffffffffffffffffffff1614611804576040517f08c379a00000000000000000000000000000000000000000000000000000000081526004016117fb9061481f565b60405180910390fd5b612b6761182183611813610d3a565b6127f790919063ffffffff16565b1115611862576040517f08c379a0000000000000000000000000000000000000000000000000000000008152600401611859906146bf565b60405180910390fd5b61186c82826128d3565b7ff00d28232b285f24f2e38415deb2ceb31069e70d4505838b3911b4f02058502e611895610d3a565b6040516118a2919061491f565b60405180910390a15050565b6000600a60009054906101000a900473ffffffffffffffffffffffffffffffffffffffff16905090565b600e80546118e590614c3e565b80601f016020809104026020016040519081016040528092919081815260200182805461191190614c3e565b801561195e5780601f106119335761010080835404028352916020019161195e565b820191906000526020600020905b81548152906001019060200180831161194157829003601f168201915b505050505081565b60606001805461197590614c3e565b80601f01602080910402602001604051908101604052809291908181526020018280546119a190614c3e565b80156119ee5780601f106119c3576101008083540402835291602001916119ee565b820191906000526020600020905b8154815290600101906020018083116119d157829003601f168201915b5050505050905090565b611a00612316565b73ffffffffffffffffffffffffffffffffffffffff168273ffffffffffffffffffffffffffffffffffffffff161415611a6e576040517f08c379a0000000000000000000000000000000000000000000000000000000008152600401611a65906146ff565b60405180910390fd5b8060056000611a7b612316565b73ffffffffffffffffffffffffffffffffffffffff1673ffffffffffffffffffffffffffffffffffffffff16815260200190815260200160002060008473ffffffffffffffffffffffffffffffffffffffff1673ffffffffffffffffffffffffffffffffffffffff16815260200190815260200160002060006101000a81548160ff0219169083151502179055508173ffffffffffffffffffffffffffffffffffffffff16611b28612316565b73ffffffffffffffffffffffffffffffffffffffff167f17307eab39ab6107e8899845ad3d59bd9653f200f220920489ca2b5937696c3183604051611b6d91906145e2565b60405180910390a35050565b611b81612316565b73ffffffffffffffffffffffffffffffffffffffff16611b9f6118ae565b73ffffffffffffffffffffffffffffffffffffffff1614611bf5576040517f08c379a0000000000000000000000000000000000000000000000000000000008152600401611bec9061481f565b60405180910390fd5b612b67611c1282611c04610d3a565b6127f790919063ffffffff16565b1115611c53576040517f08c379a0000000000000000000000000000000000000000000000000000000008152600401611c4a906146bf565b60405180910390fd5b611c5d81336128d3565b50565b611c68612316565b73ffffffffffffffffffffffffffffffffffffffff16611c866118ae565b73ffffffffffffffffffffffffffffffffffffffff1614611cdc576040517f08c379a0000000000000000000000000000000000000000000000000000000008152600401611cd39061481f565b60405180910390fd5b6001600a60146101000a81548160ff0219169083151502179055507f912ee23dde46ec889d6748212cce445d667f7041597691dc89e8549ad8bc0acb60405160405180910390a1565b611d36611d30612316565b836124bd565b611d75576040517f08c379a0000000000000000000000000000000000000000000000000000000008152600401611d6c906148bf565b60405180910390fd5b611d818484848461294d565b50505050565b6000611d91610d3a565b905090565b6060611da182612398565b611de0576040517f08c379a0000000000000000000000000000000000000000000000000000000008152600401611dd79061485f565b60405180910390fd5b612b67611deb610d3a565b101580611dfa5750600d544210155b15611e79576000611e3e612b67611e30611e21600b54612b676129a990919063ffffffff16565b866127f790919063ffffffff16565b6129bf90919063ffffffff16565b9050611e486129d5565b611e5182612a67565b604051602001611e62929190614535565b604051602081830303815290604052915050611f07565b60108054611e8690614c3e565b80601f0160208091040260200160405190810160405280929190818152602001828054611eb290614c3e565b8015611eff5780601f10611ed457610100808354040283529160200191611eff565b820191906000526020600020905b815481529060010190602001808311611ee257829003601f168201915b505050505090505b919050565b600a60159054906101000a900460ff1681565b6000600b5414611f64576040517f08c379a0000000000000000000000000000000000000000000000000000000008152600401611f5b906148ff565b60405180910390fd5b6000600c541415611faa576040517f08c379a0000000000000000000000000000000000000000000000000000000008152600401611fa19061489f565b60405180910390fd5b60ff611fc1600c54436129a990919063ffffffff16565b1115611ff757611fec612b67600143611fda9190614b54565b4060001c6129bf90919063ffffffff16565b600b81905550612019565b612012612b67600c544060001c6129bf90919063ffffffff16565b600b819055505b6000600b54141561202d576001600b819055505b565b6000600560008473ffffffffffffffffffffffffffffffffffffffff1673ffffffffffffffffffffffffffffffffffffffff16815260200190815260200160002060008373ffffffffffffffffffffffffffffffffffffffff1673ffffffffffffffffffffffffffffffffffffffff16815260200190815260200160002060009054906101000a900460ff16905092915050565b600a60149054906101000a900460ff16612112576040517f08c379a00000000000000000000000000000000000000000000000000000000081526004016121099061461f565b60405180910390fd5b612b6761212f82612121610d3a565b6127f790919063ffffffff16565b1115612170576040517f08c379a0000000000000000000000000000000000000000000000000000000008152600401612167906146bf565b60405180910390fd5b3461218c8267d02ab486cedc0000612c1490919063ffffffff16565b11156121cd576040517f08c379a00000000000000000000000000000000000000000000000000000000081526004016121c4906147bf565b60405180910390fd5b6121d781336128d3565b7ff00d28232b285f24f2e38415deb2ceb31069e70d4505838b3911b4f02058502e612200610d3a565b60405161220d919061491f565b60405180910390a150565b612220612316565b73ffffffffffffffffffffffffffffffffffffffff1661223e6118ae565b73ffffffffffffffffffffffffffffffffffffffff1614612294576040517f08c379a000000000000000000000000000000000000000000000000000000000815260040161228b9061481f565b60405180910390fd5b600073ffffffffffffffffffffffffffffffffffffffff168173ffffffffffffffffffffffffffffffffffffffff161415612304576040517f08c379a00000000000000000000000000000000000000000000000000000000081526004016122fb9061467f565b60405180910390fd5b61230d8161280d565b50565b600b5481565b600033905090565b60007f780e9d63000000000000000000000000000000000000000000000000000000007bffffffffffffffffffffffffffffffffffffffffffffffffffffffff1916827bffffffffffffffffffffffffffffffffffffffffffffffffffffffff19161480612391575061239082612c2a565b5b9050919050565b60008073ffffffffffffffffffffffffffffffffffffffff166002600084815260200190815260200160002060009054906101000a900473ffffffffffffffffffffffffffffffffffffffff1673ffffffffffffffffffffffffffffffffffffffff1614159050919050565b816004600083815260200190815260200160002060006101000a81548173ffffffffffffffffffffffffffffffffffffffff021916908373ffffffffffffffffffffffffffffffffffffffff160217905550808273ffffffffffffffffffffffffffffffffffffffff16612477836113a6565b73ffffffffffffffffffffffffffffffffffffffff167f8c5be1e5ebec7d5bd14f71427d1e84f3dd0314c0f7b2291e5b200ac8c7c3b92560405160405180910390a45050565b60006124c882612398565b612507576040517f08c379a00000000000000000000000000000000000000000000000000000000081526004016124fe9061471f565b60405180910390fd5b6000612512836113a6565b90508073ffffffffffffffffffffffffffffffffffffffff168473ffffffffffffffffffffffffffffffffffffffff16148061258157508373ffffffffffffffffffffffffffffffffffffffff1661256984610afb565b73ffffffffffffffffffffffffffffffffffffffff16145b806125925750612591818561202f565b5b91505092915050565b8273ffffffffffffffffffffffffffffffffffffffff166125bb826113a6565b73ffffffffffffffffffffffffffffffffffffffff1614612611576040517f08c379a00000000000000000000000000000000000000000000000000000000081526004016126089061483f565b60405180910390fd5b600073ffffffffffffffffffffffffffffffffffffffff168273ffffffffffffffffffffffffffffffffffffffff161415612681576040517f08c379a0000000000000000000000000000000000000000000000000000000008152600401612678906146df565b60405180910390fd5b61268c838383612d0c565b612697600082612404565b6001600360008573ffffffffffffffffffffffffffffffffffffffff1673ffffffffffffffffffffffffffffffffffffffff16815260200190815260200160002060008282546126e79190614b54565b925050819055506001600360008473ffffffffffffffffffffffffffffffffffffffff1673ffffffffffffffffffffffffffffffffffffffff168152602001908152602001600020600082825461273e9190614a73565b92505081905550816002600083815260200190815260200160002060006101000a81548173ffffffffffffffffffffffffffffffffffffffff021916908373ffffffffffffffffffffffffffffffffffffffff160217905550808273ffffffffffffffffffffffffffffffffffffffff168473ffffffffffffffffffffffffffffffffffffffff167fddf252ad1be2c89b69c2b068fc378daa952ba7f163c4a11628f55a4df523b3ef60405160405180910390a4505050565b600081836128059190614a73565b905092915050565b6000600a60009054906101000a900473ffffffffffffffffffffffffffffffffffffffff16905081600a60006101000a81548173ffffffffffffffffffffffffffffffffffffffff021916908373ffffffffffffffffffffffffffffffffffffffff1602179055508173ffffffffffffffffffffffffffffffffffffffff168173ffffffffffffffffffffffffffffffffffffffff167f8be0079c531659141344cd1fd0a4f28419497f9722a3daafe3b4186f6b6457e060405160405180910390a35050565b60006128dd610d3a565b905060005b83811015612912576128ff8382846128fa9190614a73565b612d1c565b808061290a90614c70565b9150506128e2565b506000600c5414801561293b5750612b6761292b610d3a565b10158061293a5750600d544210155b5b156129485743600c819055505b505050565b61295884848461259b565b61296484848484612d3a565b6129a3576040517f08c379a000000000000000000000000000000000000000000000000000000000815260040161299a9061465f565b60405180910390fd5b50505050565b600081836129b79190614b54565b905092915050565b600081836129cd9190614cb9565b905092915050565b6060600f80546129e490614c3e565b80601f0160208091040260200160405190810160405280929190818152602001828054612a1090614c3e565b8015612a5d5780601f10612a3257610100808354040283529160200191612a5d565b820191906000526020600020905b815481529060010190602001808311612a4057829003601f168201915b5050505050905090565b60606000821415612aaf576040518060400160405280600181526020017f30000000000000000000000000000000000000000000000000000000000000008152509050612c0f565b600082905060005b60008214612ae1578080612aca90614c70565b915050600a82612ada9190614ac9565b9150612ab7565b60008167ffffffffffffffff811115612b23577f4e487b7100000000000000000000000000000000000000000000000000000000600052604160045260246000fd5b6040519080825280601f01601f191660200182016040528015612b555781602001600182028036833780820191505090505b5090505b60008514612c0857600182612b6e9190614b54565b9150600a85612b7d9190614cb9565b6030612b899190614a73565b60f81b818381518110612bc5577f4e487b7100000000000000000000000000000000000000000000000000000000600052603260045260246000fd5b60200101907effffffffffffffffffffffffffffffffffffffffffffffffffffffffffffff1916908160001a905350600a85612c019190614ac9565b9450612b59565b8093505050505b919050565b60008183612c229190614afa565b905092915050565b60007f80ac58cd000000000000000000000000000000000000000000000000000000007bffffffffffffffffffffffffffffffffffffffffffffffffffffffff1916827bffffffffffffffffffffffffffffffffffffffffffffffffffffffff19161480612cf557507f5b5e139f000000000000000000000000000000000000000000000000000000007bffffffffffffffffffffffffffffffffffffffffffffffffffffffff1916827bffffffffffffffffffffffffffffffffffffffffffffffffffffffff1916145b80612d055750612d0482612ed1565b5b9050919050565b612d17838383612f3b565b505050565b612d3682826040518060200160405280600081525061304f565b5050565b6000612d5b8473ffffffffffffffffffffffffffffffffffffffff166130aa565b15612ec4578373ffffffffffffffffffffffffffffffffffffffff1663150b7a02612d84612316565b8786866040518563ffffffff1660e01b8152600401612da69493929190614574565b602060405180830381600087803b158015612dc057600080fd5b505af1925050508015612df157506040513d601f19601f82011682018060405250810190612dee9190613a8b565b60015b612e74573d8060008114612e21576040519150601f19603f3d011682016040523d82523d6000602084013e612e26565b606091505b50600081511415612e6c576040517f08c379a0000000000000000000000000000000000000000000000000000000008152600401612e639061465f565b60405180910390fd5b805181602001fd5b63150b7a0260e01b7bffffffffffffffffffffffffffffffffffffffffffffffffffffffff1916817bffffffffffffffffffffffffffffffffffffffffffffffffffffffff191614915050612ec9565b600190505b949350505050565b60007f01ffc9a7000000000000000000000000000000000000000000000000000000007bffffffffffffffffffffffffffffffffffffffffffffffffffffffff1916827bffffffffffffffffffffffffffffffffffffffffffffffffffffffff1916149050919050565b612f468383836130bd565b600073ffffffffffffffffffffffffffffffffffffffff168373ffffffffffffffffffffffffffffffffffffffff161415612f8957612f84816130c2565b612fc8565b8173ffffffffffffffffffffffffffffffffffffffff168373ffffffffffffffffffffffffffffffffffffffff1614612fc757612fc6838261310b565b5b5b600073ffffffffffffffffffffffffffffffffffffffff168273ffffffffffffffffffffffffffffffffffffffff16141561300b5761300681613278565b61304a565b8273ffffffffffffffffffffffffffffffffffffffff168273ffffffffffffffffffffffffffffffffffffffff16146130495761304882826133bb565b5b5b505050565b613059838361343a565b6130666000848484612d3a565b6130a5576040517f08c379a000000000000000000000000000000000000000000000000000000000815260040161309c9061465f565b60405180910390fd5b505050565b600080823b905060008111915050919050565b505050565b6008805490506009600083815260200190815260200160002081905550600881908060018154018082558091505060019003906000526020600020016000909190919091505550565b60006001613118846114f9565b6131229190614b54565b9050600060076000848152602001908152602001600020549050818114613207576000600660008673ffffffffffffffffffffffffffffffffffffffff1673ffffffffffffffffffffffffffffffffffffffff168152602001908152602001600020600084815260200190815260200160002054905080600660008773ffffffffffffffffffffffffffffffffffffffff1673ffffffffffffffffffffffffffffffffffffffff168152602001908152602001600020600084815260200190815260200160002081905550816007600083815260200190815260200160002081905550505b6007600084815260200190815260200160002060009055600660008573ffffffffffffffffffffffffffffffffffffffff1673ffffffffffffffffffffffffffffffffffffffff16815260200190815260200160002060008381526020019081526020016000206000905550505050565b6000600160088054905061328c9190614b54565b90506000600960008481526020019081526020016000205490506000600883815481106132e2577f4e487b7100000000000000000000000000000000000000000000000000000000600052603260045260246000fd5b90600052602060002001549050806008838154811061332a577f4e487b7100000000000000000000000000000000000000000000000000000000600052603260045260246000fd5b90600052602060002001819055508160096000838152602001908152602001600020819055506009600085815260200190815260200160002060009055600880548061339f577f4e487b7100000000000000000000000000000000000000000000000000000000600052603160045260246000fd5b6001900381819060005260206000200160009055905550505050565b60006133c6836114f9565b905081600660008573ffffffffffffffffffffffffffffffffffffffff1673ffffffffffffffffffffffffffffffffffffffff168152602001908152602001600020600083815260200190815260200160002081905550806007600084815260200190815260200160002081905550505050565b600073ffffffffffffffffffffffffffffffffffffffff168273ffffffffffffffffffffffffffffffffffffffff1614156134aa576040517f08c379a00000000000000000000000000000000000000000000000000000000081526004016134a1906147df565b60405180910390fd5b6134b381612398565b156134f3576040517f08c379a00000000000000000000000000000000000000000000000000000000081526004016134ea9061469f565b60405180910390fd5b6134ff60008383612d0c565b6001600360008473ffffffffffffffffffffffffffffffffffffffff1673ffffffffffffffffffffffffffffffffffffffff168152602001908152602001600020600082825461354f9190614a73565b92505081905550816002600083815260200190815260200160002060006101000a81548173ffffffffffffffffffffffffffffffffffffffff021916908373ffffffffffffffffffffffffffffffffffffffff160217905550808273ffffffffffffffffffffffffffffffffffffffff16600073ffffffffffffffffffffffffffffffffffffffff167fddf252ad1be2c89b69c2b068fc378daa952ba7f163c4a11628f55a4df523b3ef60405160405180910390a45050565b82805461361490614c3e565b90600052602060002090601f016020900481019282613636576000855561367d565b82601f1061364f57805160ff191683800117855561367d565b8280016001018555821561367d579182015b8281111561367c578251825591602001919060010190613661565b5b50905061368a919061368e565b5090565b5b808211156136a757600081600090555060010161368f565b5090565b60006136be6136b98461496b565b61493a565b905080838252602082019050828560208602820111156136dd57600080fd5b60005b8581101561370d57816136f38882613793565b8452602084019350602083019250506001810190506136e0565b5050509392505050565b600061372a61372584614997565b61493a565b90508281526020810184848401111561374257600080fd5b61374d848285614bfc565b509392505050565b6000613768613763846149c7565b61493a565b90508281526020810184848401111561378057600080fd5b61378b848285614bfc565b509392505050565b6000813590506137a281614db7565b92915050565b600082601f8301126137b957600080fd5b81356137c98482602086016136ab565b91505092915050565b6000813590506137e181614dce565b92915050565b6000813590506137f681614de5565b92915050565b60008151905061380b81614de5565b92915050565b600082601f83011261382257600080fd5b8135613832848260208601613717565b91505092915050565b600082601f83011261384c57600080fd5b813561385c848260208601613755565b91505092915050565b60008135905061387481614dfc565b92915050565b60006020828403121561388c57600080fd5b600061389a84828501613793565b91505092915050565b600080604083850312156138b657600080fd5b60006138c485828601613793565b92505060206138d585828601613793565b9150509250929050565b6000806000606084860312156138f457600080fd5b600061390286828701613793565b935050602061391386828701613793565b925050604061392486828701613865565b9150509250925092565b6000806000806080858703121561394457600080fd5b600061395287828801613793565b945050602061396387828801613793565b935050604061397487828801613865565b925050606085013567ffffffffffffffff81111561399157600080fd5b61399d87828801613811565b91505092959194509250565b600080604083850312156139bc57600080fd5b60006139ca85828601613793565b92505060206139db858286016137d2565b9150509250929050565b600080604083850312156139f857600080fd5b6000613a0685828601613793565b9250506020613a1785828601613865565b9150509250929050565b600060208284031215613a3357600080fd5b600082013567ffffffffffffffff811115613a4d57600080fd5b613a59848285016137a8565b91505092915050565b600060208284031215613a7457600080fd5b6000613a82848285016137e7565b91505092915050565b600060208284031215613a9d57600080fd5b6000613aab848285016137fc565b91505092915050565b600060208284031215613ac657600080fd5b600082013567ffffffffffffffff811115613ae057600080fd5b613aec8482850161383b565b91505092915050565b600060208284031215613b0757600080fd5b6000613b1584828501613865565b91505092915050565b60008060408385031215613b3157600080fd5b6000613b3f85828601613865565b9250506020613b5085828601613793565b9150509250929050565b6000613b668383614517565b60208301905092915050565b613b7b81614b88565b82525050565b6000613b8c82614a07565b613b968185614a35565b9350613ba1836149f7565b8060005b83811015613bd2578151613bb98882613b5a565b9750613bc483614a28565b925050600181019050613ba5565b5085935050505092915050565b613be881614b9a565b82525050565b6000613bf982614a12565b613c038185614a46565b9350613c13818560208601614c0b565b613c1c81614da6565b840191505092915050565b6000613c3282614a1d565b613c3c8185614a57565b9350613c4c818560208601614c0b565b613c5581614da6565b840191505092915050565b6000613c6b82614a1d565b613c758185614a68565b9350613c85818560208601614c0b565b80840191505092915050565b6000613c9e602683614a57565b91507f53616c65206d7573742062652061637469766520746f206d696e74204469616460008301527f7261676f6e7300000000000000000000000000000000000000000000000000006020830152604082019050919050565b6000613d04602b83614a57565b91507f455243373231456e756d657261626c653a206f776e657220696e646578206f7560008301527f74206f6620626f756e64730000000000000000000000000000000000000000006020830152604082019050919050565b6000613d6a603283614a57565b91507f4552433732313a207472616e7366657220746f206e6f6e20455243373231526560008301527f63656976657220696d706c656d656e74657200000000000000000000000000006020830152604082019050919050565b6000613dd0602683614a57565b91507f4f776e61626c653a206e6577206f776e657220697320746865207a65726f206160008301527f64647265737300000000000000000000000000000000000000000000000000006020830152604082019050919050565b6000613e36601c83614a57565b91507f4552433732313a20746f6b656e20616c7265616479206d696e746564000000006000830152602082019050919050565b6000613e76601c83614a57565b91507f53616c6520776f756c6420657863656564206d617820737570706c79000000006000830152602082019050919050565b6000613eb6602483614a57565b91507f4552433732313a207472616e7366657220746f20746865207a65726f2061646460008301527f72657373000000000000000000000000000000000000000000000000000000006020830152604082019050919050565b6000613f1c601983614a57565b91507f4552433732313a20617070726f766520746f2063616c6c6572000000000000006000830152602082019050919050565b6000613f5c602c83614a57565b91507f4552433732313a206f70657261746f7220717565727920666f72206e6f6e657860008301527f697374656e7420746f6b656e00000000000000000000000000000000000000006020830152604082019050919050565b6000613fc2601d83614a57565b91507f5374617274696e6720696e64657820697320616c7265616479207365740000006000830152602082019050919050565b6000614002603883614a57565b91507f4552433732313a20617070726f76652063616c6c6572206973206e6f74206f7760008301527f6e6572206e6f7220617070726f76656420666f7220616c6c00000000000000006020830152604082019050919050565b6000614068602a83614a57565b91507f4552433732313a2062616c616e636520717565727920666f7220746865207a6560008301527f726f2061646472657373000000000000000000000000000000000000000000006020830152604082019050919050565b60006140ce602983614a57565b91507f4552433732313a206f776e657220717565727920666f72206e6f6e657869737460008301527f656e7420746f6b656e00000000000000000000000000000000000000000000006020830152604082019050919050565b6000614134602e83614a57565b91507f4e6f7420656e6f7567682065746865722073656e7420283135204d415449432060008301527f70657220446961447261676f6e290000000000000000000000000000000000006020830152604082019050919050565b600061419a602083614a57565b91507f4552433732313a206d696e7420746f20746865207a65726f20616464726573736000830152602082019050919050565b60006141da602c83614a57565b91507f4552433732313a20617070726f76656420717565727920666f72206e6f6e657860008301527f697374656e7420746f6b656e00000000000000000000000000000000000000006020830152604082019050919050565b6000614240602083614a57565b91507f4f776e61626c653a2063616c6c6572206973206e6f7420746865206f776e65726000830152602082019050919050565b6000614280602983614a57565b91507f4552433732313a207472616e73666572206f6620746f6b656e2074686174206960008301527f73206e6f74206f776e00000000000000000000000000000000000000000000006020830152604082019050919050565b60006142e6602f83614a57565b91507f4552433732314d657461646174613a2055524920717565727920666f72206e6f60008301527f6e6578697374656e7420746f6b656e00000000000000000000000000000000006020830152604082019050919050565b600061434c602183614a57565b91507f4552433732313a20617070726f76616c20746f2063757272656e74206f776e6560008301527f72000000000000000000000000000000000000000000000000000000000000006020830152604082019050919050565b60006143b2602083614a57565b91507f5374617274696e6720696e64657820626c6f636b206d757374206265207365746000830152602082019050919050565b60006143f2603183614a57565b91507f4552433732313a207472616e736665722063616c6c6572206973206e6f74206f60008301527f776e6572206e6f7220617070726f7665640000000000000000000000000000006020830152604082019050919050565b6000614458602c83614a57565b91507f455243373231456e756d657261626c653a20676c6f62616c20696e646578206f60008301527f7574206f6620626f756e647300000000000000000000000000000000000000006020830152604082019050919050565b60006144be602383614a57565b91507f5374617274696e6720696e6465782068617320616c7265616479206265656e2060008301527f73657400000000000000000000000000000000000000000000000000000000006020830152604082019050919050565b61452081614bf2565b82525050565b61452f81614bf2565b82525050565b60006145418285613c60565b915061454d8284613c60565b91508190509392505050565b600060208201905061456e6000830184613b72565b92915050565b60006080820190506145896000830187613b72565b6145966020830186613b72565b6145a36040830185614526565b81810360608301526145b58184613bee565b905095945050505050565b600060208201905081810360008301526145da8184613b81565b905092915050565b60006020820190506145f76000830184613bdf565b92915050565b600060208201905081810360008301526146178184613c27565b905092915050565b6000602082019050818103600083015261463881613c91565b9050919050565b6000602082019050818103600083015261465881613cf7565b9050919050565b6000602082019050818103600083015261467881613d5d565b9050919050565b6000602082019050818103600083015261469881613dc3565b9050919050565b600060208201905081810360008301526146b881613e29565b9050919050565b600060208201905081810360008301526146d881613e69565b9050919050565b600060208201905081810360008301526146f881613ea9565b9050919050565b6000602082019050818103600083015261471881613f0f565b9050919050565b6000602082019050818103600083015261473881613f4f565b9050919050565b6000602082019050818103600083015261475881613fb5565b9050919050565b6000602082019050818103600083015261477881613ff5565b9050919050565b600060208201905081810360008301526147988161405b565b9050919050565b600060208201905081810360008301526147b8816140c1565b9050919050565b600060208201905081810360008301526147d881614127565b9050919050565b600060208201905081810360008301526147f88161418d565b9050919050565b60006020820190508181036000830152614818816141cd565b9050919050565b6000602082019050818103600083015261483881614233565b9050919050565b6000602082019050818103600083015261485881614273565b9050919050565b60006020820190508181036000830152614878816142d9565b9050919050565b600060208201905081810360008301526148988161433f565b9050919050565b600060208201905081810360008301526148b8816143a5565b9050919050565b600060208201905081810360008301526148d8816143e5565b9050919050565b600060208201905081810360008301526148f88161444b565b9050919050565b60006020820190508181036000830152614918816144b1565b9050919050565b60006020820190506149346000830184614526565b92915050565b6000604051905081810181811067ffffffffffffffff8211171561496157614960614d77565b5b8060405250919050565b600067ffffffffffffffff82111561498657614985614d77565b5b602082029050602081019050919050565b600067ffffffffffffffff8211156149b2576149b1614d77565b5b601f19601f8301169050602081019050919050565b600067ffffffffffffffff8211156149e2576149e1614d77565b5b601f19601f8301169050602081019050919050565b6000819050602082019050919050565b600081519050919050565b600081519050919050565b600081519050919050565b6000602082019050919050565b600082825260208201905092915050565b600082825260208201905092915050565b600082825260208201905092915050565b600081905092915050565b6000614a7e82614bf2565b9150614a8983614bf2565b9250827fffffffffffffffffffffffffffffffffffffffffffffffffffffffffffffffff03821115614abe57614abd614cea565b5b828201905092915050565b6000614ad482614bf2565b9150614adf83614bf2565b925082614aef57614aee614d19565b5b828204905092915050565b6000614b0582614bf2565b9150614b1083614bf2565b9250817fffffffffffffffffffffffffffffffffffffffffffffffffffffffffffffffff0483118215151615614b4957614b48614cea565b5b828202905092915050565b6000614b5f82614bf2565b9150614b6a83614bf2565b925082821015614b7d57614b7c614cea565b5b828203905092915050565b6000614b9382614bd2565b9050919050565b60008115159050919050565b60007fffffffff0000000000000000000000000000000000000000000000000000000082169050919050565b600073ffffffffffffffffffffffffffffffffffffffff82169050919050565b6000819050919050565b82818337600083830152505050565b60005b83811015614c29578082015181840152602081019050614c0e565b83811115614c38576000848401525b50505050565b60006002820490506001821680614c5657607f821691505b60208210811415614c6a57614c69614d48565b5b50919050565b6000614c7b82614bf2565b91507fffffffffffffffffffffffffffffffffffffffffffffffffffffffffffffffff821415614cae57614cad614cea565b5b600182019050919050565b6000614cc482614bf2565b9150614ccf83614bf2565b925082614cdf57614cde614d19565b5b828206905092915050565b7f4e487b7100000000000000000000000000000000000000000000000000000000600052601160045260246000fd5b7f4e487b7100000000000000000000000000000000000000000000000000000000600052601260045260246000fd5b7f4e487b7100000000000000000000000000000000000000000000000000000000600052602260045260246000fd5b7f4e487b7100000000000000000000000000000000000000000000000000000000600052604160045260246000fd5b6000601f19601f8301169050919050565b614dc081614b88565b8114614dcb57600080fd5b50565b614dd781614b9a565b8114614de257600080fd5b50565b614dee81614ba6565b8114614df957600080fd5b50565b614e0581614bf2565b8114614e1057600080fd5b5056fea2646970667358221220e0144983dd74fcf7935d14cb4655c712b9982e4e0d2a25cd1563f138348fca5164736f6c63430008000033",
  "linkReferences": {},
  "deployedLinkReferences": {}
}