{
  "_format": "hh-sol-artifact-1",
  "contractName": "DiaDragons",
  "sourceName": "contracts/DiaDragons.sol",
  "abi": [
    {
      "inputs": [
        {
          "internalType": "string",
          "name": "_initBaseURI",
          "type": "string"
        }
      ],
      "stateMutability": "nonpayable",
      "type": "constructor"
    },
    {
      "anonymous": false,
      "inputs": [
        {
          "indexed": true,
          "internalType": "address",
          "name": "owner",
          "type": "address"
        },
        {
          "indexed": true,
          "internalType": "address",
          "name": "approved",
          "type": "address"
        },
        {
          "indexed": true,
          "internalType": "uint256",
          "name": "tokenId",
          "type": "uint256"
        }
      ],
      "name": "Approval",
      "type": "event"
    },
    {
      "anonymous": false,
      "inputs": [
        {
          "indexed": true,
          "internalType": "address",
          "name": "owner",
          "type": "address"
        },
        {
          "indexed": true,
          "internalType": "address",
          "name": "operator",
          "type": "address"
        },
        {
          "indexed": false,
          "internalType": "bool",
          "name": "approved",
          "type": "bool"
        }
      ],
      "name": "ApprovalForAll",
      "type": "event"
    },
    {
      "anonymous": false,
      "inputs": [
        {
          "indexed": true,
          "internalType": "address",
          "name": "previousOwner",
          "type": "address"
        },
        {
          "indexed": true,
          "internalType": "address",
          "name": "newOwner",
          "type": "address"
        }
      ],
      "name": "OwnershipTransferred",
      "type": "event"
    },
    {
      "anonymous": false,
      "inputs": [],
      "name": "SaleStarted",
      "type": "event"
    },
    {
      "anonymous": false,
      "inputs": [],
      "name": "SaleStopped",
      "type": "event"
    },
    {
      "anonymous": false,
      "inputs": [
        {
          "indexed": false,
          "internalType": "uint256",
          "name": "supply",
          "type": "uint256"
        }
      ],
      "name": "TokenMinted",
      "type": "event"
    },
    {
      "anonymous": false,
      "inputs": [
        {
          "indexed": true,
          "internalType": "address",
          "name": "from",
          "type": "address"
        },
        {
          "indexed": true,
          "internalType": "address",
          "name": "to",
          "type": "address"
        },
        {
          "indexed": true,
          "internalType": "uint256",
          "name": "tokenId",
          "type": "uint256"
        }
      ],
      "name": "Transfer",
      "type": "event"
    },
    {
      "inputs": [],
      "name": "DIADRAGONS_PROVENANCE",
      "outputs": [
        {
          "internalType": "string",
          "name": "",
          "type": "string"
        }
      ],
      "stateMutability": "view",
      "type": "function"
    },
    {
      "inputs": [],
      "name": "MAX_SUPPLY",
      "outputs": [
        {
          "internalType": "uint256",
          "name": "",
          "type": "uint256"
        }
      ],
      "stateMutability": "view",
      "type": "function"
    },
    {
      "inputs": [],
      "name": "TIER1_NUM_TOKENS",
      "outputs": [
        {
          "internalType": "uint256",
          "name": "",
          "type": "uint256"
        }
      ],
      "stateMutability": "view",
      "type": "function"
    },
    {
      "inputs": [],
      "name": "TIER1_PRICE",
      "outputs": [
        {
          "internalType": "uint256",
          "name": "",
          "type": "uint256"
        }
      ],
      "stateMutability": "view",
      "type": "function"
    },
    {
      "inputs": [],
      "name": "_isSaleActive",
      "outputs": [
        {
          "internalType": "bool",
          "name": "",
          "type": "bool"
        }
      ],
      "stateMutability": "view",
      "type": "function"
    },
    {
      "inputs": [],
      "name": "_preRevealURI",
      "outputs": [
        {
          "internalType": "string",
          "name": "",
          "type": "string"
        }
      ],
      "stateMutability": "view",
      "type": "function"
    },
    {
      "inputs": [
        {
          "internalType": "uint256",
          "name": "numDiaDragons",
          "type": "uint256"
        },
        {
          "internalType": "address",
          "name": "recipient",
          "type": "address"
        }
      ],
      "name": "airdropDiaDragon",
      "outputs": [],
      "stateMutability": "nonpayable",
      "type": "function"
    },
    {
      "inputs": [
        {
          "internalType": "address[]",
          "name": "recipients",
          "type": "address[]"
        }
      ],
      "name": "airdropDiaDragonToMany",
      "outputs": [],
      "stateMutability": "nonpayable",
      "type": "function"
    },
    {
      "inputs": [
        {
          "internalType": "address",
          "name": "recipient",
          "type": "address"
        }
      ],
      "name": "airdropThirteenthDiaDragon",
      "outputs": [],
      "stateMutability": "nonpayable",
      "type": "function"
    },
    {
      "inputs": [
        {
          "internalType": "address",
          "name": "to",
          "type": "address"
        },
        {
          "internalType": "uint256",
          "name": "tokenId",
          "type": "uint256"
        }
      ],
      "name": "approve",
      "outputs": [],
      "stateMutability": "nonpayable",
      "type": "function"
    },
    {
      "inputs": [
        {
          "internalType": "address",
          "name": "owner",
          "type": "address"
        }
      ],
      "name": "balanceOf",
      "outputs": [
        {
          "internalType": "uint256",
          "name": "",
          "type": "uint256"
        }
      ],
      "stateMutability": "view",
      "type": "function"
    },
    {
      "inputs": [],
      "name": "baseURI",
      "outputs": [
        {
          "internalType": "string",
          "name": "",
          "type": "string"
        }
      ],
      "stateMutability": "view",
      "type": "function"
    },
    {
      "inputs": [],
      "name": "emergencySetOffsetIndexBlock",
      "outputs": [],
      "stateMutability": "nonpayable",
      "type": "function"
    },
    {
      "inputs": [
        {
          "internalType": "uint256",
          "name": "tokenId",
          "type": "uint256"
        }
      ],
      "name": "getApproved",
      "outputs": [
        {
          "internalType": "address",
          "name": "",
          "type": "address"
        }
      ],
      "stateMutability": "view",
      "type": "function"
    },
    {
      "inputs": [
        {
          "internalType": "address",
          "name": "_owner",
          "type": "address"
        }
      ],
      "name": "getDiaDragonsByOwner",
      "outputs": [
        {
          "internalType": "uint256[]",
          "name": "",
          "type": "uint256[]"
        }
      ],
      "stateMutability": "view",
      "type": "function"
    },
    {
      "inputs": [],
      "name": "getTotalSupply",
      "outputs": [
        {
          "internalType": "uint256",
          "name": "",
          "type": "uint256"
        }
      ],
      "stateMutability": "view",
      "type": "function"
    },
    {
      "inputs": [
        {
          "internalType": "address",
          "name": "owner",
          "type": "address"
        },
        {
          "internalType": "address",
          "name": "operator",
          "type": "address"
        }
      ],
      "name": "isApprovedForAll",
      "outputs": [
        {
          "internalType": "bool",
          "name": "",
          "type": "bool"
        }
      ],
      "stateMutability": "view",
      "type": "function"
    },
    {
      "inputs": [],
      "name": "isSaleActive",
      "outputs": [
        {
          "internalType": "bool",
          "name": "",
          "type": "bool"
        }
      ],
      "stateMutability": "view",
      "type": "function"
    },
    {
      "inputs": [],
      "name": "mintDiaDragonTier1",
      "outputs": [],
      "stateMutability": "payable",
      "type": "function"
    },
    {
      "inputs": [],
      "name": "name",
      "outputs": [
        {
          "internalType": "string",
          "name": "",
          "type": "string"
        }
      ],
      "stateMutability": "view",
      "type": "function"
    },
    {
      "inputs": [],
      "name": "offsetIndex",
      "outputs": [
        {
          "internalType": "uint256",
          "name": "",
          "type": "uint256"
        }
      ],
      "stateMutability": "view",
      "type": "function"
    },
    {
      "inputs": [],
      "name": "offsetIndexBlock",
      "outputs": [
        {
          "internalType": "uint256",
          "name": "",
          "type": "uint256"
        }
      ],
      "stateMutability": "view",
      "type": "function"
    },
    {
      "inputs": [],
      "name": "owner",
      "outputs": [
        {
          "internalType": "address",
          "name": "",
          "type": "address"
        }
      ],
      "stateMutability": "view",
      "type": "function"
    },
    {
      "inputs": [
        {
          "internalType": "uint256",
          "name": "tokenId",
          "type": "uint256"
        }
      ],
      "name": "ownerOf",
      "outputs": [
        {
          "internalType": "address",
          "name": "",
          "type": "address"
        }
      ],
      "stateMutability": "view",
      "type": "function"
    },
    {
      "inputs": [],
      "name": "pauseSale",
      "outputs": [],
      "stateMutability": "nonpayable",
      "type": "function"
    },
    {
      "inputs": [],
      "name": "renounceOwnership",
      "outputs": [],
      "stateMutability": "nonpayable",
      "type": "function"
    },
    {
      "inputs": [
        {
          "internalType": "uint256",
          "name": "numDiaDragons",
          "type": "uint256"
        }
      ],
      "name": "reserveDiaDragons",
      "outputs": [],
      "stateMutability": "nonpayable",
      "type": "function"
    },
    {
      "inputs": [],
      "name": "revealTimeStamp",
      "outputs": [
        {
          "internalType": "uint256",
          "name": "",
          "type": "uint256"
        }
      ],
      "stateMutability": "view",
      "type": "function"
    },
    {
      "inputs": [
        {
          "internalType": "address",
          "name": "from",
          "type": "address"
        },
        {
          "internalType": "address",
          "name": "to",
          "type": "address"
        },
        {
          "internalType": "uint256",
          "name": "tokenId",
          "type": "uint256"
        }
      ],
      "name": "safeTransferFrom",
      "outputs": [],
      "stateMutability": "nonpayable",
      "type": "function"
    },
    {
      "inputs": [
        {
          "internalType": "address",
          "name": "from",
          "type": "address"
        },
        {
          "internalType": "address",
          "name": "to",
          "type": "address"
        },
        {
          "internalType": "uint256",
          "name": "tokenId",
          "type": "uint256"
        },
        {
          "internalType": "bytes",
          "name": "_data",
          "type": "bytes"
        }
      ],
      "name": "safeTransferFrom",
      "outputs": [],
      "stateMutability": "nonpayable",
      "type": "function"
    },
    {
      "inputs": [
        {
          "internalType": "address",
          "name": "operator",
          "type": "address"
        },
        {
          "internalType": "bool",
          "name": "approved",
          "type": "bool"
        }
      ],
      "name": "setApprovalForAll",
      "outputs": [],
      "stateMutability": "nonpayable",
      "type": "function"
    },
    {
      "inputs": [
        {
          "internalType": "string",
          "name": "_newBaseURI",
          "type": "string"
        }
      ],
      "name": "setBaseURI",
      "outputs": [],
      "stateMutability": "nonpayable",
      "type": "function"
    },
    {
      "inputs": [],
      "name": "setOffsetIndex",
      "outputs": [],
      "stateMutability": "nonpayable",
      "type": "function"
    },
    {
      "inputs": [
        {
          "internalType": "string",
          "name": "preRevealURI",
          "type": "string"
        }
      ],
      "name": "setPreRevealURI",
      "outputs": [],
      "stateMutability": "nonpayable",
      "type": "function"
    },
    {
      "inputs": [
        {
          "internalType": "string",
          "name": "provenanceHash",
          "type": "string"
        }
      ],
      "name": "setProvenanceHash",
      "outputs": [],
      "stateMutability": "nonpayable",
      "type": "function"
    },
    {
      "inputs": [
        {
          "internalType": "uint256",
          "name": "newRevealTimeStamp",
          "type": "uint256"
        }
      ],
      "name": "setRevealTimestamp",
      "outputs": [],
      "stateMutability": "nonpayable",
      "type": "function"
    },
    {
      "inputs": [],
      "name": "startSale",
      "outputs": [],
      "stateMutability": "nonpayable",
      "type": "function"
    },
    {
      "inputs": [
        {
          "internalType": "bytes4",
          "name": "interfaceId",
          "type": "bytes4"
        }
      ],
      "name": "supportsInterface",
      "outputs": [
        {
          "internalType": "bool",
          "name": "",
          "type": "bool"
        }
      ],
      "stateMutability": "view",
      "type": "function"
    },
    {
      "inputs": [],
      "name": "symbol",
      "outputs": [
        {
          "internalType": "string",
          "name": "",
          "type": "string"
        }
      ],
      "stateMutability": "view",
      "type": "function"
    },
    {
      "inputs": [
        {
          "internalType": "uint256",
          "name": "index",
          "type": "uint256"
        }
      ],
      "name": "tokenByIndex",
      "outputs": [
        {
          "internalType": "uint256",
          "name": "",
          "type": "uint256"
        }
      ],
      "stateMutability": "view",
      "type": "function"
    },
    {
      "inputs": [
        {
          "internalType": "address",
          "name": "owner",
          "type": "address"
        },
        {
          "internalType": "uint256",
          "name": "index",
          "type": "uint256"
        }
      ],
      "name": "tokenOfOwnerByIndex",
      "outputs": [
        {
          "internalType": "uint256",
          "name": "",
          "type": "uint256"
        }
      ],
      "stateMutability": "view",
      "type": "function"
    },
    {
      "inputs": [
        {
          "internalType": "uint256",
          "name": "tokenId",
          "type": "uint256"
        }
      ],
      "name": "tokenURI",
      "outputs": [
        {
          "internalType": "string",
          "name": "",
          "type": "string"
        }
      ],
      "stateMutability": "view",
      "type": "function"
    },
    {
      "inputs": [],
      "name": "totalSupply",
      "outputs": [
        {
          "internalType": "uint256",
          "name": "",
          "type": "uint256"
        }
      ],
      "stateMutability": "view",
      "type": "function"
    },
    {
      "inputs": [
        {
          "internalType": "address",
          "name": "from",
          "type": "address"
        },
        {
          "internalType": "address",
          "name": "to",
          "type": "address"
        },
        {
          "internalType": "uint256",
          "name": "tokenId",
          "type": "uint256"
        }
      ],
      "name": "transferFrom",
      "outputs": [],
      "stateMutability": "nonpayable",
      "type": "function"
    },
    {
      "inputs": [
        {
          "internalType": "address",
          "name": "newOwner",
          "type": "address"
        }
      ],
      "name": "transferOwnership",
      "outputs": [],
      "stateMutability": "nonpayable",
      "type": "function"
    },
    {
      "inputs": [],
      "name": "withdraw",
      "outputs": [],
      "stateMutability": "nonpayable",
      "type": "function"
    }
  ],
  "bytecode": "0x60806040526000600a60146101000a81548160ff0219169083151502179055506000600b556000600c5562093a80426200003a919062000556565b600d5560405180602001604052806000815250600e90805190602001906200006492919062000313565b503480156200007257600080fd5b506040516200570238038062005702833981810160405281019062000098919062000435565b6040518060400160405280600a81526020017f446961447261676f6e73000000000000000000000000000000000000000000008152506040518060400160405280600281526020017f444400000000000000000000000000000000000000000000000000000000000081525081600090805190602001906200011c92919062000313565b5080600190805190602001906200013592919062000313565b505050620001586200014c6200017060201b60201c565b6200017860201b60201c565b62000169816200023e60201b60201c565b50620006b6565b600033905090565b6000600a60009054906101000a900473ffffffffffffffffffffffffffffffffffffffff16905081600a60006101000a81548173ffffffffffffffffffffffffffffffffffffffff021916908373ffffffffffffffffffffffffffffffffffffffff1602179055508173ffffffffffffffffffffffffffffffffffffffff168173ffffffffffffffffffffffffffffffffffffffff167f8be0079c531659141344cd1fd0a4f28419497f9722a3daafe3b4186f6b6457e060405160405180910390a35050565b6200024e6200017060201b60201c565b73ffffffffffffffffffffffffffffffffffffffff1662000274620002e960201b60201c565b73ffffffffffffffffffffffffffffffffffffffff1614620002cd576040517f08c379a0000000000000000000000000000000000000000000000000000000008152600401620002c490620004bc565b60405180910390fd5b80600f9080519060200190620002e592919062000313565b5050565b6000600a60009054906101000a900473ffffffffffffffffffffffffffffffffffffffff16905090565b8280546200032190620005f3565b90600052602060002090601f01602090048101928262000345576000855562000391565b82601f106200036057805160ff191683800117855562000391565b8280016001018555821562000391579182015b828111156200039057825182559160200191906001019062000373565b5b509050620003a09190620003a4565b5090565b5b80821115620003bf576000816000905550600101620003a5565b5090565b6000620003da620003d48462000512565b620004de565b905082815260208101848484011115620003f357600080fd5b62000400848285620005bd565b509392505050565b600082601f8301126200041a57600080fd5b81516200042c848260208601620003c3565b91505092915050565b6000602082840312156200044857600080fd5b600082015167ffffffffffffffff8111156200046357600080fd5b620004718482850162000408565b91505092915050565b60006200048960208362000545565b91507f4f776e61626c653a2063616c6c6572206973206e6f7420746865206f776e65726000830152602082019050919050565b60006020820190508181036000830152620004d7816200047a565b9050919050565b6000604051905081810181811067ffffffffffffffff8211171562000508576200050762000687565b5b8060405250919050565b600067ffffffffffffffff82111562000530576200052f62000687565b5b601f19601f8301169050602081019050919050565b600082825260208201905092915050565b60006200056382620005b3565b91506200057083620005b3565b9250827fffffffffffffffffffffffffffffffffffffffffffffffffffffffffffffffff03821115620005a857620005a762000629565b5b828201905092915050565b6000819050919050565b60005b83811015620005dd578082015181840152602081019050620005c0565b83811115620005ed576000848401525b50505050565b600060028204905060018216806200060c57607f821691505b6020821081141562000623576200062262000658565b5b50919050565b7f4e487b7100000000000000000000000000000000000000000000000000000000600052601160045260246000fd5b7f4e487b7100000000000000000000000000000000000000000000000000000000600052602260045260246000fd5b7f4e487b7100000000000000000000000000000000000000000000000000000000600052604160045260246000fd5b61503c80620006c66000396000f3fe60806040526004361061027d5760003560e01c80636352211e1161014f578063b3fba606116100c1578063d2f902141161007a578063d2f902141461092d578063e11c7fb514610944578063e985e9c51461096f578063f2fde38b146109ac578063f731b676146109d5578063ffe90ba6146109fe5761027d565b8063b3fba60614610833578063b66a0e5d1461085c578063b88d4fde14610873578063c4e41b221461089c578063c87b56dd146108c7578063d2f71b5f146109045761027d565b806371f9c5341161011357806371f9c534146107215780638da5cb5b1461074c57806394bb54371461077757806395d89b41146107a2578063961ca5bf146107cd578063a22cb4651461080a5761027d565b80636352211e1461063a5780636c0360eb146106775780637080d6fc146106a257806370a08231146106cd578063715018a61461070a5761027d565b806323b872dd116101f357806342699fec116101ac57806342699fec1461054057806342842e0e146105695780634f6ccce71461059257806355367ba9146105cf57806355f804b3146105e6578063564566a81461060f5761027d565b806323b872dd146104585780632a85db55146104815780632f745c59146104aa57806332cb6b0c146104e75780633ccfd60b146105125780633dc23a6d146105295761027d565b8063095ea7b311610245578063095ea7b31461037b57806310969523146103a457806314cf19fe146103cd57806318160ddd146103f85780631ba07240146104235780631faa77ea1461044e5761027d565b8063018a2c371461028257806301ffc9a7146102ab5780630293741b146102e857806306fdde0314610313578063081812fc1461033e575b600080fd5b34801561028e57600080fd5b506102a960048036038101906102a49190613c96565b610a29565b005b3480156102b757600080fd5b506102d260048036038101906102cd9190613c03565b610aaf565b6040516102df919061480f565b60405180910390f35b3480156102f457600080fd5b506102fd610ac1565b60405161030a919061482a565b60405180910390f35b34801561031f57600080fd5b50610328610b4f565b604051610335919061482a565b60405180910390f35b34801561034a57600080fd5b5061036560048036038101906103609190613c96565b610be1565b6040516103729190614786565b60405180910390f35b34801561038757600080fd5b506103a2600480360381019061039d9190613b86565b610c66565b005b3480156103b057600080fd5b506103cb60048036038101906103c69190613c55565b610d7e565b005b3480156103d957600080fd5b506103e2610e14565b6040516103ef9190614b6c565b60405180910390f35b34801561040457600080fd5b5061040d610e1f565b60405161041a9190614b6c565b60405180910390f35b34801561042f57600080fd5b50610438610e2c565b6040516104459190614b6c565b60405180910390f35b610456610e32565b005b34801561046457600080fd5b5061047f600480360381019061047a9190613a80565b610f75565b005b34801561048d57600080fd5b506104a860048036038101906104a39190613c55565b610fd5565b005b3480156104b657600080fd5b506104d160048036038101906104cc9190613b86565b61106b565b6040516104de9190614b6c565b60405180910390f35b3480156104f357600080fd5b506104fc611110565b6040516105099190614b6c565b60405180910390f35b34801561051e57600080fd5b50610527611116565b005b34801561053557600080fd5b5061053e6111e1565b005b34801561054c57600080fd5b5061056760048036038101906105629190613bc2565b6112ab565b005b34801561057557600080fd5b50610590600480360381019061058b9190613a80565b6113f4565b005b34801561059e57600080fd5b506105b960048036038101906105b49190613c96565b611414565b6040516105c69190614b6c565b60405180910390f35b3480156105db57600080fd5b506105e46114ab565b005b3480156105f257600080fd5b5061060d60048036038101906106089190613c55565b611570565b005b34801561061b57600080fd5b50610624611606565b604051610631919061480f565b60405180910390f35b34801561064657600080fd5b50610661600480360381019061065c9190613c96565b61161d565b60405161066e9190614786565b60405180910390f35b34801561068357600080fd5b5061068c6116cf565b604051610699919061482a565b60405180910390f35b3480156106ae57600080fd5b506106b761175d565b6040516106c4919061480f565b60405180910390f35b3480156106d957600080fd5b506106f460048036038101906106ef9190613a1b565b611770565b6040516107019190614b6c565b60405180910390f35b34801561071657600080fd5b5061071f611828565b005b34801561072d57600080fd5b506107366118b0565b6040516107439190614b6c565b60405180910390f35b34801561075857600080fd5b506107616118b6565b60405161076e9190614786565b60405180910390f35b34801561078357600080fd5b5061078c6118e0565b604051610799919061482a565b60405180910390f35b3480156107ae57600080fd5b506107b761196e565b6040516107c4919061482a565b60405180910390f35b3480156107d957600080fd5b506107f460048036038101906107ef9190613a1b565b611a00565b60405161080191906147ed565b60405180910390f35b34801561081657600080fd5b50610831600480360381019061082c9190613b4a565b611afa565b005b34801561083f57600080fd5b5061085a60048036038101906108559190613cbf565b611c7b565b005b34801561086857600080fd5b50610871611da1565b005b34801561087f57600080fd5b5061089a60048036038101906108959190613acf565b611e66565b005b3480156108a857600080fd5b506108b1611ec8565b6040516108be9190614b6c565b60405180910390f35b3480156108d357600080fd5b506108ee60048036038101906108e99190613c96565b611ed7565b6040516108fb919061482a565b60405180910390f35b34801561091057600080fd5b5061092b60048036038101906109269190613a1b565b611f5f565b005b34801561093957600080fd5b50610942612074565b005b34801561095057600080fd5b50610959612184565b6040516109669190614b6c565b60405180910390f35b34801561097b57600080fd5b5061099660048036038101906109919190613a44565b612189565b6040516109a3919061480f565b60405180910390f35b3480156109b857600080fd5b506109d360048036038101906109ce9190613a1b565b61221d565b005b3480156109e157600080fd5b506109fc60048036038101906109f79190613c96565b612315565b005b348015610a0a57600080fd5b50610a136123fc565b604051610a209190614b6c565b60405180910390f35b610a31612402565b73ffffffffffffffffffffffffffffffffffffffff16610a4f6118b6565b73ffffffffffffffffffffffffffffffffffffffff1614610aa5576040517f08c379a0000000000000000000000000000000000000000000000000000000008152600401610a9c90614a4c565b60405180910390fd5b80600d8190555050565b6000610aba8261240a565b9050919050565b60108054610ace90614e31565b80601f0160208091040260200160405190810160405280929190818152602001828054610afa90614e31565b8015610b475780601f10610b1c57610100808354040283529160200191610b47565b820191906000526020600020905b815481529060010190602001808311610b2a57829003601f168201915b505050505081565b606060008054610b5e90614e31565b80601f0160208091040260200160405190810160405280929190818152602001828054610b8a90614e31565b8015610bd75780601f10610bac57610100808354040283529160200191610bd7565b820191906000526020600020905b815481529060010190602001808311610bba57829003601f168201915b5050505050905090565b6000610bec82612484565b610c2b576040517f08c379a0000000000000000000000000000000000000000000000000000000008152600401610c2290614a2c565b60405180910390fd5b6004600083815260200190815260200160002060009054906101000a900473ffffffffffffffffffffffffffffffffffffffff169050919050565b6000610c718261161d565b90508073ffffffffffffffffffffffffffffffffffffffff168373ffffffffffffffffffffffffffffffffffffffff161415610ce2576040517f08c379a0000000000000000000000000000000000000000000000000000000008152600401610cd990614aac565b60405180910390fd5b8073ffffffffffffffffffffffffffffffffffffffff16610d01612402565b73ffffffffffffffffffffffffffffffffffffffff161480610d305750610d2f81610d2a612402565b612189565b5b610d6f576040517f08c379a0000000000000000000000000000000000000000000000000000000008152600401610d66906149ac565b60405180910390fd5b610d7983836124f0565b505050565b610d86612402565b73ffffffffffffffffffffffffffffffffffffffff16610da46118b6565b73ffffffffffffffffffffffffffffffffffffffff1614610dfa576040517f08c379a0000000000000000000000000000000000000000000000000000000008152600401610df190614a4c565b60405180910390fd5b80600e9080519060200190610e109291906137a9565b5050565b66f8b0a10e47000081565b6000600880549050905090565b600c5481565b600a60149054906101000a900460ff16610e81576040517f08c379a0000000000000000000000000000000000000000000000000000000008152600401610e789061494c565b60405180910390fd5b612710610e9f6001610e91610e1f565b6125a990919063ffffffff16565b1115610ee0576040517f08c379a0000000000000000000000000000000000000000000000000000000008152600401610ed7906148cc565b60405180910390fd5b3466f8b0a10e4700001115610f2a576040517f08c379a0000000000000000000000000000000000000000000000000000000008152600401610f2190614b2c565b60405180910390fd5b610f356001336125bf565b7ff00d28232b285f24f2e38415deb2ceb31069e70d4505838b3911b4f02058502e610f5e610e1f565b604051610f6b9190614b6c565b60405180910390a1565b610f86610f80612402565b82612642565b610fc5576040517f08c379a0000000000000000000000000000000000000000000000000000000008152600401610fbc90614aec565b60405180910390fd5b610fd0838383612720565b505050565b610fdd612402565b73ffffffffffffffffffffffffffffffffffffffff16610ffb6118b6565b73ffffffffffffffffffffffffffffffffffffffff1614611051576040517f08c379a000000000000000000000000000000000000000000000000000000000815260040161104890614a4c565b60405180910390fd5b80601090805190602001906110679291906137a9565b5050565b600061107683611770565b82106110b7576040517f08c379a00000000000000000000000000000000000000000000000000000000081526004016110ae9061484c565b60405180910390fd5b600660008473ffffffffffffffffffffffffffffffffffffffff1673ffffffffffffffffffffffffffffffffffffffff168152602001908152602001600020600083815260200190815260200160002054905092915050565b61271081565b61111e612402565b73ffffffffffffffffffffffffffffffffffffffff1661113c6118b6565b73ffffffffffffffffffffffffffffffffffffffff1614611192576040517f08c379a000000000000000000000000000000000000000000000000000000000815260040161118990614a4c565b60405180910390fd5b60004790503373ffffffffffffffffffffffffffffffffffffffff166108fc829081150290604051600060405180830381858888f193505050501580156111dd573d6000803e3d6000fd5b5050565b6111e9612402565b73ffffffffffffffffffffffffffffffffffffffff166112076118b6565b73ffffffffffffffffffffffffffffffffffffffff161461125d576040517f08c379a000000000000000000000000000000000000000000000000000000000815260040161125490614a4c565b60405180910390fd5b6000600b54146112a2576040517f08c379a00000000000000000000000000000000000000000000000000000000081526004016112999061496c565b60405180910390fd5b43600c81905550565b6112b3612402565b73ffffffffffffffffffffffffffffffffffffffff166112d16118b6565b73ffffffffffffffffffffffffffffffffffffffff1614611327576040517f08c379a000000000000000000000000000000000000000000000000000000000815260040161131e90614a4c565b60405180910390fd5b6127106113458251611337610e1f565b6125a990919063ffffffff16565b1115611386576040517f08c379a000000000000000000000000000000000000000000000000000000000815260040161137d906148cc565b60405180910390fd5b60005b81518110156113f0576113dd60018383815181106113d0577f4e487b7100000000000000000000000000000000000000000000000000000000600052603260045260246000fd5b6020026020010151611c7b565b80806113e890614e63565b915050611389565b5050565b61140f83838360405180602001604052806000815250611e66565b505050565b600061141e610e1f565b821061145f576040517f08c379a000000000000000000000000000000000000000000000000000000000815260040161145690614b0c565b60405180910390fd5b60088281548110611499577f4e487b7100000000000000000000000000000000000000000000000000000000600052603260045260246000fd5b90600052602060002001549050919050565b6114b3612402565b73ffffffffffffffffffffffffffffffffffffffff166114d16118b6565b73ffffffffffffffffffffffffffffffffffffffff1614611527576040517f08c379a000000000000000000000000000000000000000000000000000000000815260040161151e90614a4c565b60405180910390fd5b6000600a60146101000a81548160ff0219169083151502179055507fdf515ab57ec796fd111da4dd488177601b9465ce9c442de16857682b7f10297a60405160405180910390a1565b611578612402565b73ffffffffffffffffffffffffffffffffffffffff166115966118b6565b73ffffffffffffffffffffffffffffffffffffffff16146115ec576040517f08c379a00000000000000000000000000000000000000000000000000000000081526004016115e390614a4c565b60405180910390fd5b80600f90805190602001906116029291906137a9565b5050565b6000600a60149054906101000a900460ff16905090565b6000806002600084815260200190815260200160002060009054906101000a900473ffffffffffffffffffffffffffffffffffffffff169050600073ffffffffffffffffffffffffffffffffffffffff168173ffffffffffffffffffffffffffffffffffffffff1614156116c6576040517f08c379a00000000000000000000000000000000000000000000000000000000081526004016116bd906149ec565b60405180910390fd5b80915050919050565b600f80546116dc90614e31565b80601f016020809104026020016040519081016040528092919081815260200182805461170890614e31565b80156117555780601f1061172a57610100808354040283529160200191611755565b820191906000526020600020905b81548152906001019060200180831161173857829003601f168201915b505050505081565b600a60149054906101000a900460ff1681565b60008073ffffffffffffffffffffffffffffffffffffffff168273ffffffffffffffffffffffffffffffffffffffff1614156117e1576040517f08c379a00000000000000000000000000000000000000000000000000000000081526004016117d8906149cc565b60405180910390fd5b600360008373ffffffffffffffffffffffffffffffffffffffff1673ffffffffffffffffffffffffffffffffffffffff168152602001908152602001600020549050919050565b611830612402565b73ffffffffffffffffffffffffffffffffffffffff1661184e6118b6565b73ffffffffffffffffffffffffffffffffffffffff16146118a4576040517f08c379a000000000000000000000000000000000000000000000000000000000815260040161189b90614a4c565b60405180910390fd5b6118ae600061297c565b565b600d5481565b6000600a60009054906101000a900473ffffffffffffffffffffffffffffffffffffffff16905090565b600e80546118ed90614e31565b80601f016020809104026020016040519081016040528092919081815260200182805461191990614e31565b80156119665780601f1061193b57610100808354040283529160200191611966565b820191906000526020600020905b81548152906001019060200180831161194957829003601f168201915b505050505081565b60606001805461197d90614e31565b80601f01602080910402602001604051908101604052809291908181526020018280546119a990614e31565b80156119f65780601f106119cb576101008083540402835291602001916119f6565b820191906000526020600020905b8154815290600101906020018083116119d957829003601f168201915b5050505050905090565b60606000611a0d83611770565b905060008167ffffffffffffffff811115611a51577f4e487b7100000000000000000000000000000000000000000000000000000000600052604160045260246000fd5b604051908082528060200260200182016040528015611a7f5781602001602082028036833780820191505090505b50905060005b82811015611aef57611a97858261106b565b828281518110611ad0577f4e487b7100000000000000000000000000000000000000000000000000000000600052603260045260246000fd5b6020026020010181815250508080611ae790614e63565b915050611a85565b508092505050919050565b611b02612402565b73ffffffffffffffffffffffffffffffffffffffff168273ffffffffffffffffffffffffffffffffffffffff161415611b70576040517f08c379a0000000000000000000000000000000000000000000000000000000008152600401611b679061490c565b60405180910390fd5b8060056000611b7d612402565b73ffffffffffffffffffffffffffffffffffffffff1673ffffffffffffffffffffffffffffffffffffffff16815260200190815260200160002060008473ffffffffffffffffffffffffffffffffffffffff1673ffffffffffffffffffffffffffffffffffffffff16815260200190815260200160002060006101000a81548160ff0219169083151502179055508173ffffffffffffffffffffffffffffffffffffffff16611c2a612402565b73ffffffffffffffffffffffffffffffffffffffff167f17307eab39ab6107e8899845ad3d59bd9653f200f220920489ca2b5937696c3183604051611c6f919061480f565b60405180910390a35050565b611c83612402565b73ffffffffffffffffffffffffffffffffffffffff16611ca16118b6565b73ffffffffffffffffffffffffffffffffffffffff1614611cf7576040517f08c379a0000000000000000000000000000000000000000000000000000000008152600401611cee90614a4c565b60405180910390fd5b612710611d1483611d06610e1f565b6125a990919063ffffffff16565b1115611d55576040517f08c379a0000000000000000000000000000000000000000000000000000000008152600401611d4c906148cc565b60405180910390fd5b611d5f82826125bf565b7ff00d28232b285f24f2e38415deb2ceb31069e70d4505838b3911b4f02058502e611d88610e1f565b604051611d959190614b6c565b60405180910390a15050565b611da9612402565b73ffffffffffffffffffffffffffffffffffffffff16611dc76118b6565b73ffffffffffffffffffffffffffffffffffffffff1614611e1d576040517f08c379a0000000000000000000000000000000000000000000000000000000008152600401611e1490614a4c565b60405180910390fd5b6001600a60146101000a81548160ff0219169083151502179055507f912ee23dde46ec889d6748212cce445d667f7041597691dc89e8549ad8bc0acb60405160405180910390a1565b611e77611e71612402565b83612642565b611eb6576040517f08c379a0000000000000000000000000000000000000000000000000000000008152600401611ead90614aec565b60405180910390fd5b611ec284848484612a42565b50505050565b6000611ed2610e1f565b905090565b6060611ee282612484565b611f21576040517f08c379a0000000000000000000000000000000000000000000000000000000008152600401611f1890614a8c565b60405180910390fd5b6000611f2b612a9e565b905080611f3784612b30565b604051602001611f48929190614762565b604051602081830303815290604052915050919050565b611f67612402565b73ffffffffffffffffffffffffffffffffffffffff16611f856118b6565b73ffffffffffffffffffffffffffffffffffffffff1614611fdb576040517f08c379a0000000000000000000000000000000000000000000000000000000008152600401611fd290614a4c565b60405180910390fd5b600a60149054906101000a900460ff1615801561200e5750612710611ffe610e1f565b10158061200d5750600d544210155b5b61204d576040517f08c379a00000000000000000000000000000000000000000000000000000000081526004016120449061498c565b60405180910390fd5b600061271061205a610e1f565b6120649190614cc0565b90506120708282612cdd565b5050565b6000600b54146120b9576040517f08c379a00000000000000000000000000000000000000000000000000000000081526004016120b090614b4c565b60405180910390fd5b6000600c5414156120ff576040517f08c379a00000000000000000000000000000000000000000000000000000000081526004016120f690614acc565b60405180910390fd5b60ff612116600c5443612cfb90919063ffffffff16565b111561214c5761214161271060014361212f9190614d47565b4060001c612d1190919063ffffffff16565b600b8190555061216e565b612167612710600c544060001c612d1190919063ffffffff16565b600b819055505b6000600b541415612182576001600b819055505b565b600181565b6000600560008473ffffffffffffffffffffffffffffffffffffffff1673ffffffffffffffffffffffffffffffffffffffff16815260200190815260200160002060008373ffffffffffffffffffffffffffffffffffffffff1673ffffffffffffffffffffffffffffffffffffffff16815260200190815260200160002060009054906101000a900460ff16905092915050565b612225612402565b73ffffffffffffffffffffffffffffffffffffffff166122436118b6565b73ffffffffffffffffffffffffffffffffffffffff1614612299576040517f08c379a000000000000000000000000000000000000000000000000000000000815260040161229090614a4c565b60405180910390fd5b600073ffffffffffffffffffffffffffffffffffffffff168173ffffffffffffffffffffffffffffffffffffffff161415612309576040517f08c379a00000000000000000000000000000000000000000000000000000000081526004016123009061488c565b60405180910390fd5b6123128161297c565b50565b61231d612402565b73ffffffffffffffffffffffffffffffffffffffff1661233b6118b6565b73ffffffffffffffffffffffffffffffffffffffff1614612391576040517f08c379a000000000000000000000000000000000000000000000000000000000815260040161238890614a4c565b60405180910390fd5b6127106123ae826123a0610e1f565b6125a990919063ffffffff16565b11156123ef576040517f08c379a00000000000000000000000000000000000000000000000000000000081526004016123e6906148cc565b60405180910390fd5b6123f981336125bf565b50565b600b5481565b600033905090565b60007f780e9d63000000000000000000000000000000000000000000000000000000007bffffffffffffffffffffffffffffffffffffffffffffffffffffffff1916827bffffffffffffffffffffffffffffffffffffffffffffffffffffffff1916148061247d575061247c82612d27565b5b9050919050565b60008073ffffffffffffffffffffffffffffffffffffffff166002600084815260200190815260200160002060009054906101000a900473ffffffffffffffffffffffffffffffffffffffff1673ffffffffffffffffffffffffffffffffffffffff1614159050919050565b816004600083815260200190815260200160002060006101000a81548173ffffffffffffffffffffffffffffffffffffffff021916908373ffffffffffffffffffffffffffffffffffffffff160217905550808273ffffffffffffffffffffffffffffffffffffffff166125638361161d565b73ffffffffffffffffffffffffffffffffffffffff167f8c5be1e5ebec7d5bd14f71427d1e84f3dd0314c0f7b2291e5b200ac8c7c3b92560405160405180910390a45050565b600081836125b79190614cc0565b905092915050565b60006125c9610e1f565b905060005b83811015612607576125df82612e09565b6125f48382846125ef9190614cc0565b612cdd565b80806125ff90614e63565b9150506125ce565b506000600c541480156126305750612710612620610e1f565b10158061262f5750600d544210155b5b1561263d5743600c819055505b505050565b600061264d82612484565b61268c576040517f08c379a00000000000000000000000000000000000000000000000000000000081526004016126839061492c565b60405180910390fd5b60006126978361161d565b90508073ffffffffffffffffffffffffffffffffffffffff168473ffffffffffffffffffffffffffffffffffffffff16148061270657508373ffffffffffffffffffffffffffffffffffffffff166126ee84610be1565b73ffffffffffffffffffffffffffffffffffffffff16145b8061271757506127168185612189565b5b91505092915050565b8273ffffffffffffffffffffffffffffffffffffffff166127408261161d565b73ffffffffffffffffffffffffffffffffffffffff1614612796576040517f08c379a000000000000000000000000000000000000000000000000000000000815260040161278d90614a6c565b60405180910390fd5b600073ffffffffffffffffffffffffffffffffffffffff168273ffffffffffffffffffffffffffffffffffffffff161415612806576040517f08c379a00000000000000000000000000000000000000000000000000000000081526004016127fd906148ec565b60405180910390fd5b612811838383612ea2565b61281c6000826124f0565b6001600360008573ffffffffffffffffffffffffffffffffffffffff1673ffffffffffffffffffffffffffffffffffffffff168152602001908152602001600020600082825461286c9190614d47565b925050819055506001600360008473ffffffffffffffffffffffffffffffffffffffff1673ffffffffffffffffffffffffffffffffffffffff16815260200190815260200160002060008282546128c39190614cc0565b92505081905550816002600083815260200190815260200160002060006101000a81548173ffffffffffffffffffffffffffffffffffffffff021916908373ffffffffffffffffffffffffffffffffffffffff160217905550808273ffffffffffffffffffffffffffffffffffffffff168473ffffffffffffffffffffffffffffffffffffffff167fddf252ad1be2c89b69c2b068fc378daa952ba7f163c4a11628f55a4df523b3ef60405160405180910390a4505050565b6000600a60009054906101000a900473ffffffffffffffffffffffffffffffffffffffff16905081600a60006101000a81548173ffffffffffffffffffffffffffffffffffffffff021916908373ffffffffffffffffffffffffffffffffffffffff1602179055508173ffffffffffffffffffffffffffffffffffffffff168173ffffffffffffffffffffffffffffffffffffffff167f8be0079c531659141344cd1fd0a4f28419497f9722a3daafe3b4186f6b6457e060405160405180910390a35050565b612a4d848484612720565b612a5984848484612eb2565b612a98576040517f08c379a0000000000000000000000000000000000000000000000000000000008152600401612a8f9061486c565b60405180910390fd5b50505050565b6060600f8054612aad90614e31565b80601f0160208091040260200160405190810160405280929190818152602001828054612ad990614e31565b8015612b265780601f10612afb57610100808354040283529160200191612b26565b820191906000526020600020905b815481529060010190602001808311612b0957829003601f168201915b5050505050905090565b60606000821415612b78576040518060400160405280600181526020017f30000000000000000000000000000000000000000000000000000000000000008152509050612cd8565b600082905060005b60008214612baa578080612b9390614e63565b915050600a82612ba39190614d16565b9150612b80565b60008167ffffffffffffffff811115612bec577f4e487b7100000000000000000000000000000000000000000000000000000000600052604160045260246000fd5b6040519080825280601f01601f191660200182016040528015612c1e5781602001600182028036833780820191505090505b5090505b60008514612cd157600182612c379190614d47565b9150600a85612c469190614eac565b6030612c529190614cc0565b60f81b818381518110612c8e577f4e487b7100000000000000000000000000000000000000000000000000000000600052603260045260246000fd5b60200101907effffffffffffffffffffffffffffffffffffffffffffffffffffffffffffff1916908160001a905350600a85612cca9190614d16565b9450612c22565b8093505050505b919050565b612cf7828260405180602001604052806000815250613049565b5050565b60008183612d099190614d47565b905092915050565b60008183612d1f9190614eac565b905092915050565b60007f80ac58cd000000000000000000000000000000000000000000000000000000007bffffffffffffffffffffffffffffffffffffffffffffffffffffffff1916827bffffffffffffffffffffffffffffffffffffffffffffffffffffffff19161480612df257507f5b5e139f000000000000000000000000000000000000000000000000000000007bffffffffffffffffffffffffffffffffffffffffffffffffffffffff1916827bffffffffffffffffffffffffffffffffffffffffffffffffffffffff1916145b80612e025750612e01826130a4565b5b9050919050565b612e9f81604051602401612e1d9190614b6c565b6040516020818303038152906040527ff5b1bba9000000000000000000000000000000000000000000000000000000007bffffffffffffffffffffffffffffffffffffffffffffffffffffffff19166020820180517bffffffffffffffffffffffffffffffffffffffffffffffffffffffff838183161783525050505061310e565b50565b612ead838383613137565b505050565b6000612ed38473ffffffffffffffffffffffffffffffffffffffff1661324b565b1561303c578373ffffffffffffffffffffffffffffffffffffffff1663150b7a02612efc612402565b8786866040518563ffffffff1660e01b8152600401612f1e94939291906147a1565b602060405180830381600087803b158015612f3857600080fd5b505af1925050508015612f6957506040513d601f19601f82011682018060405250810190612f669190613c2c565b60015b612fec573d8060008114612f99576040519150601f19603f3d011682016040523d82523d6000602084013e612f9e565b606091505b50600081511415612fe4576040517f08c379a0000000000000000000000000000000000000000000000000000000008152600401612fdb9061486c565b60405180910390fd5b805181602001fd5b63150b7a0260e01b7bffffffffffffffffffffffffffffffffffffffffffffffffffffffff1916817bffffffffffffffffffffffffffffffffffffffffffffffffffffffff191614915050613041565b600190505b949350505050565b613053838361325e565b6130606000848484612eb2565b61309f576040517f08c379a00000000000000000000000000000000000000000000000000000000081526004016130969061486c565b60405180910390fd5b505050565b60007f01ffc9a7000000000000000000000000000000000000000000000000000000007bffffffffffffffffffffffffffffffffffffffffffffffffffffffff1916827bffffffffffffffffffffffffffffffffffffffffffffffffffffffff1916149050919050565b60008151905060006a636f6e736f6c652e6c6f679050602083016000808483855afa5050505050565b61314283838361342c565b600073ffffffffffffffffffffffffffffffffffffffff168373ffffffffffffffffffffffffffffffffffffffff1614156131855761318081613431565b6131c4565b8173ffffffffffffffffffffffffffffffffffffffff168373ffffffffffffffffffffffffffffffffffffffff16146131c3576131c2838261347a565b5b5b600073ffffffffffffffffffffffffffffffffffffffff168273ffffffffffffffffffffffffffffffffffffffff16141561320757613202816135e7565b613246565b8273ffffffffffffffffffffffffffffffffffffffff168273ffffffffffffffffffffffffffffffffffffffff161461324557613244828261372a565b5b5b505050565b600080823b905060008111915050919050565b600073ffffffffffffffffffffffffffffffffffffffff168273ffffffffffffffffffffffffffffffffffffffff1614156132ce576040517f08c379a00000000000000000000000000000000000000000000000000000000081526004016132c590614a0c565b60405180910390fd5b6132d781612484565b15613317576040517f08c379a000000000000000000000000000000000000000000000000000000000815260040161330e906148ac565b60405180910390fd5b61332360008383612ea2565b6001600360008473ffffffffffffffffffffffffffffffffffffffff1673ffffffffffffffffffffffffffffffffffffffff16815260200190815260200160002060008282546133739190614cc0565b92505081905550816002600083815260200190815260200160002060006101000a81548173ffffffffffffffffffffffffffffffffffffffff021916908373ffffffffffffffffffffffffffffffffffffffff160217905550808273ffffffffffffffffffffffffffffffffffffffff16600073ffffffffffffffffffffffffffffffffffffffff167fddf252ad1be2c89b69c2b068fc378daa952ba7f163c4a11628f55a4df523b3ef60405160405180910390a45050565b505050565b6008805490506009600083815260200190815260200160002081905550600881908060018154018082558091505060019003906000526020600020016000909190919091505550565b6000600161348784611770565b6134919190614d47565b9050600060076000848152602001908152602001600020549050818114613576576000600660008673ffffffffffffffffffffffffffffffffffffffff1673ffffffffffffffffffffffffffffffffffffffff168152602001908152602001600020600084815260200190815260200160002054905080600660008773ffffffffffffffffffffffffffffffffffffffff1673ffffffffffffffffffffffffffffffffffffffff168152602001908152602001600020600084815260200190815260200160002081905550816007600083815260200190815260200160002081905550505b6007600084815260200190815260200160002060009055600660008573ffffffffffffffffffffffffffffffffffffffff1673ffffffffffffffffffffffffffffffffffffffff16815260200190815260200160002060008381526020019081526020016000206000905550505050565b600060016008805490506135fb9190614d47565b9050600060096000848152602001908152602001600020549050600060088381548110613651577f4e487b7100000000000000000000000000000000000000000000000000000000600052603260045260246000fd5b906000526020600020015490508060088381548110613699577f4e487b7100000000000000000000000000000000000000000000000000000000600052603260045260246000fd5b90600052602060002001819055508160096000838152602001908152602001600020819055506009600085815260200190815260200160002060009055600880548061370e577f4e487b7100000000000000000000000000000000000000000000000000000000600052603160045260246000fd5b6001900381819060005260206000200160009055905550505050565b600061373583611770565b905081600660008573ffffffffffffffffffffffffffffffffffffffff1673ffffffffffffffffffffffffffffffffffffffff168152602001908152602001600020600083815260200190815260200160002081905550806007600084815260200190815260200160002081905550505050565b8280546137b590614e31565b90600052602060002090601f0160209004810192826137d7576000855561381e565b82601f106137f057805160ff191683800117855561381e565b8280016001018555821561381e579182015b8281111561381d578251825591602001919060010190613802565b5b50905061382b919061382f565b5090565b5b80821115613848576000816000905550600101613830565b5090565b600061385f61385a84614bb8565b614b87565b9050808382526020820190508285602086028201111561387e57600080fd5b60005b858110156138ae57816138948882613934565b845260208401935060208301925050600181019050613881565b5050509392505050565b60006138cb6138c684614be4565b614b87565b9050828152602081018484840111156138e357600080fd5b6138ee848285614def565b509392505050565b600061390961390484614c14565b614b87565b90508281526020810184848401111561392157600080fd5b61392c848285614def565b509392505050565b60008135905061394381614faa565b92915050565b600082601f83011261395a57600080fd5b813561396a84826020860161384c565b91505092915050565b60008135905061398281614fc1565b92915050565b60008135905061399781614fd8565b92915050565b6000815190506139ac81614fd8565b92915050565b600082601f8301126139c357600080fd5b81356139d38482602086016138b8565b91505092915050565b600082601f8301126139ed57600080fd5b81356139fd8482602086016138f6565b91505092915050565b600081359050613a1581614fef565b92915050565b600060208284031215613a2d57600080fd5b6000613a3b84828501613934565b91505092915050565b60008060408385031215613a5757600080fd5b6000613a6585828601613934565b9250506020613a7685828601613934565b9150509250929050565b600080600060608486031215613a9557600080fd5b6000613aa386828701613934565b9350506020613ab486828701613934565b9250506040613ac586828701613a06565b9150509250925092565b60008060008060808587031215613ae557600080fd5b6000613af387828801613934565b9450506020613b0487828801613934565b9350506040613b1587828801613a06565b925050606085013567ffffffffffffffff811115613b3257600080fd5b613b3e878288016139b2565b91505092959194509250565b60008060408385031215613b5d57600080fd5b6000613b6b85828601613934565b9250506020613b7c85828601613973565b9150509250929050565b60008060408385031215613b9957600080fd5b6000613ba785828601613934565b9250506020613bb885828601613a06565b9150509250929050565b600060208284031215613bd457600080fd5b600082013567ffffffffffffffff811115613bee57600080fd5b613bfa84828501613949565b91505092915050565b600060208284031215613c1557600080fd5b6000613c2384828501613988565b91505092915050565b600060208284031215613c3e57600080fd5b6000613c4c8482850161399d565b91505092915050565b600060208284031215613c6757600080fd5b600082013567ffffffffffffffff811115613c8157600080fd5b613c8d848285016139dc565b91505092915050565b600060208284031215613ca857600080fd5b6000613cb684828501613a06565b91505092915050565b60008060408385031215613cd257600080fd5b6000613ce085828601613a06565b9250506020613cf185828601613934565b9150509250929050565b6000613d078383614744565b60208301905092915050565b613d1c81614d7b565b82525050565b6000613d2d82614c54565b613d378185614c82565b9350613d4283614c44565b8060005b83811015613d73578151613d5a8882613cfb565b9750613d6583614c75565b925050600181019050613d46565b5085935050505092915050565b613d8981614d8d565b82525050565b6000613d9a82614c5f565b613da48185614c93565b9350613db4818560208601614dfe565b613dbd81614f99565b840191505092915050565b6000613dd382614c6a565b613ddd8185614ca4565b9350613ded818560208601614dfe565b613df681614f99565b840191505092915050565b6000613e0c82614c6a565b613e168185614cb5565b9350613e26818560208601614dfe565b80840191505092915050565b6000613e3f602b83614ca4565b91507f455243373231456e756d657261626c653a206f776e657220696e646578206f7560008301527f74206f6620626f756e64730000000000000000000000000000000000000000006020830152604082019050919050565b6000613ea5603283614ca4565b91507f4552433732313a207472616e7366657220746f206e6f6e20455243373231526560008301527f63656976657220696d706c656d656e74657200000000000000000000000000006020830152604082019050919050565b6000613f0b602683614ca4565b91507f4f776e61626c653a206e6577206f776e657220697320746865207a65726f206160008301527f64647265737300000000000000000000000000000000000000000000000000006020830152604082019050919050565b6000613f71601c83614ca4565b91507f4552433732313a20746f6b656e20616c7265616479206d696e746564000000006000830152602082019050919050565b6000613fb1601c83614ca4565b91507f53616c6520776f756c6420657863656564206d617820737570706c79000000006000830152602082019050919050565b6000613ff1602483614ca4565b91507f4552433732313a207472616e7366657220746f20746865207a65726f2061646460008301527f72657373000000000000000000000000000000000000000000000000000000006020830152604082019050919050565b6000614057601983614ca4565b91507f4552433732313a20617070726f766520746f2063616c6c6572000000000000006000830152602082019050919050565b6000614097602c83614ca4565b91507f4552433732313a206f70657261746f7220717565727920666f72206e6f6e657860008301527f697374656e7420746f6b656e00000000000000000000000000000000000000006020830152604082019050919050565b60006140fd602683614ca4565b91507f53616c65206d7573742062652061637469766520746f206d696e74204469614460008301527f7261676f6e7300000000000000000000000000000000000000000000000000006020830152604082019050919050565b6000614163601d83614ca4565b91507f5374617274696e6720696e64657820697320616c7265616479207365740000006000830152602082019050919050565b60006141a3604383614ca4565b91507f546865203133746820647261676f6e2077696c6c206f6e6c792062652061697260008301527f64726f70706564206f6e6365207468652073616c652068617320636f6e636c7560208301527f64656400000000000000000000000000000000000000000000000000000000006040830152606082019050919050565b600061422f603883614ca4565b91507f4552433732313a20617070726f76652063616c6c6572206973206e6f74206f7760008301527f6e6572206e6f7220617070726f76656420666f7220616c6c00000000000000006020830152604082019050919050565b6000614295602a83614ca4565b91507f4552433732313a2062616c616e636520717565727920666f7220746865207a6560008301527f726f2061646472657373000000000000000000000000000000000000000000006020830152604082019050919050565b60006142fb602983614ca4565b91507f4552433732313a206f776e657220717565727920666f72206e6f6e657869737460008301527f656e7420746f6b656e00000000000000000000000000000000000000000000006020830152604082019050919050565b6000614361602083614ca4565b91507f4552433732313a206d696e7420746f20746865207a65726f20616464726573736000830152602082019050919050565b60006143a1602c83614ca4565b91507f4552433732313a20617070726f76656420717565727920666f72206e6f6e657860008301527f697374656e7420746f6b656e00000000000000000000000000000000000000006020830152604082019050919050565b6000614407602083614ca4565b91507f4f776e61626c653a2063616c6c6572206973206e6f7420746865206f776e65726000830152602082019050919050565b6000614447602983614ca4565b91507f4552433732313a207472616e73666572206f6620746f6b656e2074686174206960008301527f73206e6f74206f776e00000000000000000000000000000000000000000000006020830152604082019050919050565b60006144ad602f83614ca4565b91507f4552433732314d657461646174613a2055524920717565727920666f72206e6f60008301527f6e6578697374656e7420746f6b656e00000000000000000000000000000000006020830152604082019050919050565b6000614513602183614ca4565b91507f4552433732313a20617070726f76616c20746f2063757272656e74206f776e6560008301527f72000000000000000000000000000000000000000000000000000000000000006020830152604082019050919050565b6000614579602083614ca4565b91507f5374617274696e6720696e64657820626c6f636b206d757374206265207365746000830152602082019050919050565b60006145b9603183614ca4565b91507f4552433732313a207472616e736665722063616c6c6572206973206e6f74206f60008301527f776e6572206e6f7220617070726f7665640000000000000000000000000000006020830152604082019050919050565b600061461f602c83614ca4565b91507f455243373231456e756d657261626c653a20676c6f62616c20696e646578206f60008301527f7574206f6620626f756e647300000000000000000000000000000000000000006020830152604082019050919050565b6000614685602183614ca4565b91507f4e6f7420656e6f7567682065746865722073656e7420283c302e30372045544860008301527f29000000000000000000000000000000000000000000000000000000000000006020830152604082019050919050565b60006146eb602383614ca4565b91507f5374617274696e6720696e6465782068617320616c7265616479206265656e2060008301527f73657400000000000000000000000000000000000000000000000000000000006020830152604082019050919050565b61474d81614de5565b82525050565b61475c81614de5565b82525050565b600061476e8285613e01565b915061477a8284613e01565b91508190509392505050565b600060208201905061479b6000830184613d13565b92915050565b60006080820190506147b66000830187613d13565b6147c36020830186613d13565b6147d06040830185614753565b81810360608301526147e28184613d8f565b905095945050505050565b600060208201905081810360008301526148078184613d22565b905092915050565b60006020820190506148246000830184613d80565b92915050565b600060208201905081810360008301526148448184613dc8565b905092915050565b6000602082019050818103600083015261486581613e32565b9050919050565b6000602082019050818103600083015261488581613e98565b9050919050565b600060208201905081810360008301526148a581613efe565b9050919050565b600060208201905081810360008301526148c581613f64565b9050919050565b600060208201905081810360008301526148e581613fa4565b9050919050565b6000602082019050818103600083015261490581613fe4565b9050919050565b600060208201905081810360008301526149258161404a565b9050919050565b600060208201905081810360008301526149458161408a565b9050919050565b60006020820190508181036000830152614965816140f0565b9050919050565b6000602082019050818103600083015261498581614156565b9050919050565b600060208201905081810360008301526149a581614196565b9050919050565b600060208201905081810360008301526149c581614222565b9050919050565b600060208201905081810360008301526149e581614288565b9050919050565b60006020820190508181036000830152614a05816142ee565b9050919050565b60006020820190508181036000830152614a2581614354565b9050919050565b60006020820190508181036000830152614a4581614394565b9050919050565b60006020820190508181036000830152614a65816143fa565b9050919050565b60006020820190508181036000830152614a858161443a565b9050919050565b60006020820190508181036000830152614aa5816144a0565b9050919050565b60006020820190508181036000830152614ac581614506565b9050919050565b60006020820190508181036000830152614ae58161456c565b9050919050565b60006020820190508181036000830152614b05816145ac565b9050919050565b60006020820190508181036000830152614b2581614612565b9050919050565b60006020820190508181036000830152614b4581614678565b9050919050565b60006020820190508181036000830152614b65816146de565b9050919050565b6000602082019050614b816000830184614753565b92915050565b6000604051905081810181811067ffffffffffffffff82111715614bae57614bad614f6a565b5b8060405250919050565b600067ffffffffffffffff821115614bd357614bd2614f6a565b5b602082029050602081019050919050565b600067ffffffffffffffff821115614bff57614bfe614f6a565b5b601f19601f8301169050602081019050919050565b600067ffffffffffffffff821115614c2f57614c2e614f6a565b5b601f19601f8301169050602081019050919050565b6000819050602082019050919050565b600081519050919050565b600081519050919050565b600081519050919050565b6000602082019050919050565b600082825260208201905092915050565b600082825260208201905092915050565b600082825260208201905092915050565b600081905092915050565b6000614ccb82614de5565b9150614cd683614de5565b9250827fffffffffffffffffffffffffffffffffffffffffffffffffffffffffffffffff03821115614d0b57614d0a614edd565b5b828201905092915050565b6000614d2182614de5565b9150614d2c83614de5565b925082614d3c57614d3b614f0c565b5b828204905092915050565b6000614d5282614de5565b9150614d5d83614de5565b925082821015614d7057614d6f614edd565b5b828203905092915050565b6000614d8682614dc5565b9050919050565b60008115159050919050565b60007fffffffff0000000000000000000000000000000000000000000000000000000082169050919050565b600073ffffffffffffffffffffffffffffffffffffffff82169050919050565b6000819050919050565b82818337600083830152505050565b60005b83811015614e1c578082015181840152602081019050614e01565b83811115614e2b576000848401525b50505050565b60006002820490506001821680614e4957607f821691505b60208210811415614e5d57614e5c614f3b565b5b50919050565b6000614e6e82614de5565b91507fffffffffffffffffffffffffffffffffffffffffffffffffffffffffffffffff821415614ea157614ea0614edd565b5b600182019050919050565b6000614eb782614de5565b9150614ec283614de5565b925082614ed257614ed1614f0c565b5b828206905092915050565b7f4e487b7100000000000000000000000000000000000000000000000000000000600052601160045260246000fd5b7f4e487b7100000000000000000000000000000000000000000000000000000000600052601260045260246000fd5b7f4e487b7100000000000000000000000000000000000000000000000000000000600052602260045260246000fd5b7f4e487b7100000000000000000000000000000000000000000000000000000000600052604160045260246000fd5b6000601f19601f8301169050919050565b614fb381614d7b565b8114614fbe57600080fd5b50565b614fca81614d8d565b8114614fd557600080fd5b50565b614fe181614d99565b8114614fec57600080fd5b50565b614ff881614de5565b811461500357600080fd5b5056fea2646970667358221220d9d529209d80da411de9a1d97b9210b83d3f472d535eba4e537db25a4c99d3c664736f6c63430008000033",
  "linkReferences": {},
  "deployedLinkReferences": {}
}