{
  "_format": "hh-sol-artifact-1",
  "contractName": "Diadragons",
  "sourceName": "contracts/Diadragons.sol",
  "abi": [
    {
      "inputs": [],
      "stateMutability": "nonpayable",
      "type": "constructor"
    },
    {
      "anonymous": false,
      "inputs": [
        {
          "indexed": true,
          "internalType": "address",
          "name": "owner",
          "type": "address"
        },
        {
          "indexed": true,
          "internalType": "address",
          "name": "approved",
          "type": "address"
        },
        {
          "indexed": true,
          "internalType": "uint256",
          "name": "tokenId",
          "type": "uint256"
        }
      ],
      "name": "Approval",
      "type": "event"
    },
    {
      "anonymous": false,
      "inputs": [
        {
          "indexed": true,
          "internalType": "address",
          "name": "owner",
          "type": "address"
        },
        {
          "indexed": true,
          "internalType": "address",
          "name": "operator",
          "type": "address"
        },
        {
          "indexed": false,
          "internalType": "bool",
          "name": "approved",
          "type": "bool"
        }
      ],
      "name": "ApprovalForAll",
      "type": "event"
    },
    {
      "anonymous": false,
      "inputs": [
        {
          "indexed": true,
          "internalType": "address",
          "name": "previousOwner",
          "type": "address"
        },
        {
          "indexed": true,
          "internalType": "address",
          "name": "newOwner",
          "type": "address"
        }
      ],
      "name": "OwnershipTransferred",
      "type": "event"
    },
    {
      "anonymous": false,
      "inputs": [],
      "name": "SaleStarted",
      "type": "event"
    },
    {
      "anonymous": false,
      "inputs": [],
      "name": "SaleStopped",
      "type": "event"
    },
    {
      "anonymous": false,
      "inputs": [
        {
          "indexed": false,
          "internalType": "uint256",
          "name": "supply",
          "type": "uint256"
        }
      ],
      "name": "TokenMinted",
      "type": "event"
    },
    {
      "anonymous": false,
      "inputs": [
        {
          "indexed": true,
          "internalType": "address",
          "name": "from",
          "type": "address"
        },
        {
          "indexed": true,
          "internalType": "address",
          "name": "to",
          "type": "address"
        },
        {
          "indexed": true,
          "internalType": "uint256",
          "name": "tokenId",
          "type": "uint256"
        }
      ],
      "name": "Transfer",
      "type": "event"
    },
    {
      "inputs": [],
      "name": "DIADRAGONS_PROVENANCE",
      "outputs": [
        {
          "internalType": "string",
          "name": "",
          "type": "string"
        }
      ],
      "stateMutability": "view",
      "type": "function"
    },
    {
      "inputs": [],
      "name": "MAX_SUPPLY",
      "outputs": [
        {
          "internalType": "uint256",
          "name": "",
          "type": "uint256"
        }
      ],
      "stateMutability": "view",
      "type": "function"
    },
    {
      "inputs": [],
      "name": "TIER1_NUM_TOKENS",
      "outputs": [
        {
          "internalType": "uint256",
          "name": "",
          "type": "uint256"
        }
      ],
      "stateMutability": "view",
      "type": "function"
    },
    {
      "inputs": [],
      "name": "TIER1_PRICE",
      "outputs": [
        {
          "internalType": "uint256",
          "name": "",
          "type": "uint256"
        }
      ],
      "stateMutability": "view",
      "type": "function"
    },
    {
      "inputs": [],
      "name": "_isSaleActive",
      "outputs": [
        {
          "internalType": "bool",
          "name": "",
          "type": "bool"
        }
      ],
      "stateMutability": "view",
      "type": "function"
    },
    {
      "inputs": [
        {
          "internalType": "uint256",
          "name": "numDiaDragons",
          "type": "uint256"
        },
        {
          "internalType": "address",
          "name": "recipient",
          "type": "address"
        }
      ],
      "name": "airdropDiaDragon",
      "outputs": [],
      "stateMutability": "nonpayable",
      "type": "function"
    },
    {
      "inputs": [
        {
          "internalType": "address[]",
          "name": "recipients",
          "type": "address[]"
        }
      ],
      "name": "airdropDiaDragonToMany",
      "outputs": [],
      "stateMutability": "nonpayable",
      "type": "function"
    },
    {
      "inputs": [
        {
          "internalType": "address",
          "name": "to",
          "type": "address"
        },
        {
          "internalType": "uint256",
          "name": "tokenId",
          "type": "uint256"
        }
      ],
      "name": "approve",
      "outputs": [],
      "stateMutability": "nonpayable",
      "type": "function"
    },
    {
      "inputs": [
        {
          "internalType": "address",
          "name": "owner",
          "type": "address"
        }
      ],
      "name": "balanceOf",
      "outputs": [
        {
          "internalType": "uint256",
          "name": "",
          "type": "uint256"
        }
      ],
      "stateMutability": "view",
      "type": "function"
    },
    {
      "inputs": [],
      "name": "baseURI",
      "outputs": [
        {
          "internalType": "string",
          "name": "",
          "type": "string"
        }
      ],
      "stateMutability": "view",
      "type": "function"
    },
    {
      "inputs": [],
      "name": "emergencySetOffsetIndexBlock",
      "outputs": [],
      "stateMutability": "nonpayable",
      "type": "function"
    },
    {
      "inputs": [
        {
          "internalType": "uint256",
          "name": "tokenId",
          "type": "uint256"
        }
      ],
      "name": "getApproved",
      "outputs": [
        {
          "internalType": "address",
          "name": "",
          "type": "address"
        }
      ],
      "stateMutability": "view",
      "type": "function"
    },
    {
      "inputs": [
        {
          "internalType": "address",
          "name": "_owner",
          "type": "address"
        }
      ],
      "name": "getDiaDragonsByOwner",
      "outputs": [
        {
          "internalType": "uint256[]",
          "name": "",
          "type": "uint256[]"
        }
      ],
      "stateMutability": "view",
      "type": "function"
    },
    {
      "inputs": [],
      "name": "getTotalSupply",
      "outputs": [
        {
          "internalType": "uint256",
          "name": "",
          "type": "uint256"
        }
      ],
      "stateMutability": "view",
      "type": "function"
    },
    {
      "inputs": [
        {
          "internalType": "address",
          "name": "owner",
          "type": "address"
        },
        {
          "internalType": "address",
          "name": "operator",
          "type": "address"
        }
      ],
      "name": "isApprovedForAll",
      "outputs": [
        {
          "internalType": "bool",
          "name": "",
          "type": "bool"
        }
      ],
      "stateMutability": "view",
      "type": "function"
    },
    {
      "inputs": [],
      "name": "isSaleActive",
      "outputs": [
        {
          "internalType": "bool",
          "name": "",
          "type": "bool"
        }
      ],
      "stateMutability": "view",
      "type": "function"
    },
    {
      "inputs": [],
      "name": "mintDiaDragonTier1",
      "outputs": [],
      "stateMutability": "payable",
      "type": "function"
    },
    {
      "inputs": [],
      "name": "name",
      "outputs": [
        {
          "internalType": "string",
          "name": "",
          "type": "string"
        }
      ],
      "stateMutability": "view",
      "type": "function"
    },
    {
      "inputs": [],
      "name": "offsetIndex",
      "outputs": [
        {
          "internalType": "uint256",
          "name": "",
          "type": "uint256"
        }
      ],
      "stateMutability": "view",
      "type": "function"
    },
    {
      "inputs": [],
      "name": "offsetIndexBlock",
      "outputs": [
        {
          "internalType": "uint256",
          "name": "",
          "type": "uint256"
        }
      ],
      "stateMutability": "view",
      "type": "function"
    },
    {
      "inputs": [],
      "name": "owner",
      "outputs": [
        {
          "internalType": "address",
          "name": "",
          "type": "address"
        }
      ],
      "stateMutability": "view",
      "type": "function"
    },
    {
      "inputs": [
        {
          "internalType": "uint256",
          "name": "tokenId",
          "type": "uint256"
        }
      ],
      "name": "ownerOf",
      "outputs": [
        {
          "internalType": "address",
          "name": "",
          "type": "address"
        }
      ],
      "stateMutability": "view",
      "type": "function"
    },
    {
      "inputs": [],
      "name": "pauseSale",
      "outputs": [],
      "stateMutability": "nonpayable",
      "type": "function"
    },
    {
      "inputs": [],
      "name": "renounceOwnership",
      "outputs": [],
      "stateMutability": "nonpayable",
      "type": "function"
    },
    {
      "inputs": [
        {
          "internalType": "uint256",
          "name": "numDiaDragons",
          "type": "uint256"
        }
      ],
      "name": "reserveDiaDragons",
      "outputs": [],
      "stateMutability": "nonpayable",
      "type": "function"
    },
    {
      "inputs": [],
      "name": "revealTimeStamp",
      "outputs": [
        {
          "internalType": "uint256",
          "name": "",
          "type": "uint256"
        }
      ],
      "stateMutability": "view",
      "type": "function"
    },
    {
      "inputs": [
        {
          "internalType": "address",
          "name": "from",
          "type": "address"
        },
        {
          "internalType": "address",
          "name": "to",
          "type": "address"
        },
        {
          "internalType": "uint256",
          "name": "tokenId",
          "type": "uint256"
        }
      ],
      "name": "safeTransferFrom",
      "outputs": [],
      "stateMutability": "nonpayable",
      "type": "function"
    },
    {
      "inputs": [
        {
          "internalType": "address",
          "name": "from",
          "type": "address"
        },
        {
          "internalType": "address",
          "name": "to",
          "type": "address"
        },
        {
          "internalType": "uint256",
          "name": "tokenId",
          "type": "uint256"
        },
        {
          "internalType": "bytes",
          "name": "_data",
          "type": "bytes"
        }
      ],
      "name": "safeTransferFrom",
      "outputs": [],
      "stateMutability": "nonpayable",
      "type": "function"
    },
    {
      "inputs": [
        {
          "internalType": "address",
          "name": "operator",
          "type": "address"
        },
        {
          "internalType": "bool",
          "name": "approved",
          "type": "bool"
        }
      ],
      "name": "setApprovalForAll",
      "outputs": [],
      "stateMutability": "nonpayable",
      "type": "function"
    },
    {
      "inputs": [
        {
          "internalType": "string",
          "name": "_newBaseURI",
          "type": "string"
        }
      ],
      "name": "setBaseURI",
      "outputs": [],
      "stateMutability": "nonpayable",
      "type": "function"
    },
    {
      "inputs": [],
      "name": "setOffsetIndex",
      "outputs": [],
      "stateMutability": "nonpayable",
      "type": "function"
    },
    {
      "inputs": [
        {
          "internalType": "string",
          "name": "preRevealURI",
          "type": "string"
        }
      ],
      "name": "setPreRevealURI",
      "outputs": [],
      "stateMutability": "nonpayable",
      "type": "function"
    },
    {
      "inputs": [
        {
          "internalType": "string",
          "name": "provenanceHash",
          "type": "string"
        }
      ],
      "name": "setProvenanceHash",
      "outputs": [],
      "stateMutability": "nonpayable",
      "type": "function"
    },
    {
      "inputs": [
        {
          "internalType": "uint256",
          "name": "newRevealTimeStamp",
          "type": "uint256"
        }
      ],
      "name": "setRevealTimestamp",
      "outputs": [],
      "stateMutability": "nonpayable",
      "type": "function"
    },
    {
      "inputs": [],
      "name": "startSale",
      "outputs": [],
      "stateMutability": "nonpayable",
      "type": "function"
    },
    {
      "inputs": [
        {
          "internalType": "bytes4",
          "name": "interfaceId",
          "type": "bytes4"
        }
      ],
      "name": "supportsInterface",
      "outputs": [
        {
          "internalType": "bool",
          "name": "",
          "type": "bool"
        }
      ],
      "stateMutability": "view",
      "type": "function"
    },
    {
      "inputs": [],
      "name": "symbol",
      "outputs": [
        {
          "internalType": "string",
          "name": "",
          "type": "string"
        }
      ],
      "stateMutability": "view",
      "type": "function"
    },
    {
      "inputs": [
        {
          "internalType": "uint256",
          "name": "index",
          "type": "uint256"
        }
      ],
      "name": "tokenByIndex",
      "outputs": [
        {
          "internalType": "uint256",
          "name": "",
          "type": "uint256"
        }
      ],
      "stateMutability": "view",
      "type": "function"
    },
    {
      "inputs": [
        {
          "internalType": "address",
          "name": "owner",
          "type": "address"
        },
        {
          "internalType": "uint256",
          "name": "index",
          "type": "uint256"
        }
      ],
      "name": "tokenOfOwnerByIndex",
      "outputs": [
        {
          "internalType": "uint256",
          "name": "",
          "type": "uint256"
        }
      ],
      "stateMutability": "view",
      "type": "function"
    },
    {
      "inputs": [
        {
          "internalType": "uint256",
          "name": "tokenId",
          "type": "uint256"
        }
      ],
      "name": "tokenURI",
      "outputs": [
        {
          "internalType": "string",
          "name": "",
          "type": "string"
        }
      ],
      "stateMutability": "view",
      "type": "function"
    },
    {
      "inputs": [],
      "name": "totalSupply",
      "outputs": [
        {
          "internalType": "uint256",
          "name": "",
          "type": "uint256"
        }
      ],
      "stateMutability": "view",
      "type": "function"
    },
    {
      "inputs": [
        {
          "internalType": "address",
          "name": "from",
          "type": "address"
        },
        {
          "internalType": "address",
          "name": "to",
          "type": "address"
        },
        {
          "internalType": "uint256",
          "name": "tokenId",
          "type": "uint256"
        }
      ],
      "name": "transferFrom",
      "outputs": [],
      "stateMutability": "nonpayable",
      "type": "function"
    },
    {
      "inputs": [
        {
          "internalType": "address",
          "name": "newOwner",
          "type": "address"
        }
      ],
      "name": "transferOwnership",
      "outputs": [],
      "stateMutability": "nonpayable",
      "type": "function"
    },
    {
      "inputs": [],
      "name": "withdraw",
      "outputs": [],
      "stateMutability": "nonpayable",
      "type": "function"
    }
  ],
  "bytecode": "0x60806040526000600a60146101000a81548160ff0219169083151502179055506000600b556000600c5562093a80426200003a9190620002b7565b600d5560405180602001604052806000815250600e90805190602001906200006492919062000207565b503480156200007257600080fd5b506040518060400160405280600a81526020017f446961647261676f6e73000000000000000000000000000000000000000000008152506040518060400160405280600281526020017f44440000000000000000000000000000000000000000000000000000000000008152508160009080519060200190620000f792919062000207565b5080600190805190602001906200011092919062000207565b50505062000133620001276200013960201b60201c565b6200014160201b60201c565b620003b2565b600033905090565b6000600a60009054906101000a900473ffffffffffffffffffffffffffffffffffffffff16905081600a60006101000a81548173ffffffffffffffffffffffffffffffffffffffff021916908373ffffffffffffffffffffffffffffffffffffffff1602179055508173ffffffffffffffffffffffffffffffffffffffff168173ffffffffffffffffffffffffffffffffffffffff167f8be0079c531659141344cd1fd0a4f28419497f9722a3daafe3b4186f6b6457e060405160405180910390a35050565b82805462000215906200031e565b90600052602060002090601f01602090048101928262000239576000855562000285565b82601f106200025457805160ff191683800117855562000285565b8280016001018555821562000285579182015b828111156200028457825182559160200191906001019062000267565b5b50905062000294919062000298565b5090565b5b80821115620002b357600081600090555060010162000299565b5090565b6000620002c48262000314565b9150620002d18362000314565b9250827fffffffffffffffffffffffffffffffffffffffffffffffffffffffffffffffff0382111562000309576200030862000354565b5b828201905092915050565b6000819050919050565b600060028204905060018216806200033757607f821691505b602082108114156200034e576200034d62000383565b5b50919050565b7f4e487b7100000000000000000000000000000000000000000000000000000000600052601160045260246000fd5b7f4e487b7100000000000000000000000000000000000000000000000000000000600052602260045260246000fd5b614da880620003c26000396000f3fe6080604052600436106102675760003560e01c80636352211e11610144578063b3fba606116100b6578063d2f902141161007a578063d2f90214146108c3578063e11c7fb5146108da578063e985e9c514610905578063f2fde38b14610942578063f731b6761461096b578063ffe90ba61461099457610267565b8063b3fba606146107f2578063b66a0e5d1461081b578063b88d4fde14610832578063c4e41b221461085b578063c87b56dd1461088657610267565b806371f9c5341161010857806371f9c534146106e05780638da5cb5b1461070b57806394bb54371461073657806395d89b4114610761578063961ca5bf1461078c578063a22cb465146107c957610267565b80636352211e146105f95780636c0360eb146106365780637080d6fc1461066157806370a082311461068c578063715018a6146106c957610267565b80632a85db55116101dd57806342699fec116101a157806342699fec146104ff57806342842e0e146105285780634f6ccce71461055157806355367ba91461058e57806355f804b3146105a5578063564566a8146105ce57610267565b80632a85db55146104405780632f745c591461046957806332cb6b0c146104a65780633ccfd60b146104d15780633dc23a6d146104e857610267565b8063109695231161022f578063109695231461036357806314cf19fe1461038c57806318160ddd146103b75780631ba07240146103e25780631faa77ea1461040d57806323b872dd1461041757610267565b8063018a2c371461026c57806301ffc9a71461029557806306fdde03146102d2578063081812fc146102fd578063095ea7b31461033a575b600080fd5b34801561027857600080fd5b50610293600480360381019061028e9190613aae565b6109bf565b005b3480156102a157600080fd5b506102bc60048036038101906102b79190613a1b565b610a45565b6040516102c9919061459b565b60405180910390f35b3480156102de57600080fd5b506102e7610a57565b6040516102f491906145b6565b60405180910390f35b34801561030957600080fd5b50610324600480360381019061031f9190613aae565b610ae9565b6040516103319190614512565b60405180910390f35b34801561034657600080fd5b50610361600480360381019061035c919061399e565b610b6e565b005b34801561036f57600080fd5b5061038a60048036038101906103859190613a6d565b610c86565b005b34801561039857600080fd5b506103a1610d1c565b6040516103ae91906148d8565b60405180910390f35b3480156103c357600080fd5b506103cc610d28565b6040516103d991906148d8565b60405180910390f35b3480156103ee57600080fd5b506103f7610d35565b60405161040491906148d8565b60405180910390f35b610415610d3b565b005b34801561042357600080fd5b5061043e60048036038101906104399190613898565b610e7f565b005b34801561044c57600080fd5b5061046760048036038101906104629190613a6d565b610edf565b005b34801561047557600080fd5b50610490600480360381019061048b919061399e565b610f75565b60405161049d91906148d8565b60405180910390f35b3480156104b257600080fd5b506104bb61101a565b6040516104c891906148d8565b60405180910390f35b3480156104dd57600080fd5b506104e6611020565b005b3480156104f457600080fd5b506104fd6110eb565b005b34801561050b57600080fd5b50610526600480360381019061052191906139da565b6111b5565b005b34801561053457600080fd5b5061054f600480360381019061054a9190613898565b6112fe565b005b34801561055d57600080fd5b5061057860048036038101906105739190613aae565b61131e565b60405161058591906148d8565b60405180910390f35b34801561059a57600080fd5b506105a36113b5565b005b3480156105b157600080fd5b506105cc60048036038101906105c79190613a6d565b61147a565b005b3480156105da57600080fd5b506105e3611510565b6040516105f0919061459b565b60405180910390f35b34801561060557600080fd5b50610620600480360381019061061b9190613aae565b611527565b60405161062d9190614512565b60405180910390f35b34801561064257600080fd5b5061064b6115d9565b60405161065891906145b6565b60405180910390f35b34801561066d57600080fd5b50610676611667565b604051610683919061459b565b60405180910390f35b34801561069857600080fd5b506106b360048036038101906106ae9190613833565b61167a565b6040516106c091906148d8565b60405180910390f35b3480156106d557600080fd5b506106de611732565b005b3480156106ec57600080fd5b506106f56117ba565b60405161070291906148d8565b60405180910390f35b34801561071757600080fd5b506107206117c0565b60405161072d9190614512565b60405180910390f35b34801561074257600080fd5b5061074b6117ea565b60405161075891906145b6565b60405180910390f35b34801561076d57600080fd5b50610776611878565b60405161078391906145b6565b60405180910390f35b34801561079857600080fd5b506107b360048036038101906107ae9190613833565b61190a565b6040516107c09190614579565b60405180910390f35b3480156107d557600080fd5b506107f060048036038101906107eb9190613962565b611a04565b005b3480156107fe57600080fd5b5061081960048036038101906108149190613ad7565b611b85565b005b34801561082757600080fd5b50610830611cab565b005b34801561083e57600080fd5b50610859600480360381019061085491906138e7565b611d70565b005b34801561086757600080fd5b50610870611dd2565b60405161087d91906148d8565b60405180910390f35b34801561089257600080fd5b506108ad60048036038101906108a89190613aae565b611de1565b6040516108ba91906145b6565b60405180910390f35b3480156108cf57600080fd5b506108d8611f57565b005b3480156108e657600080fd5b506108ef612067565b6040516108fc91906148d8565b60405180910390f35b34801561091157600080fd5b5061092c6004803603810190610927919061385c565b61206c565b604051610939919061459b565b60405180910390f35b34801561094e57600080fd5b5061096960048036038101906109649190613833565b612100565b005b34801561097757600080fd5b50610992600480360381019061098d9190613aae565b6121f8565b005b3480156109a057600080fd5b506109a96122df565b6040516109b691906148d8565b60405180910390f35b6109c76122e5565b73ffffffffffffffffffffffffffffffffffffffff166109e56117c0565b73ffffffffffffffffffffffffffffffffffffffff1614610a3b576040517f08c379a0000000000000000000000000000000000000000000000000000000008152600401610a32906147b8565b60405180910390fd5b80600d8190555050565b6000610a50826122ed565b9050919050565b606060008054610a6690614b9d565b80601f0160208091040260200160405190810160405280929190818152602001828054610a9290614b9d565b8015610adf5780601f10610ab457610100808354040283529160200191610adf565b820191906000526020600020905b815481529060010190602001808311610ac257829003601f168201915b5050505050905090565b6000610af482612367565b610b33576040517f08c379a0000000000000000000000000000000000000000000000000000000008152600401610b2a90614798565b60405180910390fd5b6004600083815260200190815260200160002060009054906101000a900473ffffffffffffffffffffffffffffffffffffffff169050919050565b6000610b7982611527565b90508073ffffffffffffffffffffffffffffffffffffffff168373ffffffffffffffffffffffffffffffffffffffff161415610bea576040517f08c379a0000000000000000000000000000000000000000000000000000000008152600401610be190614818565b60405180910390fd5b8073ffffffffffffffffffffffffffffffffffffffff16610c096122e5565b73ffffffffffffffffffffffffffffffffffffffff161480610c385750610c3781610c326122e5565b61206c565b5b610c77576040517f08c379a0000000000000000000000000000000000000000000000000000000008152600401610c6e90614718565b60405180910390fd5b610c8183836123d3565b505050565b610c8e6122e5565b73ffffffffffffffffffffffffffffffffffffffff16610cac6117c0565b73ffffffffffffffffffffffffffffffffffffffff1614610d02576040517f08c379a0000000000000000000000000000000000000000000000000000000008152600401610cf9906147b8565b60405180910390fd5b80600e9080519060200190610d189291906135c1565b5050565b67011c37937e08000081565b6000600880549050905090565b600c5481565b600a60149054906101000a900460ff16610d8a576040517f08c379a0000000000000000000000000000000000000000000000000000000008152600401610d81906146d8565b60405180910390fd5b612b67610da86001610d9a610d28565b61248c90919063ffffffff16565b1115610de9576040517f08c379a0000000000000000000000000000000000000000000000000000000008152600401610de090614658565b60405180910390fd5b3467011c37937e0800001115610e34576040517f08c379a0000000000000000000000000000000000000000000000000000000008152600401610e2b90614898565b60405180910390fd5b610e3f6001336124a2565b7ff00d28232b285f24f2e38415deb2ceb31069e70d4505838b3911b4f02058502e610e68610d28565b604051610e7591906148d8565b60405180910390a1565b610e90610e8a6122e5565b8261251c565b610ecf576040517f08c379a0000000000000000000000000000000000000000000000000000000008152600401610ec690614858565b60405180910390fd5b610eda8383836125fa565b505050565b610ee76122e5565b73ffffffffffffffffffffffffffffffffffffffff16610f056117c0565b73ffffffffffffffffffffffffffffffffffffffff1614610f5b576040517f08c379a0000000000000000000000000000000000000000000000000000000008152600401610f52906147b8565b60405180910390fd5b8060109080519060200190610f719291906135c1565b5050565b6000610f808361167a565b8210610fc1576040517f08c379a0000000000000000000000000000000000000000000000000000000008152600401610fb8906145d8565b60405180910390fd5b600660008473ffffffffffffffffffffffffffffffffffffffff1673ffffffffffffffffffffffffffffffffffffffff168152602001908152602001600020600083815260200190815260200160002054905092915050565b612b6781565b6110286122e5565b73ffffffffffffffffffffffffffffffffffffffff166110466117c0565b73ffffffffffffffffffffffffffffffffffffffff161461109c576040517f08c379a0000000000000000000000000000000000000000000000000000000008152600401611093906147b8565b60405180910390fd5b60004790503373ffffffffffffffffffffffffffffffffffffffff166108fc829081150290604051600060405180830381858888f193505050501580156110e7573d6000803e3d6000fd5b5050565b6110f36122e5565b73ffffffffffffffffffffffffffffffffffffffff166111116117c0565b73ffffffffffffffffffffffffffffffffffffffff1614611167576040517f08c379a000000000000000000000000000000000000000000000000000000000815260040161115e906147b8565b60405180910390fd5b6000600b54146111ac576040517f08c379a00000000000000000000000000000000000000000000000000000000081526004016111a3906146f8565b60405180910390fd5b43600c81905550565b6111bd6122e5565b73ffffffffffffffffffffffffffffffffffffffff166111db6117c0565b73ffffffffffffffffffffffffffffffffffffffff1614611231576040517f08c379a0000000000000000000000000000000000000000000000000000000008152600401611228906147b8565b60405180910390fd5b612b6761124f8251611241610d28565b61248c90919063ffffffff16565b1115611290576040517f08c379a000000000000000000000000000000000000000000000000000000000815260040161128790614658565b60405180910390fd5b60005b81518110156112fa576112e760018383815181106112da577f4e487b7100000000000000000000000000000000000000000000000000000000600052603260045260246000fd5b6020026020010151611b85565b80806112f290614bcf565b915050611293565b5050565b61131983838360405180602001604052806000815250611d70565b505050565b6000611328610d28565b8210611369576040517f08c379a000000000000000000000000000000000000000000000000000000000815260040161136090614878565b60405180910390fd5b600882815481106113a3577f4e487b7100000000000000000000000000000000000000000000000000000000600052603260045260246000fd5b90600052602060002001549050919050565b6113bd6122e5565b73ffffffffffffffffffffffffffffffffffffffff166113db6117c0565b73ffffffffffffffffffffffffffffffffffffffff1614611431576040517f08c379a0000000000000000000000000000000000000000000000000000000008152600401611428906147b8565b60405180910390fd5b6000600a60146101000a81548160ff0219169083151502179055507fdf515ab57ec796fd111da4dd488177601b9465ce9c442de16857682b7f10297a60405160405180910390a1565b6114826122e5565b73ffffffffffffffffffffffffffffffffffffffff166114a06117c0565b73ffffffffffffffffffffffffffffffffffffffff16146114f6576040517f08c379a00000000000000000000000000000000000000000000000000000000081526004016114ed906147b8565b60405180910390fd5b80600f908051906020019061150c9291906135c1565b5050565b6000600a60149054906101000a900460ff16905090565b6000806002600084815260200190815260200160002060009054906101000a900473ffffffffffffffffffffffffffffffffffffffff169050600073ffffffffffffffffffffffffffffffffffffffff168173ffffffffffffffffffffffffffffffffffffffff1614156115d0576040517f08c379a00000000000000000000000000000000000000000000000000000000081526004016115c790614758565b60405180910390fd5b80915050919050565b600f80546115e690614b9d565b80601f016020809104026020016040519081016040528092919081815260200182805461161290614b9d565b801561165f5780601f106116345761010080835404028352916020019161165f565b820191906000526020600020905b81548152906001019060200180831161164257829003601f168201915b505050505081565b600a60149054906101000a900460ff1681565b60008073ffffffffffffffffffffffffffffffffffffffff168273ffffffffffffffffffffffffffffffffffffffff1614156116eb576040517f08c379a00000000000000000000000000000000000000000000000000000000081526004016116e290614738565b60405180910390fd5b600360008373ffffffffffffffffffffffffffffffffffffffff1673ffffffffffffffffffffffffffffffffffffffff168152602001908152602001600020549050919050565b61173a6122e5565b73ffffffffffffffffffffffffffffffffffffffff166117586117c0565b73ffffffffffffffffffffffffffffffffffffffff16146117ae576040517f08c379a00000000000000000000000000000000000000000000000000000000081526004016117a5906147b8565b60405180910390fd5b6117b86000612856565b565b600d5481565b6000600a60009054906101000a900473ffffffffffffffffffffffffffffffffffffffff16905090565b600e80546117f790614b9d565b80601f016020809104026020016040519081016040528092919081815260200182805461182390614b9d565b80156118705780601f1061184557610100808354040283529160200191611870565b820191906000526020600020905b81548152906001019060200180831161185357829003601f168201915b505050505081565b60606001805461188790614b9d565b80601f01602080910402602001604051908101604052809291908181526020018280546118b390614b9d565b80156119005780601f106118d557610100808354040283529160200191611900565b820191906000526020600020905b8154815290600101906020018083116118e357829003601f168201915b5050505050905090565b606060006119178361167a565b905060008167ffffffffffffffff81111561195b577f4e487b7100000000000000000000000000000000000000000000000000000000600052604160045260246000fd5b6040519080825280602002602001820160405280156119895781602001602082028036833780820191505090505b50905060005b828110156119f9576119a18582610f75565b8282815181106119da577f4e487b7100000000000000000000000000000000000000000000000000000000600052603260045260246000fd5b60200260200101818152505080806119f190614bcf565b91505061198f565b508092505050919050565b611a0c6122e5565b73ffffffffffffffffffffffffffffffffffffffff168273ffffffffffffffffffffffffffffffffffffffff161415611a7a576040517f08c379a0000000000000000000000000000000000000000000000000000000008152600401611a7190614698565b60405180910390fd5b8060056000611a876122e5565b73ffffffffffffffffffffffffffffffffffffffff1673ffffffffffffffffffffffffffffffffffffffff16815260200190815260200160002060008473ffffffffffffffffffffffffffffffffffffffff1673ffffffffffffffffffffffffffffffffffffffff16815260200190815260200160002060006101000a81548160ff0219169083151502179055508173ffffffffffffffffffffffffffffffffffffffff16611b346122e5565b73ffffffffffffffffffffffffffffffffffffffff167f17307eab39ab6107e8899845ad3d59bd9653f200f220920489ca2b5937696c3183604051611b79919061459b565b60405180910390a35050565b611b8d6122e5565b73ffffffffffffffffffffffffffffffffffffffff16611bab6117c0565b73ffffffffffffffffffffffffffffffffffffffff1614611c01576040517f08c379a0000000000000000000000000000000000000000000000000000000008152600401611bf8906147b8565b60405180910390fd5b612b67611c1e83611c10610d28565b61248c90919063ffffffff16565b1115611c5f576040517f08c379a0000000000000000000000000000000000000000000000000000000008152600401611c5690614658565b60405180910390fd5b611c6982826124a2565b7ff00d28232b285f24f2e38415deb2ceb31069e70d4505838b3911b4f02058502e611c92610d28565b604051611c9f91906148d8565b60405180910390a15050565b611cb36122e5565b73ffffffffffffffffffffffffffffffffffffffff16611cd16117c0565b73ffffffffffffffffffffffffffffffffffffffff1614611d27576040517f08c379a0000000000000000000000000000000000000000000000000000000008152600401611d1e906147b8565b60405180910390fd5b6001600a60146101000a81548160ff0219169083151502179055507f912ee23dde46ec889d6748212cce445d667f7041597691dc89e8549ad8bc0acb60405160405180910390a1565b611d81611d7b6122e5565b8361251c565b611dc0576040517f08c379a0000000000000000000000000000000000000000000000000000000008152600401611db790614858565b60405180910390fd5b611dcc8484848461291c565b50505050565b6000611ddc610d28565b905090565b6060611dec82612367565b611e2b576040517f08c379a0000000000000000000000000000000000000000000000000000000008152600401611e22906147f8565b60405180910390fd5b612b67611e36610d28565b101580611e455750600d544210155b15611ec4576000611e89612b67611e7b611e6c600b54612b6761297890919063ffffffff16565b8661248c90919063ffffffff16565b61298e90919063ffffffff16565b9050611e936129a4565b611e9c82612a36565b604051602001611ead9291906144ee565b604051602081830303815290604052915050611f52565b60108054611ed190614b9d565b80601f0160208091040260200160405190810160405280929190818152602001828054611efd90614b9d565b8015611f4a5780601f10611f1f57610100808354040283529160200191611f4a565b820191906000526020600020905b815481529060010190602001808311611f2d57829003601f168201915b505050505090505b919050565b6000600b5414611f9c576040517f08c379a0000000000000000000000000000000000000000000000000000000008152600401611f93906148b8565b60405180910390fd5b6000600c541415611fe2576040517f08c379a0000000000000000000000000000000000000000000000000000000008152600401611fd990614838565b60405180910390fd5b60ff611ff9600c544361297890919063ffffffff16565b111561202f57612024612b676001436120129190614ab3565b4060001c61298e90919063ffffffff16565b600b81905550612051565b61204a612b67600c544060001c61298e90919063ffffffff16565b600b819055505b6000600b541415612065576001600b819055505b565b600181565b6000600560008473ffffffffffffffffffffffffffffffffffffffff1673ffffffffffffffffffffffffffffffffffffffff16815260200190815260200160002060008373ffffffffffffffffffffffffffffffffffffffff1673ffffffffffffffffffffffffffffffffffffffff16815260200190815260200160002060009054906101000a900460ff16905092915050565b6121086122e5565b73ffffffffffffffffffffffffffffffffffffffff166121266117c0565b73ffffffffffffffffffffffffffffffffffffffff161461217c576040517f08c379a0000000000000000000000000000000000000000000000000000000008152600401612173906147b8565b60405180910390fd5b600073ffffffffffffffffffffffffffffffffffffffff168173ffffffffffffffffffffffffffffffffffffffff1614156121ec576040517f08c379a00000000000000000000000000000000000000000000000000000000081526004016121e390614618565b60405180910390fd5b6121f581612856565b50565b6122006122e5565b73ffffffffffffffffffffffffffffffffffffffff1661221e6117c0565b73ffffffffffffffffffffffffffffffffffffffff1614612274576040517f08c379a000000000000000000000000000000000000000000000000000000000815260040161226b906147b8565b60405180910390fd5b612b6761229182612283610d28565b61248c90919063ffffffff16565b11156122d2576040517f08c379a00000000000000000000000000000000000000000000000000000000081526004016122c990614658565b60405180910390fd5b6122dc81336124a2565b50565b600b5481565b600033905090565b60007f780e9d63000000000000000000000000000000000000000000000000000000007bffffffffffffffffffffffffffffffffffffffffffffffffffffffff1916827bffffffffffffffffffffffffffffffffffffffffffffffffffffffff19161480612360575061235f82612be3565b5b9050919050565b60008073ffffffffffffffffffffffffffffffffffffffff166002600084815260200190815260200160002060009054906101000a900473ffffffffffffffffffffffffffffffffffffffff1673ffffffffffffffffffffffffffffffffffffffff1614159050919050565b816004600083815260200190815260200160002060006101000a81548173ffffffffffffffffffffffffffffffffffffffff021916908373ffffffffffffffffffffffffffffffffffffffff160217905550808273ffffffffffffffffffffffffffffffffffffffff1661244683611527565b73ffffffffffffffffffffffffffffffffffffffff167f8c5be1e5ebec7d5bd14f71427d1e84f3dd0314c0f7b2291e5b200ac8c7c3b92560405160405180910390a45050565b6000818361249a9190614a2c565b905092915050565b60006124ac610d28565b905060005b838110156124e1576124ce8382846124c99190614a2c565b612cc5565b80806124d990614bcf565b9150506124b1565b506000600c5414801561250a5750612b676124fa610d28565b1015806125095750600d544210155b5b156125175743600c819055505b505050565b600061252782612367565b612566576040517f08c379a000000000000000000000000000000000000000000000000000000000815260040161255d906146b8565b60405180910390fd5b600061257183611527565b90508073ffffffffffffffffffffffffffffffffffffffff168473ffffffffffffffffffffffffffffffffffffffff1614806125e057508373ffffffffffffffffffffffffffffffffffffffff166125c884610ae9565b73ffffffffffffffffffffffffffffffffffffffff16145b806125f157506125f0818561206c565b5b91505092915050565b8273ffffffffffffffffffffffffffffffffffffffff1661261a82611527565b73ffffffffffffffffffffffffffffffffffffffff1614612670576040517f08c379a0000000000000000000000000000000000000000000000000000000008152600401612667906147d8565b60405180910390fd5b600073ffffffffffffffffffffffffffffffffffffffff168273ffffffffffffffffffffffffffffffffffffffff1614156126e0576040517f08c379a00000000000000000000000000000000000000000000000000000000081526004016126d790614678565b60405180910390fd5b6126eb838383612ce3565b6126f66000826123d3565b6001600360008573ffffffffffffffffffffffffffffffffffffffff1673ffffffffffffffffffffffffffffffffffffffff16815260200190815260200160002060008282546127469190614ab3565b925050819055506001600360008473ffffffffffffffffffffffffffffffffffffffff1673ffffffffffffffffffffffffffffffffffffffff168152602001908152602001600020600082825461279d9190614a2c565b92505081905550816002600083815260200190815260200160002060006101000a81548173ffffffffffffffffffffffffffffffffffffffff021916908373ffffffffffffffffffffffffffffffffffffffff160217905550808273ffffffffffffffffffffffffffffffffffffffff168473ffffffffffffffffffffffffffffffffffffffff167fddf252ad1be2c89b69c2b068fc378daa952ba7f163c4a11628f55a4df523b3ef60405160405180910390a4505050565b6000600a60009054906101000a900473ffffffffffffffffffffffffffffffffffffffff16905081600a60006101000a81548173ffffffffffffffffffffffffffffffffffffffff021916908373ffffffffffffffffffffffffffffffffffffffff1602179055508173ffffffffffffffffffffffffffffffffffffffff168173ffffffffffffffffffffffffffffffffffffffff167f8be0079c531659141344cd1fd0a4f28419497f9722a3daafe3b4186f6b6457e060405160405180910390a35050565b6129278484846125fa565b61293384848484612cf3565b612972576040517f08c379a0000000000000000000000000000000000000000000000000000000008152600401612969906145f8565b60405180910390fd5b50505050565b600081836129869190614ab3565b905092915050565b6000818361299c9190614c18565b905092915050565b6060600f80546129b390614b9d565b80601f01602080910402602001604051908101604052809291908181526020018280546129df90614b9d565b8015612a2c5780601f10612a0157610100808354040283529160200191612a2c565b820191906000526020600020905b815481529060010190602001808311612a0f57829003601f168201915b5050505050905090565b60606000821415612a7e576040518060400160405280600181526020017f30000000000000000000000000000000000000000000000000000000000000008152509050612bde565b600082905060005b60008214612ab0578080612a9990614bcf565b915050600a82612aa99190614a82565b9150612a86565b60008167ffffffffffffffff811115612af2577f4e487b7100000000000000000000000000000000000000000000000000000000600052604160045260246000fd5b6040519080825280601f01601f191660200182016040528015612b245781602001600182028036833780820191505090505b5090505b60008514612bd757600182612b3d9190614ab3565b9150600a85612b4c9190614c18565b6030612b589190614a2c565b60f81b818381518110612b94577f4e487b7100000000000000000000000000000000000000000000000000000000600052603260045260246000fd5b60200101907effffffffffffffffffffffffffffffffffffffffffffffffffffffffffffff1916908160001a905350600a85612bd09190614a82565b9450612b28565b8093505050505b919050565b60007f80ac58cd000000000000000000000000000000000000000000000000000000007bffffffffffffffffffffffffffffffffffffffffffffffffffffffff1916827bffffffffffffffffffffffffffffffffffffffffffffffffffffffff19161480612cae57507f5b5e139f000000000000000000000000000000000000000000000000000000007bffffffffffffffffffffffffffffffffffffffffffffffffffffffff1916827bffffffffffffffffffffffffffffffffffffffffffffffffffffffff1916145b80612cbe5750612cbd82612e8a565b5b9050919050565b612cdf828260405180602001604052806000815250612ef4565b5050565b612cee838383612f4f565b505050565b6000612d148473ffffffffffffffffffffffffffffffffffffffff16613063565b15612e7d578373ffffffffffffffffffffffffffffffffffffffff1663150b7a02612d3d6122e5565b8786866040518563ffffffff1660e01b8152600401612d5f949392919061452d565b602060405180830381600087803b158015612d7957600080fd5b505af1925050508015612daa57506040513d601f19601f82011682018060405250810190612da79190613a44565b60015b612e2d573d8060008114612dda576040519150601f19603f3d011682016040523d82523d6000602084013e612ddf565b606091505b50600081511415612e25576040517f08c379a0000000000000000000000000000000000000000000000000000000008152600401612e1c906145f8565b60405180910390fd5b805181602001fd5b63150b7a0260e01b7bffffffffffffffffffffffffffffffffffffffffffffffffffffffff1916817bffffffffffffffffffffffffffffffffffffffffffffffffffffffff191614915050612e82565b600190505b949350505050565b60007f01ffc9a7000000000000000000000000000000000000000000000000000000007bffffffffffffffffffffffffffffffffffffffffffffffffffffffff1916827bffffffffffffffffffffffffffffffffffffffffffffffffffffffff1916149050919050565b612efe8383613076565b612f0b6000848484612cf3565b612f4a576040517f08c379a0000000000000000000000000000000000000000000000000000000008152600401612f41906145f8565b60405180910390fd5b505050565b612f5a838383613244565b600073ffffffffffffffffffffffffffffffffffffffff168373ffffffffffffffffffffffffffffffffffffffff161415612f9d57612f9881613249565b612fdc565b8173ffffffffffffffffffffffffffffffffffffffff168373ffffffffffffffffffffffffffffffffffffffff1614612fdb57612fda8382613292565b5b5b600073ffffffffffffffffffffffffffffffffffffffff168273ffffffffffffffffffffffffffffffffffffffff16141561301f5761301a816133ff565b61305e565b8273ffffffffffffffffffffffffffffffffffffffff168273ffffffffffffffffffffffffffffffffffffffff161461305d5761305c8282613542565b5b5b505050565b600080823b905060008111915050919050565b600073ffffffffffffffffffffffffffffffffffffffff168273ffffffffffffffffffffffffffffffffffffffff1614156130e6576040517f08c379a00000000000000000000000000000000000000000000000000000000081526004016130dd90614778565b60405180910390fd5b6130ef81612367565b1561312f576040517f08c379a000000000000000000000000000000000000000000000000000000000815260040161312690614638565b60405180910390fd5b61313b60008383612ce3565b6001600360008473ffffffffffffffffffffffffffffffffffffffff1673ffffffffffffffffffffffffffffffffffffffff168152602001908152602001600020600082825461318b9190614a2c565b92505081905550816002600083815260200190815260200160002060006101000a81548173ffffffffffffffffffffffffffffffffffffffff021916908373ffffffffffffffffffffffffffffffffffffffff160217905550808273ffffffffffffffffffffffffffffffffffffffff16600073ffffffffffffffffffffffffffffffffffffffff167fddf252ad1be2c89b69c2b068fc378daa952ba7f163c4a11628f55a4df523b3ef60405160405180910390a45050565b505050565b6008805490506009600083815260200190815260200160002081905550600881908060018154018082558091505060019003906000526020600020016000909190919091505550565b6000600161329f8461167a565b6132a99190614ab3565b905060006007600084815260200190815260200160002054905081811461338e576000600660008673ffffffffffffffffffffffffffffffffffffffff1673ffffffffffffffffffffffffffffffffffffffff168152602001908152602001600020600084815260200190815260200160002054905080600660008773ffffffffffffffffffffffffffffffffffffffff1673ffffffffffffffffffffffffffffffffffffffff168152602001908152602001600020600084815260200190815260200160002081905550816007600083815260200190815260200160002081905550505b6007600084815260200190815260200160002060009055600660008573ffffffffffffffffffffffffffffffffffffffff1673ffffffffffffffffffffffffffffffffffffffff16815260200190815260200160002060008381526020019081526020016000206000905550505050565b600060016008805490506134139190614ab3565b9050600060096000848152602001908152602001600020549050600060088381548110613469577f4e487b7100000000000000000000000000000000000000000000000000000000600052603260045260246000fd5b9060005260206000200154905080600883815481106134b1577f4e487b7100000000000000000000000000000000000000000000000000000000600052603260045260246000fd5b906000526020600020018190555081600960008381526020019081526020016000208190555060096000858152602001908152602001600020600090556008805480613526577f4e487b7100000000000000000000000000000000000000000000000000000000600052603160045260246000fd5b6001900381819060005260206000200160009055905550505050565b600061354d8361167a565b905081600660008573ffffffffffffffffffffffffffffffffffffffff1673ffffffffffffffffffffffffffffffffffffffff168152602001908152602001600020600083815260200190815260200160002081905550806007600084815260200190815260200160002081905550505050565b8280546135cd90614b9d565b90600052602060002090601f0160209004810192826135ef5760008555613636565b82601f1061360857805160ff1916838001178555613636565b82800160010185558215613636579182015b8281111561363557825182559160200191906001019061361a565b5b5090506136439190613647565b5090565b5b80821115613660576000816000905550600101613648565b5090565b600061367761367284614924565b6148f3565b9050808382526020820190508285602086028201111561369657600080fd5b60005b858110156136c657816136ac888261374c565b845260208401935060208301925050600181019050613699565b5050509392505050565b60006136e36136de84614950565b6148f3565b9050828152602081018484840111156136fb57600080fd5b613706848285614b5b565b509392505050565b600061372161371c84614980565b6148f3565b90508281526020810184848401111561373957600080fd5b613744848285614b5b565b509392505050565b60008135905061375b81614d16565b92915050565b600082601f83011261377257600080fd5b8135613782848260208601613664565b91505092915050565b60008135905061379a81614d2d565b92915050565b6000813590506137af81614d44565b92915050565b6000815190506137c481614d44565b92915050565b600082601f8301126137db57600080fd5b81356137eb8482602086016136d0565b91505092915050565b600082601f83011261380557600080fd5b813561381584826020860161370e565b91505092915050565b60008135905061382d81614d5b565b92915050565b60006020828403121561384557600080fd5b60006138538482850161374c565b91505092915050565b6000806040838503121561386f57600080fd5b600061387d8582860161374c565b925050602061388e8582860161374c565b9150509250929050565b6000806000606084860312156138ad57600080fd5b60006138bb8682870161374c565b93505060206138cc8682870161374c565b92505060406138dd8682870161381e565b9150509250925092565b600080600080608085870312156138fd57600080fd5b600061390b8782880161374c565b945050602061391c8782880161374c565b935050604061392d8782880161381e565b925050606085013567ffffffffffffffff81111561394a57600080fd5b613956878288016137ca565b91505092959194509250565b6000806040838503121561397557600080fd5b60006139838582860161374c565b92505060206139948582860161378b565b9150509250929050565b600080604083850312156139b157600080fd5b60006139bf8582860161374c565b92505060206139d08582860161381e565b9150509250929050565b6000602082840312156139ec57600080fd5b600082013567ffffffffffffffff811115613a0657600080fd5b613a1284828501613761565b91505092915050565b600060208284031215613a2d57600080fd5b6000613a3b848285016137a0565b91505092915050565b600060208284031215613a5657600080fd5b6000613a64848285016137b5565b91505092915050565b600060208284031215613a7f57600080fd5b600082013567ffffffffffffffff811115613a9957600080fd5b613aa5848285016137f4565b91505092915050565b600060208284031215613ac057600080fd5b6000613ace8482850161381e565b91505092915050565b60008060408385031215613aea57600080fd5b6000613af88582860161381e565b9250506020613b098582860161374c565b9150509250929050565b6000613b1f83836144d0565b60208301905092915050565b613b3481614ae7565b82525050565b6000613b45826149c0565b613b4f81856149ee565b9350613b5a836149b0565b8060005b83811015613b8b578151613b728882613b13565b9750613b7d836149e1565b925050600181019050613b5e565b5085935050505092915050565b613ba181614af9565b82525050565b6000613bb2826149cb565b613bbc81856149ff565b9350613bcc818560208601614b6a565b613bd581614d05565b840191505092915050565b6000613beb826149d6565b613bf58185614a10565b9350613c05818560208601614b6a565b613c0e81614d05565b840191505092915050565b6000613c24826149d6565b613c2e8185614a21565b9350613c3e818560208601614b6a565b80840191505092915050565b6000613c57602b83614a10565b91507f455243373231456e756d657261626c653a206f776e657220696e646578206f7560008301527f74206f6620626f756e64730000000000000000000000000000000000000000006020830152604082019050919050565b6000613cbd603283614a10565b91507f4552433732313a207472616e7366657220746f206e6f6e20455243373231526560008301527f63656976657220696d706c656d656e74657200000000000000000000000000006020830152604082019050919050565b6000613d23602683614a10565b91507f4f776e61626c653a206e6577206f776e657220697320746865207a65726f206160008301527f64647265737300000000000000000000000000000000000000000000000000006020830152604082019050919050565b6000613d89601c83614a10565b91507f4552433732313a20746f6b656e20616c7265616479206d696e746564000000006000830152602082019050919050565b6000613dc9601c83614a10565b91507f53616c6520776f756c6420657863656564206d617820737570706c79000000006000830152602082019050919050565b6000613e09602483614a10565b91507f4552433732313a207472616e7366657220746f20746865207a65726f2061646460008301527f72657373000000000000000000000000000000000000000000000000000000006020830152604082019050919050565b6000613e6f601983614a10565b91507f4552433732313a20617070726f766520746f2063616c6c6572000000000000006000830152602082019050919050565b6000613eaf602c83614a10565b91507f4552433732313a206f70657261746f7220717565727920666f72206e6f6e657860008301527f697374656e7420746f6b656e00000000000000000000000000000000000000006020830152604082019050919050565b6000613f15602683614a10565b91507f53616c65206d7573742062652061637469766520746f206d696e74204469614460008301527f7261676f6e7300000000000000000000000000000000000000000000000000006020830152604082019050919050565b6000613f7b601d83614a10565b91507f5374617274696e6720696e64657820697320616c7265616479207365740000006000830152602082019050919050565b6000613fbb603883614a10565b91507f4552433732313a20617070726f76652063616c6c6572206973206e6f74206f7760008301527f6e6572206e6f7220617070726f76656420666f7220616c6c00000000000000006020830152604082019050919050565b6000614021602a83614a10565b91507f4552433732313a2062616c616e636520717565727920666f7220746865207a6560008301527f726f2061646472657373000000000000000000000000000000000000000000006020830152604082019050919050565b6000614087602983614a10565b91507f4552433732313a206f776e657220717565727920666f72206e6f6e657869737460008301527f656e7420746f6b656e00000000000000000000000000000000000000000000006020830152604082019050919050565b60006140ed602083614a10565b91507f4552433732313a206d696e7420746f20746865207a65726f20616464726573736000830152602082019050919050565b600061412d602c83614a10565b91507f4552433732313a20617070726f76656420717565727920666f72206e6f6e657860008301527f697374656e7420746f6b656e00000000000000000000000000000000000000006020830152604082019050919050565b6000614193602083614a10565b91507f4f776e61626c653a2063616c6c6572206973206e6f7420746865206f776e65726000830152602082019050919050565b60006141d3602983614a10565b91507f4552433732313a207472616e73666572206f6620746f6b656e2074686174206960008301527f73206e6f74206f776e00000000000000000000000000000000000000000000006020830152604082019050919050565b6000614239602f83614a10565b91507f4552433732314d657461646174613a2055524920717565727920666f72206e6f60008301527f6e6578697374656e7420746f6b656e00000000000000000000000000000000006020830152604082019050919050565b600061429f602183614a10565b91507f4552433732313a20617070726f76616c20746f2063757272656e74206f776e6560008301527f72000000000000000000000000000000000000000000000000000000000000006020830152604082019050919050565b6000614305602083614a10565b91507f5374617274696e6720696e64657820626c6f636b206d757374206265207365746000830152602082019050919050565b6000614345603183614a10565b91507f4552433732313a207472616e736665722063616c6c6572206973206e6f74206f60008301527f776e6572206e6f7220617070726f7665640000000000000000000000000000006020830152604082019050919050565b60006143ab602c83614a10565b91507f455243373231456e756d657261626c653a20676c6f62616c20696e646578206f60008301527f7574206f6620626f756e647300000000000000000000000000000000000000006020830152604082019050919050565b6000614411602183614a10565b91507f4e6f7420656e6f7567682065746865722073656e7420283c302e30372045544860008301527f29000000000000000000000000000000000000000000000000000000000000006020830152604082019050919050565b6000614477602383614a10565b91507f5374617274696e6720696e6465782068617320616c7265616479206265656e2060008301527f73657400000000000000000000000000000000000000000000000000000000006020830152604082019050919050565b6144d981614b51565b82525050565b6144e881614b51565b82525050565b60006144fa8285613c19565b91506145068284613c19565b91508190509392505050565b60006020820190506145276000830184613b2b565b92915050565b60006080820190506145426000830187613b2b565b61454f6020830186613b2b565b61455c60408301856144df565b818103606083015261456e8184613ba7565b905095945050505050565b600060208201905081810360008301526145938184613b3a565b905092915050565b60006020820190506145b06000830184613b98565b92915050565b600060208201905081810360008301526145d08184613be0565b905092915050565b600060208201905081810360008301526145f181613c4a565b9050919050565b6000602082019050818103600083015261461181613cb0565b9050919050565b6000602082019050818103600083015261463181613d16565b9050919050565b6000602082019050818103600083015261465181613d7c565b9050919050565b6000602082019050818103600083015261467181613dbc565b9050919050565b6000602082019050818103600083015261469181613dfc565b9050919050565b600060208201905081810360008301526146b181613e62565b9050919050565b600060208201905081810360008301526146d181613ea2565b9050919050565b600060208201905081810360008301526146f181613f08565b9050919050565b6000602082019050818103600083015261471181613f6e565b9050919050565b6000602082019050818103600083015261473181613fae565b9050919050565b6000602082019050818103600083015261475181614014565b9050919050565b600060208201905081810360008301526147718161407a565b9050919050565b60006020820190508181036000830152614791816140e0565b9050919050565b600060208201905081810360008301526147b181614120565b9050919050565b600060208201905081810360008301526147d181614186565b9050919050565b600060208201905081810360008301526147f1816141c6565b9050919050565b600060208201905081810360008301526148118161422c565b9050919050565b6000602082019050818103600083015261483181614292565b9050919050565b60006020820190508181036000830152614851816142f8565b9050919050565b6000602082019050818103600083015261487181614338565b9050919050565b600060208201905081810360008301526148918161439e565b9050919050565b600060208201905081810360008301526148b181614404565b9050919050565b600060208201905081810360008301526148d18161446a565b9050919050565b60006020820190506148ed60008301846144df565b92915050565b6000604051905081810181811067ffffffffffffffff8211171561491a57614919614cd6565b5b8060405250919050565b600067ffffffffffffffff82111561493f5761493e614cd6565b5b602082029050602081019050919050565b600067ffffffffffffffff82111561496b5761496a614cd6565b5b601f19601f8301169050602081019050919050565b600067ffffffffffffffff82111561499b5761499a614cd6565b5b601f19601f8301169050602081019050919050565b6000819050602082019050919050565b600081519050919050565b600081519050919050565b600081519050919050565b6000602082019050919050565b600082825260208201905092915050565b600082825260208201905092915050565b600082825260208201905092915050565b600081905092915050565b6000614a3782614b51565b9150614a4283614b51565b9250827fffffffffffffffffffffffffffffffffffffffffffffffffffffffffffffffff03821115614a7757614a76614c49565b5b828201905092915050565b6000614a8d82614b51565b9150614a9883614b51565b925082614aa857614aa7614c78565b5b828204905092915050565b6000614abe82614b51565b9150614ac983614b51565b925082821015614adc57614adb614c49565b5b828203905092915050565b6000614af282614b31565b9050919050565b60008115159050919050565b60007fffffffff0000000000000000000000000000000000000000000000000000000082169050919050565b600073ffffffffffffffffffffffffffffffffffffffff82169050919050565b6000819050919050565b82818337600083830152505050565b60005b83811015614b88578082015181840152602081019050614b6d565b83811115614b97576000848401525b50505050565b60006002820490506001821680614bb557607f821691505b60208210811415614bc957614bc8614ca7565b5b50919050565b6000614bda82614b51565b91507fffffffffffffffffffffffffffffffffffffffffffffffffffffffffffffffff821415614c0d57614c0c614c49565b5b600182019050919050565b6000614c2382614b51565b9150614c2e83614b51565b925082614c3e57614c3d614c78565b5b828206905092915050565b7f4e487b7100000000000000000000000000000000000000000000000000000000600052601160045260246000fd5b7f4e487b7100000000000000000000000000000000000000000000000000000000600052601260045260246000fd5b7f4e487b7100000000000000000000000000000000000000000000000000000000600052602260045260246000fd5b7f4e487b7100000000000000000000000000000000000000000000000000000000600052604160045260246000fd5b6000601f19601f8301169050919050565b614d1f81614ae7565b8114614d2a57600080fd5b50565b614d3681614af9565b8114614d4157600080fd5b50565b614d4d81614b05565b8114614d5857600080fd5b50565b614d6481614b51565b8114614d6f57600080fd5b5056fea26469706673582212208f1c3249c9cd819b23a71ec1a2a39b46c47de49539fe0435d6592230ae49b4a164736f6c63430008000033",
  "linkReferences": {},
  "deployedLinkReferences": {}
}