{
  "_format": "hh-sol-artifact-1",
  "contractName": "DiaDragons",
  "sourceName": "contracts/DiaDragons.sol",
  "abi": [
    {
      "inputs": [],
      "stateMutability": "nonpayable",
      "type": "constructor"
    },
    {
      "anonymous": false,
      "inputs": [
        {
          "indexed": true,
          "internalType": "address",
          "name": "owner",
          "type": "address"
        },
        {
          "indexed": true,
          "internalType": "address",
          "name": "approved",
          "type": "address"
        },
        {
          "indexed": true,
          "internalType": "uint256",
          "name": "tokenId",
          "type": "uint256"
        }
      ],
      "name": "Approval",
      "type": "event"
    },
    {
      "anonymous": false,
      "inputs": [
        {
          "indexed": true,
          "internalType": "address",
          "name": "owner",
          "type": "address"
        },
        {
          "indexed": true,
          "internalType": "address",
          "name": "operator",
          "type": "address"
        },
        {
          "indexed": false,
          "internalType": "bool",
          "name": "approved",
          "type": "bool"
        }
      ],
      "name": "ApprovalForAll",
      "type": "event"
    },
    {
      "anonymous": false,
      "inputs": [
        {
          "indexed": true,
          "internalType": "address",
          "name": "previousOwner",
          "type": "address"
        },
        {
          "indexed": true,
          "internalType": "address",
          "name": "newOwner",
          "type": "address"
        }
      ],
      "name": "OwnershipTransferred",
      "type": "event"
    },
    {
      "anonymous": false,
      "inputs": [],
      "name": "SaleStarted",
      "type": "event"
    },
    {
      "anonymous": false,
      "inputs": [],
      "name": "SaleStopped",
      "type": "event"
    },
    {
      "anonymous": false,
      "inputs": [
        {
          "indexed": false,
          "internalType": "uint256",
          "name": "supply",
          "type": "uint256"
        }
      ],
      "name": "TokenMinted",
      "type": "event"
    },
    {
      "anonymous": false,
      "inputs": [
        {
          "indexed": true,
          "internalType": "address",
          "name": "from",
          "type": "address"
        },
        {
          "indexed": true,
          "internalType": "address",
          "name": "to",
          "type": "address"
        },
        {
          "indexed": true,
          "internalType": "uint256",
          "name": "tokenId",
          "type": "uint256"
        }
      ],
      "name": "Transfer",
      "type": "event"
    },
    {
      "inputs": [],
      "name": "DIADRAGONS_PROVENANCE",
      "outputs": [
        {
          "internalType": "string",
          "name": "",
          "type": "string"
        }
      ],
      "stateMutability": "view",
      "type": "function"
    },
    {
      "inputs": [],
      "name": "MAX_SUPPLY",
      "outputs": [
        {
          "internalType": "uint256",
          "name": "",
          "type": "uint256"
        }
      ],
      "stateMutability": "view",
      "type": "function"
    },
    {
      "inputs": [],
      "name": "TIER1_NUM_TOKENS",
      "outputs": [
        {
          "internalType": "uint256",
          "name": "",
          "type": "uint256"
        }
      ],
      "stateMutability": "view",
      "type": "function"
    },
    {
      "inputs": [],
      "name": "TIER1_PRICE",
      "outputs": [
        {
          "internalType": "uint256",
          "name": "",
          "type": "uint256"
        }
      ],
      "stateMutability": "view",
      "type": "function"
    },
    {
      "inputs": [],
      "name": "_isSaleActive",
      "outputs": [
        {
          "internalType": "bool",
          "name": "",
          "type": "bool"
        }
      ],
      "stateMutability": "view",
      "type": "function"
    },
    {
      "inputs": [
        {
          "internalType": "uint256",
          "name": "numDiaDragons",
          "type": "uint256"
        },
        {
          "internalType": "address",
          "name": "recipient",
          "type": "address"
        }
      ],
      "name": "airdropDiaDragon",
      "outputs": [],
      "stateMutability": "nonpayable",
      "type": "function"
    },
    {
      "inputs": [
        {
          "internalType": "address[]",
          "name": "recipients",
          "type": "address[]"
        }
      ],
      "name": "airdropDiaDragonToMany",
      "outputs": [],
      "stateMutability": "nonpayable",
      "type": "function"
    },
    {
      "inputs": [
        {
          "internalType": "address",
          "name": "to",
          "type": "address"
        },
        {
          "internalType": "uint256",
          "name": "tokenId",
          "type": "uint256"
        }
      ],
      "name": "approve",
      "outputs": [],
      "stateMutability": "nonpayable",
      "type": "function"
    },
    {
      "inputs": [
        {
          "internalType": "address",
          "name": "owner",
          "type": "address"
        }
      ],
      "name": "balanceOf",
      "outputs": [
        {
          "internalType": "uint256",
          "name": "",
          "type": "uint256"
        }
      ],
      "stateMutability": "view",
      "type": "function"
    },
    {
      "inputs": [],
      "name": "baseURI",
      "outputs": [
        {
          "internalType": "string",
          "name": "",
          "type": "string"
        }
      ],
      "stateMutability": "view",
      "type": "function"
    },
    {
      "inputs": [],
      "name": "emergencySetOffsetIndexBlock",
      "outputs": [],
      "stateMutability": "nonpayable",
      "type": "function"
    },
    {
      "inputs": [
        {
          "internalType": "uint256",
          "name": "tokenId",
          "type": "uint256"
        }
      ],
      "name": "getApproved",
      "outputs": [
        {
          "internalType": "address",
          "name": "",
          "type": "address"
        }
      ],
      "stateMutability": "view",
      "type": "function"
    },
    {
      "inputs": [
        {
          "internalType": "address",
          "name": "_owner",
          "type": "address"
        }
      ],
      "name": "getDiaDragonsByOwner",
      "outputs": [
        {
          "internalType": "uint256[]",
          "name": "",
          "type": "uint256[]"
        }
      ],
      "stateMutability": "view",
      "type": "function"
    },
    {
      "inputs": [],
      "name": "getTotalSupply",
      "outputs": [
        {
          "internalType": "uint256",
          "name": "",
          "type": "uint256"
        }
      ],
      "stateMutability": "view",
      "type": "function"
    },
    {
      "inputs": [
        {
          "internalType": "address",
          "name": "owner",
          "type": "address"
        },
        {
          "internalType": "address",
          "name": "operator",
          "type": "address"
        }
      ],
      "name": "isApprovedForAll",
      "outputs": [
        {
          "internalType": "bool",
          "name": "",
          "type": "bool"
        }
      ],
      "stateMutability": "view",
      "type": "function"
    },
    {
      "inputs": [],
      "name": "isSaleActive",
      "outputs": [
        {
          "internalType": "bool",
          "name": "",
          "type": "bool"
        }
      ],
      "stateMutability": "view",
      "type": "function"
    },
    {
      "inputs": [],
      "name": "mintDiaDragonTier1",
      "outputs": [],
      "stateMutability": "payable",
      "type": "function"
    },
    {
      "inputs": [],
      "name": "name",
      "outputs": [
        {
          "internalType": "string",
          "name": "",
          "type": "string"
        }
      ],
      "stateMutability": "view",
      "type": "function"
    },
    {
      "inputs": [],
      "name": "offsetIndex",
      "outputs": [
        {
          "internalType": "uint256",
          "name": "",
          "type": "uint256"
        }
      ],
      "stateMutability": "view",
      "type": "function"
    },
    {
      "inputs": [],
      "name": "offsetIndexBlock",
      "outputs": [
        {
          "internalType": "uint256",
          "name": "",
          "type": "uint256"
        }
      ],
      "stateMutability": "view",
      "type": "function"
    },
    {
      "inputs": [],
      "name": "owner",
      "outputs": [
        {
          "internalType": "address",
          "name": "",
          "type": "address"
        }
      ],
      "stateMutability": "view",
      "type": "function"
    },
    {
      "inputs": [
        {
          "internalType": "uint256",
          "name": "tokenId",
          "type": "uint256"
        }
      ],
      "name": "ownerOf",
      "outputs": [
        {
          "internalType": "address",
          "name": "",
          "type": "address"
        }
      ],
      "stateMutability": "view",
      "type": "function"
    },
    {
      "inputs": [],
      "name": "pauseSale",
      "outputs": [],
      "stateMutability": "nonpayable",
      "type": "function"
    },
    {
      "inputs": [],
      "name": "renounceOwnership",
      "outputs": [],
      "stateMutability": "nonpayable",
      "type": "function"
    },
    {
      "inputs": [
        {
          "internalType": "uint256",
          "name": "numDiaDragons",
          "type": "uint256"
        }
      ],
      "name": "reserveDiaDragons",
      "outputs": [],
      "stateMutability": "nonpayable",
      "type": "function"
    },
    {
      "inputs": [],
      "name": "revealTimeStamp",
      "outputs": [
        {
          "internalType": "uint256",
          "name": "",
          "type": "uint256"
        }
      ],
      "stateMutability": "view",
      "type": "function"
    },
    {
      "inputs": [
        {
          "internalType": "address",
          "name": "from",
          "type": "address"
        },
        {
          "internalType": "address",
          "name": "to",
          "type": "address"
        },
        {
          "internalType": "uint256",
          "name": "tokenId",
          "type": "uint256"
        }
      ],
      "name": "safeTransferFrom",
      "outputs": [],
      "stateMutability": "nonpayable",
      "type": "function"
    },
    {
      "inputs": [
        {
          "internalType": "address",
          "name": "from",
          "type": "address"
        },
        {
          "internalType": "address",
          "name": "to",
          "type": "address"
        },
        {
          "internalType": "uint256",
          "name": "tokenId",
          "type": "uint256"
        },
        {
          "internalType": "bytes",
          "name": "_data",
          "type": "bytes"
        }
      ],
      "name": "safeTransferFrom",
      "outputs": [],
      "stateMutability": "nonpayable",
      "type": "function"
    },
    {
      "inputs": [
        {
          "internalType": "address",
          "name": "operator",
          "type": "address"
        },
        {
          "internalType": "bool",
          "name": "approved",
          "type": "bool"
        }
      ],
      "name": "setApprovalForAll",
      "outputs": [],
      "stateMutability": "nonpayable",
      "type": "function"
    },
    {
      "inputs": [
        {
          "internalType": "string",
          "name": "_newBaseURI",
          "type": "string"
        }
      ],
      "name": "setBaseURI",
      "outputs": [],
      "stateMutability": "nonpayable",
      "type": "function"
    },
    {
      "inputs": [],
      "name": "setOffsetIndex",
      "outputs": [],
      "stateMutability": "nonpayable",
      "type": "function"
    },
    {
      "inputs": [
        {
          "internalType": "string",
          "name": "preRevealURI",
          "type": "string"
        }
      ],
      "name": "setPreRevealURI",
      "outputs": [],
      "stateMutability": "nonpayable",
      "type": "function"
    },
    {
      "inputs": [
        {
          "internalType": "string",
          "name": "provenanceHash",
          "type": "string"
        }
      ],
      "name": "setProvenanceHash",
      "outputs": [],
      "stateMutability": "nonpayable",
      "type": "function"
    },
    {
      "inputs": [
        {
          "internalType": "uint256",
          "name": "newRevealTimeStamp",
          "type": "uint256"
        }
      ],
      "name": "setRevealTimestamp",
      "outputs": [],
      "stateMutability": "nonpayable",
      "type": "function"
    },
    {
      "inputs": [],
      "name": "startSale",
      "outputs": [],
      "stateMutability": "nonpayable",
      "type": "function"
    },
    {
      "inputs": [
        {
          "internalType": "bytes4",
          "name": "interfaceId",
          "type": "bytes4"
        }
      ],
      "name": "supportsInterface",
      "outputs": [
        {
          "internalType": "bool",
          "name": "",
          "type": "bool"
        }
      ],
      "stateMutability": "view",
      "type": "function"
    },
    {
      "inputs": [],
      "name": "symbol",
      "outputs": [
        {
          "internalType": "string",
          "name": "",
          "type": "string"
        }
      ],
      "stateMutability": "view",
      "type": "function"
    },
    {
      "inputs": [
        {
          "internalType": "uint256",
          "name": "index",
          "type": "uint256"
        }
      ],
      "name": "tokenByIndex",
      "outputs": [
        {
          "internalType": "uint256",
          "name": "",
          "type": "uint256"
        }
      ],
      "stateMutability": "view",
      "type": "function"
    },
    {
      "inputs": [
        {
          "internalType": "address",
          "name": "owner",
          "type": "address"
        },
        {
          "internalType": "uint256",
          "name": "index",
          "type": "uint256"
        }
      ],
      "name": "tokenOfOwnerByIndex",
      "outputs": [
        {
          "internalType": "uint256",
          "name": "",
          "type": "uint256"
        }
      ],
      "stateMutability": "view",
      "type": "function"
    },
    {
      "inputs": [
        {
          "internalType": "uint256",
          "name": "tokenId",
          "type": "uint256"
        }
      ],
      "name": "tokenURI",
      "outputs": [
        {
          "internalType": "string",
          "name": "",
          "type": "string"
        }
      ],
      "stateMutability": "view",
      "type": "function"
    },
    {
      "inputs": [],
      "name": "totalSupply",
      "outputs": [
        {
          "internalType": "uint256",
          "name": "",
          "type": "uint256"
        }
      ],
      "stateMutability": "view",
      "type": "function"
    },
    {
      "inputs": [
        {
          "internalType": "address",
          "name": "from",
          "type": "address"
        },
        {
          "internalType": "address",
          "name": "to",
          "type": "address"
        },
        {
          "internalType": "uint256",
          "name": "tokenId",
          "type": "uint256"
        }
      ],
      "name": "transferFrom",
      "outputs": [],
      "stateMutability": "nonpayable",
      "type": "function"
    },
    {
      "inputs": [
        {
          "internalType": "address",
          "name": "newOwner",
          "type": "address"
        }
      ],
      "name": "transferOwnership",
      "outputs": [],
      "stateMutability": "nonpayable",
      "type": "function"
    },
    {
      "inputs": [],
      "name": "withdraw",
      "outputs": [],
      "stateMutability": "nonpayable",
      "type": "function"
    }
  ],
  "bytecode": "0x60806040526000600a60146101000a81548160ff0219169083151502179055506000600b556000600c5562093a80426200003a9190620002b7565b600d5560405180602001604052806000815250600e90805190602001906200006492919062000207565b503480156200007257600080fd5b506040518060400160405280600a81526020017f446961447261676f6e73000000000000000000000000000000000000000000008152506040518060400160405280600281526020017f44440000000000000000000000000000000000000000000000000000000000008152508160009080519060200190620000f792919062000207565b5080600190805190602001906200011092919062000207565b50505062000133620001276200013960201b60201c565b6200014160201b60201c565b620003b2565b600033905090565b6000600a60009054906101000a900473ffffffffffffffffffffffffffffffffffffffff16905081600a60006101000a81548173ffffffffffffffffffffffffffffffffffffffff021916908373ffffffffffffffffffffffffffffffffffffffff1602179055508173ffffffffffffffffffffffffffffffffffffffff168173ffffffffffffffffffffffffffffffffffffffff167f8be0079c531659141344cd1fd0a4f28419497f9722a3daafe3b4186f6b6457e060405160405180910390a35050565b82805462000215906200031e565b90600052602060002090601f01602090048101928262000239576000855562000285565b82601f106200025457805160ff191683800117855562000285565b8280016001018555821562000285579182015b828111156200028457825182559160200191906001019062000267565b5b50905062000294919062000298565b5090565b5b80821115620002b357600081600090555060010162000299565b5090565b6000620002c48262000314565b9150620002d18362000314565b9250827fffffffffffffffffffffffffffffffffffffffffffffffffffffffffffffffff0382111562000309576200030862000354565b5b828201905092915050565b6000819050919050565b600060028204905060018216806200033757607f821691505b602082108114156200034e576200034d62000383565b5b50919050565b7f4e487b7100000000000000000000000000000000000000000000000000000000600052601160045260246000fd5b7f4e487b7100000000000000000000000000000000000000000000000000000000600052602260045260246000fd5b614d9b80620003c26000396000f3fe6080604052600436106102675760003560e01c80636352211e11610144578063b3fba606116100b6578063d2f902141161007a578063d2f90214146108c3578063e11c7fb5146108da578063e985e9c514610905578063f2fde38b14610942578063f731b6761461096b578063ffe90ba61461099457610267565b8063b3fba606146107f2578063b66a0e5d1461081b578063b88d4fde14610832578063c4e41b221461085b578063c87b56dd1461088657610267565b806371f9c5341161010857806371f9c534146106e05780638da5cb5b1461070b57806394bb54371461073657806395d89b4114610761578063961ca5bf1461078c578063a22cb465146107c957610267565b80636352211e146105f95780636c0360eb146106365780637080d6fc1461066157806370a082311461068c578063715018a6146106c957610267565b80632a85db55116101dd57806342699fec116101a157806342699fec146104ff57806342842e0e146105285780634f6ccce71461055157806355367ba91461058e57806355f804b3146105a5578063564566a8146105ce57610267565b80632a85db55146104405780632f745c591461046957806332cb6b0c146104a65780633ccfd60b146104d15780633dc23a6d146104e857610267565b8063109695231161022f578063109695231461036357806314cf19fe1461038c57806318160ddd146103b75780631ba07240146103e25780631faa77ea1461040d57806323b872dd1461041757610267565b8063018a2c371461026c57806301ffc9a71461029557806306fdde03146102d2578063081812fc146102fd578063095ea7b31461033a575b600080fd5b34801561027857600080fd5b50610293600480360381019061028e9190613aa1565b6109bf565b005b3480156102a157600080fd5b506102bc60048036038101906102b79190613a0e565b610a45565b6040516102c9919061458e565b60405180910390f35b3480156102de57600080fd5b506102e7610a57565b6040516102f491906145a9565b60405180910390f35b34801561030957600080fd5b50610324600480360381019061031f9190613aa1565b610ae9565b6040516103319190614505565b60405180910390f35b34801561034657600080fd5b50610361600480360381019061035c9190613991565b610b6e565b005b34801561036f57600080fd5b5061038a60048036038101906103859190613a60565b610c86565b005b34801561039857600080fd5b506103a1610d1c565b6040516103ae91906148cb565b60405180910390f35b3480156103c357600080fd5b506103cc610d27565b6040516103d991906148cb565b60405180910390f35b3480156103ee57600080fd5b506103f7610d34565b60405161040491906148cb565b60405180910390f35b610415610d3a565b005b34801561042357600080fd5b5061043e6004803603810190610439919061388b565b610e7c565b005b34801561044c57600080fd5b5061046760048036038101906104629190613a60565b610edc565b005b34801561047557600080fd5b50610490600480360381019061048b9190613991565b610f72565b60405161049d91906148cb565b60405180910390f35b3480156104b257600080fd5b506104bb611017565b6040516104c891906148cb565b60405180910390f35b3480156104dd57600080fd5b506104e661101c565b005b3480156104f457600080fd5b506104fd6110e7565b005b34801561050b57600080fd5b50610526600480360381019061052191906139cd565b6111b1565b005b34801561053457600080fd5b5061054f600480360381019061054a919061388b565b6112f9565b005b34801561055d57600080fd5b5061057860048036038101906105739190613aa1565b611319565b60405161058591906148cb565b60405180910390f35b34801561059a57600080fd5b506105a36113b0565b005b3480156105b157600080fd5b506105cc60048036038101906105c79190613a60565b611475565b005b3480156105da57600080fd5b506105e361150b565b6040516105f0919061458e565b60405180910390f35b34801561060557600080fd5b50610620600480360381019061061b9190613aa1565b611522565b60405161062d9190614505565b60405180910390f35b34801561064257600080fd5b5061064b6115d4565b60405161065891906145a9565b60405180910390f35b34801561066d57600080fd5b50610676611662565b604051610683919061458e565b60405180910390f35b34801561069857600080fd5b506106b360048036038101906106ae9190613826565b611675565b6040516106c091906148cb565b60405180910390f35b3480156106d557600080fd5b506106de61172d565b005b3480156106ec57600080fd5b506106f56117b5565b60405161070291906148cb565b60405180910390f35b34801561071757600080fd5b506107206117bb565b60405161072d9190614505565b60405180910390f35b34801561074257600080fd5b5061074b6117e5565b60405161075891906145a9565b60405180910390f35b34801561076d57600080fd5b50610776611873565b60405161078391906145a9565b60405180910390f35b34801561079857600080fd5b506107b360048036038101906107ae9190613826565b611905565b6040516107c0919061456c565b60405180910390f35b3480156107d557600080fd5b506107f060048036038101906107eb9190613955565b6119ff565b005b3480156107fe57600080fd5b5061081960048036038101906108149190613aca565b611b80565b005b34801561082757600080fd5b50610830611ca5565b005b34801561083e57600080fd5b50610859600480360381019061085491906138da565b611d6a565b005b34801561086757600080fd5b50610870611dcc565b60405161087d91906148cb565b60405180910390f35b34801561089257600080fd5b506108ad60048036038101906108a89190613aa1565b611ddb565b6040516108ba91906145a9565b60405180910390f35b3480156108cf57600080fd5b506108d8611f4e565b005b3480156108e657600080fd5b506108ef61205c565b6040516108fc91906148cb565b60405180910390f35b34801561091157600080fd5b5061092c6004803603810190610927919061384f565b612061565b604051610939919061458e565b60405180910390f35b34801561094e57600080fd5b5061096960048036038101906109649190613826565b6120f5565b005b34801561097757600080fd5b50610992600480360381019061098d9190613aa1565b6121ed565b005b3480156109a057600080fd5b506109a96122d3565b6040516109b691906148cb565b60405180910390f35b6109c76122d9565b73ffffffffffffffffffffffffffffffffffffffff166109e56117bb565b73ffffffffffffffffffffffffffffffffffffffff1614610a3b576040517f08c379a0000000000000000000000000000000000000000000000000000000008152600401610a32906147ab565b60405180910390fd5b80600d8190555050565b6000610a50826122e1565b9050919050565b606060008054610a6690614b90565b80601f0160208091040260200160405190810160405280929190818152602001828054610a9290614b90565b8015610adf5780601f10610ab457610100808354040283529160200191610adf565b820191906000526020600020905b815481529060010190602001808311610ac257829003601f168201915b5050505050905090565b6000610af48261235b565b610b33576040517f08c379a0000000000000000000000000000000000000000000000000000000008152600401610b2a9061478b565b60405180910390fd5b6004600083815260200190815260200160002060009054906101000a900473ffffffffffffffffffffffffffffffffffffffff169050919050565b6000610b7982611522565b90508073ffffffffffffffffffffffffffffffffffffffff168373ffffffffffffffffffffffffffffffffffffffff161415610bea576040517f08c379a0000000000000000000000000000000000000000000000000000000008152600401610be19061480b565b60405180910390fd5b8073ffffffffffffffffffffffffffffffffffffffff16610c096122d9565b73ffffffffffffffffffffffffffffffffffffffff161480610c385750610c3781610c326122d9565b612061565b5b610c77576040517f08c379a0000000000000000000000000000000000000000000000000000000008152600401610c6e9061470b565b60405180910390fd5b610c8183836123c7565b505050565b610c8e6122d9565b73ffffffffffffffffffffffffffffffffffffffff16610cac6117bb565b73ffffffffffffffffffffffffffffffffffffffff1614610d02576040517f08c379a0000000000000000000000000000000000000000000000000000000008152600401610cf9906147ab565b60405180910390fd5b80600e9080519060200190610d189291906135b4565b5050565b66f8b0a10e47000081565b6000600880549050905090565b600c5481565b600a60149054906101000a900460ff16610d89576040517f08c379a0000000000000000000000000000000000000000000000000000000008152600401610d80906146cb565b60405180910390fd5b600a610da66001610d98610d27565b61248090919063ffffffff16565b1115610de7576040517f08c379a0000000000000000000000000000000000000000000000000000000008152600401610dde9061464b565b60405180910390fd5b3466f8b0a10e4700001115610e31576040517f08c379a0000000000000000000000000000000000000000000000000000000008152600401610e289061488b565b60405180910390fd5b610e3c600133612496565b7ff00d28232b285f24f2e38415deb2ceb31069e70d4505838b3911b4f02058502e610e65610d27565b604051610e7291906148cb565b60405180910390a1565b610e8d610e876122d9565b8261250f565b610ecc576040517f08c379a0000000000000000000000000000000000000000000000000000000008152600401610ec39061484b565b60405180910390fd5b610ed78383836125ed565b505050565b610ee46122d9565b73ffffffffffffffffffffffffffffffffffffffff16610f026117bb565b73ffffffffffffffffffffffffffffffffffffffff1614610f58576040517f08c379a0000000000000000000000000000000000000000000000000000000008152600401610f4f906147ab565b60405180910390fd5b8060109080519060200190610f6e9291906135b4565b5050565b6000610f7d83611675565b8210610fbe576040517f08c379a0000000000000000000000000000000000000000000000000000000008152600401610fb5906145cb565b60405180910390fd5b600660008473ffffffffffffffffffffffffffffffffffffffff1673ffffffffffffffffffffffffffffffffffffffff168152602001908152602001600020600083815260200190815260200160002054905092915050565b600a81565b6110246122d9565b73ffffffffffffffffffffffffffffffffffffffff166110426117bb565b73ffffffffffffffffffffffffffffffffffffffff1614611098576040517f08c379a000000000000000000000000000000000000000000000000000000000815260040161108f906147ab565b60405180910390fd5b60004790503373ffffffffffffffffffffffffffffffffffffffff166108fc829081150290604051600060405180830381858888f193505050501580156110e3573d6000803e3d6000fd5b5050565b6110ef6122d9565b73ffffffffffffffffffffffffffffffffffffffff1661110d6117bb565b73ffffffffffffffffffffffffffffffffffffffff1614611163576040517f08c379a000000000000000000000000000000000000000000000000000000000815260040161115a906147ab565b60405180910390fd5b6000600b54146111a8576040517f08c379a000000000000000000000000000000000000000000000000000000000815260040161119f906146eb565b60405180910390fd5b43600c81905550565b6111b96122d9565b73ffffffffffffffffffffffffffffffffffffffff166111d76117bb565b73ffffffffffffffffffffffffffffffffffffffff161461122d576040517f08c379a0000000000000000000000000000000000000000000000000000000008152600401611224906147ab565b60405180910390fd5b600a61124a825161123c610d27565b61248090919063ffffffff16565b111561128b576040517f08c379a00000000000000000000000000000000000000000000000000000000081526004016112829061464b565b60405180910390fd5b60005b81518110156112f5576112e260018383815181106112d5577f4e487b7100000000000000000000000000000000000000000000000000000000600052603260045260246000fd5b6020026020010151611b80565b80806112ed90614bc2565b91505061128e565b5050565b61131483838360405180602001604052806000815250611d6a565b505050565b6000611323610d27565b8210611364576040517f08c379a000000000000000000000000000000000000000000000000000000000815260040161135b9061486b565b60405180910390fd5b6008828154811061139e577f4e487b7100000000000000000000000000000000000000000000000000000000600052603260045260246000fd5b90600052602060002001549050919050565b6113b86122d9565b73ffffffffffffffffffffffffffffffffffffffff166113d66117bb565b73ffffffffffffffffffffffffffffffffffffffff161461142c576040517f08c379a0000000000000000000000000000000000000000000000000000000008152600401611423906147ab565b60405180910390fd5b6000600a60146101000a81548160ff0219169083151502179055507fdf515ab57ec796fd111da4dd488177601b9465ce9c442de16857682b7f10297a60405160405180910390a1565b61147d6122d9565b73ffffffffffffffffffffffffffffffffffffffff1661149b6117bb565b73ffffffffffffffffffffffffffffffffffffffff16146114f1576040517f08c379a00000000000000000000000000000000000000000000000000000000081526004016114e8906147ab565b60405180910390fd5b80600f90805190602001906115079291906135b4565b5050565b6000600a60149054906101000a900460ff16905090565b6000806002600084815260200190815260200160002060009054906101000a900473ffffffffffffffffffffffffffffffffffffffff169050600073ffffffffffffffffffffffffffffffffffffffff168173ffffffffffffffffffffffffffffffffffffffff1614156115cb576040517f08c379a00000000000000000000000000000000000000000000000000000000081526004016115c29061474b565b60405180910390fd5b80915050919050565b600f80546115e190614b90565b80601f016020809104026020016040519081016040528092919081815260200182805461160d90614b90565b801561165a5780601f1061162f5761010080835404028352916020019161165a565b820191906000526020600020905b81548152906001019060200180831161163d57829003601f168201915b505050505081565b600a60149054906101000a900460ff1681565b60008073ffffffffffffffffffffffffffffffffffffffff168273ffffffffffffffffffffffffffffffffffffffff1614156116e6576040517f08c379a00000000000000000000000000000000000000000000000000000000081526004016116dd9061472b565b60405180910390fd5b600360008373ffffffffffffffffffffffffffffffffffffffff1673ffffffffffffffffffffffffffffffffffffffff168152602001908152602001600020549050919050565b6117356122d9565b73ffffffffffffffffffffffffffffffffffffffff166117536117bb565b73ffffffffffffffffffffffffffffffffffffffff16146117a9576040517f08c379a00000000000000000000000000000000000000000000000000000000081526004016117a0906147ab565b60405180910390fd5b6117b36000612849565b565b600d5481565b6000600a60009054906101000a900473ffffffffffffffffffffffffffffffffffffffff16905090565b600e80546117f290614b90565b80601f016020809104026020016040519081016040528092919081815260200182805461181e90614b90565b801561186b5780601f106118405761010080835404028352916020019161186b565b820191906000526020600020905b81548152906001019060200180831161184e57829003601f168201915b505050505081565b60606001805461188290614b90565b80601f01602080910402602001604051908101604052809291908181526020018280546118ae90614b90565b80156118fb5780601f106118d0576101008083540402835291602001916118fb565b820191906000526020600020905b8154815290600101906020018083116118de57829003601f168201915b5050505050905090565b6060600061191283611675565b905060008167ffffffffffffffff811115611956577f4e487b7100000000000000000000000000000000000000000000000000000000600052604160045260246000fd5b6040519080825280602002602001820160405280156119845781602001602082028036833780820191505090505b50905060005b828110156119f45761199c8582610f72565b8282815181106119d5577f4e487b7100000000000000000000000000000000000000000000000000000000600052603260045260246000fd5b60200260200101818152505080806119ec90614bc2565b91505061198a565b508092505050919050565b611a076122d9565b73ffffffffffffffffffffffffffffffffffffffff168273ffffffffffffffffffffffffffffffffffffffff161415611a75576040517f08c379a0000000000000000000000000000000000000000000000000000000008152600401611a6c9061468b565b60405180910390fd5b8060056000611a826122d9565b73ffffffffffffffffffffffffffffffffffffffff1673ffffffffffffffffffffffffffffffffffffffff16815260200190815260200160002060008473ffffffffffffffffffffffffffffffffffffffff1673ffffffffffffffffffffffffffffffffffffffff16815260200190815260200160002060006101000a81548160ff0219169083151502179055508173ffffffffffffffffffffffffffffffffffffffff16611b2f6122d9565b73ffffffffffffffffffffffffffffffffffffffff167f17307eab39ab6107e8899845ad3d59bd9653f200f220920489ca2b5937696c3183604051611b74919061458e565b60405180910390a35050565b611b886122d9565b73ffffffffffffffffffffffffffffffffffffffff16611ba66117bb565b73ffffffffffffffffffffffffffffffffffffffff1614611bfc576040517f08c379a0000000000000000000000000000000000000000000000000000000008152600401611bf3906147ab565b60405180910390fd5b600a611c1883611c0a610d27565b61248090919063ffffffff16565b1115611c59576040517f08c379a0000000000000000000000000000000000000000000000000000000008152600401611c509061464b565b60405180910390fd5b611c638282612496565b7ff00d28232b285f24f2e38415deb2ceb31069e70d4505838b3911b4f02058502e611c8c610d27565b604051611c9991906148cb565b60405180910390a15050565b611cad6122d9565b73ffffffffffffffffffffffffffffffffffffffff16611ccb6117bb565b73ffffffffffffffffffffffffffffffffffffffff1614611d21576040517f08c379a0000000000000000000000000000000000000000000000000000000008152600401611d18906147ab565b60405180910390fd5b6001600a60146101000a81548160ff0219169083151502179055507f912ee23dde46ec889d6748212cce445d667f7041597691dc89e8549ad8bc0acb60405160405180910390a1565b611d7b611d756122d9565b8361250f565b611dba576040517f08c379a0000000000000000000000000000000000000000000000000000000008152600401611db19061484b565b60405180910390fd5b611dc68484848461290f565b50505050565b6000611dd6610d27565b905090565b6060611de68261235b565b611e25576040517f08c379a0000000000000000000000000000000000000000000000000000000008152600401611e1c906147eb565b60405180910390fd5b600a611e2f610d27565b101580611e3e5750600d544210155b15611ebb576000611e80600a611e72611e63600b54600a61296b90919063ffffffff16565b8661248090919063ffffffff16565b61298190919063ffffffff16565b9050611e8a612997565b611e9382612a29565b604051602001611ea49291906144e1565b604051602081830303815290604052915050611f49565b60108054611ec890614b90565b80601f0160208091040260200160405190810160405280929190818152602001828054611ef490614b90565b8015611f415780601f10611f1657610100808354040283529160200191611f41565b820191906000526020600020905b815481529060010190602001808311611f2457829003601f168201915b505050505090505b919050565b6000600b5414611f93576040517f08c379a0000000000000000000000000000000000000000000000000000000008152600401611f8a906148ab565b60405180910390fd5b6000600c541415611fd9576040517f08c379a0000000000000000000000000000000000000000000000000000000008152600401611fd09061482b565b60405180910390fd5b60ff611ff0600c544361296b90919063ffffffff16565b11156120255761201a600a6001436120089190614aa6565b4060001c61298190919063ffffffff16565b600b81905550612046565b61203f600a600c544060001c61298190919063ffffffff16565b600b819055505b6000600b54141561205a576001600b819055505b565b600181565b6000600560008473ffffffffffffffffffffffffffffffffffffffff1673ffffffffffffffffffffffffffffffffffffffff16815260200190815260200160002060008373ffffffffffffffffffffffffffffffffffffffff1673ffffffffffffffffffffffffffffffffffffffff16815260200190815260200160002060009054906101000a900460ff16905092915050565b6120fd6122d9565b73ffffffffffffffffffffffffffffffffffffffff1661211b6117bb565b73ffffffffffffffffffffffffffffffffffffffff1614612171576040517f08c379a0000000000000000000000000000000000000000000000000000000008152600401612168906147ab565b60405180910390fd5b600073ffffffffffffffffffffffffffffffffffffffff168173ffffffffffffffffffffffffffffffffffffffff1614156121e1576040517f08c379a00000000000000000000000000000000000000000000000000000000081526004016121d89061460b565b60405180910390fd5b6121ea81612849565b50565b6121f56122d9565b73ffffffffffffffffffffffffffffffffffffffff166122136117bb565b73ffffffffffffffffffffffffffffffffffffffff1614612269576040517f08c379a0000000000000000000000000000000000000000000000000000000008152600401612260906147ab565b60405180910390fd5b600a61228582612277610d27565b61248090919063ffffffff16565b11156122c6576040517f08c379a00000000000000000000000000000000000000000000000000000000081526004016122bd9061464b565b60405180910390fd5b6122d08133612496565b50565b600b5481565b600033905090565b60007f780e9d63000000000000000000000000000000000000000000000000000000007bffffffffffffffffffffffffffffffffffffffffffffffffffffffff1916827bffffffffffffffffffffffffffffffffffffffffffffffffffffffff19161480612354575061235382612bd6565b5b9050919050565b60008073ffffffffffffffffffffffffffffffffffffffff166002600084815260200190815260200160002060009054906101000a900473ffffffffffffffffffffffffffffffffffffffff1673ffffffffffffffffffffffffffffffffffffffff1614159050919050565b816004600083815260200190815260200160002060006101000a81548173ffffffffffffffffffffffffffffffffffffffff021916908373ffffffffffffffffffffffffffffffffffffffff160217905550808273ffffffffffffffffffffffffffffffffffffffff1661243a83611522565b73ffffffffffffffffffffffffffffffffffffffff167f8c5be1e5ebec7d5bd14f71427d1e84f3dd0314c0f7b2291e5b200ac8c7c3b92560405160405180910390a45050565b6000818361248e9190614a1f565b905092915050565b60006124a0610d27565b905060005b838110156124d5576124c28382846124bd9190614a1f565b612cb8565b80806124cd90614bc2565b9150506124a5565b506000600c541480156124fd5750600a6124ed610d27565b1015806124fc5750600d544210155b5b1561250a5743600c819055505b505050565b600061251a8261235b565b612559576040517f08c379a0000000000000000000000000000000000000000000000000000000008152600401612550906146ab565b60405180910390fd5b600061256483611522565b90508073ffffffffffffffffffffffffffffffffffffffff168473ffffffffffffffffffffffffffffffffffffffff1614806125d357508373ffffffffffffffffffffffffffffffffffffffff166125bb84610ae9565b73ffffffffffffffffffffffffffffffffffffffff16145b806125e457506125e38185612061565b5b91505092915050565b8273ffffffffffffffffffffffffffffffffffffffff1661260d82611522565b73ffffffffffffffffffffffffffffffffffffffff1614612663576040517f08c379a000000000000000000000000000000000000000000000000000000000815260040161265a906147cb565b60405180910390fd5b600073ffffffffffffffffffffffffffffffffffffffff168273ffffffffffffffffffffffffffffffffffffffff1614156126d3576040517f08c379a00000000000000000000000000000000000000000000000000000000081526004016126ca9061466b565b60405180910390fd5b6126de838383612cd6565b6126e96000826123c7565b6001600360008573ffffffffffffffffffffffffffffffffffffffff1673ffffffffffffffffffffffffffffffffffffffff16815260200190815260200160002060008282546127399190614aa6565b925050819055506001600360008473ffffffffffffffffffffffffffffffffffffffff1673ffffffffffffffffffffffffffffffffffffffff16815260200190815260200160002060008282546127909190614a1f565b92505081905550816002600083815260200190815260200160002060006101000a81548173ffffffffffffffffffffffffffffffffffffffff021916908373ffffffffffffffffffffffffffffffffffffffff160217905550808273ffffffffffffffffffffffffffffffffffffffff168473ffffffffffffffffffffffffffffffffffffffff167fddf252ad1be2c89b69c2b068fc378daa952ba7f163c4a11628f55a4df523b3ef60405160405180910390a4505050565b6000600a60009054906101000a900473ffffffffffffffffffffffffffffffffffffffff16905081600a60006101000a81548173ffffffffffffffffffffffffffffffffffffffff021916908373ffffffffffffffffffffffffffffffffffffffff1602179055508173ffffffffffffffffffffffffffffffffffffffff168173ffffffffffffffffffffffffffffffffffffffff167f8be0079c531659141344cd1fd0a4f28419497f9722a3daafe3b4186f6b6457e060405160405180910390a35050565b61291a8484846125ed565b61292684848484612ce6565b612965576040517f08c379a000000000000000000000000000000000000000000000000000000000815260040161295c906145eb565b60405180910390fd5b50505050565b600081836129799190614aa6565b905092915050565b6000818361298f9190614c0b565b905092915050565b6060600f80546129a690614b90565b80601f01602080910402602001604051908101604052809291908181526020018280546129d290614b90565b8015612a1f5780601f106129f457610100808354040283529160200191612a1f565b820191906000526020600020905b815481529060010190602001808311612a0257829003601f168201915b5050505050905090565b60606000821415612a71576040518060400160405280600181526020017f30000000000000000000000000000000000000000000000000000000000000008152509050612bd1565b600082905060005b60008214612aa3578080612a8c90614bc2565b915050600a82612a9c9190614a75565b9150612a79565b60008167ffffffffffffffff811115612ae5577f4e487b7100000000000000000000000000000000000000000000000000000000600052604160045260246000fd5b6040519080825280601f01601f191660200182016040528015612b175781602001600182028036833780820191505090505b5090505b60008514612bca57600182612b309190614aa6565b9150600a85612b3f9190614c0b565b6030612b4b9190614a1f565b60f81b818381518110612b87577f4e487b7100000000000000000000000000000000000000000000000000000000600052603260045260246000fd5b60200101907effffffffffffffffffffffffffffffffffffffffffffffffffffffffffffff1916908160001a905350600a85612bc39190614a75565b9450612b1b565b8093505050505b919050565b60007f80ac58cd000000000000000000000000000000000000000000000000000000007bffffffffffffffffffffffffffffffffffffffffffffffffffffffff1916827bffffffffffffffffffffffffffffffffffffffffffffffffffffffff19161480612ca157507f5b5e139f000000000000000000000000000000000000000000000000000000007bffffffffffffffffffffffffffffffffffffffffffffffffffffffff1916827bffffffffffffffffffffffffffffffffffffffffffffffffffffffff1916145b80612cb15750612cb082612e7d565b5b9050919050565b612cd2828260405180602001604052806000815250612ee7565b5050565b612ce1838383612f42565b505050565b6000612d078473ffffffffffffffffffffffffffffffffffffffff16613056565b15612e70578373ffffffffffffffffffffffffffffffffffffffff1663150b7a02612d306122d9565b8786866040518563ffffffff1660e01b8152600401612d529493929190614520565b602060405180830381600087803b158015612d6c57600080fd5b505af1925050508015612d9d57506040513d601f19601f82011682018060405250810190612d9a9190613a37565b60015b612e20573d8060008114612dcd576040519150601f19603f3d011682016040523d82523d6000602084013e612dd2565b606091505b50600081511415612e18576040517f08c379a0000000000000000000000000000000000000000000000000000000008152600401612e0f906145eb565b60405180910390fd5b805181602001fd5b63150b7a0260e01b7bffffffffffffffffffffffffffffffffffffffffffffffffffffffff1916817bffffffffffffffffffffffffffffffffffffffffffffffffffffffff191614915050612e75565b600190505b949350505050565b60007f01ffc9a7000000000000000000000000000000000000000000000000000000007bffffffffffffffffffffffffffffffffffffffffffffffffffffffff1916827bffffffffffffffffffffffffffffffffffffffffffffffffffffffff1916149050919050565b612ef18383613069565b612efe6000848484612ce6565b612f3d576040517f08c379a0000000000000000000000000000000000000000000000000000000008152600401612f34906145eb565b60405180910390fd5b505050565b612f4d838383613237565b600073ffffffffffffffffffffffffffffffffffffffff168373ffffffffffffffffffffffffffffffffffffffff161415612f9057612f8b8161323c565b612fcf565b8173ffffffffffffffffffffffffffffffffffffffff168373ffffffffffffffffffffffffffffffffffffffff1614612fce57612fcd8382613285565b5b5b600073ffffffffffffffffffffffffffffffffffffffff168273ffffffffffffffffffffffffffffffffffffffff1614156130125761300d816133f2565b613051565b8273ffffffffffffffffffffffffffffffffffffffff168273ffffffffffffffffffffffffffffffffffffffff16146130505761304f8282613535565b5b5b505050565b600080823b905060008111915050919050565b600073ffffffffffffffffffffffffffffffffffffffff168273ffffffffffffffffffffffffffffffffffffffff1614156130d9576040517f08c379a00000000000000000000000000000000000000000000000000000000081526004016130d09061476b565b60405180910390fd5b6130e28161235b565b15613122576040517f08c379a00000000000000000000000000000000000000000000000000000000081526004016131199061462b565b60405180910390fd5b61312e60008383612cd6565b6001600360008473ffffffffffffffffffffffffffffffffffffffff1673ffffffffffffffffffffffffffffffffffffffff168152602001908152602001600020600082825461317e9190614a1f565b92505081905550816002600083815260200190815260200160002060006101000a81548173ffffffffffffffffffffffffffffffffffffffff021916908373ffffffffffffffffffffffffffffffffffffffff160217905550808273ffffffffffffffffffffffffffffffffffffffff16600073ffffffffffffffffffffffffffffffffffffffff167fddf252ad1be2c89b69c2b068fc378daa952ba7f163c4a11628f55a4df523b3ef60405160405180910390a45050565b505050565b6008805490506009600083815260200190815260200160002081905550600881908060018154018082558091505060019003906000526020600020016000909190919091505550565b6000600161329284611675565b61329c9190614aa6565b9050600060076000848152602001908152602001600020549050818114613381576000600660008673ffffffffffffffffffffffffffffffffffffffff1673ffffffffffffffffffffffffffffffffffffffff168152602001908152602001600020600084815260200190815260200160002054905080600660008773ffffffffffffffffffffffffffffffffffffffff1673ffffffffffffffffffffffffffffffffffffffff168152602001908152602001600020600084815260200190815260200160002081905550816007600083815260200190815260200160002081905550505b6007600084815260200190815260200160002060009055600660008573ffffffffffffffffffffffffffffffffffffffff1673ffffffffffffffffffffffffffffffffffffffff16815260200190815260200160002060008381526020019081526020016000206000905550505050565b600060016008805490506134069190614aa6565b905060006009600084815260200190815260200160002054905060006008838154811061345c577f4e487b7100000000000000000000000000000000000000000000000000000000600052603260045260246000fd5b9060005260206000200154905080600883815481106134a4577f4e487b7100000000000000000000000000000000000000000000000000000000600052603260045260246000fd5b906000526020600020018190555081600960008381526020019081526020016000208190555060096000858152602001908152602001600020600090556008805480613519577f4e487b7100000000000000000000000000000000000000000000000000000000600052603160045260246000fd5b6001900381819060005260206000200160009055905550505050565b600061354083611675565b905081600660008573ffffffffffffffffffffffffffffffffffffffff1673ffffffffffffffffffffffffffffffffffffffff168152602001908152602001600020600083815260200190815260200160002081905550806007600084815260200190815260200160002081905550505050565b8280546135c090614b90565b90600052602060002090601f0160209004810192826135e25760008555613629565b82601f106135fb57805160ff1916838001178555613629565b82800160010185558215613629579182015b8281111561362857825182559160200191906001019061360d565b5b509050613636919061363a565b5090565b5b8082111561365357600081600090555060010161363b565b5090565b600061366a61366584614917565b6148e6565b9050808382526020820190508285602086028201111561368957600080fd5b60005b858110156136b9578161369f888261373f565b84526020840193506020830192505060018101905061368c565b5050509392505050565b60006136d66136d184614943565b6148e6565b9050828152602081018484840111156136ee57600080fd5b6136f9848285614b4e565b509392505050565b600061371461370f84614973565b6148e6565b90508281526020810184848401111561372c57600080fd5b613737848285614b4e565b509392505050565b60008135905061374e81614d09565b92915050565b600082601f83011261376557600080fd5b8135613775848260208601613657565b91505092915050565b60008135905061378d81614d20565b92915050565b6000813590506137a281614d37565b92915050565b6000815190506137b781614d37565b92915050565b600082601f8301126137ce57600080fd5b81356137de8482602086016136c3565b91505092915050565b600082601f8301126137f857600080fd5b8135613808848260208601613701565b91505092915050565b60008135905061382081614d4e565b92915050565b60006020828403121561383857600080fd5b60006138468482850161373f565b91505092915050565b6000806040838503121561386257600080fd5b60006138708582860161373f565b92505060206138818582860161373f565b9150509250929050565b6000806000606084860312156138a057600080fd5b60006138ae8682870161373f565b93505060206138bf8682870161373f565b92505060406138d086828701613811565b9150509250925092565b600080600080608085870312156138f057600080fd5b60006138fe8782880161373f565b945050602061390f8782880161373f565b935050604061392087828801613811565b925050606085013567ffffffffffffffff81111561393d57600080fd5b613949878288016137bd565b91505092959194509250565b6000806040838503121561396857600080fd5b60006139768582860161373f565b92505060206139878582860161377e565b9150509250929050565b600080604083850312156139a457600080fd5b60006139b28582860161373f565b92505060206139c385828601613811565b9150509250929050565b6000602082840312156139df57600080fd5b600082013567ffffffffffffffff8111156139f957600080fd5b613a0584828501613754565b91505092915050565b600060208284031215613a2057600080fd5b6000613a2e84828501613793565b91505092915050565b600060208284031215613a4957600080fd5b6000613a57848285016137a8565b91505092915050565b600060208284031215613a7257600080fd5b600082013567ffffffffffffffff811115613a8c57600080fd5b613a98848285016137e7565b91505092915050565b600060208284031215613ab357600080fd5b6000613ac184828501613811565b91505092915050565b60008060408385031215613add57600080fd5b6000613aeb85828601613811565b9250506020613afc8582860161373f565b9150509250929050565b6000613b1283836144c3565b60208301905092915050565b613b2781614ada565b82525050565b6000613b38826149b3565b613b4281856149e1565b9350613b4d836149a3565b8060005b83811015613b7e578151613b658882613b06565b9750613b70836149d4565b925050600181019050613b51565b5085935050505092915050565b613b9481614aec565b82525050565b6000613ba5826149be565b613baf81856149f2565b9350613bbf818560208601614b5d565b613bc881614cf8565b840191505092915050565b6000613bde826149c9565b613be88185614a03565b9350613bf8818560208601614b5d565b613c0181614cf8565b840191505092915050565b6000613c17826149c9565b613c218185614a14565b9350613c31818560208601614b5d565b80840191505092915050565b6000613c4a602b83614a03565b91507f455243373231456e756d657261626c653a206f776e657220696e646578206f7560008301527f74206f6620626f756e64730000000000000000000000000000000000000000006020830152604082019050919050565b6000613cb0603283614a03565b91507f4552433732313a207472616e7366657220746f206e6f6e20455243373231526560008301527f63656976657220696d706c656d656e74657200000000000000000000000000006020830152604082019050919050565b6000613d16602683614a03565b91507f4f776e61626c653a206e6577206f776e657220697320746865207a65726f206160008301527f64647265737300000000000000000000000000000000000000000000000000006020830152604082019050919050565b6000613d7c601c83614a03565b91507f4552433732313a20746f6b656e20616c7265616479206d696e746564000000006000830152602082019050919050565b6000613dbc601c83614a03565b91507f53616c6520776f756c6420657863656564206d617820737570706c79000000006000830152602082019050919050565b6000613dfc602483614a03565b91507f4552433732313a207472616e7366657220746f20746865207a65726f2061646460008301527f72657373000000000000000000000000000000000000000000000000000000006020830152604082019050919050565b6000613e62601983614a03565b91507f4552433732313a20617070726f766520746f2063616c6c6572000000000000006000830152602082019050919050565b6000613ea2602c83614a03565b91507f4552433732313a206f70657261746f7220717565727920666f72206e6f6e657860008301527f697374656e7420746f6b656e00000000000000000000000000000000000000006020830152604082019050919050565b6000613f08602683614a03565b91507f53616c65206d7573742062652061637469766520746f206d696e74204469614460008301527f7261676f6e7300000000000000000000000000000000000000000000000000006020830152604082019050919050565b6000613f6e601d83614a03565b91507f5374617274696e6720696e64657820697320616c7265616479207365740000006000830152602082019050919050565b6000613fae603883614a03565b91507f4552433732313a20617070726f76652063616c6c6572206973206e6f74206f7760008301527f6e6572206e6f7220617070726f76656420666f7220616c6c00000000000000006020830152604082019050919050565b6000614014602a83614a03565b91507f4552433732313a2062616c616e636520717565727920666f7220746865207a6560008301527f726f2061646472657373000000000000000000000000000000000000000000006020830152604082019050919050565b600061407a602983614a03565b91507f4552433732313a206f776e657220717565727920666f72206e6f6e657869737460008301527f656e7420746f6b656e00000000000000000000000000000000000000000000006020830152604082019050919050565b60006140e0602083614a03565b91507f4552433732313a206d696e7420746f20746865207a65726f20616464726573736000830152602082019050919050565b6000614120602c83614a03565b91507f4552433732313a20617070726f76656420717565727920666f72206e6f6e657860008301527f697374656e7420746f6b656e00000000000000000000000000000000000000006020830152604082019050919050565b6000614186602083614a03565b91507f4f776e61626c653a2063616c6c6572206973206e6f7420746865206f776e65726000830152602082019050919050565b60006141c6602983614a03565b91507f4552433732313a207472616e73666572206f6620746f6b656e2074686174206960008301527f73206e6f74206f776e00000000000000000000000000000000000000000000006020830152604082019050919050565b600061422c602f83614a03565b91507f4552433732314d657461646174613a2055524920717565727920666f72206e6f60008301527f6e6578697374656e7420746f6b656e00000000000000000000000000000000006020830152604082019050919050565b6000614292602183614a03565b91507f4552433732313a20617070726f76616c20746f2063757272656e74206f776e6560008301527f72000000000000000000000000000000000000000000000000000000000000006020830152604082019050919050565b60006142f8602083614a03565b91507f5374617274696e6720696e64657820626c6f636b206d757374206265207365746000830152602082019050919050565b6000614338603183614a03565b91507f4552433732313a207472616e736665722063616c6c6572206973206e6f74206f60008301527f776e6572206e6f7220617070726f7665640000000000000000000000000000006020830152604082019050919050565b600061439e602c83614a03565b91507f455243373231456e756d657261626c653a20676c6f62616c20696e646578206f60008301527f7574206f6620626f756e647300000000000000000000000000000000000000006020830152604082019050919050565b6000614404602183614a03565b91507f4e6f7420656e6f7567682065746865722073656e7420283c302e30372045544860008301527f29000000000000000000000000000000000000000000000000000000000000006020830152604082019050919050565b600061446a602383614a03565b91507f5374617274696e6720696e6465782068617320616c7265616479206265656e2060008301527f73657400000000000000000000000000000000000000000000000000000000006020830152604082019050919050565b6144cc81614b44565b82525050565b6144db81614b44565b82525050565b60006144ed8285613c0c565b91506144f98284613c0c565b91508190509392505050565b600060208201905061451a6000830184613b1e565b92915050565b60006080820190506145356000830187613b1e565b6145426020830186613b1e565b61454f60408301856144d2565b81810360608301526145618184613b9a565b905095945050505050565b600060208201905081810360008301526145868184613b2d565b905092915050565b60006020820190506145a36000830184613b8b565b92915050565b600060208201905081810360008301526145c38184613bd3565b905092915050565b600060208201905081810360008301526145e481613c3d565b9050919050565b6000602082019050818103600083015261460481613ca3565b9050919050565b6000602082019050818103600083015261462481613d09565b9050919050565b6000602082019050818103600083015261464481613d6f565b9050919050565b6000602082019050818103600083015261466481613daf565b9050919050565b6000602082019050818103600083015261468481613def565b9050919050565b600060208201905081810360008301526146a481613e55565b9050919050565b600060208201905081810360008301526146c481613e95565b9050919050565b600060208201905081810360008301526146e481613efb565b9050919050565b6000602082019050818103600083015261470481613f61565b9050919050565b6000602082019050818103600083015261472481613fa1565b9050919050565b6000602082019050818103600083015261474481614007565b9050919050565b600060208201905081810360008301526147648161406d565b9050919050565b60006020820190508181036000830152614784816140d3565b9050919050565b600060208201905081810360008301526147a481614113565b9050919050565b600060208201905081810360008301526147c481614179565b9050919050565b600060208201905081810360008301526147e4816141b9565b9050919050565b600060208201905081810360008301526148048161421f565b9050919050565b6000602082019050818103600083015261482481614285565b9050919050565b60006020820190508181036000830152614844816142eb565b9050919050565b600060208201905081810360008301526148648161432b565b9050919050565b6000602082019050818103600083015261488481614391565b9050919050565b600060208201905081810360008301526148a4816143f7565b9050919050565b600060208201905081810360008301526148c48161445d565b9050919050565b60006020820190506148e060008301846144d2565b92915050565b6000604051905081810181811067ffffffffffffffff8211171561490d5761490c614cc9565b5b8060405250919050565b600067ffffffffffffffff82111561493257614931614cc9565b5b602082029050602081019050919050565b600067ffffffffffffffff82111561495e5761495d614cc9565b5b601f19601f8301169050602081019050919050565b600067ffffffffffffffff82111561498e5761498d614cc9565b5b601f19601f8301169050602081019050919050565b6000819050602082019050919050565b600081519050919050565b600081519050919050565b600081519050919050565b6000602082019050919050565b600082825260208201905092915050565b600082825260208201905092915050565b600082825260208201905092915050565b600081905092915050565b6000614a2a82614b44565b9150614a3583614b44565b9250827fffffffffffffffffffffffffffffffffffffffffffffffffffffffffffffffff03821115614a6a57614a69614c3c565b5b828201905092915050565b6000614a8082614b44565b9150614a8b83614b44565b925082614a9b57614a9a614c6b565b5b828204905092915050565b6000614ab182614b44565b9150614abc83614b44565b925082821015614acf57614ace614c3c565b5b828203905092915050565b6000614ae582614b24565b9050919050565b60008115159050919050565b60007fffffffff0000000000000000000000000000000000000000000000000000000082169050919050565b600073ffffffffffffffffffffffffffffffffffffffff82169050919050565b6000819050919050565b82818337600083830152505050565b60005b83811015614b7b578082015181840152602081019050614b60565b83811115614b8a576000848401525b50505050565b60006002820490506001821680614ba857607f821691505b60208210811415614bbc57614bbb614c9a565b5b50919050565b6000614bcd82614b44565b91507fffffffffffffffffffffffffffffffffffffffffffffffffffffffffffffffff821415614c0057614bff614c3c565b5b600182019050919050565b6000614c1682614b44565b9150614c2183614b44565b925082614c3157614c30614c6b565b5b828206905092915050565b7f4e487b7100000000000000000000000000000000000000000000000000000000600052601160045260246000fd5b7f4e487b7100000000000000000000000000000000000000000000000000000000600052601260045260246000fd5b7f4e487b7100000000000000000000000000000000000000000000000000000000600052602260045260246000fd5b7f4e487b7100000000000000000000000000000000000000000000000000000000600052604160045260246000fd5b6000601f19601f8301169050919050565b614d1281614ada565b8114614d1d57600080fd5b50565b614d2981614aec565b8114614d3457600080fd5b50565b614d4081614af8565b8114614d4b57600080fd5b50565b614d5781614b44565b8114614d6257600080fd5b5056fea264697066735822122011a8fb5c8a3d9086cb368cff5269ae9703a749ab029ed681ac4c7f0b4dab215764736f6c63430008000033",
  "linkReferences": {},
  "deployedLinkReferences": {}
}